:020000040000FA
:10000000802E00026902000071020000612D0000D4
:1000100000000000000000000000000000000000E0
:100020000000000000000000000000006903000064
:100030000000000000000000E10300001D040000BB
:100040007D0200007D0200007D0200007D020000B4
:100050007D0200007D0200007D0200007D020000A4
:100060007D0200007D0200007D0200007D02000094
:100070007D0200007D0200007D0200007D02000084
:100080007D0200007D0200007D0200007D02000074
:100090007D020000752F00007D0200007D0200003F
:1000A0007D0200007D0200007D0200007D02000054
:1000B0007D0200007D0200007D0200007D02000044
:1000C0007D0200007D0200007D0200007D02000034
:1000D0007D0200007D0200007D0200007D02000024
:1000E0007D0200007D0200007D0200007D02000014
:1000F0007D0200007D0200007D02000000F002F899
:1001000000F090F80AA090E8000C82448344AAF121
:100110000107DA4501D100F085F8AFF2090EBAE81F
:100120000F0013F0010F18BFFB1A43F0010318472B
:100130002494000044940000103A24BF78C878C189
:10014000FAD8520724BF30C830C144BF04680C60DD
:10015000704700000023002400250026103A28BF25
:1001600078C1FBD8520728BF30C148BF0B60704729
:100170006E2900F09C84702900F0E785662906F05E
:100180000984652906F00684672906F0038461293D
:1001900006F0028403681B0A28BF41F08001692928
:1001A00000F00282642900F0FF81752900F0FC81D3
:1001B0006F2900F07585782900F0B385E92900F0F2
:1001C0000F85E42900F00C85F52900F00985EF2959
:1001D00000F07285F82900F0B2850368DB0928BFBA
:1001E00041F08001632901F00782732901F00C823C
:1001F000E32901F01782F32901F01C8200207047E7
:100200001FB501F0B6FA04000020002106F096FBAD
:10021000401C60600020002106F0A6FBE0601FBDCE
:1002200010B510BD01F080FA1146FFF7E9FF0FB4D9
:1002300000F00CF80FBC04F0A1F900F0B5FA03B41B
:10024000FFF7EEFF03BC01F069FA000004B004F010
:1002500033FB0448002104F0B3FB04F03FFB00F043
:10026000A3FA000030000002084880470848004711
:10027000FEE7FEE7FEE7FEE7FEE7FEE7FEE700003B
:1002800004480549054A064B704700006D2F0000E1
:10029000FD000000802B0002802E0002802C000256
:1002A000802C0002004870471C2B00027CB51D46C4
:1002B00016460C00009001D02044401E074B7B44A2
:1002C0002A4669460190304600F00BFC05461CB1F9
:1002D0000020694600F018FC28467CBD510800004B
:1002E00070B5064600F04DFB0468054630460A220C
:1002F000002100F035FD2C6070BD7047FFFFFFFF4F
:1003000080F309887047EFF309807047684680F3EF
:10031000098804480078C00714BF0220032080F336
:1003200014887047206A0000DFF818C0EFF30583D7
:100330001B0618BF6047EFF31483DB0708BF604755
:1003400000DF7047F94C0000DFF818C0EFF30583B9
:100350001B0618BF6047EFF31483DB0708BF604735
:1003600000DF7047DD4E0000EFF30980816911F86E
:10037000021CF1B990E80F10E047EFF3098C8CE80C
:100380000700144B93E8060091420FD039B12CE9D5
:10039000F00FC1F828C00CB405F070F90CBC1A605D
:1003A000D2F828C0BCE8F00F8CF309886FF0020E79
:1003B000704710B5084A1268914209D8074C54F8A2
:1003C000214090E80F10A047EFF3098C8CE80F0054
:1003D00010BD000004010002EC200000EC20000031
:1003E00004F0E2FF0C4B93E80600914210D0EFF3CB
:1003F000098C2CE9F00FC1F828C00CB405F03EF9C7
:100400000CBC1A60D2F828C0BCE8F00F8CF3098845
:100410006FF0020E704700000401000205F0F6F9CB
:10042000E0E7000004F0A6FB05F0F0F9DAE70000D1
:1004300053EA020C00F069802DE9F04B4FF0000602
:10044000002B1FBFB3FA83F503FA05F424FA05F66F
:100450005E4012BF1643B2FA82F502FA05F4C5F106
:1004600020051EBF22FA05FC44EA0C04203556EA9A
:10047000044C4FEA144418BF641C4FF000084FF0BE
:100480000009904271EB030C39D3002919BFB1FA6E
:1004900081F701FA07F6B0FA80F700FA07F6C7F11C
:1004A00020071EBF20FA07FC46EA0C062037B6FBE1
:1004B000F4FCA7EB0507103F07F01F0BCBF120065C
:1004C0000CFA0BFB2CFA06F644BFB3460026202F8D
:1004D000A4BF5E464FF0000B5BEA060C08BF4FF06E
:1004E000010B19EB0B09ABFB027C48EB0608C01BA8
:1004F00006FB02CC0BFB03CC71EB0C01C1E70B46F6
:10050000024641464846BDE8F08B13B54FF0000067
:100510004FF00001AFF30080BDE81C4070470000C1
:100520000FB47CB50C0009AA009001D02044401EF5
:10053000084B7B4469460190089800F0D2FA0546C2
:100540001CB10020694600F0DFFA28467CBC5DF84B
:1005500014FB0000DD05000070B5044685690068E5
:10056000C10601D5302600E02026C00707D070BDA7
:10057000D4E9012130469047206A401C20626D1E5C
:10058000F6D570BD70B5044685690078C00707D1FF
:1005900070BDD4E9012120209047206A401C2062D0
:1005A0006D1EF6D570BD00002DE9F0410646002411
:1005B00010687529314616A510D000F0E4F900281E
:1005C00002DA404213A507E031688A0701D512A577
:1005D00002E0490704D511A5012401E000F0DCF98F
:1005E00000210A2206F1240709E0B0FBF2FCB0FB6F
:1005F000F2F302FB1C00303078541846491C0028E6
:10060000F3D123462A463046BDE8F04100F0F6B962
:10061000000000002D0000002B0000002000000062
:100620002DE9F05F894604464FF0000ADFF874B107
:10063000FB44C0F820A02046E1688847002874D019
:10064000252806D0D4E901219047206A401C206269
:10065000F1E700265F462046E168884720280546E6
:1006600007DB312D05D2781910F8200C08B10643AC
:10067000F1E7B00701D526F00406C4F81CA0002756
:10068000C4F818A02A2D09D0284602F0CEFC38B3B1
:1006900004EB8708303DC8F8185019E059F8041BDE
:1006A000204604EB87029161E1688847012F0546E7
:1006B00018D1E069002820DA26F020061DE0D8F8DD
:1006C000180000EB800005EB40003038C8F8180037
:1006D0002046E1688847054602F0A7FC0028EED1D5
:1006E000012F0AD02E2D08D12046E16888477F1CB3
:1006F0000546022F46F02006C4DBA069002803DA75
:10070000404246F00106A061F00701D026F0100635
:100710006C2D0BD0682D09D04C2D39D06A2D35D0D9
:10072000742D35D07A2D33D016E038E0E1682F46AD
:1007300020468847B842054609D16C2F26D04FF491
:100740008060E168064320468847054604E06C2F38
:100750001AD04FF4807006430DB3A5F1410019285B
:1007600002D8203546F400664A46294620462660CF
:100770004E46FFF7FDFC80B101280BD0F61D26F098
:10078000070000F1080956E74020E4E78020D8E799
:100790000020D6E706F104094DE7284652E7206A13
:1007A000BDE8F09FB88C000010B50446AFF30080A0
:1007B0002046BDE81040FFF742BD40EA010310B5F6
:1007C0009B070FD1042A0DD310C808C9121F9C42E1
:1007D000F8D020BA19BA884201D9012010BD4FF0D3
:1007E000FF3010BD1AB1D30703D0521C07E0002020
:1007F00010BD10F8013B11F8014B1B1B07D110F87D
:10080000013B11F8014B1B1B01D1921EF1D118467F
:1008100010BD10B5431C02E010F8011B71B1810737
:10082000FAD14FF0013202C88C1A8C4314EAC2117B
:10083000F9D0C01A0A0603D0C01E10BDC01A10BDE0
:100840000A0401D0801E10BD0902FCD0401E10BD5C
:10085000032A40F2308010F0030C00F0158011F8EC
:10086000013BBCF1020F624498BF11F801CB00F8C4
:10087000013B38BF11F8013BA2F1040298BF00F818
:1008800001CB38BF00F8013B11F0030300F0A08258
:10089000083AC0F0088051F8043B083A51F804CBFC
:1008A000A0E80810F5E7121D5CBF51F8043B40F8C2
:1008B000043BAFF30080D20724BF11F8013B11F8CD
:1008C00001CB48BF11F8012B24BF00F8013B00F811
:1008D00001CB48BF00F8012B704702F0FF0343EA49
:1008E000032242EA024200F002B84FF0000204295B
:1008F000C0F0128010F0030C00F01B80CCF1040C4F
:10090000BCF1020F18BF00F8012BA8BF20F8022B82
:10091000A1EB0C0100F00DB85FEAC17C24BF00F828
:10092000012B00F8012B48BF00F8012B70474FF056
:10093000000200B5134694469646203922BFA0E82F
:100940000C50A0E80C50B1F12001BFF4F7AF09073B
:1009500028BFA0E80C5048BF0CC05DF804EB89002C
:1009600028BF40F8042B08BF704748BF20F8022B6F
:1009700011F0804F18BF00F8012B70477047704787
:10098000704702F019BB09684A0501D540B27047AB
:10099000C905FCD500B2704709684A0501D5C0B247
:1009A0007047C905FCD580B2704770B50C46054646
:1009B000012A05D02878800600D5EA69002302E0E4
:1009C000012305E05B1C934202D2E05C0028F9D1D0
:1009D000A869E618C01AA861286A1844286228463F
:1009E000FFF7BAFD04E0D5E9012114F8010B9047A7
:1009F000B442F8D32846FFF7C5FD70BD2DE9F04796
:100A00000D4699469246044600F12408016888067E
:100A100004D5E06921F01001216000E00120A84226
:100A200001DD471B00E00027A1697A1902EB0900EC
:100A3000081AA0612078C00602D42046FFF78CFD7A
:100A4000002608E0D4E901211AF806009047206A40
:100A5000401C761C20624E45F4DB2078C0060AD587
:100A60002046FFF779FD06E0D4E9012130209047C8
:100A7000206A401C2062381EA7F10107F4DC07E061
:100A8000D4E9012118F805009047206A401C206233
:100A9000281EA5F10105F3DC2046FFF773FD207841
:100AA000000602D50220BDE8F0870120FBE71168AF
:100AB0000268006A530501D508700AE0D30501D524
:100AC000088006E0130603D5C217C1E9000200E062
:100AD000086001207047000001694A1C0261087823
:100AE000704700B58FB0CDE901310021059105496E
:100AF0007944CDE9031011466846FFF791FD0FB028
:100B000000BD0000E5FFFFFF0A6802F8010B0A6064
:100B10007047D1E900239A4202D2531C0B60107037
:100B2000704700002DE9FF5F15468A460446DFF84E
:100B3000AC80F8440027D8E900103E46CDE900100B
:100B400010E03AF816106A4602A800F0C6FD411CF3
:100B500007D02178890603D5E269391891420DD86A
:100B60000744761C2078800602D5E069B84205DD8E
:100B7000AE42E6DB3AF816000028E2D1A069C01BBD
:100B8000A0612046FFF7E8FCD8E90010CDE900108D
:100B9000002017E03AF818106A4602A800F09DFD00
:100BA000B0F1FF3F81460BD000250DF1080B05E0A9
:100BB000D4E901211BF8050090476D1C4D45F7D382
:100BC00008F10100B0428046E4DB206A384420622C
:100BD0002046FFF7D7FCBDE8FF9F0000CA87000052
:100BE0002DE9F0418046D21D22F007020025D2E90E
:100BF0000002F52915A614D0011E72F1000106DAD3
:100C00000023D0EB030063EB020211A608E0D8F842
:100C100000108B0701D50FA602E0490701D50EA6EB
:100C200001251146002408F1240704E000F00AF928
:100C300030323A55641C50EA0102F7D12B46324655
:100C400021464046BDE8F041FFF7D8BE0000000055
:100C50002D0000002B0000002000000030B4002117
:100C600000F1240408E002F00705D208303542EA1A
:100C70004372DB086554491C52EA0305F3D104684A
:100C8000002310A2250708D504F020040C4304D04B
:100C9000C46901230CA2641EC46130BCFFF7AEBE60
:100CA00010B5044621461068FFF776FE024620463E
:100CB000BDE810400023D1E7D21D22F00701D1E9A1
:100CC0000023CBE70000000030000000F0B40D4628
:100CD0000188090502D5214C7C4402E01F4C7C446C
:100CE0000E34002100F1240608E002F00F0712097B
:100CF000E75D42EA03721B097754491C52EA030775
:100D0000F3D102780023120704D5702D06D009B163
:100D1000022311342246F0BCFFF770BE01231034C9
:100D2000F8E770B504460D4621461068FFF734FE1B
:100D3000024629462046BDE870400023C6E7D21D82
:100D400022F00703D3E90023C0E70368126843F0E9
:100D5000200303600823C3610023B7E72C8600004B
:100D60002DE9F04791460F4680460446002614F8C8
:100D7000015B2DB100F05EF80068405DC007F6D160
:100D80002B2D02D02D2D18D0641E4A463946204600
:100D900000F054FC27B13968A14201D1C7F80080A6
:100DA0004FF0020471050BD54042002803DDFFF728
:100DB000E8FD0460A007BDE8F08746F48066E4E73C
:100DC0000028F8DAFFF7DDFD04606FF00040F2E77D
:100DD00010B5203AC0F00B80B1E81850203AA0E8D6
:100DE0001850B1E81850A0E81850BFF4F5AF5FEA0A
:100DF000027C24BFB1E81850A0E8185044BF18C9BD
:100E000018C0BDE810405FEA827C24BF51F8043B63
:100E100040F8043B08BF7047D20728BF31F8023BB7
:100E200048BF11F8012B28BF20F8023B48BF00F84B
:100E3000012B704710B500F09CFC001D10BD00BFD9
:100E4000FD5A000030B5B0F10A024FEA900E71F180
:100E500000034EEA817EB0EB0E0061EB91014FEA98
:100E6000101E4EEA017E10EB0E0041EB11114FEA0D
:100E7000102E4EEA016E10EB0E0041EB11214FEAED
:100E8000104E4EEA014E10EB0E0041EB114140189E
:100E900041F100014FEAD00040EA41704FEAD10130
:100EA00010EB80054FEA810444EA907444EB01049E
:100EB0006D1944EB0404521BA3414FF0000348BFDB
:100EC0000A3200D530BD401C41F1000130BD7047F1
:100ED0002DE9FF4F0C461E464FF0FF378BB0D2E98D
:100EE0000001DDF860800A908A46C1F30A5505B911
:100EF0003D46002108464FF00000BAF1000F00F413
:100F0000400005DA00EB80004FF4400101EA500098
:100F10004FEA9059B9F1010F00DDB9460A9850EA3D
:100F20004A000ED044F61050A5F2FF3545432F1469
:100F3000B8F1000F1ED07542291E1EDDC9F1000256
:100F40001CE0B8F1010F4FF0000001D0302103E0A8
:100F5000F24305E02154401CB042FBDB3046002246
:100F6000002121540B99C1F80880C1E900200FB07D
:100F7000BDE8F08FBD1B6D1CDEE74A4600DA694212
:100F800006A800F049FC06AB93E8070003AB83E832
:100F9000070050460A9900F0EDFC8DE80700A0F527
:100FA00000501F3800900398002D09DD42F21F0108
:100FB0004A46084403A90390684600F04CFF08E045
:100FC000A0F500504A461F3803A90390684600F078
:100FD00056FF8DE807000004000C03D04FF0FF30EF
:100FE000410800E01046B8F1000F03D00022009243
:100FF00015461EE0751E05D4FFF724FF30326255FA
:101000006D1EF9D5B3460122084302D000227F1C91
:1010100004E02078302801D100227F1E002A0997A1
:1010200086D01DE0112D07DAFFF70CFF3032625534
:101030006D1C50EA0102F5D1084302D00098C8B1F6
:101040000EE00021681E05E0235C625C63542254BC
:10105000401E491C8142F7DBAB46A81B401E09908D
:10106000002004F80B000B98099AC0F80880C0E92A
:10107000002B7CE711264FF0000859E72DE9F04FCF
:1010800088460446D21D22F0070191B0D1E9000143
:10109000CDE90A0101F07CFF02460B98C00F01D098
:1010A0002D2007E02068810701D52B2002E02021B8
:1010B00001EAC000032A099001D0072A05DB034694
:1010C0004146204600F05AFB0BE12078800601D50E
:1010D000E06900E00620B8F1650F814606D0B8F15E
:1010E000660F18D0B8F1670F70D131E00020B9F168
:1010F000110F009001DB112301E009F101030AAA9D
:1011000001A90CA8FFF7E4FEDDE90C70002609F147
:101110000105834647E001204B4600904FF0004711
:101120000AAA01A90CA8FFF7D3FEDDE90DB00C99BE
:101130005D46002610B909F101000D18B9EB050054
:1011400003D4C0F1FF3609F10105A5EB09002BE03E
:10115000B9F1010F01DA4FF001090020B9F1110FC7
:101160000090484601DD112300E003460AAA01A9C8
:101170000CA8FFF7ADFEDDE90C704D460026834656
:10118000207800070AD4AB4500DA5D4601A8012D9E
:1011900004DD411911F8011C302907D04F4502DA4E
:1011A00017F1040F04DA012082460FE06D1EEEE70E
:1011B000002F02DCED1B3E4403E0781CA84200DD5A
:1011C0007D1CB81B00F1010A4FF000472078000792
:1011D00003D4AA4501DB4FF0FF3A0021B7F1004FDD
:1011E0000DF143088DF8431024D002202B23002F4B
:1011F00001DA7F422D230A21021EA0F1010000DC4A
:101200005FB197FBF1FC97FBF1F201FB1C7C1746E9
:101210000CF1300C08F801CDEEE7A8F101000370E5
:101220002188090501D5452100E06521A0F10108CB
:1012300000F8011C09980FA9A1EB0807FF1D00B1D8
:101240000120411901EBEA70A1693844081A401ED7
:10125000A0612078C00602D42046FFF77DF90998E6
:1012600028B1D4E901219047206A401C20622078EF
:10127000C00622D52046FFF76FF91EE0002E04DBE2
:10128000B34502DD01A8805D00E03020D4E90121F2
:101290009047206A401C2062761CAAF101005FEA98
:1012A000000A0AD100F065FAC0680168405CD4E920
:1012B00001219047206A401C2062281EA5F10105EB
:1012C000DCDC07E0D4E9012118F8010B9047206A23
:1012D000401C2062381EA7F10107F3DC2046FFF70F
:1012E00051F9032011B043E62DE9F04F04460D46B5
:1012F000D21D22F0070089B0D0E900974846394650
:1013000001F046FE0246F80F01D02D2307E02068C9
:10131000810701D52B2302E0202101EAC0038DF8CB
:1013200020300BB1012000E00020032A824601D0CA
:10133000072A04DB2946204600F020FA3FE1207806
:10134000800601D40D2500E0E569C7F30A560D2D8E
:1013500049DA00214FEA175B08464FF00000002FE2
:1013600000F4400007DA00EB80004FF4400100EB8E
:10137000D07001EA60008115012901DD4FF0FF31D5
:1013800000224FEA850CBCF1180F06D31346ACF1CE
:1013900018004FF08052C24003E04FF4801323FA4C
:1013A0000CF30CF10C0CBCF1200F04D3ACF1200CAD
:1013B00009FA0CF001E007FA0CF000294FF00048A0
:1013C00001DD18B90FE00ED140450CD319EB02092D
:1013D0005F4121B9404502D19F4329EA0209BBEB95
:1013E000175F00D0761C2088000502D57B48784422
:1013F00002E07A487844193808AA302302F80A3003
:10140000037C0AF10101002E0AF1020A53546A46D4
:1014100002DC4FF0300101E04FF031014FF00108E4
:101420008DF8001002D0A6F2FF3603E059EA47011A
:1014300000D06B4E002D02DC2178090704D54FF057
:1014400002082E218DF80110C44600210BE0C7F3DD
:1014500003433F01C35C491C6D1E02F80830052997
:1014600008F1010801DA002DF1DC00210CE000EBAD
:101470001973491C1B786D1E082902F808304FEAC1
:10148000091908F1010801DA002DF0DC21688B064A
:1014900002D516E0A8F10108E04505DD02EB0803DE
:1014A00013F8013C302BF5D0B8F1000F09DD02EB49
:1014B000080313F8013C2E2B03D1090701D4A8F12E
:1014C0000108002D05DD3E2102F808106D1E08F10F
:1014D0000108407C002E02F8080008F1010804DA37
:1014E0002D20764202F8080002E02B2002F80800C6
:1014F0000A214FF47A70864208F101080BDB96FB53
:10150000F0F3303302F8083096FBF0F308F10108ED
:1015100000FB136601E0642E0CDB642096FBF0F305
:10152000303302F8083096FBF0F308F1010800FBB5
:10153000136601E00A2E06DB96FBF1F0303002F86C
:10154000080008F1010896FBF1F001FB1060303053
:1015500002F80800A16908F1010808EB050202EB96
:101560000A00081AA0612078C00602D42046FEF7BF
:10157000F3FF216A08AE01EB0A00206204E0D4E91F
:10158000012116F8010B9047BAF1010AF7D2207831
:10159000C00602D52046FEF7DFFF6E4609E016F8CA
:1015A000010B3E280FD0D4E901219047206A401C4E
:1015B0002062B8F10108F2D22046FEF7E3FF09B03D
:1015C0000320BDE8F08F206A2844206203E0D4E9BC
:1015D0000121302090476D1EEBD3F8E7517F0000CA
:1015E00002FCFFFF10B5436913B1AFF3008001E0C7
:1015F000FFF7DBF9012010BD127800F124010A7019
:1016000000224A700122EDE711684FF0FF32E9E74E
:1016100010B5436913B1AFF3008001E0FFF782FA20
:10162000012010BD128800F1240182840022C284AE
:101630000122EDE711684FF0FF32E9E72DE9F05F95
:10164000824615468B4600270AF10104B946007808
:10165000302801D09DB113E014F8010B0127782840
:1016600003D0582801D045B10AE00DB1102D07D1A3
:10167000002714F8010B102502E0082500E00A25D8
:101680000026B0460EE005FB080005FB06F1012729
:101690001FFA80F801EB1046B6F5803F00D3B9463B
:1016A00014F8010B294600F0A9F80028EBDABBF189
:1016B000000F05D00FB1641E00E05446CBF8004087
:1016C000B9F1000F06D0FFF75CF902210160C81ED6
:1016D000BDE8F09F48EA0640FAE770B516460C46AA
:1016E0000546FFF7A7FB036893F80101012806D020
:1016F000FF2C0FD8185D68B101202C7070BDD3F895
:1017000007013246214603F2071303442846BDE889
:10171000704018474FF0FF3070BD0000014918209D
:10172000ABBEFEE7260002007546FEF7BBFDAE46E7
:1017300005006946534620F00700854618B020B5DD
:10174000FEF79EFDBDE820404FF000064FF0000779
:101750004FF000084FF0000B21F00701AC46ACE859
:10176000C009ACE8C009ACE8C009ACE8C0098D46C6
:10177000704710B5FEF796FD203010BD2DE9F04101
:101780001F46044603260168072A01F4006004DBB3
:1017900008B116A505E016A503E008B115A500E0FF
:1017A00015A521F010002060A069C01EA0610FB136
:1017B000401EA0612046FEF7CFFE4FB1D4E90121C3
:1017C00038469047206A401C2062C01C206206E018
:1017D000206AFAE7D4E9012115F8010B9047761E3B
:1017E000F8D22046FEF7CEFEBDE8F0814E414E0015
:1017F0006E616E00494E4600696E66003A2800D25E
:10180000303820F02002412A01D3A2F1370088426B
:1018100001D34FF0FF3070472DE9F047814616465F
:101820008AB0334878440DC88DE80D0030487844BC
:10183000801C03AC0DC884E80D0041F69B300844C1
:10184000372190FBF1F290FBF1F5A5F1800501FB4A
:1018500012041B3C02D56442012000E00020DFF8A6
:1018600090A080460027FA44AAF1BE0A0DE0E007E6
:1018700009D03246684607EB47010AEB810100F0C8
:10188000FEFA8DE8070064107F1C002CEFD1184F82
:101890007F44AC3F18E0E80714D007EB04100DF1CB
:1018A000180A90E80E008AE80E00C068F04201D1E4
:1018B00098190890324606A903A800F0E0FA03AB95
:1018C00083E807006D10641C002DE4D132466946A0
:1018D000B8F1000F03A802D000F0BDFA01E000F05B
:1018E000CEFAC9E90001C9F808200AB0BDE8F087BE
:1018F000AC7B00004FF0013C50F8042B51F8043B46
:101900009A4221D1A2EB0C03934313EACC1317D1D3
:1019100050F8042B51F8043B9A4215D1A2EB0C036A
:10192000934313EACC130BD150F8042B51F8043B2A
:101930009A4209D1A2EB0C03934313EACC13DBD0F8
:101940004FF00000704700BFD01A01BAB1FA81F120
:1019500001F0180122FA01F0CB40C1F12001DBB205
:10196000C0B2C01A2CFA01F3D11A914311EAC31183
:10197000E6D170475FEA400C08BF91F0000F4FEAD4
:101980008C234FEAC12243EA51514FEA1C5018BF41
:1019900000F5F0404FEA300018BF41F000415FEA27
:1019A0006C5C00F02980BCF1FF3F08BF40F0804034
:1019B0007047130C06BF12044FF0100C4FF0000CD0
:1019C000130E04BF12020CF1080C130F04BF120116
:1019D0000CF1040C930F04BF92000CF1020CD30F16
:1019E00004BF52000CF1010C11464FF00002A0F1AF
:1019F0001F00A0EB0C00704711F0004F08BF7047AC
:101A000031F000413FF4D5AF0B0C06BF09044FF095
:101A1000100C4FF0000C0B0E04BF09020CF1080C67
:101A20000B0F04BF09010CF1040C8B0F04BF8900DC
:101A30000CF1020CCB0F04BF49000CF1010CCCF1EE
:101A40002003A0EB0C0022FA03F302FA0CF241EAA5
:101A5000030100F10100704720F07F4C80EA030091
:101A600023F07F47ACEB070303F57C5300F0004005
:101A700003F1FF032DE980494FEA154B09B44FEA02
:101A8000144325EA0B4E24EA03480FF2042606EB22
:101A9000132749083E785FEA320203FB0667C7F561
:101AA000000707FB06F64FEA54374FEAD64606F121
:101AB000020607FB066CCCF1005C4FEA1C472CEADF
:101AC000074C07FB06F40CFB06F504EB15464FEA42
:101AD000961634BF00204FF000404FEAD13706FB86
:101AE00007FC4FEA1C4C0CFB0BF7D21B03FB0CF75B
:101AF00061EB07010CFB0EF7B0EB074072EB1742EE
:101B00000CFB08F734BFA2EB0742B2EB074261EBD4
:101B100017414FEA0C444FEA910706FB07FC4FEAD6
:101B20001C4C0CFB0BF7B0EBC74072EB573203FBBE
:101B30000CF734BFA2EBC742B2EBC74261EB57319F
:101B40000CFB0EF7B0EBC70072EB57720CFB08F7FB
:101B500034BFA2EBC702B2EBC70261EB5771039F20
:101B60004FEA816141EA921104EBCC044FEAD1378C
:101B70004FEA826206FB07FC42EA90124FEA80605D
:101B80004FEA1C4C0CFB0BF7D21B03FB0CF761EB71
:101B900007010CFB0EF7B0EB074072EB17420CFB92
:101BA00008F734BFA2EB0742B2EB074261EB1741E3
:101BB0004FEA8C554FEA910704EB9C2406FB07FC87
:101BC0004FEA1C4C0CFB0BF7B0EBC74072EB5732E3
:101BD00003FB0CF734BFA2EBC742B2EBC74261EB89
:101BE00057310CFB0EF7B0EBC70072EB57720CFBD2
:101BF00008F734BFA2EBC702B2EBC70261EB577123
:101C000015EB4C254FEA816141EA92114FEA82625D
:101C10004FEAD13742EA901206FB07FC44F1000478
:101C20004FEA80604FEA1C4C0CFB0BF7D21B03FB06
:101C30000CF761EB07010CFB0EF7B0EB074072EB02
:101C400017420CFB08F734BFA2EB0742B2EB074286
:101C500061EB174115EB1C154FEA813141EA9241C6
:101C60004FEA823242EA90424FEA80304FEA0C76E5
:101C700044F1000448EA03434EEA0B484FF0000EDB
:101C8000B2EB080C71EB030724BF624639464EEBFA
:101C90000E0E4FF0000B0018524149414BEB0B0B5D
:101CA000B2EB080C71EB03077BF1000B24BF62461B
:101CB00039464EEB0E0E4FF0000B001852414941D1
:101CC0004BEB0B0BB2EB080C71EB03077BF1000B3A
:101CD00024BF624639464EEB0E0E51EA020718BF8A
:101CE00046F0010616EB0E7655F1000254F10001A4
:101CF00003D5BDE88901BDE80088BDE88901BDE8DC
:101D00000048B619524141EB0101A3F101037047AC
:101D100080807F7E7D7C7B7A797877767675747328
:101D2000727171706F6E6E6D6C6C6B6A6A696868E7
:101D3000676666656464636362616160605F5F5E7D
:101D40005E5D5D5C5C5B5B5A5A59595858575756F3
:101D50005655555554545353525252515150505058
:101D60004F4F4F4E4E4D4D4D4C4C4C4B4B4B4A4AAA
:101D70004A494949484848474747474646464545EE
:101D80004544444444434343434242424241414127
:101D9000002B26D4770021D01CB54FEA370703B4B7
:101DA0004FF010004FF010014FF000000FBCBDE8E5
:101DB00010400BF1010BBBF1010F08BF5FEA1707E1
:101DC00022BF12F1010211F101014FF0004143F174
:101DD000000300F0004043EA00007047F9D35708C1
:101DE000DAE746EA064613F1400F4FEA16461FDDD2
:101DF00013F1200FDFBF16430A46002120335B4258
:101E0000C8D0C3F1200746EA064602FA07F74FEAB0
:101E1000164646EA0706C3F1200722FA03F201FA42
:101E200007F721FA03F14FF0000342EA0702B1E796
:101E300046EA020646EA06464FEA164646EA010622
:101E4000BCBF46EA0646360C4FF000034FF00002D6
:101E50004FF000019EE72DE9C048934630B491E869
:101E6000380007C831EA400C48BF34EA430C03D5B8
:101E7000FFF7F2FDFFF78CFFF0BCBDE800882DE90D
:101E8000C048934630B491E8380007C810F0804F3E
:101E900008BF13F0804F03D100F005F8FFF778FF7B
:101EA000F0BCBDE8008820F07F4780EA030023F003
:101EB0007F4C07EB0C03A3F57C5300F00040A3F12B
:101EC000FE0392F0000F00F0B38095F0000F00F0D9
:101ED00077802DE901494FEA11404FEA144621EA83
:101EE000004800FB06FC24EA064708FB06F607FB51
:101EF00008F800FB07F718EB06484CEB164C4FEAC6
:101F0000124B18EB07484FEA15464CEB174022EAF4
:101F10000B4E0BFB06FC25EA06470EFB06F607FBFD
:101F20000EFE0BFB07F71EEB064E4CEB164C4FF06C
:101F300000061EEB074E4CEB174B18EB0B0840F15D
:101F4000000018EB0E0B58EB000840F100008F1A50
:101F50004FF000013CBFC943661B14BFB5EB040C36
:101F600000213CBFC943F61B4FEA17444EEA8E0ED0
:101F700027EA04454FEA1C4704FB07622CEA074C9A
:101F800005FB07F70CFB05F604FB0CFC16EB0746FC
:101F900042EB174216EB0C4642EB1C421BEB0606CB
:101FA00058EB0202414146EA9E0601D5BDE801898F
:101FB000B619524141EB0101A3F10103BDE80189CA
:101FC0004FEA14454FEA114724EA054621EA074C37
:101FD00005FB07F406FB07F70CFB06F105FB0CFC01
:101FE00011EB074144EB17444FEA124711EB0C4148
:101FF00044EB1C4422EA074C05FB07F206FB07F7FB
:102000000CFB06F605FB0CFC16EB074642EB1742F1
:1020100016EB0C4642EB1C456A1854F1000148BF10
:102020007047B619524141EB0101A3F1010370471A
:1020300095F0000F37D04FEA11424FEA144721EADA
:10204000024624EA074C02FB07F106FB07F70CFBEC
:1020500006F402FB0CFC14EB074441EB17414FEA7A
:10206000154714EB0C4441EB1C4125EA074C02FBDD
:1020700007F506FB07F70CFB06F602FB0CFC16EB5C
:10208000074645EB174516EB0C4645EB1C4212196B
:1020900051F1000148BF7047B619524141EB0101AF
:1020A000A3F1010370474FEA14454FEA114724EAB0
:1020B000054621EA074C05FB07F106FB07F70CFB79
:1020C00006F24FF0000605FB0CFC12EB074241EB59
:1020D000174112EB0C4251EB1C4148BF704792185C
:1020E00041EB0101A3F10103704700000000000073
:1020F00010B50146202909D30A4A1268A1F120032C
:1021000001249C40A243074B1A6009E0054A121FB4
:10211000136801228A409343024AC83AC2F8C43085
:1021200010BD0000C840074010B50146202909D362
:102130000A4A1268A1F1200301249C402243074B64
:102140001A6009E0054A121F136801228A401343EE
:10215000024AC83AC2F8C43010BD0000C840074067
:1021600010B500BF04490968C9B211B900F006F8FA
:1021700001E000F027F810BD84400740002000BFB8
:102180000C490968C9B221B1012906D002290DD133
:1021900008E000BF084908460AE000BF074909688F
:1021A000084605E000BF0649084601E0002000BFE0
:1021B00000BF704780400740001BB700E49200005A
:1021C000D8AC070010B5002400BF0F480068C0B2AB
:1021D00030B1012808D002280AD0032811D10BE021
:1021E000FFF7CCFF04460CE000F03CF8044608E0A2
:1021F00000F040F8044604E000BF044800680446CC
:1022000000BF00BF204610BD84400740E892000098
:10221000024602F03F00431C01FB03F07047000040
:10222000014601F0030212B1012A09D103E000BF07
:10223000054800BF06E000BF044A106800BF01E087
:10224000002000BF00BF7047001BB700E4920000F1
:1022500010B5FFF785FF02490968B0FBF1F010BD2A
:10226000C040074010B502490868FFF7D9FF10BD0C
:10227000A040074010B5FFF7F5FF04460249086883
:102280002146FFF7C5FF10BD984107402DE9F05FDB
:1022900000BF1648006806460EB9002422E0FFF78A
:1022A0005FFFB0FBF6F400251048583000681FFAB5
:1022B00080FA0AF0FF00FF2813D1CAF3072909F5B5
:1022C000807C411C4FF0000B2246A2FB017E05FBE7
:1022D00001E104FB0B1162465B463846FEF7A8F8A5
:1022E000044600BF2046BDE8F09F0000D0400740F4
:1022F00070B504462546042D04D3291FC8B200F04A
:102300000BF806E0E8B20349086000BF002000F0C7
:1023100003F870BD80400740014908607047000025
:10232000844007400149086070470000C0400740F2
:102330000149086070470000A04007402DE9F84FB0
:1023400004468A46FFF70CFF8346BBFBF4F9B9F15C
:10235000000F01D14FF0010909F0FF001249086098
:1023600000BFBAF1000F17D004FB19B0009004FBB6
:1023700009FC89150098A0FB017001466246002304
:102380003846FEF755F805462806FF2141EA104079
:1023900005495831086003E00020034958310860BE
:1023A000FFF774FFBDE8F88FD040074001F003034A
:1023B000024663F39F12014B1A6070479841074031
:1023C000054A126822F4405100F0030241EA023249
:1023D000024BC3F8242170472441074000400740C6
:1023E00070B505460E20FFF79FFE0F20FFF79CFEFD
:1023F0001020FFF799FE0B20FFF796FE0B242046D6
:1024000000F0D2FA204600F0E5FA00BF70BD0346A6
:1024100003EB4110805C08B1012070470020FCE70D
:1024200030B56BB100BF00F5005454F821400125D0
:1024300095402C4300F5005545F8214000BF0DE0C4
:1024400000BF00F5005454F8214001259540AC43ED
:1024500000F5005545F8214000BF00BF30BD10B564
:1024600000F5005353F821400123934024EA03036D
:1024700000F5005444F8213010BD10B500EB4114B4
:10248000A35410BD10B500EB4114A35410BD01F0CE
:1024900050024260704704210162704770B50446E3
:1024A0000D46FFF75DFE0146606980B2401C68433F
:1024B000B1FBF0F6C6F34F00A6EB560291B28A1EAE
:1024C00002F00703821E02F0070243EA0212626270
:1024D00000BF70BD8162704770B505460C46FF2095
:1024E000A08150212846FFF7D2FF208908B901209A
:1024F00000E00020A27B40EA4200C1B22846FFF77C
:10250000E9FF00BF0220286200BF70BD70B504461D
:102510000E46002531462046FFF7DEFF0BE000BFE8
:1025200000BF606800F001000028F9D03146204665
:1025300000F005F80546002DF1D0284670BD70B5B5
:1025400005460C4600BF6868064606F0100030B12C
:102550000520A08110212846FFF799FF65E006F0CD
:10256000400030B10320A08140212846FFF78FFFB3
:102570005BE006F00100002855D000BF6868C0F39A
:10258000420005284BD2DFE800F003041A3E440065
:1025900048E0A86AC1B26268501C6060117060892E
:1025A000401E6081608920B100BF0120286200BF09
:1025B00004E00020A0812846FFF76DFF32E020896B
:1025C00060B12168481C20600878A8622089401EFC
:1025D000208100BF0120286200BF13E0608960B144
:1025E000A07B012202EB4000C1B22846FFF772FF38
:1025F00000BF0220286200BF04E00020A08128461E
:10260000FFF749FF0EE00220A0812846FFF743FFB5
:1026100008E00420A0812846FFF73DFF02E00120EA
:10262000A08100BF01E00120A081A089FF2801D086
:10263000012070BD0020FCE770B505462D20FFF796
:1026400073FD2D24204600F0AFF9204600F0C2F9BA
:1026500000BF70BD10B500EBC11444F8223010BDAE
:1026600010B500EBC11444F8223010BD10B500EBDA
:10267000C11444F8223010BD10B504468021204614
:1026800000F001F810BD02688A430260704710B57F
:1026900004468021204600F001F810BD02680A437C
:1026A000026070478160704710B50446204600F014
:1026B0006AF810BD00BF00F5007343F8212000BF89
:1026C000704770B50B4641F4805500F5407404EB3B
:1026D000C3046560012500F5407444F8335000F5EB
:1026E000A06444F8325001249C4000F5A06505EB3D
:1026F000C2056C60846D56000325B540AC4356009E
:102700000125B5402C438465446D56000325B54032
:10271000AC43446570BD000070B504460D46FFF73C
:1027200097FDB0FBF5F600BF4FF00411204600F016
:1027300040F84FF00811204600F03BF800BF0020A1
:10274000E064014604F5807242F8201000BF314673
:1027500004F5007242F8201000BF4FF480514FF48E
:10276000417001510120C4F800030248206000BFFD
:1027700070BD0000010002004FF0041142688A435E
:10278000426000BF704770B504462546C5F38330EC
:10279000851F05F12201C8B2FFF7C6FC05F1220032
:1027A000C6B2304600F000F9304600F013F900BF21
:1027B00070BD42680A4342607047C1F308028260FC
:1027C00070470A7802F00F02426042684B7803F0CB
:1027D0000F0342EA0312426042688B7803F00F0352
:1027E00042EA03224260CA783AB14368CA78521E6C
:1027F00002F00F0243EA023242607047016840F67D
:10280000BC72114001607047014688687047000043
:1028100010B504460848844206D12A20FFF784FCFC
:102820002A2000F0EDF805E02920FFF77DFC2920A3
:1028300000F0E6F810BD000000C0044070B5064688
:102840000C46BC213046FFF7B8FF606940F4001227
:10285000217E304600F062F80020E060606019E000
:102860003046FFF7D1FF054605F0020038B1216977
:102870006068884203D22146304600F051FB05F0E3
:10288000010038B1D4E90301884203D22146304621
:1028900000F03AFB216960688842E1D3D4E9030182
:1028A0008842DDD33046FFF7AFFF00F00C0008B1DF
:1028B000002070BD6068FCE730B503F4702444F478
:1028C0004015541E04F00F0445EA04648DB22C43F5
:1028D000846130BD8AB2C261704770B504460D464E
:1028E000206800F0010616B12046FFF787FF6878E0
:1028F000A978084329780843696808432060288933
:102900006062BC212046FFF758FF36B100BF206847
:1029100040F00100206000BF00BF70BD10B5044B47
:1029200013404C1E04F00F0443EA0463036210BD1D
:1029300000007F0F10B500F01F02C109044B53F8CF
:10294000213001249440A343014C44F8213010BDB0
:10295000C0810340F0B505076A0E0311064E56F814
:102960002350FF26964025EA060401FA02F5254386
:10297000014F47F82350F0BD0080034070B5064674
:102980000C46154605EB4410C1B23046FFF7E2FF96
:1029900070BD70B506460C46154605EB4410C1B235
:1029A0003046FFF7D7FF70BD202809DB0849896C46
:1029B000A0F12002012393401943054A916406E0E7
:1029C00003494A6C012181400A4301494A64704726
:1029D00000400740202809DB0849896CA0F120024B
:1029E000012393409943054A916406E003494A6CE8
:1029F000012181408A4301494A64704700400740F1
:102A000010B504462046FFF7CFFF2046FFF7E2FF50
:102A100010BD10B504462046FFF7C6FF2046FFF75D
:102A2000D9FF10BD0146064A1268064B02EA0300B0
:102A30001A460A401043044AC2F8080270470000D0
:102A40000842074078FFFF01004007400146064A60
:102A50001268064B02EA03001A460A409043044AF1
:102A6000C2F80802704700000842074078FFFF01E3
:102A70000040074010B51020FFF7E8FF0820FFF7DF
:102A8000E5FF0020FFF754FC4FF48000FFF7CAFF7A
:102A900002210520FFF78AFC4FF48000FFF7D6FFE4
:102AA00000BF00BF0748006800F001000028F8D010
:102AB0000120FFF737FC0220FFF782FC0620FFF71A
:102AC00017FC10BD9C41074010B5FFF7D3FF10BDA8
:102AD00001468868704770B505460E46144628467C
:102AE000FFF7F6FF00F0040080B12146284600F011
:102AF00092F800BFE0682169884201D1012000E01E
:102B0000002018B10421284600F024F83146284658
:102B100000F022F870BD000070B50446204601F0B8
:102B2000B1FA0546FFF700FB0848844203D1312083
:102B3000FFF76FFF09E00648844203D13220FFF718
:102B400068FF02E03320FFF764FF70BD000004401F
:102B5000004004400161704738B504460D4608E066
:102B600000BF6069C0B200906946284600F029F9AC
:102B700000BF2046FFF7ACFF00F001000028EFD1B6
:102B800038BD2DE9F04107460C4615461E46324633
:102B90002946204600F060F9BDE8F0812DE9F041BA
:102BA00080460D46164600242F4605E039784046FB
:102BB00000F024F87F1C641CB44206DA4046FFF79C
:102BC00087FF00F004000028F0D12046BDE8F08126
:102BD0002DE9F04781460E4615460027B04608E02D
:102BE0002A4641464846FFF7D9FF04462D1B274495
:102BF000A044002DF4DC3846BDE8F087C161704781
:102C000070B504460D46FFF741FB2901B0FBF1F614
:102C1000701E206270BD38B505460C4604E09DF874
:102C200000102846FFF7EAFF2846FFF751FF00F0A3
:102C3000040028B16946204600F0F3F80028EED1E0
:102C400038BD00002DE9F04105460C461548B5FB9E
:102C5000F0F7B5FBF0F100FB11563C2096FBF0F1CC
:102C600000FB116020604FF4616096FBF0F0A06003
:102C7000A068C0EB4011C1EB0020A6EB00103C2186
:102C800090FBF1F06060781C072190FBF1F201FBF2
:102C90001200A0612146384600F006F800202062AC
:102CA000BDE8F081805101002DE9F0430246002784
:102CB000164640F26C7000244FF000084FEAE079AD
:102CC00000EB99794FEAA909A0EB8909B9F1000F46
:102CD00001D1012300E000231AE04FEAE07900EB84
:102CE00099794FEAA909A0EB8909B9F1000F04D13C
:102CF0004FF4B7764FF0010C03E040F26D164FF041
:102D0000000CB24202DD921B401C01E00127634629
:102D1000002FE2D0A0F26C754D61CA6116E003EBA2
:102D20004305DFF8389009EB850515F80490551C2C
:102D3000A94509DA03EB4305DFF8209009EB850587
:102D40002D5D521B641C01E04FF00108B8F1000F2B
:102D5000E5D0551CCD600C61BDE8F083E4000002B5
:102D60000D210AA000F0C6FD00BFBFF34F8F0B4836
:102D7000006800F4E0600A490843001D0749086044
:102D8000BFF34F8F00BF00BFFEE700004841524431
:102D9000204641554C54210D000000000CED00E090
:102DA0000000FA050146C8680A69801A704710B524
:102DB000044621606360A26000202061E060012081
:102DC00010BD70B504460E462568204600F01DF87B
:102DD00008B1002070BD6168491EE0680840A16824
:102DE00000FB015531462846A268FDF731FDE06839
:102DF000401CE0600120EDE70146C8680A69904286
:102E000001D1012070470020FCE710B504462046A0
:102E1000FFF7C8FF6168884201DB012010BD002078
:102E2000FCE770B504460D4626682046FFF7E4FF30
:102E300008B1002070BD6168491E20690840A16882
:102E400000FB016631462846A268FDF701FD2069B6
:102E5000401C20610120EDE72DE9F047044688463B
:102E60001746D4F800902046FFF7C6FF10B10020A7
:102E7000BDE8F0872046FFF795FF064605466168E6
:102E8000491E2069084028446168884205D361686A
:102E9000491E2069084061680D1A761BBD4201DA9F
:102EA000284600E0384605467F1BBE4201DA304620
:102EB00000E038460646BF1B6168491E206908408D
:102EC000A16800FB0199A06800FB05F24946404655
:102ED000FDF7BEFC2069284420616168491E206915
:102EE00008402268A16800FB0129A06805FB008852
:102EF000A06800FB06F249464046FDF7A9FC2069A0
:102F000030442061A819B3E710B500BF426992B2FE
:102F1000D1E9023423F81420CA68521CCA6010BDDB
:102F200070B505460C462069401E6168814209D192
:102F3000D4E9000630F81610227E28466369FFF7B0
:102F4000BBFC06E0D4E9000230F812102846FFF777
:102F5000C1FC6068401C606070BD000010B5FFF7E8
:102F600077F90149086010BDE000000210B5FFF7D5
:102F7000ABFD10BD10B5034A03490448FFF7ABFD94
:102F800010BD000090290002A429000200000440A6
:102F9000490050EAC12018BF04204A0D18BF40F074
:102FA000010040F2FF72B2EB515F08BF40F0020037
:102FB000012808BF05207047074810B5007848B1C0
:102FC00002F0C6FD30B1054900EB400001EB4010B6
:102FD000603810BD024810BDFD000002381D00021F
:102FE0001C2B000210B5002A06DA22F00042D21D86
:102FF00022F00703102203E0D21C22F003030C226C
:1030000013B19C188C4201D9012010BD0244014427
:103010008360C0E90021C91AD018884202D8106024
:103020000246F9E70020106010BD30380A2801D2AE
:10303000012070470020704705490978002905D014
:1030400000684FF6FF71DFF80CC000DF704700002A
:10305000FD0000024153000004490978002903D013
:103060000068DFF80CC000DF70470000FD000002C0
:1030700069520000012001F0FDF9072102A000F0D3
:1030800039FC00E000BFFDE74552524F52210D00D0
:1030900000240025002600F003FC30A000F032FCE4
:1030A000052001F0E7F901F0B9F931A000F02AFCA0
:1030B00000F014F933A000F025FC02F0E1FD36A089
:1030C00000F020FC03F0B2FB38A000F01BFC00F085
:1030D00035FD05460DB93AA000E03AA001463AA0F8
:1030E00000F010FC02F06EFD05460DB934A000E0C2
:1030F00034A0014639A000F005FC01F023FB054691
:103100000DB92FA000E02FA0014639A000F0FAFB76
:103110003CA000F0F7FB062001F0A4F93DA000F070
:10312000F1FB4FF47A7001F0BBFB0124204600F064
:1031300041FF12E0062001F003F850B93EB9601CCF
:10314000C4B2052C00D10124204600F033FF012633
:1031500000E00026642001F0A3FBEBE7202A2049D1
:103160006E697469616C697A696E672E0D0A000078
:10317000496E6469636174696F6E202E2E206F6BD7
:103180002E0D0A00434C4920415050202E2E2E2E49
:103190002E206F6B2E0D0A00536572766F202E2E37
:1031A0002E2E2E2E2E206F6B2E0D0A00556C747253
:1031B00061736F6E6963202E2E206F6B2E0D0A00D7
:1031C000657272006F6B0000446973706C617920E6
:1031D0002E2E2E2E2E2025732E0D0A0053656E7373
:1031E0006F7273202E2E2E2E2E2025732E0D0A0088
:1031F0004D6F746F72202E2E2E2E2E2E2E202573A4
:103200002E0D0A00202A2052756E6E696E672E0DF3
:103210000A00000053746174653A207374616E642F
:1032200062792E0D0A00000010B50446072000F058
:103230000EF808B9002010BD0A2001F031FB20462D
:1032400000F005F808B90020F5E70120F3E701B523
:1032500082B000200346012202A90090232001F041
:1032600015F808B900200EBD0120FCE77CB5002050
:10327000019001AC0225234600221146232000952F
:1032800001F004F808B9002000E0012010B94FF661
:10329000FF707CBD9DF805009DF8041040EA0120F8
:1032A000F7E710B50D20FEF73FFF0C20FEF73CFFBF
:1032B0000D242046FFF778FB2046FFF78BFB00BF6D
:1032C00000F0F2FE00F0A0FF03F02AFA01F0E2FCA9
:1032D00002F050FC02F070FD10BD000010B500F0CF
:1032E000FBF90021044801F06BFB0449086008B9B0
:1032F000002010BD0120FCE7B869000018000002A2
:10330000002400F0D9F822E00A2001F0C9FA802157
:103310000F48FDF7EAFA80210D4800F055FA041E27
:1033200000D114E000200A4908550AA000F0EAFA8A
:1033300080210A48FDF7D9FA80220849044800F0A4
:10334000D9F918B1054903A000F0DCFA00BFDBE7AA
:103350003C03000225730D0A00000000BC030002BC
:103360002DE9F04105460E461746002400BF10E047
:103370000A4901EB04114868FDF74BFA022806D907
:10338000064800EB0410416805A000F0BBFA601C81
:10339000C4B2102CECDB0020BDE8F0813C0200023E
:1033A00025730D0A0000000070B504460D46164650
:1033B00007A000F0A7FA0EA210A113A000F0A2FA35
:1033C0001748016817A000F09DFA002070BD0000AA
:1033D000446576696365202E2E2E2E2E2E204453B2
:1033E0002D3220436F6E74726F6C6C65720D0A0023
:1033F00032303A35383A31380000000053657020D9
:1034000032392032303136004275696C64202E2EFC
:103410002E2E2E2E2E2025732025730D0A0000003F
:10342000E0000002436F726520436C6F636B202ED7
:103430002E20256C64204D487A2E0D0A00000000D5
:103440002DE9F843804689461446002600250020D1
:10345000009000276A460121204600F0F7F8071E79
:1034600001D1BDE8F8833846FCF73AFF46B26A4618
:103470000221204600F0EAF8071E00D1F1E73846A5
:10348000FCF72EFF45B23146002002F007FC29462A
:10349000012002F003FC2A46314602A000F032FA75
:1034A0000020DEE7506F696E746572202564202568
:1034B000642E0D0A0000000010B5064800F0A4F9C3
:1034C000054800F0A1F9054800F09EF9044800F015
:1034D0009BF910BDC8690000D8690000E8690000C8
:1034E000F86900002DE9F84380468946154600201A
:1034F00000900027022400266A460121284600F099
:10350000A5F8071E01D1BDE8F8839DF800202AA187
:103510003846FDF752F900B900249DF8002027A194
:103520003846FDF74AF900B90124022C01D10020E8
:10353000E9E76A460221284600F088F8071E00D114
:10354000E1E79DF800201FA13846FDF736F960B984
:1035500021461EA000F0D6F9204602F009FC2146C3
:1035600020A000F0CFF90020CDE79DF8002024A195
:103570003846FDF722F908B10020C4E76A46032166
:10358000284600F063F8071E00D1BCE73846FCF778
:10359000A7FE46B23146204602F080FB28B13246F3
:1035A000214618A000F0AEF904E0324621461DA0E5
:1035B00000F0A8F90020A6E770616E0074696C74D1
:1035C000000000007465737400000000546573749B
:1035D000696E6720736572766F2025642E2E2E0D1E
:1035E0000A00000054657374696E67207365727613
:1035F0006F20256420697320646F6E652E0D0A00AC
:1036000073657400536572766F20256420616E6760
:103610006C652073657420746F2025642064656771
:103620002E0D0A00536572766F20256420616E6747
:103630006C652073657420746F2025642064656751
:103640002E6661696C65642E0D0A000030B5034674
:10365000002400200025157023E000E05B1C1D788D
:1036600015B11D78202DF9D100E05B1C1D7815B136
:103670001D78202DF9D01D7895B1651CECB28C42D7
:103680000FD1184603E015786D1C15705B1C1D7872
:1036900015B11D78202DF6D1157805B9002002E06E
:1036A00001E08C42D9DB00BF30BD01460020002282
:1036B0000AE00B78202B05D1012A04D0431C58B214
:1036C000012200E00022491C0B78002BF1D1012AD5
:1036D00001D1431E58B2704710B50020034908704D
:1036E0004FF480710248FDF722F910BD1500000269
:1036F0003C0200022DE9F05F05460F46904600248B
:10370000A1464FF0010BA246002600BF2BE02B483C
:1037100000EB0410D0F800A05046FDF77AF80646FA
:10372000A85D202801D0A85DD8B932465146284668
:10373000FDF743F8A8B94FF00109204800EB041049
:1037400090F90C0000280BDB2846FFF7AEFF1B4961
:1037500001EB041191F90C10884201D04FF00209DD
:1037600003E0601CC4B2102CD1DB00BFB9F1020F22
:1037700007D1424612493846FDF76AF84FF0010B6F
:1037800018E0B9F1010F0ED10C4800EB041080686D
:1037900080B10A4800EB04102A4641468368384647
:1037A0009847834606E0424606493846FDF750F8FA
:1037B0004FF0010B5846BDE8F09F00003C020002AC
:1037C000EC93000040940000F8B505460E46002436
:1037D0000020009014E00121684603F00DF8012854
:1037E0000BD19DF800000D2800D10AE09DF80000E3
:1037F0002855641CB44203D303E0012001F050F8C3
:10380000E9E700BF2046F8BD30B501460A48007818
:10381000102801DB002030BD0848074A127800EB71
:10382000021091E83C003CC003480078401C024A6A
:1038300010700120EFE70000150000023C020002BA
:1038400008480068C0010BD507480068C00707D0CA
:10385000054880380068002802DA04490120087011
:1038600070470000FCED00E0800E00E02001000247
:103870004FF06042D36F002BFCD0036BD367D36F44
:10388000002BFCD0C07840EA0120A2F87C007047F1
:103890004FF06041CA6F002AFCD081F87C0070476D
:1038A00010B50121044801F05BF80449086008B92B
:1038B000002010BD0120FCE7AC6900000C000002F4
:1038C0000FB438B5002405A80090FE210848009BDD
:1038D000049AFCF7EBFC84B2002005490855214608
:1038E000034802F097FF0020009038BC5DF814FBFD
:1038F0002401000270B504460D462946204602F018
:1039000089FF70BD0FB438B500244FF47A710F48A9
:10391000006801F049F8002815DB05A80090FE2199
:103920000B48009B049AFCF7C1FC84B200200849B4
:1039300008552146064802F06DFF0020009003481C
:10394000006801F025F838BC5DF814FB0C0000029B
:1039500024010002074A1268074BB2FBF3F2062368
:10396000B2FBF3F1414300E000BF0A1EA1F10101E7
:10397000FAD17047E000000240420F0010B507483E
:1039800001210822102300EBC11444F8223000BFAB
:103990004FF0E050FEF763FD10BD000000800F40C7
:1039A0002DE9F04107464FF00108002600240025CC
:1039B0004FF0E0500121082200F5005353F8213068
:1039C0004FF0010C0CFA02FC43EA0C0300F5005C1A
:1039D0004CF8213000BF0023FEF74FFD44F2506049
:1039E000FFF7B8FF0123082219464FF0E050FEF719
:1039F00044FD2820FFF7AEFF082201214FF0E050E0
:103A0000FEF72DFD00BF47E0002607E0701CC6B2A0
:103A10000120FFF79FFFFF2E00D107E008220121C0
:103A20004FF0E050FEF7F3FC4045EFD000BF082216
:103A300001214FF0E050FEF7EAFC8046FF2E00D156
:103A40002CE0042D26DB284605EBD0714910A5EBB0
:103A50004101F9B9E11704EB5171C9101E4A515CDB
:103A60004906090E2046E21704EB5272D2101A4B97
:103A70009954102E0CDDE11704EB5171C9101A4650
:103A8000515C41F00101E21704EB5272D2109954DB
:103A9000601CC4B2681CC5B2552DB5DB00BF282C14
:103AA00018DB0D4800780C49497808440A498978A0
:103AB00008440949C9780844C0B2074909798842CD
:103AC00008D1054800787880034880783880012044
:103AD000BDE8F0810020FBE78500000210B58024DE
:103AE00008480078012808D106484088FF2801DDF1
:103AF000FF2001E0034840880446E0B202F003FCE6
:103B000010BD00005425000210B504460FE001204E
:103B100000F0C6FE08480068401C074908600846D7
:103B20000068642803D900200860FFF7D7FF201E33
:103B3000A4F10104EBD110BD6800000210B502F041
:103B400011FB08B9002010BD134A0021084600F0FF
:103B500017FA124A6421012000F012FA104A642177
:103B6000022000F00DFA0F4A6421032000F008FA49
:103B70000D4A6421042000F003FA002000F01AFA34
:103B800000210A4800F01CFF0949086008B900201C
:103B9000D9E70120D7E70000493F0000B53B00000E
:103BA0007D3D00005D3E0000993C000074920000E5
:103BB0006000000230B591B0044600200D900E90D8
:103BC0000F90109001F0CCFF05462C2102A8FCF7C5
:103BD000AEFE02A92846FFF735F804EB4400214960
:103BE00001EB8000407A78B900203F237F22014614
:103BF000009002F05DFA0A212E2002F0ADFA0022B8
:103C000019491AA002F06AFB1721142002F0A4FA45
:103C1000DDE90210CDE9000116A210210DA8049BD8
:103C2000FCF77EFC002217490DA802F057FB2C215F
:103C30001D2002F091FADDE90501491CCDE90010D3
:103C4000079800F26C7310A210210DA8FCF768FC15
:103C5000002205490DA802F041FB02F05DFB11B006
:103C600030BD00001825000240000002436C6F6365
:103C70006B000000253032643A253032643A25303A
:103C80003264000048000002253034642D253032B3
:103C9000642D25303264000070B586B004460020E3
:103CA000029003900490059000BF2748468904EBDA
:103CB0004400264901EB8000407AC0B900203F2330
:103CC0007F220146009002F0F3F90A21242002F03D
:103CD00043FA00221E491FA002F000FB2C213C20C9
:103CE00002F03AFA00221A491DA002F0F7FA334610
:103CF0001CA2122102A8FCF713FC02A8FCF789FD04
:103D000000EB400101EBC000C0F18000C0F34705AB
:103D10001721032002F020FA0022134913A002F019
:103D2000DDFA33460FA2102102A8FCF7F9FB172198
:103D3000284602F011FA00220B4902A802F0CEFA3E
:103D400002F0EAFA06B070BD542500021825000200
:103D50004000000248756D696469747900000000D4
:103D600025000000256400004800000220202020DB
:103D700020202020202020200000000070B586B0E8
:103D800004460020029003900490059000BF27484D
:103D9000468804EB4400264901EB8000407AC0B914
:103DA00000203F237F220146009002F081F90A2182
:103DB0002E2002F0D1F900221E491FA002F08EFA37
:103DC0002C21382002F0C8F900221A491CA002F068
:103DD00085FA33461BA2122102A8FCF7A1FB02A818
:103DE000FCF717FD00EB400101EBC000C0F18000C3
:103DF000C0F347051721032002F0AEF90022124953
:103E000012A002F06BFA33460EA2102102A8FCF7B2
:103E100087FB1721284602F09FF900220A4902A8D1
:103E200002F05CFA02F078FA06B070BD5425000288
:103E300018250002400000024C6967687400000009
:103E40006C782E002564000048000002202020200D
:103E500020202020202020200000000070B586B007
:103E600004460020029003900490059000BF28486B
:103E7000C08886B204EB4400264901EB8000407AFA
:103E8000C0B900203F237F220146009002F010F9C4
:103E90000A21192002F060F900221F491FA002F038
:103EA0001DFA2C21302002F057F900221A491EA0D9
:103EB00002F014FA33461EA2122102A8FCF730FBCE
:103EC00002A8FCF7A6FC00EB400101EBC000C0F12A
:103ED0008000C0F347051721032002F03DF90022BE
:103EE000144915A002F0FAF9334611A2102102A8D4
:103EF000FCF716FB1721284602F02EF900220D4987
:103F000002A802F0EBF902F007FA06B070BD00005B
:103F100054250002182500024000000254656D700F
:103F20006572617475726500646567432E000000F8
:103F300025640000480000022020202020202020AE
:103F4000202020200000000038B5044600203F2338
:103F50007F220146009002F0ABF81721252002F0E5
:103F6000FBF80022034904A002F0B8F902F0D4F9EA
:103F700038BD0000480000024869203B29000000CD
:103F800030B500EB40030A4C44F8231000EB40032B
:103F900004EB83035A60002300EB4004044D05EB5F
:103FA0008404237200EB400405EB8404637230BD8B
:103FB0001825000272B608490870012100EB400282
:103FC000064B03EB82021172002100EB400203EB6F
:103FD0008202517262B67047640000021825000226
:103FE00000244FF4FA7000F05BFC02F095F90A200F
:103FF00000F056FC41E02148047804EB44002049DD
:1040000001EB8000007A012834D104EB440001EB7D
:104010008000407A10B9012002F08EF804EB4400D1
:10402000174901EB8000406838B104EB44000A46B0
:1040300002EB800041682046884704EB44001049A9
:1040400051F8200038B104EB44010D4A52F8210028
:10405000FFF75AFD06E0002004EB4401084A02EB9A
:1040600081010872012004EB4401054A02EB810141
:10407000487202E06420FFF747FDBCE764000002DD
:104080001825000201460648814201D131207047BF
:104090000448814201D13220F9E73320F7E70000DC
:1040A000000004400040044010B500244FF0E050F0
:1040B000FEF796F900BF25E0144800EB84008378F2
:1040C000124800EB84004278104810F824104FF09A
:1040D000E050FEF7A5F90D4800EB84008078012838
:1040E0000ED10A4800EB8400C378084800EB840036
:1040F0004278064810F824104FF0E050FEF7C2F95D
:10410000601CC4B2122CD7DB10BD00009800000266
:1041100030B54FF0E051094C14F8202004EB800436
:10412000637801F5005454F8224001259D40AC43CA
:1041300001F5005545F8224000BF30BD980000024F
:1041400010B501464FF0E050074C14F8212004EB65
:104150008104637800EB4214E45C0CB1012400E0BC
:104160000024204610BD00009800000230B54FF03A
:10417000E051094C14F8202004EB8004637801F529
:10418000005454F8224001259D402C4301F5005570
:1041900045F8224000BF30BD9800000210B504462B
:1041A000064800EB84004278044810F824100123EC
:1041B0004FF0E050FEF766F910BD000098000002D5
:1041C00010B50446064800EB84004278044810F815
:1041D000241000234FF0E050FEF754F910BD00000A
:1041E0009800000270B504460D46064800EB8400B6
:1041F0004278044810F824102B464FF0E050FEF7A8
:1042000041F970BD9800000210B5802316220021EC
:104210001A48FEF71FFA8023172200211748FEF7DD
:1042200019FA8420FEF786FB8320FEF783FB1448EF
:10423000FEF702FA282030B1B0F5803F03D8411EC6
:104240000F4A516102E000210D4A516100BF0D4942
:104250000B48FEF723F900BF0948006800F01F0073
:1042600040F001000649086000BF1820012181408C
:10427000054A430942F8231000BF10BD00800F40DB
:1042800000000540801A060080E100E02DE9F041C1
:1042900004460D4617461E46DDF818800A4884730A
:1042A00000200949888108460781A0F80A80056036
:1042B00046600648FEF72AF90348808910B90120B4
:1042C000BDE8F0810020FBE760250002000005400A
:1042D00010B50220FFF762FF10BD10B50220FFF7F6
:1042E0006FFF10BD10B500F0B3F800F05FF8FFF7F6
:1042F000F4FF10BD10B500F0ABF800F057F8FFF771
:10430000ECFF10BD10B500F0A8F800F04FF8FFF773
:10431000DFFF4FF4FA7000F0C3FA00F099F800F0F4
:1043200045F8FFF7D5FF10BD10B500F091F800F08B
:1043300042F8FFF7CDFF10BD10B500F089F800F08E
:104340003AF8FFF7C5FF322000F0AAFA00F080F833
:1043500000F02CF8FFF7BCFF10BD10B500F078F8A6
:1043600000F029F8FFF7B4FF10BD10B500F070F8A9
:1043700000F01CF8FFF7ACFF10BD10B500F06DF8B1
:1043800000F014F8FFF7A4FF10BD10B500F060F8BE
:1043900000F00CF8FFF7A1FF322000F081FA00F0E6
:1043A00057F800F003F8FFF793FF10BD10B5012098
:1043B000FFF7F4FE10BD10B50120FFF701FF10BD9F
:1043C00070B5054614480478092C06D2DFE804F0DD
:1043D00006090C0F1215181B1E0000BFFFF7C5FFC2
:1043E00017E0FFF7CAFF14E0FFF79EFF11E0FFF7A9
:1043F00079FF0EE0FFF77EFF0BE0FFF7AEFF08E06E
:10440000FFF7C3FF05E0FFF797FF02E0FFF77AFF32
:1044100000BF00BF70BD00001400000210B50022F4
:104420000121094800F0F6FA0849086008B900209F
:1044300010BD4FF47A710548006800F005FB08B123
:104440000020F5E70120F3E7B0690000100000024A
:1044500010B50020FFF7A2FE10BD10B50020FFF739
:10446000AFFE10BD72B60249087062B67047000018
:104470001400000210B5044672B603480470002010
:10448000FFF79EFF62B610BD140000020EB5802239
:1044900000B109B110460AE001780129FAD101A959
:1044A00000F034F8042801D0002000E01020DDE9FD
:1044B000011203B000BD70B50D46040003D012B95F
:1044C0002078012801D0802070BD204600F0C6FD74
:1044D00028B12946204600F042F8002070BD812016
:1044E00070BD10B500F038FD10B10178022901D07F
:1044F000802010BD4188A1F57F42FF3A03D000F033
:1045000035F8002010BD812010BD000010B5044614
:104510008089002822D0608904EB8000006908604F
:104520006078022805D10021204600F08BFF00F0C2
:1045300079FF04F10C0000BFD0E85F1F491E8AB26A
:10454000C0E8512F0029F7D16089401C80B26081FA
:10455000E189884201D100206081042010BD10B59E
:1045600000F070FFBDE8104000F05CBF10B5002106
:1045700000F068FFBDE8104000F054BF10B5FEF732
:10458000EDFCFEF78EFE0420FFF774FF1FA0FFF77F
:1045900097F91FA0FFF794F923A0FFF791F928A03E
:1045A000FFF78EF92CA0FFF78BF931A0FFF788F900
:1045B00035A0FFF785F93AA0FFF782F93CA23FA1A9
:1045C00041A0FFF77DF94648016846A0FFF778F95A
:1045D0004BA0FFF775F900F06FF908B1FEF74AFD3F
:1045E0004CA0FFF76DF900214F4800F0E9F94F4961
:1045F000086008B9FEF73EFD4DA0FFF761F900F035
:104600006DF908B1FEF736FD002010BD0D0A00005F
:1046100020202020202E2D272F202C5F2020272D0A
:104620002E2020200D0A0000202020202F202028CE
:10463000202028203E20202920205C200D0A000078
:10464000202020205C202020272D2720272D2720F8
:1046500020202F200D0A000020202020272D2E2E84
:104660005F5F205F5F2E2E2D27202020200D0A0067
:10467000202020202020202020202F5F5C202020B0
:10468000202020200D0A000020232044532D32201A
:10469000436F6E74726F6C6C657220230D0A00009C
:1046A000202A20426F6F74696E672E0D0A00000089
:1046B00032333A31383A3235000000004F6374200B
:1046C00020332032303136004275696C64202E2E42
:1046D0002E2E2E2E2E2025732025730D0A0000006D
:1046E000E0000002436F726520436C6F636B202E05
:1046F0002E20256C64204D487A2E0D0A0000000003
:10470000425350202E2E2E2E2E2E2E2E2E206F6B0C
:104710002E0D0A004B65726E656C202E2E2E2E2EED
:104720002E206F6B2E0D0A009C6900000000000215
:10473000415050202E2E2E2E2E2E2E2E2E206F6BE0
:104740002E0D0A0010B5002400BF08E00A4802F050
:104750009DF809480A3002F099F8601CC4B2022C96
:10476000F4DB0021054800F02BF90549086008B981
:10477000002010BD0120FCE77000000284920000C0
:104780006C000002002485E04348007800287EDDAC
:10479000002474E004EB8400404901EB4000B0F9D0
:1047A000060004EB84013D4A02EB4101B1F9081017
:1047B00088420DDD04EB8400114601EB40000089C6
:1047C000401C00B204EB840102EB410108811EE0B1
:1047D00004EB8400314901EB4000B0F9060004EB22
:1047E00084012E4A02EB4101B1F9081088420DDA2A
:1047F00004EB8400114601EB40000089401E00B22A
:1048000004EB840102EB4101088100E035E004EB98
:104810008400224901EB4000B0F9080000280CDDBB
:1048200004EB84020B4603EB4202117A04EB840290
:1048300003EB420002F074F81EE004EB8400174919
:1048400001EB4000B0F9080000280EDA04EB840206
:104850000B4603EB4202127A5242D1B204EB8402BD
:1048600003EB420002F04EF806E004EB84010B4A31
:1048700002EB410002F036F800BF601CC4B2022C0B
:1048800088DB0548007800F00BF803E0FFE76420C0
:1048900000F006F878E700008400000270000002D3
:1048A000EFF3058109B182207047DFF808C000DF0F
:1048B00070470000A5630000EFF3058008B1822077
:1048C0007047EFF31480C00703D0DFF80CC000DF9F
:1048D000704701F071BD0000B963000088B0EFF3CC
:1048E000058010B1822008B07047EFF3148010F0FB
:1048F0000301134806D001291BD0022911D0032936
:1049000019D113E008A981F309880078C0070BD0FA
:104910005FF0020080F31488BFF34F8FBFF36F8FF7
:1049200009E00078C00706D10320F3E70078C0074C
:1049300001D0FF20D7E7DFF80CC000DFD3E700008D
:10494000206A000029640000EFF305820AB1FFF736
:104950009DBDDFF808C000DF7047000095640000CF
:10496000EFF305820AB100207047EFF31482064B83
:1049700002F001025B781A4303D0DFF810C000DFB9
:10498000704701F0A4BD0000FC000002CF640000ED
:10499000EFF3058109B1FFF7A4BDDFF808C000DF20
:1049A00070470000F3640000EFF3058212B14FF08E
:1049B000FF307047DFF804C000DF70471B65000060
:1049C000EFF305820AB100207047EFF31482064B23
:1049D00002F001025B781A4303D0DFF810C000DF59
:1049E000704701F0B3BD0000FC0000024D650000FF
:1049F000DFF80CC000DFDFF80CC000DFFEE70000CE
:104A0000BD650000D9650000DFF804C000DF704715
:104A10001166000030B4EFF3058313B1002030BC01
:104A20007047EFF31483064C03F0010364782343CB
:104A300003D0DFF810C000DFF1E730BC01F0F4BDB7
:104A4000FC00000229660000EFF305820AB1822013
:104A50007047DFF808C000DF7047000061660000A3
:104A6000094C4FF0FF3529462068FFF76DFF0246DD
:104A70000846102AF7D1FFF7C7FF0028F3D00246F7
:104A800008469047EFE70000200000020446012C92
:104A900006D0022C09D0032C0CD0042C14D10EE02B
:104AA000122113A0FEF726FF0FE0112115A0FEF73B
:104AB00021FF0AE0102118A0FEF71CFF05E01221DB
:104AC0001AA0FEF717FF00E000BF00BF00BFBFF352
:104AD0004F8F1B4800681B4900F4E06008431849E9
:104AE000001D0860BFF34F8F00BF00BFFEE700004E
:104AF0004F535F4552524F525F535441434B5F4FA8
:104B0000564600004F535F4552524F525F4649464A
:104B10004F5F4F56460000004F535F4552524F5271
:104B20005F4D42585F4F5646000000004F535F45AF
:104B300052524F525F54494D45525F4F5646000006
:104B40000CED00E00000FA0500BFFEE70748016831
:104B50004FF0E0204161002181610721016104489B
:104B6000016841F07F410160401770471C6A0000F6
:104B700020ED00E07047000010B500240C20FDF788
:104B8000D3FA00BF0FE01D4B03EBC4035A791B4B54
:104B900003EBC4039979194B03EBC4031879FDF7B0
:104BA000EDFE601CC4B2022CEDDB0C20FDF7A0FA78
:104BB0001348FDF779FD32211148FDF7ADFD0024C2
:104BC00015E00E4A02EBC402D1790C4A52F83400C7
:104BD0002246FDF776FD094A02EBC402D179074A65
:104BE00052F834000022FDF765FD601CC4B2022CAF
:104BF000E7DB0348FDF7C0FD10BD0000C4920000D4
:104C00000080011C10B500240C20FDF78DFA022451
:104C10000FE01E4B03EBC4035A791C4B03EBC40398
:104C200099791A4B03EBC4031879FDF7A7FE601CB2
:104C3000C4B2042CEDDB0C20FDF75AFA1448FDF742
:104C400033FD4FF4FA711248FDF766FD022416E0B9
:104C5000A31EDAB20D4B03EBC403D9790B4B53F807
:104C60003400FDF72EFD094A02EBC402D179074A50
:104C700052F834000022FDF71DFD601CC4B2042C64
:104C8000E6DB0348FDF778FD10BD0000C49200008C
:104C90000000021C10B5FFF76FFFFFF7B3FF10BD58
:104CA00070B504460D46054A02EBC402D179034AA9
:104CB00052F834002A46FDF7FDFC70BDC492000096
:104CC00070B504460D460B4951F8340000BFD0F8CA
:104CD000001269436422B1FBF2F10E46054A02EB71
:104CE000C402D179034A52F834003246FDF7E2FC9F
:104CF00070BD0000C492000050E8001F31B10B6885
:104D000040E80032002AF7D108467047BFF32F8FE2
:104D1000FAE710B568B161B10B3121F00302016807
:104D200044680B1A1B1B934205D2084609680029E8
:104D3000F5D1002010BD210007D021180368C1E97A
:104D40000032016001F1080010BD4260083010BD62
:104D500070B50D46002812D04FF6FF71084C8842FE
:104D600004D222680146104600F09AFB2068457084
:104D7000044800F0DDF8BDE8704000F091BC70BD63
:104D800004010002EC2A00020F4810B50D494268E8
:104D90000E480B680068934204D00A60CB88421E1C
:104DA0001A448A808A8880B282420AD10020086030
:104DB000054800F0BDF80146BDE81040024800F08B
:104DC00093BB10BD18010002EC2A0002140100027E
:104DD00070B5194DE86800282CD0A88A401EA8821A
:104DE000002621E0A06838B161684160606810B1B8
:104DF000A16881606660A6600F482146183800F0FF
:104E000073FBA08AA8826078042804D10B49E08A49
:104E100009880844A08201206070E068E860E068CA
:104E200008B10561E6602661A88A002802D1EC6815
:104E3000002CD7D170BD0000042B00021401000229
:104E400070B504000FD00D4DA17801262868827836
:104E500091420CD900F064FB286846702046BDE8FA
:104E6000704000F01DBC064800F062F8F7E766707D
:104E70002146BDE87040024800F036BB0401000244
:104E8000EC2A00020321FFF763BF000010B50446BF
:104E9000008B084320836278618B062A18D0052A8C
:104EA00019D1084217D001EA0002628388432083A7
:104EB000204600F060FB01206070628B08212046D4
:104EC00000F055FB2146BDE81040034800F00CBB44
:104ED00031EA0002EAD010BDEC2A0002814202D37E
:104EE00042688A4201D80120704702680A60BFF315
:104EF0005F8F50E8003F0A689A42F6D140E80012FE
:104F0000002AF2D10020704768B161B1002208394F
:104F100002E00246006830B18842FAD12AB1006846
:104F20001060002070470120704700214160F8E7C1
:104F30000146406842684A600B780022022B05D087
:104F4000012B03D0032B01D04260704743680BB1A3
:104F50009960426082607047810700D000207047EE
:104F600070B5044600201546207001226270A170C1
:104F700084F824106060A060E06020612062A0825C
:104F8000E0822083608384F82500E08C18B905480E
:104F9000FFF7B2FEE06229462046BDE8704000F00F
:104FA0001DB800002006000208B1082901D2012026
:104FB00070470144091F002201600A6042601046E8
:104FC0007047000003480021016003490988C1803F
:104FD0007047000018010002106A000070B5C28C12
:104FE0001C4D930802D12A88C2F38D03C26A02EBDA
:104FF0008302540700D5121F4FF0807442E9021457
:1050000000242646B2F1400242F82460641C0E2CB3
:10501000FAD3C4691462826201632968C90014D595
:10502000112B12D94FF0FF31103B11EB53014FF010
:10503000CC3305D042F8043C42F8083D491EF9D172
:10504000C16A121F8A4200D91360C06A0249016016
:1050500070BD00000C6A0000A52E5AE2C18980894B
:10506000081A70470122027000224270827042606A
:1050700002814281103982818908C1817047000014
:105080002DE9F041044640680E464FF0000804F157
:105090000C05E8B36078012701283ED0022813D020
:1050A00003285CD10846FFF727FE050057D02046AD
:1050B000FFF73EFF0446294600F056FA6770204687
:1050C00000F059FA214621E02046FFF731FF06465D
:1050D000002100F049FA2189F06904EB810108619F
:1050E000D5E85F0F401C81B2C5E8501F0028F7D1FA
:1050F0002089401C80B22081E189884201D1A4F836
:1051000008807770304600F036FA3146174800E0E4
:105110000CE0BDE8F04100F0E7B92046FFF708FFDA
:1051200004463246102100F022FAC7E7A089E1893F
:10513000884216D2208904EB80000661D5E85F0F13
:10514000401C81B2C5E8501F0028F7D12089401CBF
:1051500080B22081E189884201D1A4F80880BDE8AD
:10516000F081BDE8F0410320FFF790BCEC2A00027B
:1051700070B50446808915460026C0B3608904EBEB
:105180008000006908606089401C80B26081E1890C
:10519000884200D16681606810B1607802280BD027
:1051A00014F10C04D4E85F0F401E81B2C4E8501F14
:1051B0000028F7D1002070BD2046FFF7B9FE054654
:1051C000002100F0D1F92189E86904EB810108612F
:1051D0002089401C80B22081E189884200D126814B
:1051E000284600F0C8F92846FFF72AFEE2E7FFE765
:1051F0003DB10B48626801682AB1204600F074F99D
:1052000008E0012070BD616001684E600068846044
:105210000120607008212846FFF79AFDF1E70000A1
:1052200004010002002814D0411C13D00C4A4FF690
:10523000FE7190420CD800EB4002C2EBC01209484C
:10524000036803EBC202521EB2FBF3F0884204D99A
:10525000084670474FF6FF70704780B270470000F5
:1052600000093D002C6A00002DE9F0410446408809
:1052700020B1314DA1682A68914202D0FF20BDE8DB
:10528000F081401E0004000C608053D12968086A38
:10529000A04209D1E068086208E0C268A24202D1D7
:1052A000E268C26002E010460028F6D191F82400BE
:1052B0000A6A06E053681BB19B78834200D91846FE
:1052C000D268002AF6D18870DFF870806168012604
:1052D00011B32046FFF72CFE0746002100F044F9E9
:1052E000384600F048F96680A760386AE0603C62A2
:1052F0002968D8F804008A788078824201D3384639
:1053000016E00E4800F0F0F839460C4800F0ECF8D2
:10531000286846707E700AE0D8F804108A782968F8
:10532000824207D9054800F0DFF82868467000205F
:10533000FFF786FD0020A2E704010002EC2A00022C
:1053400070B5184D0E4604464188286839B1A168E9
:10535000814209D16088401C6080002070BDA0603F
:10536000016AE1600462F5E776B18A78807882426A
:1053700003D28870A06800F0DDF8606830B1204684
:10538000296800F0B1F808E0012070BD286860606D
:105390002968002048602868846009213046FFF7AA
:1053A000D7FCF1E70401000270B51B480121026837
:1053B0005170006800F0B4F8184D6C7818E000BF28
:1053C00005EBC40148680278EAB1012A20D000F058
:1053D00005F9E878641C844200D100240F48801C41
:1053E000D0E84F1F491EC9B2C0E8421F002AF7D1BA
:1053F000A8780028E4D16C700948FFF799FDBDE852
:10540000704000F04DB9098989B2FFF73FFDE0E730
:105410008968FFF735FEDCE704010002701C00021A
:10542000EC2A00020548017811B101214170704752
:1054300003494FF080500860704700000C010002E3
:1054400004ED00E0F0B4154DAB1CEE784FEA050713
:10545000D3E84F2FB24202D1BFF32F8F11E0521C7D
:10546000D4B2C3E8424F002AF2D100BFD7E84F2F91
:10547000541CB44200D10024E4B2C7E8434F002BCF
:10548000F4D1EB78934205D905EBC202C2E90101E0
:10549000F0BC7047F0BC0220FFF7F8BA701C0002A5
:1054A000104A10B5D368ABB113469B8A03E08CB1A8
:1054B0002246A48A2344D4688B42F8D3C460D060C7
:1054C0000261C46804B12061591A8182908A401A2D
:1054D000908210BD0024C460D060C91A026191821C
:1054E000848210BD042B000230B502780023022A0A
:1054F00003D0012A01D0032A00D101238C7800E0D7
:105500001046426812B19578A542F9D24A604160CE
:105510001BB102B19160886030BD0020FBE7000044
:1055200003494A6842600022826048607047000078
:10553000EC2A000210B5836804462BB96078012874
:105540000ED1084B03E09B6818780028FBD020465A
:1055500000F026F82146BDE810401846FFF7C4BF0A
:1055600010BD0000EC2A0002806A01627047806A68
:10557000C0E90812704710B5016900290ED0C26851
:10558000CA60C36800223BB18B8A848A23448B8221
:10559000C3681961C26000E08A82026110BD000028
:1055A000816839B142684A604168002901D0806849
:1055B00088607047054906E04A68824202D1406827
:1055C0004860704711460029F6D17047EC2A000266
:1055D00002220270002242604180704710B541688B
:1055E00081B1FFF7A5FC0446FFF7C5FF01206070FD
:1055F00001462046FFF7B8FF2146BDE810400348AA
:10560000FFF772BF4188491C418010BDEC2A00029F
:1056100010B5416861B1FFF78BFC04460121FFF72B
:10562000A3FF2046FFF7A7FF2046FFF709FC02E093
:105630004188491C4180002010BD000010B50C4677
:10564000418819B1491E4180002010BD34B10A4A79
:105650004368116823B1FFF747FF07E0012010BD41
:105660004160136800215960116888600721204655
:10567000FFF76EFBF2E70000040100020648006835
:10568000D0E90A10814203D300680449884202D05D
:105690000120FFF7FBB9704704010002A52E5AE272
:1056A0000749022248604270064A1278002A05D053
:1056B00006C98A4202D0C078FEF7EAB870470000F7
:1056C000040100022001000270B5FEF7B9F80020C5
:1056D0000446204A204902E042F82040401C0B8842
:1056E0009842F9D31D48342201881D48FDF77AFC01
:1056F0001C48008880B240F000421B4801681B48EB
:10570000FDF770FC1A48082201881A480068FDF766
:1057100069FC194DFF20194AE870EC8400212846E5
:10572000FFF71EFC16480421017044601548017003
:10573000C4600461848214481549056002206870C1
:105740001248047044700978C170BDE87040FFF7DA
:1057500039BC0000F41C0002086A0000346A000032
:10576000400400020C6A0000386A000020060002B3
:105770005C6A000028000002B82A0002494B0000C1
:10578000EC2A0002042B000204010002701C00023B
:10579000406A00001B4810B5016841F47F010160B8
:1057A00000684FF07F4101EA00201649C0431439D8
:1057B000B0FA80F00968C0F10800C1F3022181420B
:1057C00000D3481C0F49091F0B686FF0807282409C
:1057D00063F317020A60FFF7B9F90B490028086064
:1057E0000EDB00F1E021FF2281F8002400F01F020F
:1057F000012191404009800000F1E020C0F8001133
:1058000010BD000020ED00E0100100020C4810B5B2
:105810000268012151700068FFF782FEFFF7B4FAB9
:1058200008480168491C0160FFF7D2FA00F04AFFFE
:105830000548FFF77DFBBDE81040FFF731BF0000D2
:105840000401000214010002EC2A0002002805D025
:10585000810702D10178002900D0002070470000A4
:1058600030B50B4C0023626805E095688D4204D882
:1058700013461268491B002AF7D10260816012B1F9
:105880009568691A91600BB1186030BD606030BDD9
:10589000FC0000020D4B0022596803E0814204D055
:1058A0000A4609680029F9D104E019B1016822B15A
:1058B000116003E04FF0FF3070475960016819B183
:1058C0008A6880681044886000207047FC000002ED
:1058D0002DE9F0411E46174680460D4611F0FF0F98
:1058E00000D14D1C1848FFF707FA041E16D0280AED
:1058F000E762E084E9B242462046E661FFF730FB0A
:1059000001251248124905E000EB850252F8042CEB
:1059100032B16D1C0A889542F6D90020BDE8F081AD
:10592000002DFAD000EB850040F8044C0948E570E2
:10593000007818B101212046FDF79AFF2046FFF7B5
:105940007FFA2846EAE7000040040002F41C000247
:10595000086A0000200100022DE9F05F584DDFF8D1
:105960005891DFF8588129684FF0010A002618B1D4
:10597000CA78AB46824243D14E70FAF7C4FC29681C
:105980008862FFF77BFE2868046A1FE06068C0B188
:105990002046FFF7CDFA07460021FFF7E5FD384620
:1059A000FFF7E9FD87F801A039464648FFF79CFD5F
:1059B000E168A4F802A0A760386AE0603C620C4687
:1059C00004E0E0686680A660E6600446002CDDD155
:1059D0002868C27808EB820141F8046CC16A3A4831
:1059E000FFF77CFA2868C66299F8001011B100210F
:1059F000FDF73EFF35482968FFF770FA2E6056E044
:105A00003349098888420CD808EB800858F8045CB0
:105A10003DB12846FFF7C4FD2846FFF7ACFD2C6AD0
:105A200022E0FF20BDE8F09F6068C0B12046FFF78C
:105A30007FFA07460021FFF797FD3846FFF79BFDE9
:105A400087F801A039461F48FFF74EFDE168A4F82A
:105A500002A0A760386AE0603C620C4604E0E0689F
:105A60006680A660E6600446002CDDD148F8046C30
:105A70001548E96AFFF732FAEE6299F8000018B1AA
:105A800000212846FDF7F4FE29461048FFF726FAC4
:105A90000C48DBF8001040688B7882789A4209D96C
:105AA00081F801A00748DBF80010FFF71DFD00207A
:105AB000FFF7C6F90020B5E720010002F41C000240
:105AC00004010002EC2A0002200600024004000249
:105AD000086A000070B51A4D80B11A4A12889042C7
