:020000040000FA
:10000000D82C0002A9020000B1020000412F00001C
:1000100000000000000000000000000000000000E0
:100020000000000000000000000000006903000064
:100030000000000000000000E10300001D040000BB
:10004000BD020000BD020000BD020000BD020000B4
:10005000BD020000BD020000BD020000BD020000A4
:10006000BD020000BD020000BD020000BD02000094
:10007000BD020000BD020000BD020000BD02000084
:10008000BD020000BD020000BD020000BD02000074
:10009000BD0200004D310000BD020000BD020000A5
:1000A000BD020000BD020000BD020000BD02000054
:1000B000BD020000BD020000BD02000031210000B1
:1000C000BD020000BD020000BD020000BD02000034
:1000D000BD020000BD020000BD020000BD02000024
:1000E000BD020000BD020000BD020000BD02000014
:1000F000BD020000BD020000BD02000000F002F8D9
:1001000000F0B0F80AA090E8000C82448344AAF101
:100110000107DA4501D100F0A5F8AFF2090EBAE8FF
:100120000F0013F0010F18BFFB1A43F0010318472B
:1001300050A2000070A200000A444FF0000C10F81A
:10014000013B13F0070408BF10F8014B1D1108BF55
:1001500010F8015B641E05D010F8016B641E01F8F5
:10016000016BF9D113F0080F1EBF10F8014BAD1C45
:100170000C1B09D16D1E58BF01F801CBFAD505E063
:1001800014F8016B01F8016B6D1EF9D59142D6D3BD
:10019000704700000023002400250026103A28BFE5
:1001A00078C1FBD8520728BF30C148BF0B607047E9
:1001B0006E2900F0CD84702900F01786662907F0BB
:1001C000FE82652907F0FB82672907F0F882612922
:1001D00007F0F78203681B0A28BF41F080016929F4
:1001E00000F0FC81642900F0F981752900F0F681A6
:1001F0006F2900F0A585782900F0E385E92900F052
:100200003F85E42900F03C85F52900F03985EF2988
:1002100000F0A285F82900F0E2850368DB0928BF19
:1002200041F08001632901F00582732901F00A82FF
:10023000E32901F01582F32901F01A8200207047AA
:100240001FB501F0B4FA04000020002106F098FD6B
:10025000401C60600020002106F0A8FDE0601FBD8A
:1002600010B510BD01F07EFA1146FFF7E9FF0FB49B
:1002700000F00CF80FBC04F093FB00F0BCFA03B4E0
:10028000FFF7EEFF03BC01F067FA000004B004F0D2
:1002900025FD0448002104F0A5FD04F031FD00F027
:1002A000AAFA0000300000020848804708480047CA
:1002B000FEE7FEE7FEE7FEE7FEE7FEE7FEE70000FB
:1002C00004480549054A064B7047000045310000C7
:1002D000FD000000D8290002D82C0002D82A000214
:1002E000D82A0002004870477429000202F0FF0378
:1002F00043EA032242EA024200F04ABBFFFFFFFF4B
:1003000080F309887047EFF309807047684680F3EF
:10031000098804480078C00714BF0220032080F336
:10032000148870474C780000DFF818C0EFF305839D
:100330001B0618BF6047EFF31483DB0708BF604755
:1003400000DF70471D510000DFF818C0EFF3058390
:100350001B0618BF6047EFF31483DB0708BF604735
:1003600000DF704701530000EFF30980816911F845
:10037000021CF1B990E80F10E047EFF3098C8CE80C
:100380000700144B93E8060091420FD039B12CE9D5
:10039000F00FC1F828C00CB405F082FB0CBC1A6049
:1003A000D2F828C0BCE8F00F8CF309886FF0020E79
:1003B000704710B5084A1268914209D8074C54F8A2
:1003C000214090E80F10A047EFF3098C8CE80F0054
:1003D00010BD0000400100022C2100002C21000073
:1003E00005F0F4F90C4B93E80600914210D0EFF3BE
:1003F000098C2CE9F00FC1F828C00CB405F050FBB3
:100400000CBC1A60D2F828C0BCE8F00F8CF3098845
:100410006FF0020E704700004001000205F008FC7A
:10042000E0E7000004F0B8FD05F002FCDAE70000A8
:1004300053EA020C00F069802DE9F04B4FF0000602
:10044000002B1FBFB3FA83F503FA05F424FA05F66F
:100450005E4012BF1643B2FA82F502FA05F4C5F106
:1004600020051EBF22FA05FC44EA0C04203556EA9A
:10047000044C4FEA144418BF641C4FF000084FF0BE
:100480000009904271EB030C39D3002919BFB1FA6E
:1004900081F701FA07F6B0FA80F700FA07F6C7F11C
:1004A00020071EBF20FA07FC46EA0C062037B6FBE1
:1004B000F4FCA7EB0507103F07F01F0BCBF120065C
:1004C0000CFA0BFB2CFA06F644BFB3460026202F8D
:1004D000A4BF5E464FF0000B5BEA060C08BF4FF06E
:1004E000010B19EB0B09ABFB027C48EB0608C01BA8
:1004F00006FB02CC0BFB03CC71EB0C01C1E70B46F6
:10050000024641464846BDE8F08B13B54FF0000067
:100510004FF00001AFF30080BDE81C4070470000C1
:100520007CB51D4616460C00009001D02044401EAC
:10053000074B7B442A4669460190304600F021FB78
:1005400005461CB10020694600F02EFB28467CBD04
:100550007D0600000FB47CB50C0009AA009001D004
:100560002044401E084B7B4469460190089800F0E7
:1005700008FB05461CB10020694600F015FB284623
:100580007CBC5DF814FB00004906000070B5044611
:1005900085690068C10601D5302600E02026C00725
:1005A00007D070BDD4E9012130469047206A401C35
:1005B00020626D1EF6D570BD70B504468569007861
:1005C000C00707D170BDD4E9012120209047206ADF
:1005D000401C20626D1EF6D570BD00002DE9F04173
:1005E0000646002410687529314616A510D000F083
:1005F0001BFA002802DA404213A507E031688A0797
:1006000001D512A502E0490704D511A5012401E096
:1006100000F013FA00210A2206F1240709E0B0FBDA
:10062000F2FCB0FBF2F302FB1C00303078541846A9
:10063000491C0028F3D123462A463046BDE8F04144
:1006400000F02DBA000000002D0000002B0000007B
:10065000200000002DE9F05F894604464FF0000AB3
:10066000DFF874B1FB44C0F820A02046E168884759
:10067000002874D0252806D0D4E901219047206AAB
:10068000401C2062F1E700265F462046E16888476B
:100690002028054607DB312D05D2781910F8200CEB
:1006A00008B10643F1E7B00701D526F00406C4F807
:1006B0001CA00027C4F818A02A2D09D0284602F053
:1006C000A0FD38B304EB8708303DC8F8185019E096
:1006D00059F8041B204604EB87029161E1688847C2
:1006E000012F054618D1E069002820DA26F02006FF
:1006F0001DE0D8F8180000EB800005EB4000303812
:10070000C8F818002046E1688847054602F079FDE0
:100710000028EED1012F0AD02E2D08D12046E16805
:1007200088477F1C0546022F46F02006C4DBA069DF
:10073000002803DA404246F00106A061F00701D02C
:1007400026F010066C2D0BD0682D09D04C2D39D019
:100750006A2D35D0742D35D07A2D33D016E038E09F
:10076000E1682F4620468847B842054609D16C2FDC
:1007700026D04FF48060E16806432046884705464E
:1007800004E06C2F1AD04FF4807006430DB3A5F12E
:100790004100192802D8203546F400664A46294609
:1007A000204626604E46FFF703FD80B101280BD09E
:1007B000F61D26F0070000F1080956E74020E4E79F
:1007C0008020D8E70020D6E706F104094DE7284647
:1007D00052E7206ABDE8F09FB09A000070B5064667
:1007E00000F020F90468054630460A22002100F096
:1007F00007FB2C6070BD10B50446AFF300802046A7
:10080000BDE81040FFF73BBD40EA010310B59B0770
:100810000FD1042A0DD310C808C9121F9C42F8D06A
:1008200020BA19BA884201D9012010BD4FF0FF301B
:1008300010BD1AB1D30703D0521C07E0002010BD31
:1008400010F8013B11F8014B1B1B07D110F8013BBD
:1008500011F8014B1B1B01D1921EF1D1184610BD9E
:1008600010B5431C02E010F8011B71B18107FAD1E9
:100870004FF0013202C88C1A8C4314EAC211F9D02D
:10088000C01A0A0603D0C01E10BDC01A10BD0A044B
:1008900001D0801E10BD0902FCD0401E10BD032AED
:1008A00040F2308010F0030C00F0158011F8013B8D
:1008B000BCF1020F624498BF11F801CB00F8013B74
:1008C00038BF11F8013BA2F1040298BF00F801CB38
:1008D00038BF00F8013B11F0030300F02580083A0F
:1008E000C0F0088051F8043B083A51F804CBA0E866
:1008F0000810F5E7121D5CBF51F8043B40F8043BBB
:10090000AFF30080D20724BF11F8013B11F801CBEF
:1009100048BF11F8012B24BF00F8013B00F801CBC0
:1009200048BF00F8012B704710B5203AC0F00B808B
:10093000B1E81850203AA0E81850B1E81850A0E8E3
:100940001850BFF4F5AF5FEA027C24BFB1E818503D
:10095000A0E8185044BF18C918C0BDE810405FEAAD
:10096000827C24BF51F8043B40F8043B08BF704729
:10097000D20728BF31F8023B48BF11F8012B28BF2E
:1009800020F8023B48BF00F8012B70474FF00002EF
:100990000429C0F0128010F0030C00F01B80CCF191
:1009A000040CBCF1020F18BF00F8012BA8BF20F8FF
:1009B000022BA1EB0C0100F00DB85FEAC17C24BF53
:1009C00000F8012B00F8012B48BF00F8012B7047FD
:1009D0004FF0000200B5134694469646203922BFD8
:1009E000A0E80C50A0E80C50B1F12001BFF4F7AF23
:1009F000090728BFA0E80C5048BF0CC05DF804EB05
:100A0000890028BF40F8042B08BF704748BF20F872
:100A1000022B11F0804F18BF00F8012B7047704770
:100A20007047704702F0B4BB09684A0501D540B26F
:100A30007047C905FCD500B2704709684A0501D561
:100A4000C0B27047C905FCD580B2704770B50C467E
:100A50000546012A05D02878800600D5EA690023DA
:100A600002E0012305E05B1C934202D2E05C002817
:100A7000F9D1A869E618C01AA861286A1844286242
:100A80002846FFF783FD04E0D5E9012114F8010BA6
:100A90009047B442F8D32846FFF78EFD70BD2DE98C
:100AA000F0470D4699469246044600F12408016835
:100AB000880604D5E06921F01001216000E00120E2
:100AC000A84201DD471B00E00027A1697A1902EB6B
:100AD0000900081AA0612078C00602D42046FFF75A
:100AE00055FD002608E0D4E901211AF806009047D8
:100AF000206A401C761C20624E45F4DB2078C0063C
:100B00000AD52046FFF742FD06E0D4E90121302056
:100B10009047206A401C2062381EA7F10107F4DCD0
:100B200007E0D4E9012118F805009047206A401C2D
:100B30002062281EA5F10105F3DC2046FFF73CFDED
:100B40002078000602D50220BDE8F0870120FBE7EF
:100B500011680268006A530501D508700AE0D305E0
:100B600001D5088006E0130603D5C217C1E90002CB
:100B700000E008600120704701694A1C02610878A2
:100B8000704700B58FB0CDE90131002105910549CD
:100B90007944CDE9031011466846FFF75BFD0FB0BD
:100BA00000BD0000E5FFFFFF0A6802F8010B0A60C4
:100BB0007047D1E900239A4202D2531C0B60107097
:100BC000704700002DE9FF5F15468A460446DFF8AE
:100BD000AC80F8440027D8E900103E46CDE900106B
:100BE00010E03AF816106A4602A800F094FD411C85
:100BF00007D02178890603D5E269391891420DD8CA
:100C00000744761C2078800602D5E069B84205DDED
:100C1000AE42E6DB3AF816000028E2D1A069C01B1C
:100C2000A0612046FFF7B2FCD8E90010CDE9001022
:100C3000002017E03AF818106A4602A800F06BFD91
:100C4000B0F1FF3F81460BD000250DF1080B05E008
:100C5000D4E901211BF8050090476D1C4D45F7D3E1
:100C600008F10100B0428046E4DB206A384420628B
:100C70002046FFF7A1FCBDE8FF9F0000569500004D
:100C80002DE9F0418046D21D22F007020025D2E96D
:100C90000002F52915A614D0011E72F1000106DA32
:100CA0000023D0EB030063EB020211A608E0D8F8A2
:100CB00000108B0701D50FA602E0490701D50EA64B
:100CC00001251146002408F1240704E000F0D8F8BB
:100CD00030323A55641C50EA0102F7D12B463246B5
:100CE00021464046BDE8F041FFF7D9BE00000000B4
:100CF0002D0000002B0000002000000030B4002177
:100D000000F1240408E002F00705D208303542EA79
:100D10004372DB086554491C52EA0305F3D10468A9
:100D2000002310A2250708D504F020040C4304D0AA
:100D3000C46901230CA2641EC46130BCFFF7AFBEBE
:100D400010B5044621461068FFF777FE024620469C
:100D5000BDE810400023D1E7D21D22F00701D1E900
:100D60000023CBE70000000030000000F0B40D4687
:100D70000188090502D5214C7C4402E01F4C7C44CB
:100D80000E34002100F1240608E002F00F071209DA
:100D9000E75D42EA03721B097754491C52EA0307D4
:100DA000F3D102780023120704D5702D06D009B1C3
:100DB000022311342246F0BCFFF771BE0123103428
:100DC000F8E770B504460D4621461068FFF735FE7A
:100DD000024629462046BDE870400023C6E7D21DE2
:100DE00022F00703D3E90023C0E70368126843F049
:100DF000200303600823C3610023B7E7B893000012
:100E00002DE9F04791460F4680460446002614F827
:100E1000015B2DB100F02CF80068405DC007F6D1F1
:100E20002B2D02D02D2D18D0641E4A46394620465F
:100E300000F022FC27B13968A14201D1C7F8008037
:100E40004FF0020471050BD54042002803DDFFF787
:100E5000E9FD0460A007BDE8F08746F48066E4E79A
:100E60000028F8DAFFF7DEFD04606FF00040F2E7DB
:100E700010B500F09CFC001D10BD00BF055F000018
:100E800030B5B0F10A024FEA900E71F100034EEA5C
:100E9000817EB0EB0E0061EB91014FEA101E4EEA2D
:100EA000017E10EB0E0041EB11114FEA102E4EEABD
:100EB000016E10EB0E0041EB11214FEA104E4EEA8D
:100EC000014E10EB0E0041EB1141401841F10001C1
:100ED0004FEAD00040EA41704FEAD10110EB8005A3
:100EE0004FEA810444EA907444EB01046D1944EB29
:100EF0000404521BA3414FF0000348BF0A3200D53F
:100F000030BD401C41F1000130BD70472DE9FF4F5D
:100F10000C461E464FF0FF378BB0D2E90001DDF8DA
:100F200060800A908A46C1F30A5505B93D46002102
:100F300008464FF00000BAF1000F00F4400005DA57
:100F400000EB80004FF4400101EA50004FEA905955
:100F5000B9F1010F00DDB9460A9850EA4A000ED0F7
:100F600044F61050A5F2FF3545432F14B8F1000F99
:100F70001ED07542291E1EDDC9F100021CE0B8F129
:100F8000010F4FF0000001D0302103E0F24305E0F3
:100F90002154401CB042FBDB30460022002121548A
:100FA0000B99C1F80880C1E900200FB0BDE8F08FAF
:100FB000BD1B6D1CDEE74A4600DA694206A800F058
:100FC00049FC06AB93E8070003AB83E807005046F3
:100FD0000A9900F0EFFC8DE80700A0F500501F38DB
:100FE00000900398002D09DD42F21F014A46084493
:100FF00003A90390684600F04EFF08E0A0F50050FA
:101000004A461F3803A90390684600F058FF8DE850
:1010100007000004000C03D04FF0FF30410800E04F
:101020001046B8F1000F03D00022009215461EE0D2
:10103000751E05D4FFF724FF303262556D1EF9D5B9
:10104000B3460122084302D000227F1C04E020782E
:10105000302801D100227F1E002A099786D01DE08A
:10106000112D07DAFFF70CFF303262556D1C50EA84
:101070000102F5D1084302D00098C8B10EE000216A
:10108000681E05E0235C625C63542254401E491CC8
:101090008142F7DBAB46A81B401E0990002004F8F4
:1010A0000B000B98099AC0F80880C0E9002B7CE778
:1010B00011264FF0000859E72DE9F04F8846044605
:1010C000D21D22F0070191B0D1E90001CDE90A015A
:1010D00002F04AF802460B98C00F01D02D2007E01D
:1010E0002068810701D52B2002E0202101EAC00001
:1010F000032A099001D0072A05DB03464146204612
:1011000000F05AFB0BE12078800601D5E06900E091
:101110000620B8F1650F814606D0B8F1660F18D0E9
:10112000B8F1670F70D131E00020B9F1110F0090D4
:1011300001DB112301E009F101030AAA01A90CA8AE
:10114000FFF7E4FEDDE90C70002609F10105834696
:1011500047E001204B4600904FF000470AAA01A942
:101160000CA8FFF7D3FEDDE90DB00C995D46002613
:1011700010B909F101000D18B9EB050003D4C0F155
:10118000FF3609F10105A5EB09002BE0B9F1010FCC
:1011900001DA4FF001090020B9F1110F0090484623
:1011A00001DD112300E003460AAA01A90CA8FFF7FC
:1011B000ADFEDDE90C704D46002683462078000721
:1011C0000AD4AB4500DA5D4601A8012D04DD4119C2
:1011D00011F8011C302907D04F4502DA17F1040F2E
:1011E00004DA012082460FE06D1EEEE7002F02DCDC
:1011F000ED1B3E4403E0781CA84200DD7D1CB81BBB
:1012000000F1010A4FF000472078000703D4AA45F7
:1012100001DB4FF0FF3A0021B7F1004F0DF1430819
:101220008DF8431024D002202B23002F01DA7F42B7
:101230002D230A21021EA0F1010000DC5FB197FB03
:10124000F1FC97FBF1F201FB1C7C17460CF1300C12
:1012500008F801CDEEE7A8F1010003702188090527
:1012600001D5452100E06521A0F1010800F8011C2D
:1012700009980FA9A1EB0807FF1D00B10120411932
:1012800001EBEA70A1693844081A401EA061207879
:10129000C00602D42046FFF779F9099828B1D4E9AD
:1012A00001219047206A401C20622078C00622D588
:1012B0002046FFF76BF91EE0002E04DBB34502DD8C
:1012C00001A8805D00E03020D4E901219047206A28
:1012D000401C2062761CAAF101005FEA000A0AD1D4
:1012E00000F065FAC0680168405CD4E901219047CC
:1012F000206A401C2062281EA5F10105DCDC07E005
:10130000D4E9012118F8010B9047206A401C2062A3
:10131000381EA7F10107F3DC2046FFF74DF9032043
:1013200011B043E62DE9F04F04460D46D21D22F0E0
:10133000070089B0D0E900974846394601F014FF0C
:101340000246F80F01D02D2307E02068810701D560
:101350002B2302E0202101EAC0038DF820300BB1DD
:10136000012000E00020032A824601D0072A04DB86
:101370002946204600F020FA3FE12078800601D47B
:101380000D2500E0E569C7F30A560D2D49DA002165
:101390004FEA175B08464FF00000002F00F44000B2
:1013A00007DA00EB80004FF4400100EBD07001EA57
:1013B00060008115012901DD4FF0FF3100224FEA65
:1013C000850CBCF1180F06D31346ACF118004FF092
:1013D0008052C24003E04FF4801323FA0CF30CF167
:1013E0000C0CBCF1200F04D3ACF1200C09FA0CF06A
:1013F00001E007FA0CF000294FF0004801DD18B9B0
:101400000FE00ED140450CD319EB02095F4121B921
:10141000404502D19F4329EA0209BBEB175F00D088
:10142000761C2088000502D57B48784402E07A4883
:101430007844193808AA302302F80A30037C0AF1EC
:101440000101002E0AF1020A53546A4602DC4FF0F1
:10145000300101E04FF031014FF001088DF800102C
:1014600002D0A6F2FF3603E059EA470100D06B4EE6
:10147000002D02DC2178090704D54FF002082E2147
:101480008DF80110C44600210BE0C7F303433F0170
:10149000C35C491C6D1E02F80830052908F10108DB
:1014A00001DA002DF1DC00210CE000EB1973491C7E
:1014B0001B786D1E082902F808304FEA091908F157
:1014C000010801DA002DF0DC21688B0602D516E058
:1014D000A8F10108E04505DD02EB080313F8013C23
:1014E000302BF5D0B8F1000F09DD02EB080313F83B
:1014F000013C2E2B03D1090701D4A8F10108002DCE
:1015000005DD3E2102F808106D1E08F10108407C3F
:10151000002E02F8080008F1010804DA2D207642B6
:1015200002F8080002E02B2002F808000A214FF41C
:101530007A70864208F101080BDB96FBF0F330333A
:1015400002F8083096FBF0F308F1010800FB13667F
:1015500001E0642E0CDB642096FBF0F3303302F8DC
:10156000083096FBF0F308F1010800FB136601E078
:101570000A2E06DB96FBF1F0303002F8080008F185
:10158000010896FBF1F001FB1060303002F8080012
:10159000A16908F1010808EB050202EB0A00081A2C
:1015A000A0612078C00602D42046FEF7EFFF216A32
:1015B00008AE01EB0A00206204E0D4E9012116F82C
:1015C000010B9047BAF1010AF7D22078C00602D584
:1015D0002046FEF7DBFF6E4609E016F8010B3E28B9
:1015E0000FD0D4E901219047206A401C2062B8F155
:1015F0000108F2D22046FEF7DFFF09B00320BDE864
:10160000F08F206A2844206203E0D4E901213020D1
:1016100090476D1EEBD3F8E7418D000002FCFFFF01
:1016200010B5436913B1AFF3008001E0FFF70EFA84
:10163000012010BD127800F124010A7000224A70C6
:101640000122EDE711684FF0FF32E9E710B5436979
:1016500013B1AFF3008001E0FFF7B4FA012010BD31
:10166000128800F1240182840022C2840122EDE765
:1016700011684FF0FF32E9E72DE9F05F8246154629
:101680008B4600270AF10104B9460078302801D0C2
:101690009DB113E014F8010B0127782803D05828D6
:1016A00001D045B10AE00DB1102D07D1002714F883
:1016B000010B102502E0082500E00A250026B046AF
:1016C0000EE005FB080005FB06F101271FFA80F874
:1016D00001EB1046B6F5803F00D3B94614F8010B74
:1016E000294600F0A9F80028EBDABBF1000F05D07D
:1016F0000FB1641E00E05446CBF80040B9F1000F72
:1017000006D0FFF78FF902210160C81EBDE8F09FE7
:1017100048EA0640FAE770B516460C460546FFF75C
:10172000A7FB036893F80101012806D0FF2C0FD80E
:10173000185D68B101202C7070BDD3F807013246E6
:10174000214603F2071303442846BDE870401847BA
:101750004FF0FF3070BD000001491820ABBEFEE71E
:10176000260002007546FEF7BDFDAE46050069463F
:10177000534620F00700854618B020B5FEF7A0FDBF
:10178000BDE820404FF000064FF000074FF0000882
:101790004FF0000B21F00701AC46ACE8C009ACE803
:1017A000C009ACE8C009ACE8C0098D46704710B567
:1017B000FEF798FD203010BD2DE9F0411F4604468C
:1017C00003260168072A01F4006004DB08B116A5AE
:1017D00005E016A503E008B115A500E015A521F068
:1017E00010002060A069C01EA0610FB1401EA06162
:1017F0002046FEF7CBFE4FB1D4E901213846904791
:10180000206A401C2062C01C206206E0206AFAE7C1
:10181000D4E9012115F8010B9047761EF8D2204635
:10182000FEF7CAFEBDE8F0814E414E006E616E00CB
:10183000494E4600696E66003A2800D2303820F0E2
:101840002002412A01D3A2F13700884201D34FF090
:10185000FF3070472DE9F047814616468AB033487D
:1018600078440DC88DE80D0030487844801C03ACE6
:101870000DC884E80D0041F69B300844372190FBE9
:10188000F1F290FBF1F5A5F1800501FB12041B3C80
:1018900002D56442012000E00020DFF890A08046DD
:1018A0000027FA44AAF1BE0A0DE0E00709D032464B
:1018B000684607EB47010AEB810100F000FB8DE869
:1018C000070064107F1C002CEFD1184F7F44AC3F01
:1018D00018E0E80714D007EB04100DF1180A90E89F
:1018E0000E008AE80E00C068F04201D198190890F5
:1018F000324606A903A800F0E2FA03AB83E807002A
:101900006D10641C002DE4D132466946B8F1000F19
:1019100003A802D000F0BFFA01E000F0D0FAC9E954
:101920000001C9F808200AB0BDE8F0879C890000D2
:10193000704700004FF0013C50F8042B51F8043B75
:101940009A4221D1A2EB0C03934313EACC1317D193
:1019500050F8042B51F8043B9A4215D1A2EB0C032A
:10196000934313EACC130BD150F8042B51F8043BEA
:101970009A4209D1A2EB0C03934313EACC13DBD0B8
:101980004FF00000704700BFD01A01BAB1FA81F1E0
:1019900001F0180122FA01F0CB40C1F12001DBB2C5
:1019A000C0B2C01A2CFA01F3D11A914311EAC31143
:1019B000E6D170475FEA400C08BF91F0000F4FEA94
:1019C0008C234FEAC12243EA51514FEA1C5018BF01
:1019D00000F5F0404FEA300018BF41F000415FEAE7
:1019E0006C5C00F02980BCF1FF3F08BF40F08040F4
:1019F0007047130C06BF12044FF0100C4FF0000C90
:101A0000130E04BF12020CF1080C130F04BF1201D5
:101A10000CF1040C930F04BF92000CF1020CD30FD5
:101A200004BF52000CF1010C11464FF00002A0F16E
:101A30001F00A0EB0C00704711F0004F08BF70476B
:101A400031F000413FF4D5AF0B0C06BF09044FF055
:101A5000100C4FF0000C0B0E04BF09020CF1080C27
:101A60000B0F04BF09010CF1040C8B0F04BF89009C
:101A70000CF1020CCB0F04BF49000CF1010CCCF1AE
:101A80002003A0EB0C0022FA03F302FA0CF241EA65
:101A9000030100F10100704720F07F4C80EA030051
:101AA00023F07F47ACEB070303F57C5300F00040C5
:101AB00003F1FF032DE980494FEA154B09B44FEAC2
:101AC000144325EA0B4E24EA03480FF2042606EBE2
:101AD000132749083E785FEA320203FB0667C7F521
:101AE000000707FB06F64FEA54374FEAD64606F1E1
:101AF000020607FB066CCCF1005C4FEA1C472CEA9F
:101B0000074C07FB06F40CFB06F504EB15464FEA01
:101B1000961634BF00204FF000404FEAD13706FB45
:101B200007FC4FEA1C4C0CFB0BF7D21B03FB0CF71A
:101B300061EB07010CFB0EF7B0EB074072EB1742AD
:101B40000CFB08F734BFA2EB0742B2EB074261EB94
:101B500017414FEA0C444FEA910706FB07FC4FEA96
:101B60001C4C0CFB0BF7B0EBC74072EB573203FB7E
:101B70000CF734BFA2EBC742B2EBC74261EB57315F
:101B80000CFB0EF7B0EBC70072EB57720CFB08F7BB
:101B900034BFA2EBC702B2EBC70261EB5771039FE0
:101BA0004FEA816141EA921104EBCC044FEAD1374C
:101BB0004FEA826206FB07FC42EA90124FEA80601D
:101BC0004FEA1C4C0CFB0BF7D21B03FB0CF761EB31
:101BD00007010CFB0EF7B0EB074072EB17420CFB52
:101BE00008F734BFA2EB0742B2EB074261EB1741A3
:101BF0004FEA8C554FEA910704EB9C2406FB07FC47
:101C00004FEA1C4C0CFB0BF7B0EBC74072EB5732A2
:101C100003FB0CF734BFA2EBC742B2EBC74261EB48
:101C200057310CFB0EF7B0EBC70072EB57720CFB91
:101C300008F734BFA2EBC702B2EBC70261EB5771E2
:101C400015EB4C254FEA816141EA92114FEA82621D
:101C50004FEAD13742EA901206FB07FC44F1000438
:101C60004FEA80604FEA1C4C0CFB0BF7D21B03FBC6
:101C70000CF761EB07010CFB0EF7B0EB074072EBC2
:101C800017420CFB08F734BFA2EB0742B2EB074246
:101C900061EB174115EB1C154FEA813141EA924186
:101CA0004FEA823242EA90424FEA80304FEA0C76A5
:101CB00044F1000448EA03434EEA0B484FF0000E9B
:101CC000B2EB080C71EB030724BF624639464EEBBA
:101CD0000E0E4FF0000B0018524149414BEB0B0B1D
:101CE000B2EB080C71EB03077BF1000B24BF6246DB
:101CF00039464EEB0E0E4FF0000B00185241494191
:101D00004BEB0B0BB2EB080C71EB03077BF1000BF9
:101D100024BF624639464EEB0E0E51EA020718BF49
:101D200046F0010616EB0E7655F1000254F1000163
:101D300003D5BDE88901BDE80088BDE88901BDE89B
:101D40000048B619524141EB0101A3F1010370476C
:101D500080807F7E7D7C7B7A7978777676757473E8
:101D6000727171706F6E6E6D6C6C6B6A6A696868A7
:101D7000676666656464636362616160605F5F5E3D
:101D80005E5D5D5C5C5B5B5A5A59595858575756B3
:101D90005655555554545353525252515150505018
:101DA0004F4F4F4E4E4D4D4D4C4C4C4B4B4B4A4A6A
:101DB0004A494949484848474747474646464545AE
:101DC00045444444444343434342424242414141E7
:101DD000002B26D4770021D01CB54FEA370703B477
:101DE0004FF010004FF010014FF000000FBCBDE8A5
:101DF00010400BF1010BBBF1010F08BF5FEA1707A1
:101E000022BF12F1010211F101014FF0004143F133
:101E1000000300F0004043EA00007047F9D3570880
:101E2000DAE746EA064613F1400F4FEA16461FDD91
:101E300013F1200FDFBF16430A46002120335B4217
:101E4000C8D0C3F1200746EA064602FA07F74FEA70
:101E5000164646EA0706C3F1200722FA03F201FA02
:101E600007F721FA03F14FF0000342EA0702B1E756
:101E700046EA020646EA06464FEA164646EA0106E2
:101E8000BCBF46EA0646360C4FF000034FF0000296
:101E90004FF000019EE72DE9C048934630B491E829
:101EA000380007C831EA400C48BF34EA430C03D578
:101EB000FFF7F2FDFFF78CFFF0BCBDE800882DE9CD
:101EC000C048934630B491E8380007C810F0804FFE
:101ED00008BF13F0804F03D100F005F8FFF778FF3B
:101EE000F0BCBDE8008820F07F4780EA030023F0C3
:101EF0007F4C07EB0C03A3F57C5300F00040A3F1EB
:101F0000FE0392F0000F00F0B38095F0000F00F098
:101F100077802DE901494FEA11404FEA144621EA42
:101F2000004800FB06FC24EA064708FB06F607FB10
:101F300008F800FB07F718EB06484CEB164C4FEA85
:101F4000124B18EB07484FEA15464CEB174022EAB4
:101F50000B4E0BFB06FC25EA06470EFB06F607FBBD
:101F60000EFE0BFB07F71EEB064E4CEB164C4FF02C
:101F700000061EEB074E4CEB174B18EB0B0840F11D
:101F8000000018EB0E0B58EB000840F100008F1A10
:101F90004FF000013CBFC943661B14BFB5EB040CF6
:101FA00000213CBFC943F61B4FEA17444EEA8E0E90
:101FB00027EA04454FEA1C4704FB07622CEA074C5A
:101FC00005FB07F70CFB05F604FB0CFC16EB0746BC
:101FD00042EB174216EB0C4642EB1C421BEB06068B
:101FE00058EB0202414146EA9E0601D5BDE801894F
:101FF000B619524141EB0101A3F10103BDE801898A
:102000004FEA14454FEA114724EA054621EA074CF6
:1020100005FB07F406FB07F70CFB06F105FB0CFCC0
:1020200011EB074144EB17444FEA124711EB0C4107
:1020300044EB1C4422EA074C05FB07F206FB07F7BA
:102040000CFB06F605FB0CFC16EB074642EB1742B1
:1020500016EB0C4642EB1C456A1854F1000148BFD0
:102060007047B619524141EB0101A3F101037047DA
:1020700095F0000F37D04FEA11424FEA144721EA9A
:10208000024624EA074C02FB07F106FB07F70CFBAC
:1020900006F402FB0CFC14EB074441EB17414FEA3A
:1020A000154714EB0C4441EB1C4125EA074C02FB9D
:1020B00007F506FB07F70CFB06F602FB0CFC16EB1C
:1020C000074645EB174516EB0C4645EB1C4212192B
:1020D00051F1000148BF7047B619524141EB01016F
:1020E000A3F1010370474FEA14454FEA114724EA70
:1020F000054621EA074C05FB07F106FB07F70CFB39
:1021000006F24FF0000605FB0CFC12EB074241EB18
:10211000174112EB0C4251EB1C4148BF704792181B
:1021200041EB0101A3F10103704700000000000032
:1021300070B5002400BF4FF08040806E054605F06A
:10214000805000285ED000BF5AE04FF0804004EB82
:1021500084022F4B13F8221000F1200252F82120A4
:1021600004EB8400194601EB8000426004EB84001C
:1021700001EB8000406800F00040E8B304EB84000D
:1021800001EB8000006904EB84011A4602EB810137
:102190004968014404EB840002EB8000016104EB18
:1021A0008400114601EB80008068401C04EB840130
:1021B00002EB8101886004EB8400114601EB800092
:1021C00080680A281AD304EB840001EB80000069C0
:1021D0000A21B0FBF1F104EB840002EB8000C16046
:1021E000002104EB840002EB80000161002004EB7D
:1021F000840102EB810100E000E08860601CC4B251
:10220000032CA2DB4FF08051880000F003F870BD72
:10221000980000028166704730B504460D46294695
:10222000204600F033F830BD70B504460D46B4F1D9
:10223000804F0AD14FF4806000F0F8FC1B2000F0C2
:102240006DF81B2000F0C2FC09E04FF4006000F0C4
:10225000EDFC1C2000F062F81C2000F0B7FC002010
:102260006066256070BD70B504460D4600F0EAF862
:10227000B0FBF5F606B90126711EC8B2226822F03D
:10228000FF0141EA0002226000BF70BD436E23F0EF
:10229000784242EA01034366704730B500F1080412
:1022A00054F8214024F07C7343EA020400F108054D
:1022B00045F8214030BD000010B50446206840F0CC
:1022C00080402060206820F480702060044920460F
:1022D000FFF7C9FF206820F48060206010BD000077
:1022E00020A1070010B50146202909D30A4A126827
:1022F000A1F1200301249C40A243074B1A6009E08E
:10230000054A121F136801228A409343024AC83AC1
:10231000C2F8C43010BD0000C840074010B50146E7
:10232000202909D30A4A1268A1F1200301249C4004
:102330002243074B1A6009E0054A121F1368012265
:102340008A401343024AC83AC2F8C43010BD0000A4
:10235000C840074010B500BF04490968C9B211B9A7
:1023600000F006F801E000F027F810BD84400740B7
:10237000002000BF0C490968C9B221B1012906D06B
:1023800002290DD108E000BF084908460AE000BF55
:1023900007490968084605E000BF0649084601E00C
:1023A000002000BF00BF704780400740001BB700FF
:1023B00010A10000D8AC070010B5002400BF0F48E2
:1023C0000068C0B230B1012808D002280AD0032822
:1023D00011D10BE0FFF7CCFF04460CE000F03CF815
:1023E000044608E000F040F8044604E000BF04485A
:1023F0000068044600BF00BF204610BD844007406F
:1024000014A10000024602F03F00431C01FB03F050
:1024100070470000014601F0030212B1012A09D100
:1024200003E000BF054800BF06E000BF044A106893
:1024300000BF01E0002000BF00BF7047001BB700D5
:1024400010A1000010B5FFF785FF02490968B0FB35
:10245000F1F010BDC040074010B502490868FFF711
:10246000D9FF10BDA040074010B5FFF7F5FF0446A7
:10247000024908682146FFF7C5FF10BD9841074093
:102480002DE9F05F00BF1648006806460EB900242B
:1024900022E0FFF75FFFB0FBF6F40025104858304C
:1024A00000681FFA80FA0AF0FF00FF2813D1CAF370
:1024B000072909F5807C411C4FF0000B2246A2FB46
:1024C000017E05FB01E104FB0B1162465B463846C9
:1024D000FDF7AEFF044600BF2046BDE8F09F0000B8
:1024E000D040074070B504462546042D04D3291F6B
:1024F000C8B200F00BF806E0E8B20349086000BF7C
:10250000002000F003F870BD8040074001490860DA
:102510007047000084400740014908607047000090
:10252000C04007400149086070470000A0400740D4
:102530002DE9F84F04468A46FFF70CFF8346BBFBA4
:10254000F4F9B9F1000F01D14FF0010909F0FF00D2
:102550001249086000BFBAF1000F17D004FB19B090
:10256000009004FB09FC89150098A0FB017001464E
:10257000624600233846FDF75BFF05462806FF212B
:1025800041EA104005495831086003E00020034942
:1025900058310860FFF774FFBDE8F88FD04007405E
:1025A00001F00303024663F39F12014B1A60704768
:1025B00098410740054A126822F4405100F0030296
:1025C00041EA0232024BC3F82421704724410740FC
:1025D0000040074070B505460E20FFF79FFE0F2014
:1025E000FFF79CFE1020FFF799FE0B20FFF796FEE9
:1025F0000B24204600F0BEFA204600F0D1FA00BFBE
:1026000070BD034603EB4110805C08B101207047A8
:102610000020FCE730B56BB100BF00F5005454F862
:102620002140012595402C4300F5005545F82140F7
:1026300000BF0DE000BF00F5005454F82140012513
:102640009540AC4300F5005545F8214000BF00BF60
:1026500030BD10B500F5005353F8214001239340DD
:1026600024EA030300F5005444F8213010BD10B5EE
:1026700000EB4114A35410BD10B500EB4114A3545A
:1026800010BD01F0500242607047042101627047A2
:1026900070B504460D46FFF75DFE0146606980B2E5
:1026A000401C6843B1FBF0F6C6F34F00A6EB5602A0
:1026B00091B28A1E02F00703821E02F0070243EA6B
:1026C0000212626200BF70BD8162704770B505463C
:1026D0000C46FF20A08150212846FFF7D2FF208919
:1026E00008B9012000E00020A27B40EA4200C1B20C
:1026F0002846FFF7E9FF00BF0220286200BF70BD37
:1027000070B504460E46002531462046FFF7DEFF31
:102710000BE000BF00BF606800F001000028F9D0A6
:102720003146204600F005F80546002DF1D0284638
:1027300070BD70B505460C4600BF6868064606F0D9
:10274000100030B10520A08110212846FFF799FF25
:1027500065E006F0400030B10320A081402128460A
:10276000FFF78FFF5BE006F00100002855D000BFA7
:102770006868C0F3420005284BD2DFE800F003048C
:102780001A3E440048E0A86AC1B26268501C60600A
:1027900011706089401E6081608920B100BF0120F6
:1027A000286200BF04E00020A0812846FFF76DFFEB
:1027B00032E0208960B12168481C20600878A86256
:1027C0002089401E208100BF0120286200BF13E045
:1027D000608960B1A07B012202EB4000C1B22846B3
:1027E000FFF772FF00BF0220286200BF04E0002054
:1027F000A0812846FFF749FF0EE00220A08128466D
:10280000FFF743FF08E00420A0812846FFF73DFFC3
:1028100002E00120A08100BF01E00120A081A08989
:10282000FF2801D0012070BD0020FCE770B50546EF
:102830002D20FFF773FD2D24204600F09BF9204644
:1028400000F0AEF900BF70BD10B500EBC11444F844
:10285000223010BD10B500EBC11444F8223010BD79
:1028600010B500EBC11444F8223010BD10B5044679
:102870008021204600F001F810BD02688A43026002
:10288000704710B504468021204600F001F810BDC5
:1028900002680A43026070478160704710B50446C1
:1028A000204600F06AF810BD00BF00F5007343F841
:1028B000212000BF704770B50B4641F4805500F5EC
:1028C000407404EBC3046560012500F5407444F8CE
:1028D000335000F5A06444F8325001249C4000F5C8
:1028E000A06505EBC2056C60846D56000325B540FC
:1028F000AC4356000125B5402C438465446D560019
:102900000325B540AC43446570BD000070B5044676
:102910000D46FFF797FDB0FBF5F600BF4FF0041131
:10292000204600F040F84FF00811204600F03BF838
:1029300000BF0020E064014604F5807242F82010D8
:1029400000BF314604F5007242F8201000BF4FF47A
:1029500080514FF4417001510120C4F80003024836
:10296000206000BF70BD0000010002004FF00411A4
:1029700042688A43426000BF704770B504462546EE
:10298000C5F38330851F05F12201C8B2FFF7C6FCED
:1029900005F12200C6B2304600F0ECF8304600F0F7
:1029A000FFF800BF70BD42680A4342607047C1F340
:1029B0000802826070470A7802F00F0242604268A3
:1029C0004B7803F00F0342EA0312426042688B78AF
:1029D00003F00F0342EA03224260CA783AB1436827
:1029E000CA78521E02F00F0243EA02324260704778
:1029F000016840F6BC72114001607047014688686A
:102A00007047000010B504460848844206D12A20C9
:102A1000FFF784FC2A2000F0E2F805E02920FFF708
:102A20007DFC292000F0DBF810BD000000C0044050
:102A30008AB2C261704770B504460D46206800F046
:102A4000010616B12046FFF7D3FF6878A97808433E
:102A50002978084369680843206028896062BC219E
:102A60002046FFF7A4FF36B100BF206840F0010008
:102A7000206000BF00BF70BD10B5044B13404C1E5A
:102A800004F00F0443EA0463036210BD00007F0FEB
:102A900070B505460C46BC212846FFF788FF6069E3
:102AA00040F4C002217E2846FFF7E6FF0020E060E8
:102AB00060600BE000BF2846FFF7A0FF00F00200B7
:102AC0000028F8D02146284600F00EFB21696068F6
:102AD0008842EFD300BF2846FFF790FF00F02000A8
:102AE0000028F8D020212846FFF761FF2846FFF78D
:102AF00085FF00F0080008B1002070BD6068FCE7A9
:102B000010B500F01F02C109044B53F82130012415
:102B10009440A343014C44F8213010BDC0810340D0
:102B2000F0B505076A0E0311064E56F82350FF262E
:102B3000964025EA060401FA02F52543014F47F8BD
:102B40002350F0BD0080034070B506460C46154684
:102B500005EB4410C1B23046FFF7E2FF70BD70B51F
:102B600006460C46154605EB4410C1B23046FFF749
:102B7000D7FF70BD202809DB0849896CA0F120022D
:102B8000012393401943054A916406E003494A6CC6
:102B9000012181400A4301494A64704700400740CF
:102BA000202809DB0849896CA0F120020123934009
:102BB0009943054A916406E003494A6C012181402A
:102BC0008A4301494A6470470040074010B50446F3
:102BD0002046FFF7CFFF2046FFF7E2FF10BD10B5FC
:102BE00004462046FFF7C6FF2046FFF7D9FF10BD79
:102BF00010B504462046FFF7BDFF2046FFF7D0FF83
:102C000010BD00000146064A1268064B02EA0300A6
:102C10001A460A401043044AC2F8080270470000EE
:102C20000842074078FFFF01004007400146064A7E
:102C30001268064B02EA03001A460A409043044A0F
:102C4000C2F80802704700000842074078FFFF0101
:102C50000040074010B51020FFF7E8FF0820FFF7FD
:102C6000E5FF0020FFF75EFC4FF48000FFF7CAFF8E
:102C700002210520FFF794FC4FF48000FFF7D6FFF8
:102C800000BF00BF0748006800F001000028F8D02E
:102C90000120FFF741FC0220FFF78CFC0620FFF724
:102CA00021FC10BD9C41074010B5FFF7D3FF10BDBC
:102CB00001468868704770B505460E46144628469A
:102CC000FFF7F6FF00F0040080B12146284600F02F
:102CD00092F800BFE0682169884201D1012000E03C
:102CE000002018B10421284600F024F83146284677
:102CF00000F022F870BD000070B50446204601F0D7
:102D0000D3FB0546FFF70AFB0848844203D1312074
:102D1000FFF76EFF09E00648844203D13220FFF737
:102D200067FF02E03320FFF763FF70BD000004403F
:102D3000004004400161704738B504460D4608E084
:102D400000BF6069C0B200906946284600F029F9CA
:102D500000BF2046FFF7ACFF00F001000028EFD1D4
:102D600038BD2DE9F04107460C4615461E46324651
:102D70002946204600F060F9BDE8F0812DE9F041D8
:102D800080460D46164600242F4605E03978404619
:102D900000F024F87F1C641CB44206DA4046FFF7BA
:102DA00087FF00F004000028F0D12046BDE8F08144
:102DB0002DE9F04781460E4615460027B04608E04B
:102DC0002A4641464846FFF7D9FF04462D1B2744B3
:102DD000A044002DF4DC3846BDE8F087C16170479F
:102DE00070B504460D46FFF74BFB2901B0FBF1F629
:102DF000701E206270BD38B505460C4604E09DF893
:102E000000102846FFF7EAFF2846FFF751FF00F0C1
:102E1000040028B16946204600F0F3F80028EED1FE
:102E200038BD00002DE9F04105460C461548B5FBBC
:102E3000F0F7B5FBF0F100FB11563C2096FBF0F1EA
:102E400000FB116020604FF4616096FBF0F0A06021
:102E5000A068C0EB4011C1EB0020A6EB00103C21A4
:102E600090FBF1F06060781C072190FBF1F201FB10
:102E70001200A0612146384600F006F800202062CA
:102E8000BDE8F081805101002DE9F04302460027A2
:102E9000164640F26C7000244FF000084FEAE079CB
:102EA00000EB99794FEAA909A0EB8909B9F1000F64
:102EB00001D1012300E000231AE04FEAE07900EBA2
:102EC00099794FEAA909A0EB8909B9F1000F04D15A
:102ED0004FF4B7764FF0010C03E040F26D164FF05F
:102EE000000CB24202DD921B401C01E00127634648
:102EF000002FE2D0A0F26C754D61CA6116E003EBC1
:102F00004305DFF8389009EB850515F80490551C4A
:102F1000A94509DA03EB4305DFF8209009EB8505A5
:102F20002D5D521B641C01E04FF00108B8F1000F49
:102F3000E5D0551CCD600C61BDE8F0832001000296
:102F40000D210AA000F0BCFE00BFBFF34F8F0B485D
:102F5000006800F4E0600A490843001D0749086062
:102F6000BFF34F8F00BF00BFFEE70000484152444F
:102F7000204641554C54210D000000000CED00E0AE
:102F80000000FA050146C8680A69801A704710B542
:102F9000044621606360A26000202061E06001209F
:102FA00010BD70B504460E462568204600F01DF899
:102FB00008B1002070BD6168491EE0680840A16842
:102FC00000FB015531462846A268FDF768FCE06821
:102FD000401CE0600120EDE70146C8680A699042A4
:102FE00001D1012070470020FCE710B504462046BF
:102FF000FFF7C8FF6168884201DB012010BD002097
:10300000FCE770B504460D4626682046FFF7E4FF4E
:1030100008B1002070BD6168491E20690840A168A0
:1030200000FB016631462846A268FDF738FC20699E
:10303000401C20610120EDE72DE9F0470446884659
:103040001746D4F800902046FFF7C6FF10B10020C5
:10305000BDE8F0872046FFF795FF06460546616804
:10306000491E2069084028446168884205D3616888
:10307000491E2069084061680D1A761BBD4201DABD
:10308000284600E0384605467F1BBE4201DA30463E
:1030900000E038460646BF1B6168491E20690840AB
:1030A000A16800FB0199A06800FB05F24946404673
:1030B000FDF7F5FB2069284420616168491E2069FD
:1030C00008402268A16800FB0129A06805FB008870
:1030D000A06800FB06F249464046FDF7E0FB206988
:1030E00030442061A819B3E770B505460C46206945
:1030F000401E6168814212D1D4E9003633F81600CF
:10310000217E626902F4702343F4E0064B1E03F053
:103110000F0346EA03630343AB6100BF06E0D4E953
:10312000000230F812102846FFF782FC6068401C4D
:10313000606070BD10B5FFF785F90149086010BDEA
:103140001C01000210B5FFF7AFFD10BD10B5034A1A
:1031500003490448FFF7AFFD10BD0000E827000257
:10316000FC27000200000440490050EAC12018BFBB
:1031700004204A0D18BF40F0010040F2FF72B2EB8C
:10318000515F08BF40F00200012808BF05207047CA
:10319000074810B5007848B102F0ECFE30B105499F
:1031A00000EB400001EB4010603810BD024810BD3C
:1031B00039010002701D00027429000210B5002AB6
:1031C00006DA22F00042D21D22F00703102203E0AB
:1031D000D21C22F003030C2213B19C188C4201D99B
:1031E000012010BD024401448360C0E90021C91AD6
:1031F000D018884202D810600246F9E7002010601B
:1032000010BD30380A2801D20120704700207047D5
:1032100005490978002905D000684FF6FF71DFF8ED
:103220000CC000DF70470000390100026557000044
:1032300004490978002903D00068DFF80CC000DFDA
:1032400070470000390100028D56000070B500245F
:1032500000214FF08040FEF7E7FF3B49C805FFF72C
:1032600002F84FF080400021384A00F1080343F88B
:10327000212000BF0013FFF7D9FC03204FF080414D
:10328000486000BF0020C86600BF00BF2AE004EB12
:1032900084002F4901EB80004078FF2820D004EB08
:1032A000840001EB80008078FF2819D0294804EBC6
:1032B00084050E4606EB8505697804EB840506EB6C
:1032C0008505AA78802300EBC11545F8223000BFA0
:1032D00004EB8401324602EB8101C878FFF710FC51
:1032E000601CC4B2032CD2DB4FF08040FEF7E4FF39
:1032F00000BF00BF4FF080400068012121EA9070BC
:103300000028F6D000BF8807806E054629464FF09A
:103310008040FEF77FFF01218807FEF77DFF1F2019
:10332000012181404209920002F1E022C2F800111D
:1033300000BF4FF080450026C20731462846FEF701
:10334000ACFF00BF70BD000080F0FA020D00004825
:103350009800000200800F407047000070B5002008
:1033600000F020F80446601C58B1204604F054F9DF
:103370000646054904F0AEF90546044904F08AF80A
:1033800070BD0020FCE70000335310445C8F12C076
:10339000014601EB8100024A02EB8000C0687047E1
:1033A0009800000210B504462046FFF7F1FF0346DF
:1033B000581C30B1C3F30B1040F6E4414843000BF6
:1033C00010BD4FF0FF30FBE710B5FFF73FFFFFF7F1
:1033D000C3FF10BD012001F05FFA072102A000F039
:1033E0006FFC00E000BFFDE74552524F52210D0037
:1033F00000240025002600F039FC41A000F068FC04
:10340000052001F049FA01F01BFA42A000F060FC2F
:1034100000F04AF944A000F05BFC02F055FE47A022
:1034200000F056FC03F024FC49A000F051FC02F02F
:10343000DBFD05460DB94BA000E04BA001464BA0BB
:1034400000F046FC01F090FB05460DB945A000E0F8
:1034500045A001464AA000F03BFC00F059FD05469E
:103460000DB940A000E040A001464AA000F030FCA9
:103470004DA000F02DFC062001F006FA4EA000F051
:1034800027FC4FF47A7001F01DFC0124204600F067
:103490007BFF33E0062001F065F850B93EB9601CAF
:1034A000C4B2052C00D10124204600F06DFF012696
:1034B00000E00026642001F005FC0220FFF772FF07
:1034C00007460120FFF76EFF80460020FFF76AFFE6
:1034D00081463B46424649463CA000F0F9FBFFF7D7
:1034E0003DFF814603F048FF07463A460B463CA0A5
:1034F00000F0EEFB4FF4C87001F0E4FBCAE70000F7
:10350000202A20496E697469616C697A696E672E38
:103510000D0A0000496E6469636174696F6E202E44
:103520002E206F6B2E0D0A00434C49204150502035
:103530002E2E2E2E2E206F6B2E0D0A0053657276C6
:103540006F202E2E2E2E2E2E2E206F6B2E0D0A006B
:10355000556C747261736F6E6963202E2E206F6BD1
:103560002E0D0A00657272006F6B000053656E735A
:103570006F7273202E2E2E2E2E2025732E0D0A00F4
:103580004D6F746F72202E2E2E2E2E2E2E20257310
:103590002E0D0A00446973706C6179202E2E2E2E38
:1035A0002E2025732E0D0A00202A2052756E6E697A
:1035B0006E672E0D0A00000053746174653A207323
:1035C00074616E6462792E0D0A0000004144433A32
:1035D0002025642C2025642C2025643B0D0A000046
:1035E00054454D503A20252E3032663B0D0A0000DE
:1035F00010B50446072000F00EF808B9002010BDF1
:103600000A2001F05FFB204600F005F808B9002011
:10361000F5E70120F3E701B582B00020034601225F
:1036200002A90090232001F043F808B900200EBD44
:103630000120FCE77CB50020019001AC0225234667
:10364000002211462320009501F032F808B900202D
:1036500000E0012010B94FF6FF707CBD9DF8050019
:103660009DF8041040EA0120F7E710B50D20FEF7A1
:1036700055FE0C20FEF752FE0D242046FFF77AFA85
:103680002046FFF78DFA00BF00F020FFFFF79CFEF9
:1036900000F0CCFF03F066FA01F00EFD02F07CFCB6
:1036A00002F0AEFD10BD000010B500F0FBF90021E6
:1036B000044801F097FB0449086008B9002010BDD8
:1036C0000120FCE7E477000018000002002400F06D
:1036D000D9F822E00A2001F0F5FA80210F48FDF721
:1036E00055F980210D4800F055FA041E00D114E070
:1036F00000200A4908550AA000F0EAFA80210A4889
:10370000FDF744F980220849044800F0D9F918B1BE
:10371000054903A000F0DCFA00BFDBE778030002F4
:1037200025730D0A00000000F80300022DE9F041A6
:1037300005460E461746002400BF10E00A4901EB7B
:1037400004114868FDF78CF8022806D9064800EBFA
:103750000410416805A000F0BBFA601CC4B2102C34
:10376000ECDB0020BDE8F0817802000225730D0A31
:103770000000000070B504460D46164607A000F094
:10378000A7FA0EA210A113A000F0A2FA1748016830
:1037900017A000F09DFA002070BD00004465766916
:1037A0006365202E2E2E2E2E2E2044532D322043A4
:1037B0006F6E74726F6C6C65720D0A0032333A3141
:1037C000363A3230000000004F637420313220322C
:1037D000303136004275696C64202E2E2E2E2E2E2E
:1037E0002E2025732025730D0A0000001C01000205
:1037F000436F726520436C6F636B202E2E20256C07
:1038000064204D487A2E0D0A000000002DE9F8438F
:103810008046894614460026002500200090002797
:103820006A460121204600F0F7F8071E01D1BDE8E5
:10383000F8833846FCF7D2FF46B26A46022120469A
:1038400000F0EAF8071E00D1F1E73846FCF7C6FFA2
:1038500045B23146002002F045FC2946012002F025
:1038600041FC2A46314602A000F032FA0020DEE791
:10387000506F696E7465722025642025642E0D0AD0
:103880000000000010B5064800F0A4F9054800F05B
:10389000A1F9054800F09EF9044800F09BF910BD1D
:1038A000F477000004780000147800002478000009
:1038B0002DE9F843804689461546002000900027F0
:1038C000022400266A460121284600F0A5F8071EBA
:1038D00001D1BDE8F8839DF800202AA13846FCF705
:1038E00093FF00B900249DF8002027A13846FCF77B
:1038F0008BFF00B90124022C01D10020E9E76A46C0
:103900000221284600F088F8071E00D1E1E79DF863
:1039100000201FA13846FCF777FF60B921461EA0A2
:1039200000F0D6F9204602F047FC214620A000F026
:10393000CFF90020CDE79DF8002024A13846FCF700
:1039400063FF08B10020C4E76A460321284600F05F
:1039500063F8071E00D1BCE73846FCF73FFF46B2CC
:103960003146204602F0BEFB28B13246214618A05F
:1039700000F0AEF904E0324621461DA000F0A8F99F
:103980000020A6E770616E0074696C74000000008E
:10399000746573740000000054657374696E672069
:1039A000736572766F2025642E2E2E0D0A0000009E
:1039B00054657374696E6720736572766F20256431
:1039C00020697320646F6E652E0D0A0073657400A4
:1039D000536572766F20256420616E676C65207375
:1039E000657420746F202564206465672E0D0A00BD
:1039F000536572766F20256420616E676C65207355
:103A0000657420746F202564206465672E66616983
:103A10006C65642E0D0A000030B5034600240020BA
:103A20000025157023E000E05B1C1D7815B11D78A2
:103A3000202DF9D100E05B1C1D7815B11D78202DDB
:103A4000F9D01D7895B1651CECB28C420FD11846A7
:103A500003E015786D1C15705B1C1D7815B11D7881
:103A6000202DF6D1157805B9002002E001E08C4246
:103A7000D9DB00BF30BD0146002000220AE00B78F0
:103A8000202B05D1012A04D0431C58B2012200E0AA
:103A90000022491C0B78002BF1D1012A01D1431ED1
:103AA00058B2704710B50020034908704FF4807178
:103AB0000248FCF78DFF10BD1500000278020002DD
:103AC0002DE9F05F05460F4690460024A1464FF0D1
:103AD000010BA246002600BF2BE02B4800EB041090
:103AE000D0F800A05046FCF7BBFE0646A85D202893
:103AF00001D0A85DD8B9324651462846FCF784FE6D
:103B0000A8B94FF00109204800EB041090F90C000F
:103B100000280BDB2846FFF7AEFF1B4901EB041121
:103B200091F90C10884201D04FF0020903E0601CAB
:103B3000C4B2102CD1DB00BFB9F1020F07D142464D
:103B400012493846FCF7ABFE4FF0010B18E0B9F113
:103B5000010F0ED10C4800EB0410806880B10A48B8
:103B600000EB04102A46414683683846984783464E
:103B700006E0424606493846FCF791FE4FF0010B3D
:103B80005846BDE8F09F00007802000218A200002D
:103B90006CA20000F8B505460E46002400200090F7
:103BA00014E00121684603F049F801280BD19DF883
:103BB00000000D2800D10AE09DF800002855641C83
:103BC000B44203D303E0012001F07CF8E9E700BF31
:103BD0002046F8BD30B501460A480078102801DBC0
:103BE000002030BD0848074A127800EB021091E827
:103BF0003C003CC003480078401C024A1070012081
:103C0000EFE7000015000002780200020848006893
:103C1000C0010BD507480068C00707D005488038A9
:103C20000068002802DA044901200870704700008B
:103C3000FCED00E0800E00E05C0100024FF060420D
:103C4000D36F002BFCD0036BD367D36F002BFCD05A
:103C5000C07840EA0120A2F87C0070474FF0604134
:103C6000CA6F002AFCD081F87C00704710B5012192
:103C7000044801F087F80449086008B9002010BD25
:103C80000120FCE7D87700000C0000020FB438B523
:103C9000002405A80090FE210848009B049AFCF728
:103CA0003FFC84B20020054908552146034802F034
:103CB000D3FF0020009038BC5DF814FB60010002C7
:103CC00070B504460D462946204602F0C5FF70BD7A
:103CD0000FB438B500244FF47A710F48006801F032
:103CE00075F8002815DB05A80090FE210B48009B05
:103CF000049AFCF715FC84B20020084908552146B7
:103D0000064802F0A9FF002000900348006801F077
:103D100051F838BC5DF814FB0C0000026001000291
:103D2000074A1268074BB2FBF3F20623B2FBF3F12A
:103D3000414300E000BF0A1EA1F10101FAD1704722
:103D40001C01000240420F0010B507480121082263
:103D5000102300EBC11444F8223000BF4FF0E050B4
:103D6000FEF777FC10BD000000800F402DE9F04108
:103D700007464FF001080026002400254FF0E050D0
:103D80000121082200F5005353F821304FF0010CB7
:103D90000CFA02FC43EA0C0300F5005C4CF82130FD
:103DA00000BF0023FEF763FC44F25060FFF7B8FF4A
:103DB0000123082219464FF0E050FEF758FC282056
:103DC000FFF7AEFF082201214FF0E050FEF741FC63
:103DD00000BF47E0002607E0701CC6B20120FFF7D5
:103DE0009FFFFF2E00D107E0082201214FF0E05095
:103DF000FEF707FC4045EFD000BF082201214FF03D
:103E0000E050FEF7FEFB8046FF2E00D12CE0042D93
:103E100026DB284605EBD0714910A5EB4101F9B925
:103E2000E11704EB5171C9101E4A515C4906090E95
:103E30002046E21704EB5272D2101A4B9954102EFE
:103E40000CDDE11704EB5171C9101A46515C41F0C9
:103E50000101E21704EB5272D2109954601CC4B2F3
:103E6000681CC5B2552DB5DB00BF282C18DB0D48EA
:103E700000780C49497808440A4989780844094976
:103E8000C9780844C0B207490979884208D1054871
:103E9000007878800348807838800120BDE8F08180
:103EA0000020FBE78500000210B580240A48007856
:103EB00001280CD1084989880802C11700EBD151AB
:103EC0004C12FF2C01DDFF2000E020460446E0B24A
:103ED00002F03BFC10BD0000A825000210B504460E
:103EE0000FE0012000F0EEFE08480068401C074982
:103EF000086008460068642803D900200860FFF7BE
:103F0000D3FF201EA4F10104EBD110BD6800000214
:103F100010B502F049FB08B9002010BD134A00217A
:103F2000084600F017FA124A6421012000F012FA44
:103F3000104A6421022000F00DFA0F4A6421032088
:103F400000F008FA0D4A6421042000F003FA002072
:103F500000F01AFA00210A4800F044FF09490860FD
:103F600008B90020D9E70120D7E700001D43000071
:103F7000893F000051410000314200006D400000C7
:103F8000A0A000006000000230B591B004460020FF
:103F90000D900E900F90109001F0F4FF05462C212B
:103FA00002A8FCF715FD02A92846FEF73BFF04EB2B
:103FB0004400214901EB8000407A78B900203F237A
:103FC0007F220146009002F095FA0A212E2002F08D
:103FD000E5FA002219491AA002F0A2FB17211420C9
:103FE00002F0DCFADDE90210CDE9000116A2102191
:103FF0000DA8049BFCF7AEFA002217490DA802F0A9
:104000008FFB2C211D2002F0C9FADDE90501491CB6
:10401000CDE90010079800F26C7310A210210DA8D2
:10402000FCF798FA002205490DA802F079FB02F08E
:1040300095FB11B030BD0000542500024000000285
:10404000436C6F636B000000253032643A253032D8
:10405000643A2530326400004800000225303464A0
:104060002D253032642D25303264000070B586B0C5
:1040700004460020029003900490059000BF27485A
:10408000868904EB4400264901EB8000407AC0B9E0
:1040900000203F237F220146009002F02BFA0A21E4
:1040A000242002F07BFA00221E491FA002F038FBF8
:1040B0002C213C2002F072FA00221A491DA002F0C5
:1040C0002FFB33461CA2122102A8FCF743FA02A8D8
:1040D000FCF7C6FB00EB400101EBC000C0F1800023
:1040E000C0F347051721032002F058FA00221349B4
:1040F00013A002F015FB33460FA2102102A8FCF713
:1041000029FA1721284602F049FA00220B4902A891
:1041100002F006FB02F022FB06B070BDA8250002EB
:10412000542500024000000248756D696469747985
:104130000000000025000000256400004800000287
:1041400020202020202020202020202000000000EF
:1041500070B586B00446002002900390049005904C
:1041600000BF2748868804EB4400264901EB800005
:10417000407AC0B900203F237F220146009002F020
:10418000B9F90A212E2002F009FA00221E491FA0C7
:1041900002F0C6FA2C21382002F000FA00221A4957
:1041A0001CA002F0BDFA33461BA2122102A8FCF7A4
:1041B000D1F902A8FCF754FB00EB400101EBC00071
:1041C000C0F18000C0F347051721032002F0E6F993
:1041D0000022124912A002F0A3FA33460EA21021C7
:1041E00002A8FCF7B7F91721284602F0D7F90022F8
:1041F0000A4902A802F094FA02F0B0FA06B070BDC3
:10420000A825000254250002400000024C6967689E
:10421000740000006C782E00256400004800000245
:10422000202020202020202020202020000000000E
:1042300070B586B00446002002900390049005906B
:1042400000BF2848008986B204EB4400264901EBF0
:104250008000407AC0B900203F237F2201460090B1
:1042600002F048F90A21192002F098F900221F49AA
:104270001FA002F055FA2C21302002F08FF9002205
:104280001A491EA002F04CFA33461EA2122102A8BF
:10429000FCF760F902A8FCF7E3FA00EB400101EB40
:1042A000C000C0F18000C0F347051721032002F0D1
:1042B00075F90022144915A002F032FA334611A212
:1042C000102102A8FCF746F91721284602F066F9EA
:1042D00000220D4902A802F023FA02F03FFA06B0CC
:1042E00070BD0000A8250002542500024000000215
:1042F00054656D70657261747572650064656743BD
:104300002E0000002564000048000002202020202C
:1043100020202020202020200000000038B5044666
:1043200000203F237F220146009002F0E3F817218E
:10433000252002F033F90022034904A002F0F0F92D
:1043400002F00CFA38BD0000480000024869203B2A
:104350002900000030B500EB40030A4C44F823105C
:1043600000EB400304EB83035A60002300EB40049E
:10437000044D05EB8404237200EB400405EB840438
:10438000637230BD5425000272B6084908700121DD
:1043900000EB4002064B03EB82021172002100EB9E
:1043A000400203EB8202517262B670476400000261
:1043B0005425000200244FF4FA7000F083FC02F050
:1043C000CDF90A2000F07EFC41E02148047804EB9E
:1043D0004400204901EB8000007A012834D104EB2D
:1043E000440001EB8000407A10B9012002F0C6F8C9
:1043F00004EB4400174901EB8000406838B104EB3E
:1044000044000A4602EB800041682046884704EBDE
:104410004400104951F8200038B104EB44010D4A22
:1044200052F82100FFF75AFD06E0002004EB44019A
:10443000084A02EB81010872012004EB4401054A9D
:1044400002EB8101487202E06420FFF747FDBCE700
:1044500064000002542500022DE9FF5F82461446E5
:104460001D46DDE90E67CAE90045CAE90467DAE9D5
:1044700002834246DAE900B1584602F093FECDE9E4
:104480000001DAE90483424602F08EFDCDE9020123
:10449000DAE90283424602F09FFCCAE90201DAE946
:1044A000020104B0BDE8F09F01460648814201D1F7
:1044B000312070470448814201D13220F9E733208E
:1044C000F7E70000000004400040044010B500245D
:1044D0004FF0E050FEF77EF800BF25E0144800EBF7
:1044E00084008378124800EB84004278104810F86A
:1044F00024104FF0E050FEF78DF80D4800EB8400DB
:10450000807801280ED10A4800EB8400C37808485F
:1045100000EB84004278064810F824104FF0E05079
:10452000FEF7AAF8601CC4B2122CD7DB10BD000045
:10453000D400000230B54FF0E051094C14F82020AF
:1045400004EB8004637801F5005454F822400125FF
:104550009D40AC4301F5005545F8224000BF30BDF9
:10456000D400000210B501464FF0E050074C14F89B
:10457000212004EB8104637800EB4214E45C0CB16D
:10458000012400E00024204610BD0000D4000002F9
:1045900030B54FF0E051094C14F8202004EB8004B2
:1045A000637801F5005454F8224001259D402C43C6
:1045B00001F5005545F8224000BF30BDD40000028F
:1045C00010B50446064800EB84004278044810F811
:1045D000241001234FF0E050FEF74EF810BD00000C
:1045E000D400000210B50446064800EB840042786F
:1045F000044810F8241000234FF0E050FEF73CF878
:1046000010BD0000D400000270B504460D460648F7
:1046100000EB84004278044810F824102B464FF039
:10462000E050FEF729F870BDD400000210B58023D9
:10463000162200211A48FEF707F9802317220021CD
:104640001748FEF701F98420FEF75AFA8320FEF797
:1046500057FA1448FEF7EAF8282030B1B0F5803F49
:1046600003D8411E0F4A516102E000210D4A5161F9
:1046700000BF0D490B48FEF70BF800BF0948006862
:1046800000F01F0040F001000649086000BF18203C
:1046900001218140054A430942F8231000BF10BDA3
:1046A00000800F4000000540801A060080E100E015
:1046B0002DE9F04104460D4617461E46DDF81880E8
:1046C0000A48847300200949888108460781A0F8B8
:1046D0000A80056046600648FEF712F803488089A4
:1046E00010B90120BDE8F0810020FBE7B8250002E9
:1046F0000000054010B50220FFF762FF10BD10B5A5
:104700000220FFF76FFF10BD10B500F0B3F800F006
:104710005FF8FFF7F4FF10BD10B500F0ABF800F044
:1047200057F8FFF7ECFF10BD10B500F0A8F800F047
:104730004FF8FFF7DFFF4FF4FA7000F0C3FA00F014
:1047400099F800F045F8FFF7D5FF10BD10B500F05F
:1047500091F800F042F8FFF7CDFF10BD10B500F062
:1047600089F800F03AF8FFF7C5FF322000F0AAFA06
:1047700000F080F800F02CF8FFF7BCFF10BD10B57A
:1047800000F078F800F029F8FFF7B4FF10BD10B57D
:1047900000F070F800F01CF8FFF7ACFF10BD10B58A
:1047A00000F06DF800F014F8FFF7A4FF10BD10B58D
:1047B00000F060F800F00CF8FFF7A1FF322000F0E5
:1047C00081FA00F057F800F003F8FFF793FF10BDEF
:1047D00010B50120FFF7F4FE10BD10B50120FFF762
:1047E00001FF10BD70B5054614480478092C06D2A7
:1047F000DFE804F006090C0F1215181B1E0000BF9D
:10480000FFF7C5FF17E0FFF7CAFF14E0FFF79EFFB1
:1048100011E0FFF779FF0EE0FFF77EFF0BE0FFF7F7
:10482000AEFF08E0FFF7C3FF05E0FFF797FF02E0E8
:10483000FFF77AFF00BF00BF70BD00001400000248
:1048400010B500220121094800F0F6FA0849086075
:1048500008B9002010BD4FF47A710548006800F0D7
:1048600005FB08B10020F5E70120F3E7DC77000045
:104870001000000210B50020FFF7A2FE10BD10B519
:104880000020FFF7AFFE10BD72B60249087062B695
:10489000704700001400000210B5044672B60348C9
:1048A00004700020FFF79EFF62B610BD14000002E6
:1048B0000EB5802200B109B110460AE00178012945
:1048C000FAD101A900F034F8042801D0002000E05A
:1048D0001020DDE9011203B000BD70B50D460400E3
:1048E00003D012B92078012801D0802070BD204665
:1048F00000F0C6FD28B12946204600F042F800200D
:1049000070BD812070BD10B500F038FD10B1017888
:10491000022901D0802010BD4188A1F57F42FF3AD5
:1049200003D000F035F8002010BD812010BD00003C
:1049300010B504468089002822D0608904EB8000ED
:10494000006908606078022805D10021204600F047
:104950008BFF00F079FF04F10C0000BFD0E85F1F6F
:10496000491E8AB2C0E8512F0029F7D16089401C46
:1049700080B26081E189884201D1002060810420F9
:1049800010BD10B500F070FFBDE8104000F05CBF36
:1049900010B5002100F068FFBDE8104000F054BFE2
:1049A00010B5FEF7C7FBFEF760FE0420FFF774FFAB
:1049B0001FA0FFF76BF91FA0FFF768F923A0FFF70F
:1049C00065F928A0FFF762F92CA0FFF75FF931A085
:1049D000FFF75CF935A0FFF759F93AA0FFF756F950
:1049E0003CA23FA141A0FFF751F94648016846A00B
:1049F000FFF74CF94BA0FFF749F900F06FF908B148
:104A0000FEF7E8FC4CA0FFF741F900214F4800F009
:104A1000E9F94F49086008B9FEF7DCFC4DA0FFF743
:104A200035F900F06DF908B1FEF7D4FC002010BD97
:104A30000D0A000020202020202E2D272F202C5F63
:104A40002020272D2E2020200D0A000020202020AD
:104A50002F202028202028203E20202920205C20D4
:104A60000D0A0000202020205C202020272D272058
:104A7000272D272020202F200D0A00002020202075
:104A8000272D2E2E5F5F205F5F2E2E2D27202020CA
:104A9000200D0A00202020202020202020202F5F11
:104AA0005C202020202020200D0A0000202320440C
:104AB000532D3220436F6E74726F6C6C65722023BD
:104AC0000D0A0000202A20426F6F74696E672E0D58
:104AD0000A00000032333A31363A33370000000022
:104AE0004F63742031322032303136004275696CA8
:104AF00064202E2E2E2E2E2E2E2025732025730D73
:104B00000A0000001C010002436F726520436C6FB5
:104B1000636B202E2E20256C64204D487A2E0D0AC2
:104B200000000000425350202E2E2E2E2E2E2E2E10
:104B30002E206F6B2E0D0A004B65726E656C202E59
:104B40002E2E2E2E2E206F6B2E0D0A00C877000001
:104B500000000002415050202E2E2E2E2E2E2E2EE2
:104B60002E206F6B2E0D0A0010B5002400BF08E048
:104B70000A4802F0ADF809480A3002F0A9F8601CB2
:104B8000C4B2022CF4DB0021054800F02BF90549E2
:104B9000086008B9002010BD0120FCE77000000289
:104BA000B0A000006C000002002485E043480078BB
:104BB00000287EDD002474E004EB8400404901EB12
:104BC0004000B0F9060004EB84013D4A02EB4101CC
:104BD000B1F9081088420DDD04EB8400114601EBA9
:104BE00040000089401C00B204EB840102EB41014B
:104BF00008811EE004EB8400314901EB4000B0F96C
:104C0000060004EB84012E4A02EB4101B1F90810C1
:104C100088420DDA04EB8400114601EB4000008964
:104C2000401E00B204EB840102EB4101088100E068
:104C300035E004EB8400224901EB4000B0F90800A4
:104C400000280CDD04EB84020B4603EB4202117AD0
:104C500004EB840203EB420002F084F81EE004EB54
:104C60008400174901EB4000B0F9080000280EDA73
:104C700004EB84020B4603EB4202127A5242D1B299
:104C800004EB840203EB420002F05EF806E004EB62
:104C900084010B4A02EB410002F046F800BF601CA1
:104CA000C4B2022C88DB0548007800F00BF803E062
:104CB000FFE7642000F006F878E7000084000002B7
:104CC00070000002EFF3058109B182207047DFF820
:104CD00008C000DF70470000E9670000EFF30580BF
:104CE00008B182207047EFF31480C00703D0DFF8CB
:104CF0000CC000DF704701F081BD0000FD670000BF
:104D000088B0EFF3058010B1822008B07047EFF350
:104D1000148010F00301134806D001291BD002298A
:104D200011D0032919D113E008A981F3098800786B
:104D3000C0070BD05FF0020080F31488BFF34F8FE1
:104D4000BFF36F8F09E00078C00706D10320F3E7B7
:104D50000078C00701D0FF20D7E7DFF80CC000DFE4
:104D6000D3E700004C7800006D680000EFF3058287
:104D70000AB1FFF79DBDDFF808C000DF70470000F3
:104D8000D9680000EFF305820AB100207047EFF305
:104D90001482064B02F001025B781A4303D0DFF85D
:104DA00010C000DF704701F0B4BD00003801000200
:104DB00013690000EFF3058109B1FFF7A4BDDFF827
:104DC00008C000DF7047000037690000EFF305827C
:104DD00012B14FF0FF307047DFF804C000DF7047BA
:104DE0005F690000EFF305820AB100207047EFF31E
:104DF0001482064B02F001025B781A4303D0DFF8FD
:104E000010C000DF704701F0C3BD00003801000290
:104E100091690000DFF80CC000DFDFF80CC000DF94
:104E2000FEE70000016A00001D6A0000DFF804C010
:104E300000DF7047556A000030B4EFF3058313B10B
:104E4000002030BC7047EFF31483064C03F00103DD
:104E50006478234303D0DFF810C000DFF1E730BCF3
:104E600001F004BE380100026D6A0000EFF3058214
:104E70000AB182207047DFF808C000DF70470000E9
:104E8000A56A0000094C4FF0FF3529462068FFF75E
:104E90006DFF02460846102AF7D1FFF7C7FF00282A
:104EA000F3D0024608469047EFE7000020000002DA
:104EB0000446012C06D0022C09D0032C0CD0042C63
:104EC00014D10EE0122113A0FEF7FAFE0FE011211B
:104ED00015A0FEF7F5FE0AE0102118A0FEF7F0FE7F
:104EE00005E012211AA0FEF7EBFE00E000BF00BFB4
:104EF00000BFBFF34F8F1B4800681B4900F4E06000
:104F000008431849001D0860BFF34F8F00BF00BF62
:104F1000FEE700004F535F4552524F525F535441DA
:104F2000434B5F4F564600004F535F4552524F521E
:104F30005F4649464F5F4F56460000004F535F455E
:104F400052524F525F4D42585F4F5646000000008C
:104F50004F535F4552524F525F54494D45525F4F38
:104F6000564600000CED00E00000FA0500BFFEE729
:104F7000074801684FF0E02041610021816107216D
:104F800001610448016841F07F41016040177047AA
:104F90004878000020ED00E07047000010B50024C4
:104FA0000C20FDF7BBF900BF0FE01D4B03EBC40362
:104FB0005A791B4B03EBC4039979194B03EBC403D8
:104FC0001879FDF7C1FD601CC4B2022CEDDB0C208A
:104FD000FDF788F91348FDF761FC32211148FDF710
:104FE00095FC002415E00E4A02EBC402D1790C4A6C
:104FF00052F834002246FDF75EFC094A02EBC40277
:10500000D179074A52F834000022FDF74DFC601CAC
:10501000C4B2022CE7DB0348FDF7A8FC10BD00007A
:10502000F0A000000080011C10B500240C20FDF74A
:1050300075F902240FE01E4B03EBC4035A791C4B95
:1050400003EBC40399791A4B03EBC4031879FDF7FA
:105050007BFD601CC4B2042CEDDB0C20FDF742F993
:105060001448FDF71BFC4FF4FA711248FDF74EFC93
:10507000022416E0A31EDAB20D4B03EBC403D97968
:105080000B4B53F83400FDF716FC094A02EBC4023F
:10509000D179074A52F834000022FDF705FC601C64
:1050A000C4B2042CE6DB0348FDF760FC10BD000031
:1050B000F0A000000000021C10B5FFF76FFFFFF723
:1050C000B3FF10BD70B504460D46054A02EBC4029D
:1050D000D179034A52F834002A46FDF7E5FB70BD4A
:1050E000F0A0000070B504460D460B4951F834009D
:1050F00000BFD0F8001269436422B1FBF2F10E4602
:10510000054A02EBC402D179034A52F83400324610
:10511000FDF7CAFB70BD0000F0A0000050E8001FC2
:1051200031B10B6840E80032002AF7D108467047D9
:10513000BFF32F8FFAE710B568B161B10B3121F0E1
:105140000302016844680B1A1B1B934205D20846F0
:1051500009680029F5D1002010BD210007D02118D1
:105160000368C1E90032016001F1080010BD42602E
:10517000083010BD70B50D46002812D04FF6FF71F3
:10518000084C884204D222680146104600F09AFB7F
:1051900020684570044800F0DDF8BDE8704000F07C
:1051A00091BC70BD40010002442900020F4810B5B7
:1051B0000D4942680E480B680068934204D00A60AB
:1051C000CB88421E1A448A808A8880B282420AD1E1
:1051D00000200860054800F0BDF80146BDE8104019
:1051E000024800F093BB10BD5401000244290002A4
:1051F0005001000270B5194DE86800282CD0A88A2B
:10520000401EA882002621E0A06838B16168416094
:10521000606810B1A16881606660A6600F48214691
:10522000183800F073FBA08AA8826078042804D1A3
:105230000B49E08A09880844A08201206070E06878
:10524000E860E06808B10561E6602661A88A002888
:1052500002D1EC68002CD7D170BD00005C2900029F
:105260005001000270B504000FD00D4DA178012649
:105270002868827891420CD900F064FB2868467057
:105280002046BDE8704000F01DBC064800F062F802
:10529000F7E766702146BDE87040024800F036BB73
:1052A00040010002442900020321FFF763BF000010
:1052B00010B50446008B084320836278618B062A70
:1052C00018D0052A19D1084217D001EA00026283DA
:1052D00088432083204600F060FB01206070628BD1
:1052E0000821204600F055FB2146BDE81040034848
:1052F00000F00CBB31EA0002EAD010BD44290002E4
:10530000814202D342688A4201D801207047026874
:105310000A60BFF35F8F50E8003F0A689A42F6D1F7
:1053200040E80012002AF2D10020704768B161B154
:105330000022083902E00246006830B18842FAD102
:105340002AB10068106000207047012070470021DA
:105350004160F8E70146406842684A600B780022E5
:10536000022B05D0012B03D0032B01D042607047E4
:1053700043680BB19960426082607047810700D03A
:105380000020704770B504460020154620700122A9
:105390006270A17084F824106060A060E0602061F9
:1053A0002062A082E0822083608384F82500E08C64
:1053B00018B90548FFF7B2FEE06229462046BDE86D
:1053C000704000F01DB800005806000208B108291E
:1053D00001D2012070470144091F002201600A60C8
:1053E00042601046704700000348002101600349F5
:1053F0000988C18070470000540100023C78000019
:1054000070B5C28C1C4D930802D12A88C2F38D035B
:10541000C26A02EB8302540700D5121F4FF080745A
:1054200042E9021400242646B2F1400242F8246008
:10543000641C0E2CFAD3C469146282620163296869
:10544000C90014D5112B12D94FF0FF31103B11EBCD
:1054500053014FF0CC3305D042F8043C42F8083DEC
:10546000491EF9D1C16A121F8A4200D91360C06A6D
:105470000249016070BD000038780000A52E5AE294
:10548000C1898089081A7047012202700022427087
:105490008270426002814281103982818908C18113
:1054A000704700002DE9F041044640680E464FF079
:1054B000000804F10C05E8B36078012701283ED00C
:1054C000022813D003285CD10846FFF727FE050009
:1054D00057D02046FFF73EFF0446294600F056FA13
:1054E0006770204600F059FA214621E02046FFF778
:1054F00031FF0646002100F049FA2189F06904EBEA
:1055000081010861D5E85F0F401C81B2C5E8501FDA
:105510000028F7D12089401C80B22081E18988428F
:1055200001D1A4F808807770304600F036FA314691
:10553000174800E00CE0BDE8F04100F0E7B9204674
:10554000FFF708FF04463246102100F022FAC7E7B1
:10555000A089E189884216D2208904EB8000066187
:10556000D5E85F0F401C81B2C5E8501F0028F7D175
:105570002089401C80B22081E189884201D1A4F8B1
:105580000880BDE8F081BDE8F0410320FFF790BC42
:105590004429000270B50446808915460026C0B330
:1055A000608904EB8000006908606089401C80B25B
:1055B0006081E189884200D16681606810B16078BD
:1055C00002280BD014F10C04D4E85F0F401E81B206
:1055D000C4E8501F0028F7D1002070BD2046FFF717
:1055E000B9FE0546002100F0D1F92189E86904EBF4
:1055F000810108612089401C80B22081E1898842B4
:1056000000D12681284600F0C8F92846FFF72AFE77
:10561000E2E7FFE73DB10B48626801682AB1204626
:1056200000F074F908E0012070BD616001684E600F
:10563000006884600120607008212846FFF79AFD09
:10564000F1E7000040010002002814D0411C13D0F3
:105650000C4A4FF6FE7190420CD800EB4002C2EBB0
:10566000C0120948036803EBC202521EB2FBF3F0FA
:10567000884204D9084670474FF6FF70704780B2E1
:105680007047000000093D00587800002DE9F04106
:105690000446408820B1314DA1682A68914202D069
:1056A000FF20BDE8F081401E0004000C608053D153
:1056B0002968086AA04209D1E068086208E0C26867
:1056C000A24202D1E268C26002E010460028F6D190
:1056D00091F824000A6A06E053681BB19B78834264
:1056E00000D91846D268002AF6D18870DFF8708099
:1056F0006168012611B32046FFF72CFE0746002102
:1057000000F044F9384600F048F96680A760386A2E
:10571000E0603C622968D8F804008A788078824288
:1057200001D3384616E00E4800F0F0F839460C4830
:1057300000F0ECF8286846707E700AE0D8F8041093
:105740008A782968824207D9054800F0DFF828687E
:1057500046700020FFF786FD0020A2E7400100020E
:105760004429000270B5184D0E4604464188286849
:1057700039B1A168814209D16088401C6080002055
:1057800070BDA060016AE1600462F5E776B18A78D5
:105790008078824203D28870A06800F0DDF86068EB
:1057A00030B12046296800F0B1F808E0012070BD52
:1057B00028686060296800204860286884600921A2
:1057C0003046FFF7D7FCF1E74001000270B51B48F7
:1057D000012102685170006800F0B4F8184D6C782F
:1057E00018E000BF05EBC40148680278EAB1012A5D
:1057F00020D000F005F9E878641C844200D1002430
:105800000F48801CD0E84F1F491EC9B2C0E8421F94
:10581000002AF7D1A8780028E4D16C700948FFF776
:1058200099FDBDE8704000F04DB9098989B2FFF7D4
:105830003FFDE0E78968FFF735FEDCE74001000245
:10584000A81C0002442900020548017811B1012179
:105850004170704703494FF0805008607047000066
:105860004801000204ED00E0F0B4154DAB1CEE78E9
:105870004FEA0507D3E84F2FB24202D1BFF32F8F73
:1058800011E0521CD4B2C3E8424F002AF2D100BF4B
:10589000D7E84F2F541CB44200D10024E4B2C7E82B
:1058A000434F002BF4D1EB78934205D905EBC202AC
:1058B000C2E90101F0BC7047F0BC0220FFF7F8BA62
:1058C000A81C0002104A10B5D368ABB113469B8ADE
:1058D00003E08CB12246A48A2344D4688B42F8D3D7
:1058E000C460D0600261C46804B12061591A818229
:1058F000908A401A908210BD0024C460D060C91AFA
:1059000002619182848210BD5C29000230B5027868
:105910000023022A03D0012A01D0032A00D1012347
:105920008C7800E01046426812B19578A542F9D211
:105930004A6041601BB102B19160886030BD0020B7
:10594000FBE7000003494A68426000228260486029
:10595000704700004429000210B5836804462BB943
:10596000607801280ED1084B03E09B681878002866
:10597000FBD0204600F026F82146BDE8104018462E
:10598000FFF7C4BF10BD000044290002806A016215
:105990007047806AC0E90812704710B50169002994
:1059A0000ED0C268CA60C36800223BB18B8A848A69
:1059B00023448B82C3681961C26000E08A8202615D
:1059C00010BD0000816839B142684A604168002911
:1059D00001D0806888607047054906E04A688242C5
:1059E00002D140684860704711460029F6D17047DF
:1059F0004429000202220270002242604180704766
:105A000010B5416881B1FFF7A5FC0446FFF7C5FF5B
:105A10000120607001462046FFF7B8FF2146BDE82F
:105A200010400348FFF772BF4188491C418010BDF8
:105A30004429000210B5416861B1FFF78BFC0446B0
:105A40000121FFF7A3FF2046FFF7A7FF2046FFF73E
:105A500009FC02E04188491C4180002010BD000083
:105A600010B50C46418819B1491E4180002010BD77
:105A700034B10A4A4368116823B1FFF747FF07E0D2
:105A8000012010BD416013680021596011688860D1
:105A900007212046FFF76EFBF2E7000040010002FD
:105AA00006480068D0E90A10814203D3006804491F
:105AB000884202D00120FFF7FBB970474001000285
:105AC000A52E5AE20749022248604270064A12781F
:105AD000002A05D006C98A4202D0C078FEF7BEB8B7
