:020000040000FA
:10000000F01C00028D02000095020000594B000018
:1000100000000000000000000000000000000000E0
:1000200000000000000000000000000001030000CC
:1000300000000000000000006D0300007D030000D0
:10004000A1020000A1020000A1020000A102000024
:10005000A1020000A1020000A1020000A102000014
:10006000A1020000A1020000A1020000A102000004
:10007000A1020000A1020000A1020000A1020000F4
:10008000A1020000A1020000A1020000A1020000E4
:10009000A1020000594D0000A1020000A1020000D1
:1000A000A1020000A1020000A1020000A1020000C4
:1000B000A1020000A1020000A1020000D540000042
:1000C000A1020000A1020000A1020000D141000035
:1000D000A1020000A1020000A1020000A102000094
:1000E000A1020000A1020000A1020000A102000084
:1000F000A1020000A1020000A102000000F002F82D
:1001000000F0B0F80AA090E8000C82448344AAF101
:100110000107DA4501D100F0A5F8AFF2090EBAE8FF
:100120000F0013F0010F18BFFB1A43F0010318472B
:10013000386A0000586A00000A444FF0000C10F8BA
:10014000013B13F0070408BF10F8014B1D1108BF55
:1001500010F8015B641E05D010F8016B641E01F8F5
:10016000016BF9D113F0080F1EBF10F8014BAD1C45
:100170000C1B09D16D1E58BF01F801CBFAD505E063
:1001800014F8016B01F8016B6D1EF9D59142D6D3BD
:10019000704700000023002400250026103A28BFE5
:1001A00078C1FBD8520728BF30C148BF0B607047E9
:1001B0006E2900F06B85702900F0E781662906F052
:1001C0007782652906F07482672906F071826129B9
:1001D00006F0708203681B0A28BF41F0800169297C
:1001E00000F01885642900F01585752900F0128546
:1001F0006F2900F04286782900F0B381E92900F0E8
:10020000DD85E42900F0DA85F52900F0D785EF29AE
:1002100000F03F86F82900F0B2810368DB0928BFAF
:1002200041F08001632901F0AD82732901F0B282AF
:10023000E32901F0BD82F32901F0C282002070475A
:100240001FB501F00FFD04000020002106F004FAA4
:10025000401C60600020002106F014FAE0601FBD21
:1002600010B510BD01F0D9FC114603B404F0FFFD38
:1002700003BCFFF7E5FF05F0F3FA01F0ABFD03B4B3
:10028000FFF7EEFF03BC01F0EFFD000008488047D8
:1002900008480047FEE7FEE7FEE7FEE7FEE7FEE769
:1002A000FEE7000004480549054A064B7047000078
:1002B000294D0000FD000000F0190002F01C0002B2
:1002C000F01A0002F01A00027CB51D4616460C001A
:1002D000009001D02044401E074B7B442A466946CB
:1002E0000190304600F0EBFC05461CB10020694649
:1002F00000F0F8FC28467CBD110A0000FFFFFFFF5C
:100300001EF0040F0CBFEFF30880EFF30980816942
:1003100011F8021CD9B901B590E80F10E047BDE80B
:1003200000508CE80300194B93E80600914208BF87
:10033000704719B12CE9F00FC1F838C01A60906B02
:10034000B0E8F00F80F309886FF0020E7047104A92
:1003500013689942FAD801B552F821C00FC8E04796
:10036000BDE80050CCF800007047000001B502F075
:1003700041F9BDE80140EFF3098CD4E701B502F083
:100380009DFBBDE80140EFF3098CCCE7D4150002DA
:100390006068000053EA020C00F069802DE9F04B20
:1003A0004FF00006002B1FBFB3FA83F503FA05F4E4
:1003B00024FA05F65E4012BF1643B2FA82F502FA3D
:1003C00005F4C5F120051EBF22FA05FC44EA0C0421
:1003D000203556EA044C4FEA144418BF641C4FF011
:1003E00000084FF00009904271EB030C39D300294B
:1003F00019BFB1FA81F701FA07F6B0FA80F700FAEF
:1004000007F6C7F120071EBF20FA07FC46EA0C06D4
:100410002037B6FBF4FCA7EB0507103F07F01F0BD6
:10042000CBF120060CFA0BFB2CFA06F644BFB346C0
:100430000026202FA4BF5E464FF0000B5BEA060C9F
:1004400008BF4FF0010B19EB0B09ABFB027C48EB2B
:100450000608C01B06FB02CC0BFB03CC71EB0C01A6
:10046000C1E70B46024641464846BDE8F08B13B54E
:100470004FF000004FF00001AFF30080BDE81C40DA
:10048000704700000FB47CB50C0009AA009001D0A1
:100490002044401E084B7B4469460190089800F0B8
:1004A0000EFC05461CB10020694600F01BFC2846E6
:1004B0007CBC5DF814FB00005508000070B50446D4
:1004C00085690068C10601D5302600E02026C007F6
:1004D00007D070BDD4E9012130469047206A401C06
:1004E00020626D1EF6D570BD70B504468569007832
:1004F000C00707D170BDD4E9012120209047206AB0
:10050000401C20626D1EF6D570BD0000F0B40D4693
:100510000188090502D5214C7C4402E01F4C7C4433
:100520000E34002100F1240608E002F00F07120942
:10053000E75D42EA03721B097754491C52EA03073C
:10054000F3D102780023120704D5702D06D009B12B
:10055000022311342246F0BC00F002BB0123103408
:10056000F8E770B504460D462146106800F0C6FA5B
:10057000024629462046BDE870400023C6E7D21D4A
:1005800022F00703D3E90023C0E70368126843F0B1
:10059000200303600823C3610023B7E74963000019
:1005A0002DE9F05F894604464FF0000ADFF874B188
:1005B000FB44C0F820A02046E1688847002874D09A
:1005C000252806D0D4E901219047206A401C2062EA
:1005D000F1E700265F462046E16888472028054667
:1005E00007DB312D05D2781910F8200C08B106432D
:1005F000F1E7B00701D526F00406C4F81CA00027D7
:10060000C4F818A02A2D09D0284604F0FFFB38B3FF
:1006100004EB8708303DC8F8185019E059F8041B5E
:10062000204604EB87029161E1688847012F054667
:1006300018D1E069002820DA26F020061DE0D8F85D
:10064000180000EB800005EB40003038C8F81800B7
:100650002046E1688847054604F0D8FB0028EED123
:10066000012F0AD02E2D08D12046E16888477F1C33
:100670000546022F46F02006C4DBA069002803DAF5
:10068000404246F00106A061F00701D026F01006B6
:100690006C2D0BD0682D09D04C2D39D06A2D35D05A
:1006A000742D35D07A2D33D016E038E0E1682F462E
:1006B00020468847B842054609D16C2F26D04FF412
:1006C0008060E168064320468847054604E06C2FB9
:1006D0001AD04FF4807006430DB3A5F141001928DC
:1006E00002D8203546F400664A4629462046266050
:1006F0004E46FFF75DFD80B101280BD0F61D26F0B8
:10070000070000F1080956E74020E4E78020D8E719
:100710000020D6E706F104094DE7284652E7206A93
:10072000BDE8F09FD96200000FB400B58DB010A9EC
:10073000099000910B904FF0FF300A9000200C9030
:10074000064878440690064878446A4607900F9910
:1007500009A800F0BDFB0DB05DF814FBAB0700006D
:10076000C30700002DE9FF5F1D464FF0FF3B914698
:100770004FF000085F46D5E90146A96901987F1C42
:100780008847296A824688470028F6D1BAF1FF3F98
:100790000CD0002E24F4C06419DD600614D5BAF123
:1007A0002B0F09D0BAF12D0F0ED103E0584604B03B
:1007B000BDE8F09F44F48064A96901987F1C8847D4
:1007C000761E8246002E02DDBAF1300F03D0B9F159
:1007D000000F26D032E0A969761E01987F1C44F4F0
:1007E00000748847002E824605DDBAF1780F06D0E6
:1007F000BAF1580F03D0B9F1000F10D01EE0B9F1D3
:10080000000F02D0B9F1100F18D1A969761E019816
:100810007F1C24F4007488478246102002E00820E0
:1008200000E00A20814609E0A96908FB0908761E54
:1008300001987F1C44F4007488478246002E05DD31
:100840004946504600F030FB0028EDDAE96901988E
:100850008847A00502D46FF00100A8E7E00725D182
:10086000600613D5600502D5C8F1000000E04046DF
:1008700029680A1D2A600968220501D5087015E05B
:10088000220701D5088011E008600FE02868011DEB
:1008900029600068210502D580F8008006E0210764
:1008A00002D5A0F8008001E0C0F8008038467EE75D
:1008B00070B5064600F017F90468054630460A226E
:1008C000002100F035FB2C6070BD40EA010310B53B
:1008D0009B070FD1042A0DD310C808C9121F9C42D0
:1008E000F8D020BA19BA884201D9012010BD4FF0C2
:1008F000FF3010BD1AB1D30703D0521C07E000200F
:1009000010BD10F8013B11F8014B1B1B07D110F86B
:10091000013B11F8014B1B1B01D1921EF1D118466E
:1009200010BD10B5431C02E010F8011B71B1810726
:10093000FAD14FF0013202C88C1A8C4314EAC2116A
:10094000F9D0C01A0A0603D0C01E10BDC01A10BDCF
:100950000A0401D0801E10BD0902FCD0401E10BD4B
:10096000032A40F2308010F0030C00F0158011F8DB
:10097000013BBCF1020F624498BF11F801CB00F8B3
:10098000013B38BF11F8013BA2F1040298BF00F807
:1009900001CB38BF00F8013B11F0030300F02580C4
:1009A000083AC0F0088051F8043B083A51F804CBEB
:1009B000A0E80810F5E7121D5CBF51F8043B40F8B1
:1009C000043BAFF30080D20724BF11F8013B11F8BC
:1009D00001CB48BF11F8012B24BF00F8013B00F800
:1009E00001CB48BF00F8012B704710B5203AC0F08A
:1009F0000B80B1E81850203AA0E81850B1E8185020
:100A0000A0E81850BFF4F5AF5FEA027C24BFB1E85C
:100A10001850A0E8185044BF18C918C0BDE81040CD
:100A20005FEA827C24BF51F8043B40F8043B08BFD6
:100A30007047D20728BF31F8023B48BF11F8012B9D
:100A400028BF20F8023B48BF00F8012B70474FF049
:100A500000020429C0F0128010F0030C00F01B808B
:100A6000CCF1040CBCF1020F18BF00F8012BA8BF99
:100A700020F8022BA1EB0C0100F00DB85FEAC17C5D
:100A800024BF00F8012B00F8012B48BF00F8012B10
:100A900070474FF0000200B5134694469646203941
:100AA00022BFA0E80C50A0E80C50B1F12001BFF427
:100AB000F7AF090728BFA0E80C5048BF0CC05DF88D
:100AC00004EB890028BF40F8042B08BF704748BFDB
:100AD00020F8022B11F0804F18BF00F8012B70474F
:100AE00070477047704704F059B909684A0501D545
:100AF00040B27047C905FCD500B2704709684A0585
:100B000001D5C0B27047C905FCD580B2704770B539
:100B10000C460546012A05D02878800600D5EA69EA
:100B2000002302E0012305E05B1C934202D2E05C5B
:100B30000028F9D1A869E618C01AA861286A1844E3
:100B400028622846FFF7BAFC04E0D5E9012114F831
:100B5000010B9047B442F8D32846FFF7C5FC70BD9F
:100B60002DE9F0470D4699469246044600F12408C7
:100B70000168880604D5E06921F01001216000E0D9
:100B80000120A84201DD471B00E00027A1697A1976
:100B900002EB0900081AA0612078C00602D42046A2
:100BA000FFF78CFC002608E0D4E901211AF80600C2
:100BB0009047206A401C761C20624E45F4DB20786A
:100BC000C0060AD52046FFF779FC06E0D4E90121EA
:100BD00030209047206A401C2062381EA7F1010790
:100BE000F4DC07E0D4E9012118F805009047206AF9
:100BF000401C2062281EA5F10105F3DC2046FFF70A
:100C000073FC2078000602D50220BDE8F0870120A1
:100C1000FBE700002DE9F041064600241068752925
:100C2000314616A510D0FFF760FF002802DA4042D7
:100C300013A507E031688A0701D512A502E049072C
:100C400004D511A5012401E0FFF758FF00210A2275
:100C500006F1240709E0B0FBF2FCB0FBF2F302FB63
:100C60001C00303078541846491C0028F3D1234624
:100C70002A463046BDE8F041FFF772BF0000000091
:100C80002D0000002B000000200000001168026809
:100C9000006A530501D508700AE0D30501D5088024
:100CA00006E0130603D5C217C1E9000200E00860A0
:100CB0000120704701694A1C02610878704700B53D
:100CC0008FB0CDE901310021059105497944CDE985
:100CD000031011466846FFF763FC0FB000BD00002B
:100CE000E5FFFFFF0A6802F8010B0A607047D1E9CF
:100CF00000239A4202D2531C0B6010707047000010
:100D00002DE9FF5F15468A460446DFF8AC80F844BB
:100D10000027D8E900103E46CDE9001010E03AF86F
:100D200016106A4602A800F058FF411C07D021782F
:100D3000890603D5E269391891420DD80744761C1B
:100D40002078800602D5E069B84205DDAE42E6DBD8
:100D50003AF816000028E2D1A069C01BA061204625
:100D6000FFF7ACFBD8E90010CDE90010002017E038
:100D70003AF818106A4602A800F02FFFB0F1FF3FC2
:100D800081460BD000250DF1080B05E0D4E90121C7
:100D90001BF8050090476D1C4D45F7D308F1010085
:100DA000B0428046E4DB206A384420622046FFF7E8
:100DB0009BFBBDE8FF9F00008E5B00002DE9F0412A
:100DC0008046D21D22F007020025D2E90002F52953
:100DD00015A614D0011E72F1000106DA0023D0EB33
:100DE000030063EB020211A608E0D8F800108B079D
:100DF00001D50FA602E0490701D50EA6012511462F
:100E0000002408F1240704E000F0D6F830323A5507
:100E1000641C50EA0102F7D12B4632462146404677
:100E2000BDE8F041FFF79CBE000000002D0000006F
:100E30002B0000002000000030B4002100F1240449
:100E400008E002F00705D208303542EA4372DB08B9
:100E50006554491C52EA0305F3D10468002310A22B
:100E6000250707D5A40600D421B1C46901230DA22A
:100E7000641EC46130BCFFF773BE10B50446214642
:100E80001068FFF73BFE02462046BDE810400023F5
:100E9000D2E7D21D22F00701D1E90023CCE7000000
:100EA00000000000300000003A2800D2303820F066
:100EB0002002412A01D3A2F13700884201D34FF02A
:100EC000FF3070470268114413780160184670477C
:100ED000D160054979445161044979441162002186
:100EE0001161114600F070BCEDFFFFFF65010000CD
:100EF000426842B1016811F8013B23B1521EC0E9BA
:100F00000012184670470121C160881E7047426870
:100F10005AB1C368016843B983688B4205D0491E42
:100F2000521CC0E90012002070474FF0FF3070479C
:100F30002DE9F04791460F4680460446002614F8F6
:100F4000015B2DB100F030F80068405DC007F6D1BC
:100F50002B2D02D02D2D18D0641E4A46394620462E
:100F600000F0ECFD27B13968A14201D1C7F800803B
:100F70004FF0020471050BD54042002803DDFFF756
:100F8000B2FD0460A007BDE8F08746F48066E4E7A0
:100F90000028F8DAFFF7A7FD04606FF00040F2E7E1
:100FA000004870478C19000210B500F05BFE001D70
:100FB00010BD00BFA556000030B5B0F10A024FEADF
:100FC000900E71F100034EEA817EB0EB0E0061EBF2
:100FD00091014FEA101E4EEA017E10EB0E0041EB2C
:100FE00011114FEA102E4EEA016E10EB0E0041EB8C
:100FF00011214FEA104E4EEA014E10EB0E0041EB6C
:101000001141401841F100014FEAD00040EA41701F
:101010004FEAD10110EB80054FEA810444EA907455
:1010200044EB01046D1944EB0404521BA3414FF03F
:10103000000348BF0A3200D530BD401C41F1000119
:1010400030BD10B50446FFF7AFFF0068005D00F04B
:10105000010010BD70472DE9FF4F0C461E464FF0B2
:10106000FF378BB0D2E90001DDF860800A908A4634
:10107000C1F30A5505B93D46002108464FF000006E
:10108000BAF1000F00F4400005DA00EB80004FF4E5
:10109000400101EA50004FEA9059B9F1010F00DD1B
:1010A000B9460A9850EA4A000ED044F61050A5F20C
:1010B000FF3545432F14B8F1000F1ED07542291E8D
:1010C0001EDDC9F100021CE0B8F1010F4FF0000075
:1010D00001D0302103E0F24305E02154401CB0422E
:1010E000FBDB30460022002121540B99C1F8088017
:1010F000C1E900200FB0BDE8F08FBD1B6D1CDEE71D
:101100004A4600DA694206A800F0F2FD06AB93E811
:10111000070003AB83E8070050460A9902F012FC6F
:101120008DE80700A0F500501F3800900398002DAF
:101130000ADD42F21F014A460844002303A9039036
:10114000684602F07BFE09E0A0F500504A461F38D1
:10115000002303A90390684602F085FE8DE807008E
:101160000004000C03D04FF0FF30410800E01046AF
:10117000B8F1000F03D00022009215461EE0751E44
:1011800005D4FFF719FF303262556D1EF9D5B3460D
:101190000122084302D000227F1C04E0207830287E
:1011A00001D100227F1E002A099784D01DE0112D55
:1011B00007DAFFF701FF303262556D1C50EA010279
:1011C000F5D1084302D00098C8B10EE00021681E96
:1011D00005E0235C625C63542254401E491C81423A
:1011E000F7DBAB46A81B401E0990002004F80B005B
:1011F0000B98099AC0F80880C0E9002B7AE71126FD
:101200004FF0000857E72DE9F04F88460446D21DFD
:1012100022F0070191B0D1E90001CDE90A0103F004
:10122000A9FD02460B98C00F01D02D2007E02068D1
:10123000810701D52B2002E0202101EAC000032A0A
:10124000099001D0072A05DB03464146204600F0FD
:101250000FFD0BE12078800601D5E06900E0062053
:10126000B8F1650F814606D0B8F1660F18D0B8F115
:10127000670F70D131E00020B9F1110F009001DB50
:10128000112301E009F101030AAA01A90CA8FFF743
:10129000E2FEDDE90C70002609F10105834647E016
:1012A00001204B4600904FF000470AAA01A90CA864
:1012B000FFF7D1FEDDE90DB00C995D46002610B9AF
:1012C00009F101000D18B9EB050003D4C0F1FF3698
:1012D00009F10105A5EB09002BE0B9F1010F01DAD5
:1012E0004FF001090020B9F1110F0090484601DDCF
:1012F000112300E003460AAA01A90CA8FFF7ABFEE0
:10130000DDE90C704D4600268346207800070AD49C
:10131000AB4500DA5D4601A8012D04DD411911F845
:10132000011C302907D04F4502DA17F1040F04DA07
:10133000012082460FE06D1EEEE7002F02DCED1B60
:101340003E4403E0781CA84200DD7D1CB81B00F180
:10135000010A4FF000472078000703D4AA4501DBBB
:101360004FF0FF3A0021B7F1004F0DF143088DF81F
:10137000431024D002202B23002F01DA7F422D239B
:101380000A21021EA0F1010000DC5FB197FBF1FC15
:1013900097FBF1F201FB1C7C17460CF1300C08F8AE
:1013A00001CDEEE7A8F1010003702188090501D500
:1013B000452100E06521A0F1010800F8011C099811
:1013C0000FA9A1EB0807FF1D00B10120411901EB96
:1013D000EA70A1693844081A401EA0612078C0064E
:1013E00002D42046FFF76AF8099828B1D4E9012110
:1013F0009047206A401C20622078C00622D52046F3
:10140000FFF75CF81EE0002E04DBB34502DD01A807
:10141000805D00E03020D4E901219047206A401C23
:101420002062761CAAF101005FEA000A0AD100F0EE
:1014300019FCC0680168405CD4E901219047206A2A
:10144000401C2062281EA5F10105DCDC07E0D4E980
:10145000012118F8010B9047206A401C2062381EB9
:10146000A7F10107F3DC2046FFF73EF8032011B097
:1014700041E600002DE9F04F04460D46D21D22F052
:10148000070089B0D0E900974846394603F072FC5E
:101490000246F80F01D02D2307E02068810701D50F
:1014A0002B2302E0202101EAC0038DF820300BB18C
:1014B000012000E00020032A824601D0072A04DB35
:1014C0002946204600F0D4FB3FE12078800601D475
:1014D0000D2500E0E569C7F30A560D2D49DA002114
:1014E0004FEA175B08464FF00000002F00F4400061
:1014F00007DA00EB80004FF4400100EBD07001EA06
:1015000060008115012901DD4FF0FF3100224FEA13
:10151000850CBCF1180F06D31346ACF118004FF040
:101520008052C24003E04FF4801323FA0CF30CF115
:101530000C0CBCF1200F04D3ACF1200C09FA0CF018
:1015400001E007FA0CF000294FF0004801DD18B95E
:101550000FE00ED140450CD319EB02095F4121B9D0
:10156000404502D19F4329EA0209BBEB175F00D037
:10157000761C2088000502D57B48784402E07A4832
:101580007844193808AA302302F80A30037C0AF19B
:101590000101002E0AF1020A53546A4602DC4FF0A0
:1015A000300101E04FF031014FF001088DF80010DB
:1015B00002D0A6F2FF3603E059EA470100D06B4E95
:1015C000002D02DC2178090704D54FF002082E21F6
:1015D0008DF80110C44600210BE0C7F303433F011F
:1015E000C35C491C6D1E02F80830052908F101088A
:1015F00001DA002DF1DC00210CE000EB1973491C2D
:101600001B786D1E082902F808304FEA091908F105
:10161000010801DA002DF0DC21688B0602D516E006
:10162000A8F10108E04505DD02EB080313F8013CD1
:10163000302BF5D0B8F1000F09DD02EB080313F8E9
:10164000013C2E2B03D1090701D4A8F10108002D7C
:1016500005DD3E2102F808106D1E08F10108407CEE
:10166000002E02F8080008F1010804DA2D20764265
:1016700002F8080002E02B2002F808000A214FF4CB
:101680007A70864208F101080BDB96FBF0F33033E9
:1016900002F8083096FBF0F308F1010800FB13662E
:1016A00001E0642E0CDB642096FBF0F3303302F88B
:1016B000083096FBF0F308F1010800FB136601E027
:1016C0000A2E06DB96FBF1F0303002F8080008F134
:1016D000010896FBF1F001FB1060303002F80800C1
:1016E000A16908F1010808EB050202EB0A00081ADB
:1016F000A0612078C00602D42046FEF7DFFE216AF2
:1017000008AE01EB0A00206204E0D4E9012116F8DA
:10171000010B9047BAF1010AF7D22078C00602D532
:101720002046FEF7CBFE6E4609E016F8010B3E2878
:101730000FD0D4E901219047206A401C2062B8F103
:101740000108F2D22046FEF7CFFE09B00320BDE823
:10175000F08F206A2844206203E0D4E90121302080
:1017600090476D1EEBD3F8E73D53000002FCFFFFEE
:1017700010B5436913B1AFF3008001E0FFF7C7F97B
:10178000012010BD127800F124010A7000224A7075
:101790000122EDE711684FF0FF32E9E710B5436928
:1017A00013B1AFF3008001E0FFF7AAFA012010BDEA
:1017B000128800F1240182840022C2840122EDE714
:1017C00011684FF0FF32E9E72DE9F34F4FF0000ABF
:1017D0000C4656468DB001200C9001F10C000B9088
:1017E00062690B9801219047051E2DD0252D2CD024
:1017F000216A8847C0B162690B9801219047216A2C
:1018000088470028F7D16269411E0B98904700E095
:10181000761CA1690D988847216A88470028F7D16E
:10182000E1690D988847DBE7A1690D988847A842D0
:10183000074601D1761CD3E7E1690D9888477F1CE4
:1018400002D1BAF1000F6FD06BE162690B980027EB
:101850003D46394690472A2804D162690B980121F8
:1018600090470125DFF8D08262690B9801219047EB
:10187000A0F130010A290AD24745E5DC07EB8701D0
:1018800000EB4107303FDFD445F01005ECE7E906F7
:1018900001D46FF000476C280AD04C2814D0682877
:1018A00015D06A280DD074281CD07A281AD01DE0D3
:1018B00062690B98012190476C2802D045F004051D
:1018C00014E045F002050DE045F020050AE06269EC
:1018D0000B9801219047682802D045F0080505E0E3
:1018E00045F4006562690B9801219047C4E90157EE
:1018F00065283DD019DC58287AD00CDC452837D033
:1019000004DC252826D041289ED131E046282FD05E
:10191000472899D12CE05B2877D0612828D063280C
:101920007CD0642823D15AE0F6E06F2848D008DC48
:1019300066281DD067281BD0692821D06E2816D1B3
:1019400027E0702845D0732868D0752847D07828BC
:101950000DD14DE0A1690D988847252805463FF433
:1019600069AFE1690D9888476D1C3FF46AAFD8E014
:101970000D9923466A466FF00100AFF30080C5E081
:1019800045F0400023464FF000026060A80736D4BF
:101990003EE0E8077FF447AF2068011D2160006842
:1019A000290501D506701BE7290701D5068017E731
:1019B000A90703D5F117C0E9006111E706600FE739
:1019C00045F0400023464FF008026060A80716D497
:1019D0001EE040F60E0125EA0100606016E045F0C9
:1019E000400023464FF00A026060A80707D40FE0CA
:1019F00045F040006060A80708D5234610220D99E5
:101A00006FF00100AFF3008080E007E01022234672
:101A10000D996FF00100FEF7A5FE77E04FF0000989
:101A200063284F46C8464B46CB4602D05B2806D0BB
:101A300038E0E80601D40120A060012732E06269A5
:101A4000D4F80CB00B98012190475E2807D14FF0D5
:101A5000010949466269D4F80CB00B989047216996
:101A600039B900210A4603AB43F82120491C082953
:101A7000FADBD8B3216949B308F1010862690B9810
:101A8000012190475D28F4D1B9F1000F09D0002061
:101A900003A951F82020D24341F82020401C0828F7
:101AA000F7DB03AB2069002820794FEA40701ED095
:101AB0005B462246CDF80080CDE901970D990028BC
:101AC0006FF0010020DAAFF300801FE0C11703AA16
:101AD00000EBD1614B1121F01F0102EB8302411A8F
:101AE00013680120884003431360C7E719E00D998C
:101AF000224600286FF00100009702DAAFF3008061
:101B000004E0AFF3008001E0AFF3008000280ADAC0
:101B1000401C06D10C9820B14FF0FF300FB0BDE84B
:101B2000F08F5046FAE7E90701D10AF1010A0644AD
:101B300000200C9054E60000CCCCCC0C2DE9F05FDA
:101B4000824615468B4600270AF10104B946007803
:101B5000302801D09DB113E014F8010B012778283B
:101B600003D0582801D045B10AE00DB1102D07D19E
:101B7000002714F8010B102502E0082500E00A25D3
:101B80000026B0460EE005FB080005FB06F1012724
:101B90001FFA80F801EB1046B6F5803F00D3B94636
:101BA00014F8010B2946FFF77FF90028EBDABBF1A7
:101BB000000F05D00FB1641E00E05446CBF8004082
:101BC000B9F1000F06D0FEF78EFF02210160C81E9A
:101BD000BDE8F09F48EA0640FAE770B516460C46A5
:101BE0000546FFF7E1F9036893F80101012806D0E3
:101BF000FF2C0FD8185D68B101202C7070BDD3F890
:101C000007013246214603F2071303442846BDE884
:101C1000704018474FF0FF3070BD7546FFF7C0F9B0
:101C2000AE4605006946534620F00700854618B0C9
:101C300020B5FEF737FBBDE820404FF000064FF01F
:101C400000074FF000084FF0000B21F00701AC46F1
:101C5000ACE8C009ACE8C009ACE8C009ACE8C00910
:101C60008D46704710B5FFF79BF9203010BD00007E
:101C70002DE9F0411F46044603260168072A01F4B6
:101C8000006004DB08B116A505E016A503E008B165
:101C900015A500E015A521F010002060A069C01E68
:101CA000A0610FB1401EA0612046FEF707FC4FB1B6
:101CB000D4E9012138469047206A401C2062C01CAC
:101CC000206206E0206AFAE7D4E9012115F8010B49
:101CD0009047761EF8D22046FEF706FCBDE8F0815C
:101CE0004E414E006E616E00494E4600696E6600C0
:101CF0002DE9F047814616468AB0354878440DC82C
:101D00008DE80D0032487844801C03AC0DC884E88F
:101D10000D0041F69B300844372190FBF1F290FB17
:101D2000F1F5A5F1800501FB12041B3C02D56442CC
:101D3000012000E00020DFF898A080460027FA4448
:101D4000AAF1BE0A0EE0E0070AD03246684607EB69
:101D5000470101230AEB810102F085F88DE80700B5
:101D600064107F1C002CEED1194F7F44AE3F19E068
:101D7000E80715D007EB04100DF1180A90E80E00E3
:101D80008AE80E00C068F04201D1981908903246E6
:101D9000012306A903A802F066F803AB83E8070055
:101DA0006D10641C002DE3D14FF0010332466946EB
:101DB000B8F1000F03A802D002F040F801E002F0F1
:101DC00052F8C9E90001C9F808200AB0BDE8F08757
:101DD0004C4C000010B50446AFF300802046BDE82F
:101DE0001040FEF74CBA00004FF0013C50F8042BB5
:101DF00051F8043B9A4221D1A2EB0C03934313EA1E
:101E0000CC1317D150F8042B51F8043B9A4215D14A
:101E1000A2EB0C03934313EACC130BD150F8042B21
:101E200051F8043B9A4209D1A2EB0C03934313EA05
:101E3000CC13DBD04FF00000704700BFD01A01BABE
:101E4000B1FA81F101F0180122FA01F0CB40C1F1A1
:101E50002001DBB2C0B2C01A2CFA01F3D11A9143AF
:101E600011EAC311E6D1704701491820ABBEFEE765
:101E700026000200704710B500F1280151E8002F3C
:101E800012B9BFF32F8F04E0531E41E8003404B1B0
:101E9000F4E78AB12C3001210BE0821CD2E84F3FDD
:101EA000C2E8441F04B1F9E713F0FF0F08BF10BDEB
:101EB000083000680028F0D1002010BD84465CF88E
:101EC000303F93B110B54FF0000E05E0CB78D478D9
:101ED0009C420FD2536896461A46002AF6D1002239
:101EE000C1E9012E00F12C0207E00022C1E9012224
:101EF000C1620AE0C1E9012E0832BEF1000F116093
:101F000018BF0EF1040CBDE81040CCF800102830CA
:101F100050E8001F4A1C40E8002303B1F8E770476F
:101F2000D1E9012C02F10803002A08BF00F12C03BB
:101F3000C3F800C0D1E901210B1D002908BF00F141
:101F400030031A60704700000148006800207047A5
:101F500010E000E008480178012905D10021017056
:101F600006484FF0806101600548016841F00101B9
:101F700001600020704700BFEC19000204ED00E092
:101F800010E000E04FF0FF307047000040B10B4917
:101F90000968B1FBF0F0411E0020B0EB116F02D0D8
:101FA0004FF0FF307047064AFF231370054A06239F
:101FB000136051600449906008707047A4150002D6
:101FC00023ED00E010E000E0EC19000210B59307EB
:101FD00012D400F12803D00718D153E8000F0842AB
:101FE00003D1BFF32F8F002005E020EA010243E870
:101FF000002404B1F1E710BD806AD20700EA0103B2
:1020000015D1002B18BF10BD002010BD53E8000FE4
:1020100000EA01028A4203D0BFF32F8F002005E0BF
:1020200020EA010243E8002404B1EFE710BD8B422F
:1020300018BF002010BD000080B5124A4FF0000EFE
:1020400002F1440C624606E01A6991420BD3891AE8
:1020500003F10C029E461368002BF5D10022C0E963
:1020600002E2016106E0C0E902E3016198601A69D9
:10207000511A1961BEF1000F18BF0EF10C0CCCF80B
:10208000000080BDC0150002C16839B102690B694A
:102090001A440A6150F8082F8A6000E0083000688E
:1020A000044A00F10C03002808BF02F14403196040
:1020B000704700BFC0150002EFF3058129B9EFF3A7
:1020C000108111B9EFF3118111B16FF00500704764
:1020D000DFF804C000DF70475D2D0000EFF31480CF
:1020E00010F0010F08D0EFF3058028B9EFF310804E
:1020F00010B9EFF3118010B10448007A7047DFF88F
:1021000008C000DF704700BF712D0000C01500023D
:10211000EFF3058028B9EFF3108010B9EFF31180C9
:1021200010B16FF005007047DFF804C000DF7047A2
:102130007D2D0000EFF3058028B9EFF3108010B972
:10214000EFF3118010B16FF005007047DFF804C0A5
:1021500000DF7047DD2E0000F8B50546EFF305807F
:1021600014460E4628B9EFF3108010B9EFF3118032
:1021700000B36FF003001DB313BB0EB32978082919
:102180001ED1687898B12846FFF775FE074677B1EB
:102190006A6A07F10C013046FEF7E2FB0CB1F878F1
:1021A00020703846FD6000F06DFA002008E06FF006
:1021B000020005E0DFF80CC028463146224600DF69
:1021C00001B0F0BD992F0000EFF305832BB9EFF3B9
:1021D000108313B9EFF311830BB100207047DFF8C0
:1021E00008C000DF704700BF853000002DE9F041D6
:1021F0000646EFF3058090460D4628B9EFF31080B0
:1022000010B9EFF3118038B36FF003070EB303BBBF
:10221000FDB1307808281CD17078C0B106F10C00EF
:1022200000F0E0F8044694B1726A04F10C0029460B
:10223000FEF796FB40F20710002720802046A7708B
:1022400084F80380C4E9015600F01CFA01E06FF045
:1022500002073846BDE8F081DFF80CC03046294659
:10226000424600DFBDE8F081A9310000EFF30582AE
:102270002AB9EFF3108212B9EFF3118212B16FF0A5
:1022800005007047DFF804C000DF70476D320000C2
:10229000EFF3058129B9EFF3108111B9EFF3118143
:1022A00011B16FF005007047DFF804C000DF704720
:1022B00001330000EFF3058129B9EFF3108111B963
:1022C000EFF3118109B100207047DFF808C000DF8B
:1022D000704700BFD5330000EFF3058129B9EFF354
:1022E000108111B9EFF3118111B16FF00500704742
:1022F000DFF804C000DF70473D340000B0B50023B4
:1023000080B379B3032A2DD886460F315EF8084F83
:1023100021F0070C2346DEF80440A3EB0E0524F061
:1023200003016D1A654505D21C689E46002CF1D14B
:10233000002317E04368002C634443600CD0DEF8B0
:10234000000041F80E0001EB0E004CEA0201416072
:10235000CEF80000864603E04CEA0200CEF8040006
:102360000EF108031846B0BD002200B3F9B1A1F187
:10237000080C00F1080200211346634505D01A68D5
:102380001946002AF8D1002211E0DCF80430426836
:10239000002923F00303A2EB030242604FF0010285
:1023A00019BFDCF8000008600020CCF804001046DB
:1023B000704708B1420702D0002210467047002241
:1023C0001829FAD311F00703F7D11022C0E900123F
:1023D0000144A1F108028260002241F8082CC26089
:1023E0000122EAE708B3B0B5014604C951E8003F4D
:1023F0009A4202D8BFF32F8F04E05C1C41E80045ED
:1024000005B1F3E701688B42BDE8B0400DD200F1A1
:10241000140151E8000F10B9BFF32F8F04E00268D8
:1024200041E8002303B1F4E7704700207047B0B5DE
:1024300010B3C2688A421FD802698A421CD9021DA1
:1024400052E8003F13B9BFF32F8F04E05C1E42E84F
:10245000004505B1F4E793B1143002680A60BFF398
:102460005F8F50E8002F0B689342F6D140E80014CC
:1024700004B1F2E70020B0BD6FF00300B0BD6FF013
:102480000200B0BD84460020BCF1000F18BF002937
:1024900021D002B3FBB180B54FF0000E02FB01303A
:1024A000CCE9001ECCE90223CCE90403481EC1F1AB
:1024B000010E194600FB02FC04E088180EF1010E23
:1024C00008600146BEF1000FF7D1002043F80C0070
:1024D0000120BDE880407047F8B5044660780028C8
:1024E0005ED0A078A8B3E5686878002858D0284660
:1024F0002146FFF715FD002005F10C06214660700E
:102500003046FFF794FFA868002849D04078932808
:1025100046D13046FFF766FF0446002C40D02846DF
:1025200000F01CFA002100220646002700F0B4FA51
:10253000304600F075FA06466A6A04F10C00B1688C
:10254000FEF70EFA40F207102080A770F068E070E6
:1025500027E0A568687818B3A86810B34078832886
:102560001FD1284600F0FAF9002100220646002774
:1025700000F092FA304600F053FA06466A6A04F117
:102580000C01B068FEF7ECF9F06808B1E178017071
:10259000677005F10C002146BDE8F840FFF747BF22
:1025A000F8BD28462146BDE8F840FFF787BC2DE975
:1025B000F041044600274FF0010815E0E8786C6907
:1025C000000711D52F76A86870B1284600F0C6F92B
:1025D00000210022064600F05FFAEE60F06AC5E9CD
:1025E0000470F56285F818802546002DE6D1BDE817
:1025F000F0810000F8B5224C4FF6FF7604F1560545
:1026000004F15A0727E0D7E85F1F4A1C904200D820
:102610000022C7E8532F03B1F5E788B2E16D51F806
:102620002000002826D001780139062913D8DFE8D8
:1026300001F0041207120A0D1000216E88470AE00B
:10264000616E884707E0A16E884704E0E16E884725
:1026500001E0216F8847B4F85400D5E85F1F11B935
:10266000BFF32F8F04E04A1EC5E8532F03B1F4E7F0
:102670003142C8D10020BDE8F84000F013B900BFD6
:10268000C015000270B501461948B0F8542000F199
:102690005603D3E85F4FA24202D8BFF32F8F04E066
:1026A000651CC3E8565F06B1F3E7A3B293421AD2A2
:1026B00000F15803D3E85F4F651CAA4200D80025FB
:1026C000C3E8565F06B1F5E7C36DA2B243F8221026
:1026D000417A002919BF0121817206484FF08051CB
:1026E00008BF016070BD0220BDE8704003F038BC37
:1026F000C015000204ED00E010B54178D1B1816849
:10270000C1B100F10C01D1E85F2F12B9BFF32F8FD7
:1027100004E0531EC1E8543F04B1F4E74FF6FF71E3
:102720000A4207D000F01AF900210022BDE810404B
:1027300000F0B2B910BD0000012141700F4990F9BD
:10274000202001F11C0C243106E093F92010914265
:102750000BDD03F108019C460B68002BF5D100212D
:10276000C0E9021C0CF1080105E003F10C01C0E90D
:10277000023CCCF808000860704700BFC01500029A
:1027800080B54A1C1AD0224A4FF0000E02F12C0CE0
:10279000624606E0DA69914227D3891A03F11002F2
:1027A0009E461368002BF5D1C1610021BEF1000FD8
:1027B000C0E9041E18BF0EF1100C25E014490022D8
:1027C00001F1300C634611461A6802F11003002A29
:1027D000F9D14FF0FF320029C2614FF00002C0E989
:1027E000042118BF01F1100C0EE0BEF1000FC0E98A
:1027F000043EC16118BF0EF1100CCCF8000003F1CB
:10280000140CDA69511AD961CCF8000080BD00BF00
:10281000C0150002C36941695A1C11D0DFF848C0D5
:1028200021B9DCF82C20824218BF7047026922B11E
:102830005161D1691944D161416939B10A610EE030
:10284000094A31B9136B834203D07047CCF82C206E
:10285000704703690BB15961416919B10B610021DE
:102860004161704713637047C0150002B0B50C4D4D
:10287000EC6A1CB1E0690138E06100D0B0BD2046CF
:1028800000F091F8204600F0C1F824692CB1E0690D
:102890000028F4D00020606100E00024EC62B0BDAC
:1028A000C0150002B0B516490546002D4C69087ADE
:1028B0000DD0022806D12CB194F9200095F92010F2
:1028C000814213DC2846BDE8B04000F09FB84D6A55
:1028D000022813D194B18DB194F9200095F92010FC
:1028E0008142D8BFB0BD284600F05DF82046FFF712
:1028F00023FF2846BDE8B04000F0AAB8B0BD00BF35
:10290000C015000210B5044600206070A07810F0D9
:10291000020F0DD0C00605D40F48216B406FFFF7A2
:1029200023FD05E00C48216BD0F88400FFF77FFD04
:10293000A078C00708BF10BD0749D1F8880020B1B2
:102940002146BDE81040FFF772BDD1F88000214656
:10295000BDE81040FFF708BDC015000201468868B9
:1029600030B18268002A8A6000D0D1600021C16045
:102970007047B9B191F920C0826805E093F9202031
:10298000624509DB9A6818461346002BF6D10022EF
:10299000C1E90220083004E0C1E90230816003F19E
:1029A0000C0001607047C16831B182688A6082683A
:1029B00002B1D1600021C1607047B0B50446254620
:1029C0002878012803D1ED68002DF9D1B0BD20464B
:1029D000FFF7E9FF28462146BDE8B040FFF7C9BF31
:1029E00010B504466078332818BF10BD94F8232032
:1029F000616A2046FFF7EAFA014629B12046002223
:102A0000BDE8104000F048B810BD000001460120AC
:102A1000487002481C30FFF7ACBF00BFC015000271
:102A2000806B2030704700000748416939B1086B5E
:102A30008A6B824204D90068044A904200D17047F0
:102A4000012003F08DBA00BFC0150002A52E5AE286
:102A50000221417001498861FFF7E6BFC0150002FD
:102A600010B50C4C0246606988B1237A022B0CD158
:102A7000636A63B14270FFF783FE04F11C00FFF745
:102A80006DFFFFF7E5FF012010BDFFF78CFF002071
:102A900010BD00BFC0150002B0B504461546A06BBE
:102AA00001622046FFF7B6FE20461DB1BDE8B040EA
:102AB000FFF7F8BEBDE8B040FFF7A8BFB0B5FFF71D
:102AC00043FA194DE968286D01310028E96000D00A
:102AD0008047FFF7CBFE0020FFF7E4FE296C11B31F
:102AE000AA69A86B90421CBFC5E90E21B0BDE96B75
:102AF00011B10139E96316D1297A022913D16C6A1F
:102B00008CB190F8200094F8201081420BD120461F
:102B1000FFF749FFA86BFFF779FF2046FFF798FF03
:102B2000286CC5E90E40B0BDC0150002BCB50D480B
:102B30000821D0E91820FFF747FB0B4D0028E86477
:102B40000ED00A496C462965214600224FF0FF331A
:102B5000FFF702FB10B9DDE900108847E86CF3E7E6
:102B6000BCBD00BFF46A0000C0150002712B00005C
:102B700070B5144D6C6C1CB32069012601382061BE
:102B80001CE02069E0B9E06808B1A1688160686470
:102B900004F1180100220023E86CFFF727FB18B1AD
:102BA0000320214603F0DCF9E078012804D16169B3
:102BB0002046FFF741FA00E066706C6C002CE0D113
:102BC00070BD00BFC0150002EFF305822AB9EFF314
:102BD000108212B9EFF3118202B36FF00302D8B181
:102BE000D1B90178052917D1417899B10C30D0E8D5
:102BF0005F1F11B9BFF32F8F04E04A1EC0E8532FA7
:102C000003B1F4E74FF6FF700022014208BF6FF0F6
:102C1000020201E06FF0020210467047DFF804C0C4
:102C200000DF7047F9340000EFF305832BB9EFF3B1
:102C3000108313B9EFF311830BB100207047DFF855
:102C400008C000DF704700BF59350000EFF3058171
:102C500029B9EFF3108111B9EFF3118119B3B0B5B0
:102C6000D8B10178052918D14178C9B1C28900F1DC
:102C70000C01D1E85F3F9A4202D8BFF32F8F04E0E6
:102C80005C1CC1E8554F05B1F3E7C28999B2914286
:102C900006D2FFF7F7FC0020B0BD6FF00300B0BD17
:102CA0006FF00200B0BDDFF808C000DF704700BF62
:102CB000D9350000DFF804C000DFFEE73136000040
:102CC000EFF3058028B9EFF3108010B9EFF311800E
:102CD00008B100207047DFF808C000DF704700BF70
:102CE00099360000EFF305832BB9EFF3108313B986
:102CF000EFF311830BB100207047DFF808C000DF4D
:102D0000704700BFA5360000EFF3058CBCF1000F43
:102D100009D1EFF3108CBCF1000F04D1EFF3118C4B
:102D2000BCF1000F01D000207047DFF808C000DFC1
:102D3000704700BF81380000EFF305822AB9EFF336
:102D4000108212B9EFF3118212B16FF005007047D3
:102D5000DFF804C000DF7047F9380000014629B1F0
:102D600080B51320FFF77CFEBDE88040002070474F
:102D70000148007A704700BFC01500022DE9F843F2
:102D8000534F387A012800F09F8040B907F10800BE
:102D90009C21FDF77EFE4F4E706D482802D24FF009
:102DA000FF3092E0F1684FF0FF30002900F08D8095
:102DB000328A002A00F08980A7F85420F965B068AB
:102DC000D6E90B4138642046FFF7F3FA08B1C7F89B
:102DD0008040D6E90541DFF80091D6E90758204642
:102DE000C847D7F880100028284618BF21467967C1
:102DF0004146C847D7F88010002818BF2946B96750
:102E0000D6E909412046C847D7F88010002818BFE6
:102E10002146746BF96744B12168D4E90223204646
:102E2000FFF730FB08B1C7F88440B46B44B12168A8
:102E3000D4E902232046FFF725FB08B1C7F88840F4
:102E4000F46B44B12168D4E902232046FFF71AFB52
:102E500008B1C7F88C40346C44B12168D4E902232E
:102E60002046FFF70FFB08B1C7F89040746C44B1DF
:102E70002168D4E902232046FFF704FB08B1C7F814
:102E80009440B46C44B12168D4E902232046FFF792
:102E9000F9FA08B1C7F89840F46C44B12168D4E954
:102EA00002232046FFF7EEFA08B1C7F89C40346DC4
:102EB00044B12168D4E902232046FFF7E3FA08B1C0
:102EC000C7F8A04001203872002001B0BDE8F083AF
:102ED000C0150002F46A0000B3230000B0B5284C0E
:102EE000207A012836D1A06A40B926480021826D97
:102EF000254800F0D7FB0028A0622BD0214D686E3A
:102F000048B1A06C38B9EA6D2048002100F0CAFB36
:102F10000028A0641ED01E48FF218175817D0268B3
:102F200081F0FF01C2F30222B1FA81F1C1F1200167
:102F30008A4228BF511CFE2202FA01F1C17468685E
:102F40001449FFF723F828B9FFF71CF82061FFF7B1
:102F500001F810B14FF0FF30B0BD04F11C00FFF7D5
:102F6000FDFC0028F6D0FFF773FD2878C0070CBFE2
:102F70000320022080F31488022020720020B0BDBC
:102F8000C0150002F46A0000815F00002D2B0000D4
:102F90000CED00E07D0300002DE9F843044699465E
:102FA00090460F466FF00305002C65D0002F63D0CC
:102FB0002078082860D16078002859D02046FEF794
:102FC0005AFF0646002E40D020463146FEF7A8FFA5
:102FD000626A06F10C013846FDF7C2FCB8F1000F39
:102FE00004F10C074FF0000531461CBFF07888F85B
:102FF000000075703846FFF71AFAA068E0B3407811
:10300000932838D13846FFF7EDF9064600259EB3E0
:103010002046FFF7A3FC002101220746FFF73CFDF5
:103020003846FFF7FDFC0746626A06F10C00B968F6
:10303000FDF796FC40F2071031463080B570F86815
:10304000F0702046FEF73AFF16E0B9F1000F0FD0FE
:103050000B4841692046FFF78CFC83204946FFF767
:10306000FFFCEFF309806FF00105C0E9027803E08F
:103070006FF0020500E00025284601B0BDE8F083AE
:10308000C01500022DE9F84F04460D46002764B133
:103090005DB105F10F01B4FA84F021F00306B6FA30
:1030A00086F10844202804D20027384601B0BDE844
:1030B000F08F06FB04F95AB19068D2F800A0D2E96B
:1030C000048180B18307EFD1D268342AECD30DE0BC
:1030D0004FF0000A4FF000083149D1F8A00078B154
:1030E000FFF780F912E0D268002ADDD1B8F1000FB5
:1030F0003BD000274945D8D318F0030137D0D4E797
:10310000D1F8800034210122FFF7F8F80746002F9C
:10311000CAD04FF0010BB8F1000F0FD1204849463B
:103120000022C06FFFF7EAF88046B8F1000F24D004
:1031300040464946FDF78BFC4BF0020B4FF4847080
:1031400087F802B021463246434638800020C7E95E
:1031500001A0C7E90950C7E90B0007F10C00FFF710
:1031600091F90F480F4901679FE700299CD100287A
:10317000B2D04FF0000B0746CDE70948BBF1000F76
:103180003FF492AF0146D1F8A00018B13946FFF7DD
:103190004EF989E7D1F880003946FFF7E5F883E773
:1031A000C0150002D92400002DE9F84306469946CF
:1031B00090460D466FF00307002E51D0002D4FD0E2
:1031C000307808284CD17078002847D0B068D0B14A
:1031D0004078832817D13046FFF7C0FB0021012239
:1031E00004460027FFF758FC2046FFF719FC044669
:1031F000726A2946A068FDF7B3FBE06880B380F8E7
:10320000008000272CE006F10C00FFF7EBF80446E5
:103210008CB1726A04F10C002946FDF7A1FB40F263
:1032200007100027214620803046A77084F80380CD
:10323000FEF744FE14E0B9F1000F0FD00A484169CF
:103240003046FFF796FB93204946FFF709FCEFF362
:1032500009806FF00107C0E9025801E06FF0020732
:10326000384601B0BDE8F083C015000270B50446D1
:1032700022480E46456955B334B32078042823D13B
:103280006078C0B3207E28B3E17811F0010F02D03E
:10329000E268AA422BD076B388070AD5E06895F990
:1032A000201090F920208A4203DA80F82010FFF7DE
:1032B00084FB20462946FFF75CFB53203146FFF78D
:1032C000CFFB6FF0010070BD6FF0030070BD4FF0D9
:1032D000FF3070BDE5600021E86A0028C4E90410F1
:1032E00000D00461EC6201202076002070BDFF2830
:1032F00001D00130F8E76FF0020070BDC015000288
:1033000010B50446002C55D02078042852D160789E
:10331000002852D000206070207E00283FD0D4F8D2
:1033200014C0E068BCF1000F00F12C031CBF22693F
:10333000CCF8102021691A46002918BF01F11402A7
:10334000C2F800C0E178890723D590F821C00AE0CF
:10335000936833B193F920304FFA8CF18B42C8BF98
:103360009C4602F114031A68002AF1D190F820203B
:103370005FFA8CF18A420CD080F820C0FFF71DFB69
:1033800007E02046FFF7EAFA6FF002010022FFF79C
:1033900083FBA0680028F4D10020FFF783FAA0780F
:1033A000C00712D00A49D1F8940048B12146FFF76E
:1033B0003EF80AE06FF0030010BD6FF0020010BD90
:1033C000D1F880002146FEF7CFFF002010BD00BFDE
:1033D000C015000270B558B1D0E90065846884B1A9
:1033E000A10727D1C16800201C2938BF70BD14E097
:1033F000002500261049D1F8940028B1FEF7F2FF0D
:1034000008E0C068B0B9F5E7D1F880001C210122BE
:10341000FEF774FF04466CB10120A0704FF4827077
:103420001121208004F10800E5706660FDF731FB92
:10343000204670BD002070BDC015000270B5044666
:103440002C48406970B154B12178042907D16178C2
:1034500011B1E168814209D06FF0020404E06FF01D
:10346000030401E04FF0FF34204670BD217E0029A7
:10347000F2D0013911F0FF0F217601D00024F3E7DB
:10348000616909B122690A61236900F12C052A46A4
:10349000002B18BF03F114021160E178890711D5E0
:1034A00090F8211009E093682BB193F920304DB2C8
:1034B000AB42C8BF194602F114052A68002AF2D1AE
:1034C00080F82010A06878B12046FFF747FA002165
:1034D000002205460026FFF7DFFAE560E86AC4E946
:1034E00004600120EC62207600200024FFF7DAF966
:1034F000BAE700BFC0150002B0B50C4618B301789A
:10350000052920D1417809B300F10C01D1E85F2FE2
:1035100012B9BFF32F8F04E0531EC1E8553F05B128
:10352000F4E74FF6FF710A421CBF0020B0BD6CB13A
:1035300008494969FFF71DFA63202146FFF790FA11
:103540006FF00100B0BD6FF00300B0BD6FF002007E
:10355000B0BD00BFC015000270B504464FF6FE7343
:103560000D460021601E984298BFA54201D9084629
:1035700070BD4AB19068166870B1810725D1D268D4
:103580000021102AF3D312E000261149D1F8980047
:1035900028B1FEF727FF08E0D068B0B9F5E7D1F809
:1035A000800010210122FEF7A9FE70B10121817077
:1035B00040F20511074A01800021C0E90161044978
:1035C0008581C4818A660146D1E70021CFE700BF2B
:1035D000C0150002F9260000B0B568B101780529D0
:1035E0000AD1417801B3816849B1FFF7B7F90021E9
:1035F0000122FFF751FA15E06FF00300B0BDC28958
:1036000000F10C01D1E85F3F9A4202D8BFF32F8F3F
:1036100004E05C1CC1E8554F05B1F3E7C08999B2DD
:10362000814201D20020B0BD6FF00200B0BD0000A9
:10363000B0B5184D6C6964B3E06AFEF7B8FFA069D5
:1036400018B100210022FFF727FA287A022820D19A
:10365000686AF0B1EFF30980A06305F11C00FFF781
:103660007DF9FFF7F5F900206861E078C00701D027
:10367000A06920B12046BDE8B040FFF743B9002063
:10368000E06004206070686B0028A06000D0C46017
:103690006C63B0BDC015000201484069704700BFAF
:1036A000C01500022DE9F84F05468846002D00F0B0
:1036B000D98072B1D2E9044BD2F81890D2E900A7B0
:1036C0009668AEB1B00740F0CD80D068442813D2E0
:1036D000C8E04FF01809002700244FF0000B4FF00E
:1036E000000A6249D1F88800C0B1FEF77BFE1BE0FA
:1036F000D068002840F0B68044B10020BBF1000F34
:1037000000F0B18014F0070140F0AD80B9F1000F76
:103710001FD0A9F1010037281DD9A3E0D1F88000FE
:1037200044210122FEF7EAFD0646002E00F09A80B1
:10373000CDF800A04FF0010A84BBBBF1000F1CD0F4
:103740004A4859460022406FFEF7D8FD04461CBB8C
:1037500078E04FF01809BBF1000F07D00020BBF153
:10376000480FC0F080801BF007017CD1002EB8D03C
:10377000CDF800A04FF0000ADEE73C483C49D0F805
:103780008400D1F854B00028DAD0FEF72BFE0446AE
:10379000002C57D04AF0100A4AF0020A40F20110F9
:1037A00086F802A0182130800098F770706006F14A
:1037B0000800FDF76EF9FD2086F8219086F820902C
:1037C00086F82200002086F82F00C6F82B00C6F8E5
:1037D0002700C6F8230004EB0B00C6E90C4B403869
:1037E000C6E90E052348206021480078400701D42F
:1037F000B06B0FE01120221D4FF0CC33A0EB9B01EA
:10380000ABF1400020F00300204401E008C2013188
:103810000029FBD10021002202E040F822100132F1
:103820000D2AFAD114494FF08072C0E90D15C26318
:10383000C0F820800D48114901663046FFF732F884
:10384000304610E0BAF1000F0CD00849D1F88800DA
:1038500018B13146FEF7EBFD04E0D1F880003146A7
:10386000FEF782FD002001B0BDE8F08FC015000218
:10387000F46A0000A52E5AE2B52C0000E1290000F0
:10388000F8B505460E46144600217DB3012E2DD80D
:103890004BB198681F6870B1810726D1DA680021A2
:1038A000202A13D222E000271249D1F88C0028B137
:1038B000FEF798FD08E0D868B8B9F5E7D1F88000C0
:1038C00020210122FEF71AFD78B1012181704FF409
:1038D000817101800021C670C0E90171C0E9031146
:1038E000C0E905150146C46100E00021084601B0A9
:1038F000F0BD00BFC0150002B0B505460C466FF024
:103900000300DDB1D4B12978022918BFB0BD6878B1
:1039100002280BD0012806D10948006D18B10220F9
:103920006C61687005E06FF00200B0BD2846FEF7DC
:10393000ABFB28462146FEF77FFB0020B0BD00BF51
:10394000C01500025FEA400C08BF91F0000F4FEA7B
:103950008C234FEAC12243EA51514FEA1C5018BF51
:1039600000F5F0404FEA300018BF41F000415FEA37
:103970006C5C00F02980BCF1FF3F08BF40F0804044
:103980007047130C06BF12044FF0100C4FF0000CE0
:10399000130E04BF12020CF1080C130F04BF120126
:1039A0000CF1040C930F04BF92000CF1020CD30F26
:1039B00004BF52000CF1010C11464FF00002A0F1BF
:1039C0001F00A0EB0C00704711F0004F08BF7047BC
:1039D00031F000413FF4D5AF0B0C06BF09044FF0A6
:1039E000100C4FF0000C0B0E04BF09020CF1080C78
:1039F0000B0F04BF09010CF1040C8B0F04BF8900ED
:103A00000CF1020CCB0F04BF49000CF1010CCCF1FE
:103A10002003A0EB0C0022FA03F302FA0CF241EAB5
:103A2000030100F10100704720F07F4C80EA0300A1
:103A300023F07F47ACEB070303F57C5300F0004015
:103A400003F1FF032DE980494FEA154B09B44FEA12
:103A5000144325EA0B4E24EA03480FF2042606EB32
:103A6000132749083E785FEA320203FB0667C7F571
:103A7000000707FB06F64FEA54374FEAD64606F131
:103A8000020607FB066CCCF1005C4FEA1C472CEAEF
:103A9000074C07FB06F40CFB06F504EB15464FEA52
:103AA000961634BF00204FF000404FEAD13706FB96
:103AB00007FC4FEA1C4C0CFB0BF7D21B03FB0CF76B
:103AC00061EB07010CFB0EF7B0EB074072EB1742FE
:103AD0000CFB08F734BFA2EB0742B2EB074261EBE5
:103AE00017414FEA0C444FEA910706FB07FC4FEAE7
:103AF0001C4C0CFB0BF7B0EBC74072EB573203FBCF
:103B00000CF734BFA2EBC742B2EBC74261EB5731AF
:103B10000CFB0EF7B0EBC70072EB57720CFB08F70B
:103B200034BFA2EBC702B2EBC70261EB5771039F30
:103B30004FEA816141EA921104EBCC044FEAD1379C
:103B40004FEA826206FB07FC42EA90124FEA80606D
:103B50004FEA1C4C0CFB0BF7D21B03FB0CF761EB81
:103B600007010CFB0EF7B0EB074072EB17420CFBA2
:103B700008F734BFA2EB0742B2EB074261EB1741F3
:103B80004FEA8C554FEA910704EB9C2406FB07FC97
:103B90004FEA1C4C0CFB0BF7B0EBC74072EB5732F3
:103BA00003FB0CF734BFA2EBC742B2EBC74261EB99
:103BB00057310CFB0EF7B0EBC70072EB57720CFBE2
:103BC00008F734BFA2EBC702B2EBC70261EB577133
:103BD00015EB4C254FEA816141EA92114FEA82626E
:103BE0004FEAD13742EA901206FB07FC44F1000489
:103BF0004FEA80604FEA1C4C0CFB0BF7D21B03FB17
:103C00000CF761EB07010CFB0EF7B0EB074072EB12
:103C100017420CFB08F734BFA2EB0742B2EB074296
:103C200061EB174115EB1C154FEA813141EA9241D6
:103C30004FEA823242EA90424FEA80304FEA0C76F5
:103C400044F1000448EA03434EEA0B484FF0000EEB
:103C5000B2EB080C71EB030724BF624639464EEB0A
:103C60000E0E4FF0000B0018524149414BEB0B0B6D
:103C7000B2EB080C71EB03077BF1000B24BF62462B
:103C800039464EEB0E0E4FF0000B001852414941E1
:103C90004BEB0B0BB2EB080C71EB03077BF1000B4A
:103CA00024BF624639464EEB0E0E51EA020718BF9A
:103CB00046F0010616EB0E7655F1000254F10001B4
:103CC00003D5BDE88901BDE80088BDE88901BDE8EC
:103CD0000048B619524141EB0101A3F101037047BD
:103CE00080807F7E7D7C7B7A797877767675747339
:103CF000727171706F6E6E6D6C6C6B6A6A696868F8
:103D0000676666656464636362616160605F5F5E8D
:103D10005E5D5D5C5C5B5B5A5A5959585857575603
:103D20005655555554545353525252515150505068
:103D30004F4F4F4E4E4D4D4D4C4C4C4B4B4B4A4ABA
:103D40004A494949484848474747474646464545FE
:103D50004544444444434343434242424241414137
:103D6000002B9C4630D477002BD01CB54FEA370788
:103D700003B44FF010004FF01001BAF1000F06D05D
:103D8000BCF1000FDCBF40F0080040F008014FF02C
:103D900000000FBCBDE810400BF1010BBBF1010F9F
:103DA00008BF5FEA170722BF12F1010211F10101FA
:103DB0004FF0004143F1000300F0004043EA0000EF
:103DC0007047F9D35708D0E746EA064613F1400F8B
:103DD0004FEA16461FDD13F1200FDFBF16430A46D8
:103DE000002120335B42BED0C3F1200746EA0646DD
:103DF00002FA07F74FEA164646EA0706C3F120071C
:103E000022FA03F201FA07F721FA03F14FF0000357
:103E100042EA0702A7E746EA020646EA06464FEAF2
:103E2000164646EA0106BCBF46EA0646360C4FF087
:103E300000034FF000024FF0000194E72DE9804CA1
:103E40009A46934670B491E8380007C831EA400CAE
:103E500048BF34EA430C03D5FFF7E6FDFFF780FFC8
:103E6000F0BCBDE8008C2DE9804C9A46934670B4B6
:103E700091E8380007C810F0804F08BF13F0804F5A
:103E800003D100F005F8FFF76BFFF0BCBDE8008C34
:103E900020F07F4780EA030023F07F4C07EB0C0300
:103EA000A3F57C5300F00040A3F1FE0392F0000F55
:103EB00000F0B38095F0000F00F077802DE9014904
:103EC0004FEA11404FEA144621EA004800FB06FC85
:103ED00024EA064708FB06F607FB08F800FB07F78D
:103EE00018EB06484CEB164C4FEA124B18EB074800
:103EF0004FEA15464CEB174022EA0B4E0BFB06FC33
:103F000025EA06470EFB06F607FB0EFE0BFB07F73E
:103F10001EEB064E4CEB164C4FF000061EEB074E08
:103F20004CEB174B18EB0B0840F1000018EB0E0B95
:103F300058EB000840F100008F1A4FF000013CBF21
:103F4000C943661B14BFB5EB040C00213CBFC94339
:103F5000F61B4FEA17444EEA8E0E27EA04454FEA55
:103F60001C4704FB07622CEA074C05FB07F70CFB18
:103F700005F604FB0CFC16EB074642EB174216EB6A
:103F80000C4642EB1C421BEB060658EB0202414179
:103F900046EA9E0601D5BDE80189B619524141EBBA
:103FA0000101A3F10103BDE801894FEA14454FEA7D
:103FB000114724EA054621EA074C05FB07F406FBF6
:103FC00007F70CFB06F105FB0CFC11EB074144EB7A
:103FD00017444FEA124711EB0C4144EB1C4422EA10
:103FE000074C05FB07F206FB07F70CFB06F605FB83
:103FF0000CFC16EB074642EB174216EB0C4642EB65
:104000001C456A1854F1000148BF7047B619524167
:1040100041EB0101A3F10103704795F0000F37D088
:104020004FEA11424FEA144721EA024624EA074CBC
:1040300002FB07F106FB07F70CFB06F402FB0CFC86
:1040400014EB074441EB17414FEA154714EB0C44BE
:1040500041EB1C4125EA074C02FB07F506FB07F77D
:104060000CFB06F602FB0CFC16EB074645EB17456E
:1040700016EB0C4645EB1C42121951F1000148BFEA
:104080007047B619524141EB0101A3F1010370479A
:104090004FEA14454FEA114724EA054621EA074C46
:1040A00005FB07F106FB07F70CFB06F24FF00006D5
:1040B00005FB0CFC12EB074241EB174112EB0C42E3
:1040C00051EB1C4148BF7047921841EB0101A3F12D
:1040D0000103704770B500244FF0804000F00CF9E8
:1040E000054605F08050002869D000BF65E004EB6C
:1040F0004400364951F83000B0F1804F00D05AE00A
:1041000004EB4400314A02EBC00001794FF08040DB
:1041100000F0ECF804EB44012C4A02EBC10188608A
:1041200004EB4400114601EBC000806800F0004041
:10413000F0B304EB440001EBC000406904EB440120
:1041400002EBC1010989C1F30B11014404EB4400E6
:1041500002EBC000416104EB4400114601EBC000DA
:10416000C068401C04EB440102EBC101C86004EBD1
:104170004400114601EBC000C0680A281AD304EBC2
:10418000440001EBC00040690A21B0FBF1F104EBEF
:10419000440002EBC0000161002104EB440002EB8B
:1041A000C0004161002004EB440102EBC10100E0CA
:1041B00000E0C86000BF601CC4B2052C97DB4FF064
:1041C0008051880000F090F870BD000024150002B6
:1041D00070B50024424800F08FF8054605F0805085
:1041E000002876D000BF72E004EB44003D4951F84E
:1041F00030003B49884200D067E004EB4400394A74
:1042000002EBC0000179364800F070F804EB44017D
:10421000344A02EBC101886004EB4400114601EB13
:10422000C000806800F00040F0B304EB440001EBF4
:10423000C000406904EB440102EBC1010989C1F3EC
:104240000B11014404EB440002EBC000416104EB9C
:104250004400114601EBC000C068401C04EB44015F
:1042600002EBC101C86004EB4400114601EBC00041
:10427000C0680A2828D304EB440001EBC000406961
:104280000A21B0FBF1F104EB440002EBC000016134
:10429000002104EB440002EBC0004161002004EB6C
:1042A000440102EBC10100E001E0C8600CE0002124
:1042B00004EB44000B4A02EBC0004161002004EB18
:1042C000440102EBC101C86000BF601CC4B2052CF0
:1042D0008ADB4FF08051024800F006F870BD000004
:1042E000000008402415000281667047024602F172
:1042F000200050F8210070470146886E704700008A
:1043000010B50146202909D30A4A1268A1F12003F9
:1043100001249C40A243074B1A6009E0054A121F82
:10432000136801228A409343024AC83AC2F8C43053
:1043300010BD0000C840074010B50146202909D330
:104340000A4A1268A1F1200301249C402243074B32
:104350001A6009E0054A121F136801228A401343BC
:10436000024AC83AC2F8C43010BD0000C840074035
:1043700010B500BF04490968C9B211B900F006F8C8
:1043800001E000F027F810BD84400740002000BF86
:104390000C490968C9B221B1012906D002290DD101
:1043A00008E000BF084908460AE000BF074909685D
:1043B000084605E000BF0649084601E0002000BFAE
:1043C00000BF704780400740001BB700A067000097
:1043D000D8AC070010B5002400BF0F480068C0B279
:1043E00030B1012808D002280AD0032811D10BE0EF
:1043F000FFF7CCFF04460CE000F03CF8044608E070
:1044000000F040F8044604E000BF04480068044699
:1044100000BF00BF204610BD84400740A4670000D5
:10442000024602F03F00431C01FB03F0704700000E
:10443000014601F0030212B1012A09D103E000BFD5
:10444000054800BF06E000BF044A106800BF01E055
:10445000002000BF00BF7047001BB700A06700002E
:1044600010B5FFF785FF02490968B0FBF1F010BDF8
:10447000C040074010B502490868FFF7D9FF10BDDA
:10448000A040074010B5FFF7F5FF04460249086851
:104490002146FFF7C5FF10BD984107402DE9F05FA9
:1044A00000BF1648006806460EB9002422E0FFF758
:1044B0005FFFB0FBF6F400251048583000681FFA83
:1044C00080FA0AF0FF00FF2813D1CAF3072909F583
:1044D000807C411C4FF0000B2246A2FB017E05FBB5
:1044E00001E104FB0B1162465B463846FBF752FFC5
:1044F000044600BF2046BDE8F09F0000D0400740C2
:1045000070B504462546042D04D3291FC8B200F017
:104510000BF806E0E8B20349086000BF002000F095
:1045200003F870BD804007400149086070470000F3
:10453000844007400149086070470000C0400740C0
:104540000149086070470000A04007402DE9F84F7E
:1045500004468A46FFF70CFF8346BBFBF4F9B9F12A
:10456000000F01D14FF0010909F0FF001249086066
:1045700000BFBAF1000F17D004FB19B0009004FB84
:1045800009FC89150098A0FB0170014662460023D2
:104590003846FBF7FFFE05462806FF2141EA10409A
:1045A00005495831086003E000200349583108608C
:1045B000FFF774FFBDE8F88FD040074001F0030318
:1045C000024663F39F12014B1A60704798410740FF
:1045D000054A126822F4405100F0030241EA023217
:1045E000024BC3F824217047244107400040074094
:1045F00070B505460E20FFF79FFE0F20FFF79CFECB
:104600001020FFF799FE0B20FFF796FE0B242046A3
:1046100000F0ECF8204600F0FFF800BF70BD30B5A8
:104620006BB100BF00F5005454F8214001259540BE
:104630002C4300F5005545F8214000BF0DE000BFB8
:1046400000F5005454F8214001259540AC4300F595
:10465000005545F8214000BF00BF30BD10B500EB4C
:104660004114A35410BD10B500EBC11444F822301E
:1046700010BD10B500EBC11444F8223010BD00BFCE
:1046800000F5007343F8212000BF70472DE9F04189
:1046900007460C46FFF7E4FE0546B5FBF4F6701E30
:1046A000BDE8F081C1F3080282607047C1F30802DF
:1046B000826070470A7802F00F02426042684B78CD
:1046C00003F00F0342EA0312426042688B7803F062
:1046D0000F0342EA03224260CA783AB14368CA78BB
:1046E000521E02F00F0243EA023242607047016834
:1046F00040F6BC72114001607047016841F0010151
:1047000001607047014688687047000010B5044694
:104710000848844206D12A20FFF70EFE2A2000F026
:1047200091F805E02920FFF707FE292000F08AF81C
:1047300010BD000000C004408AB2C261704770B56D
:1047400004460D46206800F0010616B12046FFF72A
:10475000CEFF6878A9780843297808436968084338
:10476000206028896062BC212046FFF79FFF36B198
:1047700000BF206840F00100206000BF00BF70BD96
:1047800010B5044B13404C1E04F00F0443EA0463BD
:10479000036210BD00007F0FF0B505076A0E03111C
:1047A000064E56F82350FF26964025EA060401FAE5
:1047B00002F52543014F47F82350F0BD0080034028
:1047C00070B506460C46154605EB4410C1B230469E
:1047D000FFF7E2FF70BD70B506460C46154605EBC7
:1047E0004410C1B23046FFF7D7FF70BD202809DB67
:1047F0000849896CA0F12002012393401943054A1E
:10480000916406E003494A6C012181400A43014951
:104810004A64704700400740202809DB0849896C3A
:10482000A0F12002012393409943054A916406E0D8
:1048300003494A6C012181408A4301494A64704717
:104840000040074010B504462046FFF7CFFF204642
:10485000FFF7E2FF10BD10B504462046FFF7C6FF84
:104860002046FFF7D9FF10BD0146064A1268064BE5
:1048700002EA03001A460A401043044AC2F808023A
:10488000704700000842074078FFFF0100400740E2
:104890000146064A1268064B02EA03001A460A401D
:1048A0009043044AC2F808027047000008420740DB
:1048B00078FFFF010040074008B54FF40010FFF7F4
:1048C000E7FF0020009002E00098401C0090009854
:1048D000B0F5007FF8DB0120FFF732FE4FF48000D7
:1048E000FFF7C2FF02210520FFF768FE4FF48000AA
:1048F000FFF7CEFF00BF00BF0748006800F00100CF
:104900000028F8D00120FFF715FE0220FFF760FE17
:104910000620FFF7F5FD08BD9C41074010B5FFF7E5
:10492000CBFF10BD01468868704770B505460E463E
:1049300014462846FFF7F6FF00F0040080B1214638
:10494000284600F092F800BFE0682169884201D152
:10495000012000E0002018B10421284600F024F8CE
:104960003146284600F022F870BD000070B50446BC
:10497000204600F029FE0546FFF7DEFC0848844289
:1049800003D13120FFF767FF09E00648844203D1D5
:104990003220FFF760FF02E03320FFF75CFF70BDBD
:1049A00000000440004004400161704738B50446EF
:1049B0000D4608E000BF6069C0B200906946284615
:1049C00000F007F900BF2046FFF7ACFF00F0010040
:1049D0000028EFD138BD2DE9F04107460C461546B9
:1049E0001E4632462946204600F03EF9BDE8F081D9
:1049F0002DE9F04180460D46164600242F4605E07D
:104A00003978404600F024F87F1C641CB44206DA72
:104A10004046FFF787FF00F004000028F0D1204651
:104A2000BDE8F0812DE9F04781460E461546002786
:104A3000B04608E02A4641464846FFF7D9FF0446FB
:104A40002D1B2744A044002DF4DC3846BDE8F08738
:104A5000C161704770B504460D46FFF71FFD29017F
:104A6000B0FBF1F6701E206270BD38B505460C46ED
:104A700004E09DF800102846FFF7EAFF2846FFF7FC
:104A800051FF00F0040028B16946204600F0D1F83B
:104A90000028EED138BD00002DE9F04102460E4657
:104AA000556905F26C7000214FEAE07800EB9878C8
:104AB0004FEAA808A0EB8808B8F1000F01D1012443
:104AC00000E0002412E04FEAE07800EB98784FEA2B
:104AD000A808A0EB8808B8F1000F03D11B4D2944AA
:104AE000012402E01A4D29440024401E40F26C7556
:104AF000A842E8DCD5686F1ED2F810C000230DE094
:104B000004EB4405DFF84C8008EB8505ED5C40F2D2
:104B1000A32805FB08F501EBC5115B1C6345EFD32A
:104B200040F2A3257D4301EBC5119568C5EB4518FF
:104B3000C8EB052501EB05115568C5EB051501EB23
:104B40008501156829443160BDE8F0810085E201E6
:104B50008033E101A81500020D2110A000F0B2FC85
:104B600000BF00BF00BF00BF00BFBFF34F8F00BF3B
:104B700000BF00BF0D48006800F4E0600C49084326
:104B8000001D0A49086000BF00BF00BFBFF34F8F80
:104B900000BF00BF00BF00BF00BFFDE74841524457
:104BA000204641554C54210D000000000CED00E062
:104BB0000000FA050146C8680A69801A704710B5F6
:104BC000044621606360A26000202061E060012053
:104BD00010BD70B504460E462568204600F01DF84D
:104BE00008B1002070BD6168491EE0680840A168F6
:104BF00000FB015531462846A268FBF7B1FEE0688C
:104C0000401CE0600120EDE70146C8680A69904257
:104C100001D1012070470020FCE710B50446204672
:104C2000FFF7C8FF6168884201DB012010BD00204A
:104C3000FCE770B504460D4626682046FFF7E4FF02
:104C400008B1002070BD6168491E20690840A16854
:104C500000FB016631462846A268FBF781FE206909
:104C6000401C20610120EDE72DE9F047044688460D
:104C70001746D4F800902046FFF7C6FF10B1002079
:104C8000BDE8F0872046FFF795FF064605466168B8
:104C9000491E2069084028446168884205D361683C
:104CA000491E2069084061680D1A761BBD4201DA71
:104CB000284600E0384605467F1BBE4201DA3046F2
:104CC00000E038460646BF1B6168491E206908405F
:104CD000A16800FB0199A06800FB05F24946404627
:104CE000FBF73EFE2069284420616168491E206967
:104CF00008402268A16800FB0129A06805FB008824
:104D0000A06800FB06F249464046FBF729FE2069F1
:104D100030442061A819B3E710B5FFF7A1FB0149A2
:104D2000086010BDA415000210B50D20FFF704FBAC
:104D30000C20FFF701FB0D242046FFF757FD20460E
:104D4000FFF76AFD00BFFFF7E9FD01200149086098
:104D500010BD0000CC40074010B5034A0349044889
:104D6000FFF7E3FD10BD0000641800027818000290
:104D700000000440490050EAC12018BF04204A0D39
:104D800018BF40F0010040F2FF72B2EB515F08BF64
:104D900040F00200012808BF0520704770B501F0FF
:104DA000F1F808B9164870BDFDF78AFF05460024E2
:104DB00018E0144850F8240040B9124840F8245034
:104DC00004EB4400104901EB4010ECE70D4850F8AB
:104DD0002400A84205D104EB44000B4901EB40102C
:104DE000E1E7641C042CE4D303D12946042001F03C
:104DF000B7F804EB4400044901EB4010D3E700008E
:104E0000C0110002201200024010000230380A28AF
:104E100001D2012070470020704710B5044601F010
:104E2000B1F820B14FF0FF312068FDF71FFA10BD37
:104E300010B504462068FDF72BFA10BD10B50446E6
:104E40000020FDF737FA2060206828B921460520A8
:104E500001F086F8002010BD0120FCE710B50446E3
:104E600001F090F810B12068FDF736FA10BD10B5CA
:104E7000FDF74EF910BD0000012000F0E5FC072110
:104E800002A000F01FFB00E000BFFDE74552524FBB
:104E900052210D00002400F0EBFA19A000F06CFB89
:104EA000052000F0D1FC00F09FFC1AA11CA000F02E
:104EB00063FB00F06DF81EA119A000F05DFB01F08E
:104EC00083F804460CB91DA000E01DA002461DA1F8
:104ED0001EA000F051FB21A000F04EFB062000F0C8
:104EE000ABFC22A000F048FB01F040F94FF47A70CF
:104EF000FDF7E2F802E06420FDF7DEF8FBE70000D2
:104F0000202A20496E697469616C697A696E672E1E
:104F10000D000000496E6469636174696F6E3A0048
:104F2000252D31352E313573206F6B2E0D0000008D
:104F3000434C49204150503A000000006572720015
:104F40006F6B0000526164696F3A0000252D3135A6
:104F50002E3135732025732E0D000000202A20529B
:104F6000756E6E696E672E0D0000000053746174DB
:104F7000653A207374616E6462792E0D0000000042
:104F800010B500F033FB01F0CBF901F0D9FA10BDF8
:104F900010B500F0E1F9064A00210648FDF7A2FE2F
:104FA0000549086008B9002010BD0120FCE7000099
:104FB000EC660000BD4F000018150002002423E03D
:104FC0000A20FDF779F880211048FBF740FD802189
:104FD0000E4800F02DFA0446032800D214E0002009
:104FE0000A4908550AA000F0C7FA80210948FBF7D2
:104FF0002EFD80220749054800F0B0F918B1054997
:1050000003A000F0B9FA00BFDAE70000631700025E
:1050100025730D00E31700022DE9F04105460E4609
:105020001746002400BF10E00A4901EB041148684C
:10503000FBF777FC022806D9064800EB041041680C
:1050400005A000F099FA601CC4B2042CECDB00202F
:10505000BDE8F0811067000025730D0070B50446AF
:105060000D46164607A000F087FA0EA210A113A065
:1050700000F082FA1748016817A000F07DFA0020BE
:1050800070BD0000446576696365202E2E2E2E2E9D
:105090002E2044532D3220436F6E74726F6C6C65FA
:1050A000720D000032323A35303A323700000000DB
:1050B0004665622020362032303138004275696CF6
:1050C00064202E2E2E2E2E2E2E2025732025730D9D
:1050D00000000000A4150002436F726520436C6F4E
:1050E000636B202E2E20256C64204D487A2E0D00F7
:1050F0002DE9F84380468946144600260025002005
:10510000009000276A460121204600F0DFF8071EC4
:1051100001D1BDE8F8833846FBF7CAFB46B26A46C0
:105120000221204600F0D2F8071E00D1F1E73846F0
:10513000FBF7BEFB45B23146002001F063F829467B
:10514000012001F05FF82A46314602A000F014FA6F
:105150000020DEE7506F696E74657220256420259B
:10516000642E0D002DE9F84380468946154600203F
:1051700000900027022400266A460121284600F0FC
:10518000A5F8071E01D1BDE8F8839DF800202AA1EB
:105190003846FBF79AFB00B900249DF8002027A1B0
:1051A0003846FBF792FB00B90124022C01D1002004
:1051B000E9E76A460221284600F088F8071E00D178
:1051C000E1E79DF800201FA13846FBF77EFB60B9A0
:1051D00021461EA000F0D0F9204601F07DF82146BE
:1051E00020A000F0C9F90020CDE79DF8002024A1FF
:1051F0003846FBF76AFB08B10020C4E76A46032182
:10520000284600F063F8071E00D1BCE73846FBF7DC
:105210004FFB46B23146204600F0F4FF28B132463B
:10522000214618A000F0A8F904E0324621461DA04E
:1052300000F0A2F90020A6E770616E0074696C743A
:1052400000000000746573740000000054657374FE
:10525000696E6720736572766F2025642E2E2E0D81
:105260000000000054657374696E67207365727680
:105270006F20256420697320646F6E652E0D000019
:1052800073657400536572766F20256420616E67C4
:105290006C652073657420746F20256420646567D5
:1052A0002E0D0000536572766F20256420616E67B5
:1052B0006C652073657420746F20256420646567B5
:1052C0002E6661696C65642E0D00000030B50346E2
:1052D000002400200025157023E000E05B1C1D78F1
:1052E00015B11D78202DF9D100E05B1C1D7815B19A
:1052F0001D78202DF9D01D7895B1651CECB28C423B
:105300000FD1184603E015786D1C15705B1C1D78D5
:1053100015B11D78202DF6D1157805B9002002E0D1
:1053200001E08C42D9DB00BF30BD014600200022E5
:105330000AE00B78202B05D1012A04D0431C58B277
:10534000012200E00022491C0B78002BF1D1012A38
:1053500001D1431E58B27047704700002DE9F05F3D
:1053600005460F4690460024A1464FF0010BA24689
:10537000002600BF2BE02B4800EB0410D0F800A063
:105380005046FBF7CEFA0646A85D202801D0A85D5E
:10539000D8B9324651462846FBF797FAA8B94FF0DC
:1053A0000109204800EB041090F90C0000280BDBE9
:1053B0002846FFF7BAFF1B4901EB041191F90C10C5
:1053C000884201D04FF0020903E0601CC4B2042CF3
:1053D000D1DB00BFB9F1020F07D14246124938466E
:1053E000FBF7BEFA4FF0010B18E0B9F1010F0ED137
:1053F0000C4800EB0410806880B10A4800EB0410F0
:105400002A464146836838469847834606E0424626
:1054100006493846FBF7A4FA4FF0010B5846BDE8A1
:10542000F09F00001067000070690000C469000070
:10543000F8B505460E4600240020009014E0012136
:10544000684601F0EFF801280BD19DF800000D2807
:1054500000D10AE09DF800002855641CB44203D333
:1054600003E00120FCF728FEE9E700BF2046F8BD75
:1054700010B5002201210846FDF7D6FB034908605C
:1054800008B9002010BD0120FCE700000C15000247
:105490000FB438B5002405A80090FE210848009BF1
:1054A000049AFAF711FF84B20020054908552146F5
:1054B000034801F0C5F80020009038BC5DF814FBEB
:1054C0006416000270B504460D462946204601F0D8
:1054D000B7F870BD2DE9F04106460F4600250024BF
:1054E0004FF47A711D480068FDF76EFB002833D138
:1054F00000BF1DE004F10800FF2800DB1AE0002DCA
:105500000ADD735DC4F1FF01154A101915A2FAF7FF
:10551000B9FF204484B209E0735DC4F1FF01104A71
:10552000101912A2FAF7AEFF204484B2681C85B2AB
:10553000BD42DFDB00BFC4F1FF01094A10190DA213
:10554000FAF7A0FF204484B22146054801F078F81C
:1055500002480068FDF77AFBBDE8F0810C150002F7
:10556000641600022C253032580000005B253032D2
:10557000580000005D0D0A000FB438B500244FF448
:105580007A710F480068FDF71FFBA8B905A80090C5
:10559000FE210C48009B049AFAF796FE84B2002084
:1055A000084908552146074801F04AF800200090B4
:1055B00003480068FDF74AFB38BC5DF814FB0000A7
:1055C0000C1500026416000201460648814201D112
:1055D000312070470448814201D13220F9E733205D
:1055E000F7E70000000004400040044010B500242C
:1055F0004FF0E050FEF7FCFF00BF25E0144800EB41
:1056000084008378124800EB84004278104810F838
:1056100024104FF0E050FFF702F80D4800EB840033
:10562000807801280ED10A4800EB8400C37808482E
:1056300000EB84004278064810F824104FF0E05048
:10564000FFF70CF8601CC4B2052CD7DB10BD0000BE
:10565000A867000010B50446064800EB84004278B5
:10566000044810F8241001234FF0E050FEF7F6FF35
:1056700010BD0000A867000010B50446064800EB06
:1056800084004278044810F8241000234FF0E050C2
:10569000FEF7E4FF10BD0000A867000010B502206F
:1056A000FFF7D8FF10BD10B50220FFF7E5FF10BDD2
:1056B00010B500F0B7F800F05FF8FFF7F4FF10BD89
:1056C00010B500F0AFF800F057F8FFF7ECFF10BD91
:1056D00010B500F0ACF800F04FF8FFF7DFFF4FF423
:1056E000FA70FCF7E9FC00F09DF800F045F8FFF7D0
:1056F000D5FF10BD10B500F095F800F042F8FFF7A7
:10570000CDFF10BD10B500F08DF800F03AF8FFF7AE
:10571000C5FF3220FCF7D0FC00F084F800F02CF834
:10572000FFF7BCFF10BD10B500F07CF800F029F8C1
:10573000FFF7B4FF10BD10B500F074F800F01CF8CE
:10574000FFF7ACFF10BD10B500F071F800F014F8D1
:10575000FFF7A4FF10BD10B500F064F800F00CF8DE
:10576000FFF7A1FF3220FCF7A7FC00F05BF800F088
:1057700003F8FFF793FF10BD10B50120FFF76AFF94
:1057800010BD10B50120FFF777FF10BD70B50546BD
:1057900014480478092C06D2DFE804F006090C0F3F
:1057A0001215181B1E0000BFFFF7C5FF17E0FFF71B
:1057B000CAFF14E0FFF79EFF11E0FFF779FF0EE04C
:1057C000FFF77EFF0BE0FFF7AEFF08E0FFF7C3FF38
:1057D00005E0FFF797FF02E0FFF77AFF00BF00BF89
:1057E00070BD00001415000210B50B4B0022012102
:1057F0000A48FDF789FA0A49086008B9002010BD77
:105800004FF47A7106480068FDF796FA08B1002057
:10581000F5E70120F3E70000DC6600008D5700008B
:105820001015000210B50020FFF714FF10BD10B5D1
:105830000020FFF721FF10BD72B60249087062B662
:10584000704700001415000210B5044672B60348F4
:1058500004700020FFF79AFF62B610BD1415000215
:1058600010B5FFF759FAFFF78BFB0420FFF7ECFFA9
:105870002AA0FFF70DFE2AA0FFF70AFE2EA0FFF7D1
:1058800007FE33A0FFF704FE37A0FFF701FE3CA0A0
:10589000FFF7FEFD40A0FFF7FBFD45A0FFF7F8FD79
:1058A00047A34AA24CA14EA0FFF7F2FD504851A1D8
:1058B000026853A0FFF7ECFD56A158A0FFF7E8FDE2
:1058C000FCF726FC28B159A15CA0FFF7E1FDFFF72A
:1058D000D3FA56A151A0FFF7DBFD5C4A00215C48DA
:1058E000FDF700FA5B49086028B95BA153A0FFF7F8
:1058F000CFFDFFF7C1FA58A148A0FFF7C9FDFCF79B
:10590000EDFB012808D1FCF715FC28B154A14BA0F0
:10591000FFF7BEFDFFF7B0FA002010BD0D0000003C
:1059200020202020202E2D272F202C5F2020272DE7
:105930002E2020200D000000202020202F202028B5
:10594000202028203E20202920205C200D0000005F
:10595000202020205C202020272D2720272D2720D5
:1059600020202F200D00000020202020272D2E2E6B
:105970005F5F205F5F2E2E2D27202020200D00004E
:10598000202020202020202020202F5F5C2020208D
:10599000202020200D00000020232044532D322001
:1059A000436F6E74726F6C6C657220230D00000083
:1059B000202A20426F6F74696E672E0D0000000070
:1059C00032323A35303A3237000000004665622004
:1059D00020362032303138004275696C643A00005C
:1059E000252D31352E3135732025732025730D007B
:1059F000A4150002436F726520436C6F636B3A001D
:105A0000252D31352E31357320256C6420487A2EB2
:105A10000D0000004253503A00000000252D3135A2
:105A20002E313573206F6B2E0D00000052544F53F2
:105A3000204B65726E656C3A00000000252D3135F3
:105A40002E313573206572722E0D0000B86600008D
:105A5000954E0000081500024150503A0000000029
:105A60004F532053746172743A00000010B500F077
:105A700032F8044604F0400008B1012010BD00F0E7
:105A80001AF908B90120F9E70020F7E738B504460C
:105A90000420FFF7F1FD0AA000680090012168468C
:105AA00000F000FD07480178204600F0ADFC04201E
:105AB000FFF7D0FD4021072000F022FA38BD00009A
:105AC000610000001C15000210B5082000F0DAF893
:105AD00000F00F0010BD08B5002000900420FFF773
