:020000040000FA
:10000000482D0002A9020000B10200002D2F0000BF
:1000100000000000000000000000000000000000E0
:100020000000000000000000000000006903000064
:100030000000000000000000E10300001D040000BB
:10004000BD020000BD020000BD020000BD020000B4
:10005000BD020000BD020000BD020000BD020000A4
:10006000BD020000BD020000BD020000BD02000094
:10007000BD020000BD020000BD020000BD02000084
:10008000BD020000BD020000BD020000BD02000074
:10009000BD02000051310000BD020000BD020000A1
:1000A000BD020000BD020000BD020000BD02000054
:1000B000BD020000BD020000BD020000452100009D
:1000C000BD020000BD020000BD0200004122000090
:1000D000BD020000BD020000BD020000BD02000024
:1000E000BD020000BD020000BD020000BD02000014
:1000F000BD020000BD020000BD02000000F002F8D9
:1001000000F0B0F80AA090E8000C82448344AAF101
:100110000107DA4501D100F0A5F8AFF2090EBAE8FF
:100120000F0013F0010F18BFFB1A43F0010318472B
:1001300034BA000054BA00000A444FF0000C10F822
:10014000013B13F0070408BF10F8014B1D1108BF55
:1001500010F8015B641E05D010F8016B641E01F8F5
:10016000016BF9D113F0080F1EBF10F8014BAD1C45
:100170000C1B09D16D1E58BF01F801CBFAD505E063
:1001800014F8016B01F8016B6D1EF9D59142D6D3BD
:10019000704700000023002400250026103A28BFE5
:1001A00078C1FBD8520728BF30C148BF0B607047E9
:1001B0006E2900F0D784702901F04580662908F087
:1001C000EC85652908F0E985672908F0E68561294D
:1001D00008F0E58503681B0A28BF41F08001692902
:1001E00000F02482642900F02182752900F01E822B
:1001F0006F2900F0D387782901F01180E92900F0F8
:100200006D87E42900F06A87F52900F06787EF29F8
:1002100000F0D087F82901F010800368DB0928BFBF
:1002200041F08001632900F0EE86732900F0F38627
:10023000E32901F06582F32901F06A82002070470A
:100240001FB501F04BF804000020002107F084FDE9
:10025000401C60600020002107F068FDE0601FBDC9
:1002600010B510BD01F03CFB1146FFF7E9FF0FB4DC
:1002700000F00CF80FBC04F0C5FE00F0E4FA03B483
:10028000FFF7EEFF03BC01F025FB000004B005F012
:10029000A7F80448002105F027F905F0B3F800F0AD
:1002A000D2FA0000300000020848804708480047A2
:1002B000FEE7FEE7FEE7FEE7FEE7FEE7FEE70000FB
:1002C00004480549054A064B7047000049310000C3
:1002D000FD000000482A0002482D0002482B0002C1
:1002E000482B000200487047E829000202F0FF0393
:1002F00043EA032242EA024200F072BBFFFFFFFF23
:1003000080F309887047EFF309807047684680F3EF
:10031000098804480078C00714BF0220032080F336
:1003200014887047188F0000DFF818C0EFF30583BA
:100330001B0618BF6047EFF31483DB0708BF604755
:1003400000DF704769610000DFF818C0EFF3058334
:100350001B0618BF6047EFF31483DB0708BF604735
:1003600000DF70474D630000EFF30980816911F8E9
:10037000021CF1B990E80F10E047EFF3098C8CE80C
:100380000700144B93E8060091420FD039B12CE9D5
:10039000F00FC1F828C00CB406F0A8FB0CBC1A6022
:1003A000D2F828C0BCE8F00F8CF309886FF0020E79
:1003B000704710B5084A1268914209D8074C54F8A2
:1003C000214090E80F10A047EFF3098C8CE80F0054
:1003D00010BD0000C80100024021000040210000C3
:1003E00006F01AFA0C4B93E80600914210D0EFF396
:1003F000098C2CE9F00FC1F828C00CB406F076FB8C
:100400000CBC1A60D2F828C0BCE8F00F8CF3098845
:100410006FF0020E70470000C801000206F02EFCCB
:10042000E0E7000005F03AF906F028FCDAE7000002
:1004300053EA020C00F069802DE9F04B4FF0000602
:10044000002B1FBFB3FA83F503FA05F424FA05F66F
:100450005E4012BF1643B2FA82F502FA05F4C5F106
:1004600020051EBF22FA05FC44EA0C04203556EA9A
:10047000044C4FEA144418BF641C4FF000084FF0BE
:100480000009904271EB030C39D3002919BFB1FA6E
:1004900081F701FA07F6B0FA80F700FA07F6C7F11C
:1004A00020071EBF20FA07FC46EA0C062037B6FBE1
:1004B000F4FCA7EB0507103F07F01F0BCBF120065C
:1004C0000CFA0BFB2CFA06F644BFB3460026202F8D
:1004D000A4BF5E464FF0000B5BEA060C08BF4FF06E
:1004E000010B19EB0B09ABFB027C48EB0608C01BA8
:1004F00006FB02CC0BFB03CC71EB0C01C1E70B46F6
:10050000024641464846BDE8F08B13B54FF0000067
:100510004FF00001AFF30080BDE81C4070470000C1
:100520007CB51D4616460C00009001D02044401EAC
:10053000074B7B442A4669460190304600F039FD5E
:1005400005461CB10020694600F046FD28467CBDEA
:10055000AD0A00000FB47CB50C0009AA009001D0D0
:100560002044401E084B7B4469460190089800F0E7
:1005700020FD05461CB10020694600F02DFD2846EF
:100580007CBC5DF814FB0000790A000070B50446DD
:1005900085690068C10601D5302600E02026C00725
:1005A00007D070BDD4E9012130469047206A401C35
:1005B00020626D1EF6D570BD70B504468569007861
:1005C000C00707D170BDD4E9012120209047206ADF
:1005D000401C20626D1EF6D570BD70B50C460546F8
:1005E000012A05D02878800600D5EA69002302E0B8
:1005F000012305E05B1C934202D2E05C0028F9D1A4
:10060000A869E618C01AA861286A18442862284612
:10061000FFF7BCFF04E0D5E9012114F8010B904776
:10062000B442F8D32846FFF7C7FF70BD2DE9F0416B
:100630000646002410687529314616A510D000F032
:1006400026FA002802DA404213A507E031688A073B
:1006500001D512A502E0490704D511A5012401E046
:1006600000F01EFA00210A2206F1240709E0B0FB7F
:10067000F2FCB0FBF2F302FB1C0030307854184659
:10068000491C0028F3D123462A463046BDE8F041F4
:1006900000F00FBA000000002D0000002B00000049
:1006A000200000002DE9F05F894604464FF0000A63
:1006B000DFF874B1FB44C0F820A02046E168884709
:1006C000002874D0252806D0D4E901219047206A5B
:1006D000401C2062F1E700265F462046E16888471B
:1006E0002028054607DB312D05D2781910F8200C9B
:1006F00008B10643F1E7B00701D526F00406C4F8B7
:100700001CA00027C4F818A02A2D09D0284602F002
:10071000F2FD38B304EB8708303DC8F8185019E0F3
:1007200059F8041B204604EB87029161E168884771
:10073000012F054618D1E069002820DA26F02006AE
:100740001DE0D8F8180000EB800005EB40003038C1
:10075000C8F818002046E1688847054602F0CBFD3E
:100760000028EED1012F0AD02E2D08D12046E168B5
:1007700088477F1C0546022F46F02006C4DBA0698F
:10078000002803DA404246F00106A061F00701D0DC
:1007900026F010066C2D0BD0682D09D04C2D39D0C9
:1007A0006A2D35D0742D35D07A2D33D016E038E04F
:1007B000E1682F4620468847B842054609D16C2F8C
:1007C00026D04FF48060E1680643204688470546FE
:1007D00004E06C2F1AD04FF4807006430DB3A5F1DE
:1007E0004100192802D8203546F400664A462946B9
:1007F000204626604E46FFF7DBFC80B101280BD077
:10080000F61D26F0070000F1080956E74020E4E74E
:100810008020D8E70020D6E706F104094DE72846F6
:1008200052E7206ABDE8F09F1CB1000070B5064693
:1008300000F020F90468054630460A22002100F045
:100840000DFD2C6070BD10B50446AFF3008020464E
:10085000BDE81040FFF713BD40EA010310B59B0748
:100860000FD1042A0DD310C808C9121F9C42F8D01A
:1008700020BA19BA884201D9012010BD4FF0FF30CB
:1008800010BD1AB1D30703D0521C07E0002010BDE1
:1008900010F8013B11F8014B1B1B07D110F8013B6D
:1008A00011F8014B1B1B01D1921EF1D1184610BD4E
:1008B00010B5431C02E010F8011B71B18107FAD199
:1008C0004FF0013202C88C1A8C4314EAC211F9D0DD
:1008D000C01A0A0603D0C01E10BDC01A10BD0A04FB
:1008E00001D0801E10BD0902FCD0401E10BD032A9D
:1008F00040F2308010F0030C00F0158011F8013B3D
:10090000BCF1020F624498BF11F801CB00F8013B23
:1009100038BF11F8013BA2F1040298BF00F801CBE7
:1009200038BF00F8013B11F0030300F02580083ABE
:10093000C0F0088051F8043B083A51F804CBA0E815
:100940000810F5E7121D5CBF51F8043B40F8043B6A
:10095000AFF30080D20724BF11F8013B11F801CB9F
:1009600048BF11F8012B24BF00F8013B00F801CB70
:1009700048BF00F8012B704710B5203AC0F00B803B
:10098000B1E81850203AA0E81850B1E81850A0E893
:100990001850BFF4F5AF5FEA027C24BFB1E81850ED
:1009A000A0E8185044BF18C918C0BDE810405FEA5D
:1009B000827C24BF51F8043B40F8043B08BF7047D9
:1009C000D20728BF31F8023B48BF11F8012B28BFDE
:1009D00020F8023B48BF00F8012B70474FF000029F
:1009E0000429C0F0128010F0030C00F01B80CCF141
:1009F000040CBCF1020F18BF00F8012BA8BF20F8AF
:100A0000022BA1EB0C0100F00DB85FEAC17C24BF02
:100A100000F8012B00F8012B48BF00F8012B7047AC
:100A20004FF0000200B5134694469646203922BF87
:100A3000A0E80C50A0E80C50B1F12001BFF4F7AFD2
:100A4000090728BFA0E80C5048BF0CC05DF804EBB4
:100A5000890028BF40F8042B08BF704748BF20F822
:100A6000022B11F0804F18BF00F8012B7047704720
:100A70007047704702F006BC10B5FFF7FBFF006837
:100A800010BD10B50446FFF7F5FF046010BD0968FE
:100A90004A0501D540B27047C905FCD500B2704780
:100AA00009684A0501D5C0B27047C905FCD580B2B6
:100AB00070472DE9F0470D4699469246044600F1ED
:100AC00024080168880604D5E06921F0100121603E
:100AD00000E00120A84201DD471B00E00027A169DA
:100AE0007A1902EB0900081AA0612078C00602D426
:100AF0002046FFF74BFD002608E0D4E901211AF853
:100B000006009047206A401C761C20624E45F4DBAC
:100B10002078C0060AD52046FFF738FD06E0D4E964
:100B2000012130209047206A401C2062381EA7F126
:100B30000107F4DC07E0D4E9012118F8050090472B
:100B4000206A401C2062281EA5F10105F3DC204626
:100B5000FFF732FD2078000602D50220BDE8F087BD
:100B60000120FBE711680268006A530501D508708F
:100B70000AE0D30501D5088006E0130603D5C217A5
:100B8000C1E9000200E008600120704770472DE9CC
:100B9000FF4F0C461E464FF0FF378BB0D2E90001E5
:100BA000DDF860800A908A46C1F30A5505B93D46D2
:100BB000002108464FF00000BAF1000F00F4400099
:100BC00005DA00EB80004FF4400101EA50004FEAE3
:100BD0009059B9F1010F00DDB9460A9850EA4A0070
:100BE0000ED044F61050A5F2FF3545432F14B8F14E
:100BF000000F1ED07542291E1EDDC9F100021CE047
:100C0000B8F1010F4FF0000001D0302103E0F243B2
:100C100005E02154401CB042FBDB3046002200219D
:100C200021540B99C1F80880C1E900200FB0BDE83C
:100C3000F08FBD1B6D1CDEE74A4600DA694206A84C
:100C400000F0BAFD06AB93E8070003AB83E80700AA
:100C500050460A9900F0B9FE8DE80700A0F5005053
:100C60001F3800900398002D09DD42F21F014A460B
:100C7000084403A90390684601F018F908E0A0F5BC
:100C800000504A461F3803A90390684601F022F934
:100C90008DE807000004000C03D04FF0FF3041083E
:100CA00000E01046B8F1000F03D000220092154674
:100CB0001EE0751E05D400F016FB303262556D1E25
:100CC000F9D5B3460122084302D000227F1C04E07C
:100CD0002078302801D100227F1E002A099786D073
:100CE0001DE0112D07DA00F0FEFA303262556D1C5E
:100CF00050EA0102F5D1084302D00098C8B10EE0D5
:100D00000021681E05E0235C625C63542254401E8F
:100D1000491C8142F7DBAB46A81B401E099000200E
:100D200004F80B000B98099AC0F80880C0E9002B62
:100D30007CE711264FF0000859E72DE9F04F88466F
:100D40000446D21D22F0070191B0D1E90001CDE99E
:100D50000A0102F00BFA02460B98C00F01D02D20B9
:100D600007E02068810701D52B2002E0202101EA5D
:100D7000C000032A099001D0072A05DB034641463B
:100D8000204600F073FC0BE12078800601D5E06975
:100D900000E00620B8F1650F814606D0B8F1660F75
:100DA00018D0B8F1670F70D131E00020B9F1110F00
:100DB000009001DB112301E009F101030AAA01A956
:100DC0000CA8FFF7E4FEDDE90C70002609F101052F
:100DD000834647E001204B4600904FF000470AAAA7
:100DE00001A90CA8FFF7D3FEDDE90DB00C995D4613
:100DF000002610B909F101000D18B9EB050003D464
:100E0000C0F1FF3609F10105A5EB09002BE0B9F1AE
:100E1000010F01DA4FF001090020B9F1110F009024
:100E2000484601DD112300E003460AAA01A90CA8E7
:100E3000FFF7ADFEDDE90C704D46002683462078B5
:100E400000070AD4AB4500DA5D4601A8012D04DD98
:100E5000411911F8011C302907D04F4502DA17F16A
:100E6000040F04DA012082460FE06D1EEEE7002F2A
:100E700002DCED1B3E4403E0781CA84200DD7D1C33
:100E8000B81B00F1010A4FF000472078000703D497
:100E9000AA4501DB4FF0FF3A0021B7F1004F0DF1F9
:100EA00043088DF8431024D002202B23002F01DAB1
:100EB0007F422D230A21021EA0F1010000DC5FB158
:100EC00097FBF1FC97FBF1F201FB1C7C17460CF140
:100ED000300C08F801CDEEE7A8F10100037021887D
:100EE000090501D5452100E06521A0F1010800F8C0
:100EF000011C09980FA9A1EB0807FF1D00B10120F3
:100F0000411901EBEA70A1693844081A401EA0613A
:100F10002078C00602D42046FFF738FB099828B194
:100F2000D4E901219047206A401C20622078C00645
:100F300022D52046FFF72AFB1EE0002E04DBB34536
:100F400002DD01A8805D00E03020D4E90121904756
:100F5000206A401C2062761CAAF101005FEA000AA8
:100F60000AD100F0BBF9C0680168405CD4E90121F6
:100F70009047206A401C2062281EA5F10105DCDC98
:100F800007E0D4E9012118F8010B9047206A401CC2
:100F90002062381EA7F10107F3DC2046FFF70CFBA7
:100FA000032011B043E6000001694A1C0261087881
:100FB000704700B58FB0CDE9013100210591054999
:100FC0007944CDE9031011466846FFF76BFB0FB07B
:100FD00000BD0000E5FFFFFF0A6802F8010B0A6090
:100FE0007047D1E900239A4202D2531C0B60107063
:100FF000704710B5436913B1AFF3008001E0FFF70C
:10100000ECFA012010BD127800F124010A700022D0
:101010004A700122EDE711684FF0FF32E9E7000066
:101020002DE9FF5F15468A460446DFF8AC80F84498
:101030000027D8E900103E46CDE9001010E03AF84C
:1010400016106A4602A800F025FC411C07D0217842
:10105000890603D5E269391891420DD80744761CF8
:101060002078800602D5E069B84205DDAE42E6DBB5
:101070003AF816000028E2D1A069C01BA061204602
:10108000FFF784FAD8E90010CDE90010002017E03E
:101090003AF818106A4602A800F0FCFBB0F1FF3FD6
:1010A00081460BD000250DF1080B05E0D4E90121A4
:1010B0001BF8050090476D1C4D45F7D308F1010062
:1010C000B0428046E4DB206A384420622046FFF7C5
:1010D00073FABDE8FF9F00003EA800002DE9F04133
:1010E0008046D21D22F007020025D2E90002F52930
:1010F00015A614D0011E72F1000106DA0023D0EB10
:10110000030063EB020211A608E0D8F800108B0779
:1011100001D50FA602E0490701D50EA6012511460B
:10112000002408F1240704E000F0DDF830323A55DD
:10113000641C50EA0102F7D12B4632462146404654
:10114000BDE8F041FFF7B5BC000000002D00000035
:101150002B0000002000000030B4002100F1240426
:1011600008E002F00705D208303542EA4372DB0896
:101170006554491C52EA0305F3D10468002310A208
:10118000250708D504F020040C4304D0C4690123CA
:101190000CA2641EC46130BCFFF78BBC10B50446C2
:1011A00021461068FFF77CFC02462046BDE810404F
:1011B0000023D1E7D21D22F00701D1E90023CBE7BC
:1011C0000000000030000000F0B40D460188090561
:1011D00002D5214C7C4402E01F4C7C440E3400219B
:1011E00000F1240608E002F00F071209E75D42EA69
:1011F00003721B097754491C52EA0307F3D10278A2
:101200000023120704D5702D06D009B10223113432
:101210002246F0BCFFF74DBC01231034F8E770B54F
:1012200004460D4621461068FFF73AFC024629465F
:101230002046BDE870400023C6E7D21D22F0070318
:10124000D3E90023C0E70368126843F0200303607A
:101250000823C3610023B7E7A0A600002DE9F047EB
:1012600091460F4680460446002614F8015B2DB1D6
:1012700000F02CF80068405DC007F6D12B2D02D09D
:101280002D2D18D0641E4A463946204600F044FAF7
:1012900027B13968A14201D1C7F800804FF002049C
:1012A00071050BD54042002803DDFFF7E3FB046026
:1012B000A007BDE8F08746F48066E4E70028F8DA86
:1012C000FFF7D8FB04606FF00040F2E710B500F0C4
:1012D00005F8001D10BD00BF816A000010B5FFF7C2
:1012E00001F8203010BD30B5B0F10A024FEA900E7F
:1012F00071F100034EEA817EB0EB0E0061EB9101CB
:101300004FEA101E4EEA017E10EB0E0041EB111168
:101310004FEA102E4EEA016E10EB0E0041EB112148
:101320004FEA104E4EEA014E10EB0E0041EB114118
:10133000401841F100014FEAD00040EA41704FEA05
:10134000D10110EB80054FEA810444EA907444EB2C
:1013500001046D1944EB0404521BA3414FF0000338
:1013600048BF0A3200D530BD401C41F1000130BDFC
:101370002DE9F04F04460D46D21D22F0070089B03A
:10138000D0E900974846394601F0F0FE0246F80FD2
:1013900001D02D2307E02068810701D52B2302E02F
:1013A000202101EAC0038DF820300BB1012000E0BC
:1013B0000020032A824601D0072A04DB2946204662
:1013C00000F054F93FE12078800601D40D2500E0BB
:1013D000E569C7F30A560D2D49DA00214FEA175B7C
:1013E00008464FF00000002F00F4400007DA00EB41
:1013F00080004FF4400100EBD07001EA60008115DD
:10140000012901DD4FF0FF3100224FEA850CBCF1CC
:10141000180F06D31346ACF118004FF08052C240AB
:1014200003E04FF4801323FA0CF30CF10C0CBCF125
:10143000200F04D3ACF1200C09FA0CF001E007FAFC
:101440000CF000294FF0004801DD18B90FE00ED173
:1014500040450CD319EB02095F4121B9404502D147
:101460009F4329EA0209BBEB175F00D0761C208856
:10147000000502D57B48784402E07A487844193860
:1014800008AA302302F80A30037C0AF10101002E79
:101490000AF1020A53546A4602DC4FF0300101E0BF
:1014A0004FF031014FF001088DF8001002D0A6F284
:1014B000FF3603E059EA470100D06B4E002D02DCF5
:1014C0002178090704D54FF002082E218DF801106C
:1014D000C44600210BE0C7F303433F01C35C491C32
:1014E0006D1E02F80830052908F1010801DA002D07
:1014F000F1DC00210CE000EB1973491C1B786D1E18
:10150000082902F808304FEA091908F1010801DA40
:10151000002DF0DC21688B0602D516E0A8F1010849
:10152000E04505DD02EB080313F8013C302BF5D054
:10153000B8F1000F09DD02EB080313F8013C2E2B74
:1015400003D1090701D4A8F10108002D05DD3E21D2
:1015500002F808106D1E08F10108407C002E02F808
:10156000080008F1010804DA2D20764202F808008C
:1015700002E02B2002F808000A214FF47A7086421C
:1015800008F101080BDB96FBF0F3303302F808306A
:1015900096FBF0F308F1010800FB136601E0642EEE
:1015A0000CDB642096FBF0F3303302F8083096FB36
:1015B000F0F308F1010800FB136601E00A2E06DBD8
:1015C00096FBF1F0303002F8080008F1010896FBB4
:1015D000F1F001FB1060303002F80800A16908F159
:1015E000010808EB050202EB0A00081AA061207846
:1015F000C00602D42046FEF7C9FF216A08AE01EBFF
:101600000A00206204E0D4E9012116F8010B90479A
:10161000BAF1010AF7D22078C00602D52046FEF7BB
:10162000B5FF6E4609E016F8010B3E280FD0D4E94D
:1016300001219047206A401C2062B8F10108F2D2D3
:101640002046FEF7B9FF09B00320BDE8F08F206AFD
:101650002844206203E0D4E90121302090476D1E28
:10166000EBD3F8E7D9A4000002FCFFFF2DE9F0411D
:101670001F46044603260168072A01F4006004DBC4
:1016800008B116A505E016A503E008B115A500E010
:1016900015A521F010002060A069C01EA0610FB147
:1016A000401EA0612046FEF771FF4FB1D4E9012131
:1016B00038469047206A401C2062C01C206206E029
:1016C000206AFAE7D4E9012115F8010B9047761E4C
:1016D000F8D22046FEF770FFBDE8F0814E414E0083
:1016E0006E616E00494E4600696E660010B5436932
:1016F00013B1AFF3008001E0FFF792FC012010BDB1
:10170000128800F1240182840022C2840122EDE7C4
:1017100011684FF0FF32E9E72DE9F05F8246154688
:101720008B4600270AF10104B9460078302801D021
:101730009DB113E014F8010B0127782803D0582835
:1017400001D045B10AE00DB1102D07D1002714F8E2
:10175000010B102502E0082500E00A250026B0460E
:101760000EE005FB080005FB06F101271FFA80F8D3
:1017700001EB1046B6F5803F00D3B94614F8010BD3
:10178000294600F0D2F80028EBDABBF1000F05D0B3
:101790000FB1641E00E05446CBF80040B9F1000FD1
:1017A00006D0FFF767F902210160C81EBDE8F09F6F
:1017B00048EA0640FAE700002DE9F0478146164660
:1017C0008AB0334878440DC88DE80D00304878441D
:1017D000801C03AC0DC884E80D0041F69B30084422
:1017E000372190FBF1F290FBF1F5A5F1800501FBAB
:1017F00012041B3C02D56442012000E00020DFF807
:1018000090A080460027FA44AAF1BE0A0DE0E00746
:1018100009D03246684607EB47010AEB810100F028
:1018200059FB8DE8070064107F1C002CEFD1184F86
:101830007F44AC3F18E0E80714D007EB04100DF12B
:10184000180A90E80E008AE80E00C068F04201D144
:1018500098190890324606A903A800F03BFB03AB99
:1018600083E807006D10641C002DE4D13246694600
:10187000B8F1000F03A802D000F018FB01E000F05F
:1018800029FBC9E90001C9F808200AB0BDE8F087C2
:101890001CA2000070B516460C460546FFF716FD63
:1018A000036893F80101012806D0FF2C0FD8185DBA
:1018B00068B101202C7070BDD3F807013246214673
:1018C00003F2071303442846BDE8704018474FF061
:1018D000FF3070BD01491820ABBEFEE726000200B4
:1018E0007546FEF7FFFCAE4605006946534620F0FC
:1018F0000700854618B020B5FEF7E2FCBDE82040A1
:101900004FF000064FF000074FF000084FF0000BBB
:1019100021F00701AC46ACE8C009ACE8C009ACE86E
:10192000C009ACE8C0098D4670473A2800D230386B
:1019300020F02002412A01D3A2F13700884201D3CE
:101940004FF0FF30704700004FF0013C50F8042B7F
:1019500051F8043B9A4221D1A2EB0C03934313EAC2
:10196000CC1317D150F8042B51F8043B9A4215D1EF
:10197000A2EB0C03934313EACC130BD150F8042BC6
:1019800051F8043B9A4209D1A2EB0C03934313EAAA
:10199000CC13DBD04FF00000704700BFD01A01BA63
:1019A000B1FA81F101F0180122FA01F0CB40C1F146
:1019B0002001DBB2C0B2C01A2CFA01F3D11A914354
:1019C00011EAC311E6D1704770475FEA400C08BFC7
:1019D00091F0000F4FEA8C234FEAC12243EA5151A4
:1019E0004FEA1C5018BF00F5F0404FEA300018BF16
:1019F00041F000415FEA6C5C00F02980BCF1FF3FE0
:101A000008BF40F080407047130C06BF12044FF02F
:101A1000100C4FF0000C130E04BF12020CF1080C56
:101A2000130F04BF12010CF1040C930F04BF9200BA
:101A30000CF1020CD30F04BF52000CF1010C114643
:101A40004FF00002A0F11F00A0EB0C00704711F056
:101A5000004F08BF704731F000413FF4D5AF0B0C89
:101A600006BF09044FF0100C4FF0000C0B0E04BF22
:101A700009020CF1080C0B0F04BF09010CF1040C56
:101A80008B0F04BF89000CF1020CCB0F04BF49007F
:101A90000CF1010CCCF12003A0EB0C0022FA03F3B3
:101AA00002FA0CF241EA030100F10100704720F054
:101AB0007F4C80EA030023F07F47ACEB070303F57C
:101AC0007C5300F0004003F1FF032DE980494FEA09
:101AD000154B09B44FEA144325EA0B4E24EA034898
:101AE0000FF2042606EB132749083E785FEA32021C
:101AF00003FB0667C7F5000707FB06F64FEA5437F6
:101B00004FEAD64606F1020607FB066CCCF1005CF4
:101B10004FEA1C472CEA074C07FB06F40CFB06F5C2
:101B200004EB15464FEA961634BF00204FF00040F4
:101B30004FEAD13706FB07FC4FEA1C4C0CFB0BF7B6
:101B4000D21B03FB0CF761EB07010CFB0EF7B0EBAC
:101B5000074072EB17420CFB08F734BFA2EB0742B9
:101B6000B2EB074261EB17414FEA0C444FEA910791
:101B700006FB07FC4FEA1C4C0CFB0BF7B0EBC74015
:101B800072EB573203FB0CF734BFA2EBC742B2EB48
:101B9000C74261EB57310CFB0EF7B0EBC70072EB9D
:101BA00057720CFB08F734BFA2EBC702B2EBC702B7
:101BB00061EB5771039F4FEA816141EA921104EB97
:101BC000CC044FEAD1374FEA826206FB07FC42EAB7
:101BD00090124FEA80604FEA1C4C0CFB0BF7D21BB3
:101BE00003FB0CF761EB07010CFB0EF7B0EB0740B2
:101BF00072EB17420CFB08F734BFA2EB0742B2EBC3
:101C0000074261EB17414FEA8C554FEA910704EB0D
:101C10009C2406FB07FC4FEA1C4C0CFB0BF7B0EBBB
:101C2000C74072EB573203FB0CF734BFA2EBC7423D
:101C3000B2EBC74261EB57310CFB0EF7B0EBC700BC
:101C400072EB57720CFB08F734BFA2EBC702B2EB82
:101C5000C70261EB577115EB4C254FEA816141EAF0
:101C600092114FEA82624FEAD13742EA901206FBA4
:101C700007FC44F100044FEA80604FEA1C4C0CFB67
:101C80000BF7D21B03FB0CF761EB07010CFB0EF704
:101C9000B0EB074072EB17420CFB08F734BFA2EB26
:101CA0000742B2EB074261EB174115EB1C154FEAF7
:101CB000813141EA92414FEA823242EA90424FEA50
:101CC00080304FEA0C7644F1000448EA03434EEAC0
:101CD0000B484FF0000EB2EB080C71EB030724BF6A
:101CE000624639464EEB0E0E4FF0000B0018524183
:101CF00049414BEB0B0BB2EB080C71EB03077BF18B
:101D0000000B24BF624639464EEB0E0E4FF0000B1F
:101D10000018524149414BEB0B0BB2EB080C71EB35
:101D200003077BF1000B24BF624639464EEB0E0ED3
:101D300051EA020718BF46F0010616EB0E7655F180
:101D4000000254F1000103D5BDE88901BDE8008817
:101D5000BDE88901BDE80048B619524141EB0101D7
:101D6000A3F10103704780807F7E7D7C7B7A797848
:101D7000777676757473727171706F6E6E6D6C6C50
:101D80006B6A6A69686867666665646463636261F2
:101D90006160605F5F5E5E5D5D5C5C5B5B5A5A5973
:101DA00059585857575656555555545453535252DF
:101DB0005251515050504F4F4F4E4E4D4D4D4C4C37
:101DC0004C4B4B4B4A4A4A49494948484847474780
:101DD00047464646454545444444444343434342BD
:101DE000424242414141002B26D4770021D01CB50C
:101DF0004FEA370703B44FF010004FF010014FF0D7
:101E000000000FBCBDE810400BF1010BBBF1010F4E
:101E100008BF5FEA170722BF12F1010211F10101A9
:101E20004FF0004143F1000300F0004043EA00009E
:101E30007047F9D35708DAE746EA064613F1400F30
:101E40004FEA16461FDD13F1200FDFBF16430A4687
:101E5000002120335B42C8D0C3F1200746EA064682
:101E600002FA07F74FEA164646EA0706C3F12007CB
:101E700022FA03F201FA07F721FA03F14FF0000307
:101E800042EA0702B1E746EA020646EA06464FEA98
:101E9000164646EA0106BCBF46EA0646360C4FF037
:101EA00000034FF000024FF000019EE72DE9C0480B
:101EB000934630B491E8380007C831EA400C48BF77
:101EC00034EA430C03D5FFF7F2FDFFF78CFFF0BCBB
:101ED000BDE800882DE9C048934630B491E8380049
:101EE00007C810F0804F08BF13F0804F03D100F0F7
:101EF00005F8FFF778FFF0BCBDE8008820F07F47C9
:101F000080EA030023F07F4C07EB0C03A3F57C531E
:101F100000F00040A3F1FE0392F0000F00F0B38048
:101F200095F0000F00F077802DE901494FEA11404C
:101F30004FEA144621EA004800FB06FC24EA064763
:101F400008FB06F607FB08F800FB07F718EB064846
:101F50004CEB164C4FEA124B18EB07484FEA15466C
:101F60004CEB174022EA0B4E0BFB06FC25EA06471A
:101F70000EFB06F607FB0EFE0BFB07F71EEB064EED
:101F80004CEB164C4FF000061EEB074E4CEB174B7C
:101F900018EB0B0840F1000018EB0E0B58EB000893
:101FA00040F100008F1A4FF000013CBFC943661B8F
:101FB00014BFB5EB040C00213CBFC943F61B4FEA2C
:101FC00017444EEA8E0E27EA04454FEA1C4704FBED
:101FD00007622CEA074C05FB07F70CFB05F604FB30
:101FE0000CFC16EB074642EB174216EB0C4642EB95
:101FF0001C421BEB060658EB0202414146EA9E06D4
:1020000001D5BDE80189B619524141EB0101A3F1A7
:102010000103BDE801894FEA14454FEA114724EA5C
:10202000054621EA074C05FB07F406FB07F70CFB06
:1020300006F105FB0CFC11EB074144EB17444FEA9A
:10204000124711EB0C4144EB1C4422EA074C05FB00
:1020500007F206FB07F70CFB06F605FB0CFC16EB7C
:10206000074642EB174216EB0C4642EB1C456A183A
:1020700054F1000148BF7047B619524141EB0101CC
:10208000A3F10103704795F0000F37D04FEA1142DA
:102090004FEA144721EA024624EA074C02FB07F103
:1020A00006FB07F70CFB06F402FB0CFC14EB0744E1
:1020B00041EB17414FEA154714EB0C4441EB1C412F
:1020C00025EA074C02FB07F506FB07F70CFB06F6B3
:1020D00002FB0CFC16EB074645EB174516EB0C46CE
:1020E00045EB1C42121951F1000148BF7047B61967
:1020F000524141EB0101A3F1010370474FEA14453E
:102100004FEA114724EA054621EA074C05FB07F18F
:1021100006FB07F70CFB06F24FF0000605FB0CFC74
:1021200012EB074241EB174112EB0C4251EB1C4101
:1021300048BF7047921841EB0101A3F101037047BA
:102140000000000070B500244FF0804000F01EF940
:10215000054605F08050002869D000BF65E004EB1B
:102160004400364951F83000B0F1804F00D05AE0B9
:1021700004EB4400314A02EBC00001794FF080408B
:1021800000F0FEF804EB44012C4A02EBC101886028
:1021900004EB4400114601EBC000806800F00040F1
:1021A000F0B304EB440001EBC000406904EB4401D0
:1021B00002EBC1010989C1F30B11014404EB440096
:1021C00002EBC000416104EB4400114601EBC0008A
:1021D000C068401C04EB440102EBC101C86004EB81
:1021E0004400114601EBC000C0680A281AD304EB72
:1021F000440001EBC00040690A21B0FBF1F104EB9F
:10220000440002EBC0000161002104EB440002EB3A
:10221000C0004161002004EB440102EBC10100E079
:1022200000E0C86000BF601CC4B2052C97DB4FF013
:102230008051880000F090F870BD0000DC000002C2
:1022400070B50024424800F0A1F8054605F0805022
:10225000002876D000BF72E004EB44003D4951F8FD
:1022600030003B49884200D067E004EB4400394A23
:1022700002EBC0000179364800F082F804EB44011B
:10228000344A02EBC101886004EB4400114601EBC3
:10229000C000806800F00040F0B304EB440001EBA4
:1022A000C000406904EB440102EBC1010989C1F39C
:1022B0000B11014404EB440002EBC000416104EB4C
:1022C0004400114601EBC000C068401C04EB44010F
:1022D00002EBC101C86004EB4400114601EBC000F1
:1022E000C0680A2828D304EB440001EBC000406911
:1022F0000A21B0FBF1F104EB440002EBC0000161E4
:10230000002104EB440002EBC0004161002004EB1B
:10231000440102EBC10100E001E0C8600CE00021D3
:1023200004EB44000B4A02EBC0004161002004EBC7
:10233000440102EBC101C86000BF601CC4B2052C9F
:102340008ADB4FF08051024800F006F870BD0000B3
:1023500000000840DC0000028166704730B504468A
:102360000D462946204600F04CF830BD70B50446B5
:102370000D464FF000422946204600F049F870BD56
:10238000024602F1200050F8210070470146886E95
:10239000704770B504460D46B4F1804F0AD14FF432
:1023A000806000F039FC1B2000F078F81B2000F062
:1023B00003FC09E04FF4006000F02EFC1C2000F04C
:1023C0006DF81C2000F0F8FB00206066256070BDF1
:1023D00001460868012222EA9070704770B50446F1
:1023E0000D4600F0EFF8B0FBF5F606B90126711EB8
:1023F000C8B2226822F0FF0141EA0002226000BF59
:1024000070BD436E23F0784242EA01034366704791
:1024100030B500F1080454F8214024F07C7343EAFD
:10242000020400F1080545F8214030BD00F1080321
:1024300043F821207047000010B50446206840F0A2
:1024400080402060206820F480702060044920468D
:10245000FFF7C4FF206820F48060206010BD0000FA
:1024600020A1070010B50146202909D30A4A1268A5
:10247000A1F1200301249C40A243074B1A6009E00C
:10248000054A121F136801228A409343024AC83A40
:10249000C2F8C43010BD0000C840074010B5014666
:1024A000202909D30A4A1268A1F1200301249C4083
:1024B0002243074B1A6009E0054A121F13680122E4
:1024C0008A401343024AC83AC2F8C43010BD000023
:1024D000C840074010B500BF04490968C9B211B926
:1024E00000F006F801E000F027F810BD8440074036
:1024F000002000BF0C490968C9B221B1012906D0EA
:1025000002290DD108E000BF084908460AE000BFD3
:1025100007490968084605E000BF0649084601E08A
:10252000002000BF00BF704780400740001BB7007D
:10253000CCB70000D8AC070010B5002400BF0F488E
:102540000068C0B230B1012808D002280AD00328A0
:1025500011D10BE0FFF7CCFF04460CE000F03CF893
:10256000044608E000F040F8044604E000BF0448D8
:102570000068044600BF00BF204610BD84400740ED
:10258000D0B70000024602F03F00431C01FB03F0FD
:1025900070470000014601F0030212B1012A09D17F
:1025A00003E000BF054800BF06E000BF044A106812
:1025B00000BF01E0002000BF00BF7047001BB70054
:1025C000CCB7000010B5FFF785FF02490968B0FBE2
:1025D000F1F010BDC040074010B502490868FFF790
:1025E000D9FF10BDA040074010B5FFF7F5FF044626
:1025F000024908682146FFF7C5FF10BD9841074012
:102600002DE9F05F00BF1648006806460EB90024A9
:1026100022E0FFF75FFFB0FBF6F4002510485830CA
:1026200000681FFA80FA0AF0FF00FF2813D1CAF3EE
:10263000072909F5807C411C4FF0000B2246A2FBC4
:10264000017E05FB01E104FB0B1162465B46384647
:10265000FDF7EEFE044600BF2046BDE8F09F0000F7
:10266000D040074070B504462546042D04D3291FE9
:10267000C8B200F00BF806E0E8B20349086000BFFA
:10268000002000F003F870BD804007400149086059
:10269000704700008440074001490860704700000F
:1026A000C04007400149086070470000A040074053
:1026B0002DE9F84F04468A46FFF70CFF8346BBFB23
:1026C000F4F9B9F1000F01D14FF0010909F0FF0051
:1026D0001249086000BFBAF1000F17D004FB19B00F
:1026E000009004FB09FC89150098A0FB01700146CD
:1026F000624600233846FDF79BFE05462806FF216B
:1027000041EA104005495831086003E000200349C0
:1027100058310860FFF774FFBDE8F88FD0400740DC
:1027200001F00303024663F39F12014B1A607047E6
:1027300098410740054A126822F4405100F0030214
:1027400041EA0232024BC3F824217047244107407A
:102750000040074070B505460E20FFF79FFE0F2092
:10276000FFF79CFE1020FFF799FE0B20FFF796FE67
:102770000B24204600F0F4F9204600F007FA00BFD1
:1027800070BD30B56BB100BF00F5005454F8214066
:10279000012595402C4300F5005545F8214000BF28
:1027A0000DE000BF00F5005454F82140012595408C
:1027B000AC4300F5005545F8214000BF00BF30BDD7
:1027C00010B500EB4114A35410BD70B504460D467E
:1027D000FFF780FE0146606980B2401C6843B1FB90
:1027E000F0F6C6F34F00A6EB560291B28A1E02F035
:1027F0000703821E02F0070243EA0212626200BF70
:1028000070BD70B505462D20FFF748FE2D242046EB
:1028100000F0A6F9204600F0B9F900BF70BD10B570
:1028200000EBC11444F8223010BD10B500EBC11408
:1028300044F8223010BD10B500EBC11444F822302A
:1028400010BD10B500EBC11444F8223010BD10B516
:1028500000EBC11444F8223010BD10B504468021AD
:10286000204600F001F810BD02688A4302607047FC
:1028700010B504468021204600F001F810BD026822
:102880000A43026070478160704710B504462046D5
:1028900000F069F810BD00BF00F5007343F8212077
:1028A00000BF704770B50B4641F4805500F5407489
:1028B00004EBC3046560012500F5407444F833500F
:1028C00000F5A06444F8325001249C4000F5A06556
:1028D00005EBC2056C60846D56000325B540AC4322
:1028E00056000125B5402C438465446D56000325F0
:1028F000B540AC43446570BD70B504460D46FFF766
:1029000061FEB0FBF5F600BF4FF00411204600F069
:1029100040F84FF00811204600F03BF800BF0020BF
:10292000E064014604F5807242F8201000BF314691
:1029300004F5007242F8201000BF4FF480514FF4AC
:10294000417001510120C4F800030248206000BF1B
:1029500070BD0000010002004FF0041142688A437C
:10296000426000BF704770B504462546C5F383300A
:10297000851F05F12201C8B2FFF790FD05F1220085
:10298000C6B2304600F0ECF8304600F0FFF800BF69
:1029900070BD42680A4342607047C1F3080282601A
:1029A00070470A7802F00F02426042684B7803F0E9
:1029B0000F0342EA0312426042688B7803F00F0370
:1029C00042EA03224260CA783AB14368CA78521E8A
:1029D00002F00F0243EA023242607047016840F69B
:1029E000BC72114001607047014688687047000062
:1029F00010B504460848844206D12A20FFF74EFD50
:102A00002A2000F0E2F805E02920FFF747FD292001
:102A100000F0DBF810BD000000C004408AB2C261C3
:102A2000704770B504460D46206800F0010616B1E7
:102A30002046FFF7D3FF6878A97808432978084330
:102A400069680843206028896062BC212046FFF73E
:102A5000A4FF36B100BF206840F00100206000BF35
:102A600000BF70BD10B5044B13404C1E04F00F04A2
:102A700043EA0463036210BD00007F0F70B5054692
:102A80000C46BC212846FFF788FF606940F4C0026D
:102A9000217E2846FFF7E6FF0020E06060600BE043
:102AA00000BF2846FFF7A0FF00F002000028F8D082
:102AB0002146284600F019FB216960688842EFD35F
:102AC00000BF2846FFF790FF00F020000028F8D054
:102AD00020212846FFF761FF2846FFF785FF00F019
:102AE000080008B1002070BD6068FCE710B500F078
:102AF0001F02C109044B53F8213001249440A34321
:102B0000014C44F8213010BDC0810340F0B50507E9
:102B10006A0E0311064E56F82350FF26964025EA0A
:102B2000060401FA02F52543014F47F82350F0BD92
:102B30000080034070B506460C46154605EB441070
:102B4000C1B23046FFF7E2FF70BD70B506460C46D5
:102B5000154605EB4410C1B23046FFF7D7FF70BDF4
:102B6000202809DB0849896CA0F120020123934049
:102B70001943054A916406E003494A6C01218140EA
:102B80000A4301494A64704700400740202809DB96
:102B90000849896CA0F12002012393409943054A1A
:102BA000916406E003494A6C012181408A4301494E
:102BB0004A6470470040074010B504462046FFF7BE
:102BC000CFFF2046FFF7E2FF10BD10B504462046B8
:102BD000FFF7C6FF2046FFF7D9FF10BD10B504462A
:102BE0002046FFF7BDFF2046FFF7D0FF10BD0000D5
:102BF0000146064A1268064B02EA03001A460A40DA
:102C00001043044AC2F80802704700000842074017
:102C100078FFFF01004007400146064A1268064B54
:102C200002EA03001A460A409043044AC2F8080226
:102C3000704700000842074078FFFF01004007404E
:102C400010B51020FFF7E8FF0820FFF7E5FF002090
:102C5000FFF728FD4FF48000FFF7CAFF022105208F
:102C6000FFF75EFD4FF48000FFF7D6FF00BF00BF07
:102C70000748006800F001000028F8D00120FFF7A5
:102C80000BFD0220FFF756FD0620FFF7EBFC10BD01
:102C90009C41074010B5FFF7D3FF10BD014688687F
:102CA000704770B505460E4614462846FFF7F6FFF6
:102CB00000F0040080B12146284600F092F800BFE1
:102CC000E0682169884201D1012000E0002018B1AC
:102CD0000421284600F024F83146284600F022F866
:102CE00070BD000070B50446204601F0E7FD0546C2
:102CF000FFF7D4FB0848844203D13120FFF76EFF71
:102D000009E00648844203D13220FFF767FF02E062
:102D10003320FFF763FF70BD000004400040044013
:102D20000161704738B504460D4608E000BF606990
:102D3000C0B200906946284600F034F900BF204632
:102D4000FFF7ACFF00F001000028EFD138BD2DE9FE
:102D5000F04107460C4615461E4632462946204697
:102D600000F06BF9BDE8F0812DE9F04180460D4699
:102D7000164600242F4605E03978404600F024F836
:102D80007F1C641CB44206DA4046FFF787FF00F060
:102D900004000028F0D12046BDE8F0812DE9F0477D
:102DA00081460E4615460027B04608E02A464146B1
:102DB0004846FFF7D9FF04462D1B2744A044002DA9
:102DC000F4DC3846BDE8F087C161704770B5044651
:102DD0000D46FFF715FC2901B0FBF1F6701E2062CD
:102DE00070BD38B505460C4604E09DF80010284635
:102DF000FFF7EAFF2846FFF751FF00F0040028B173
:102E00006946204600F0FEF80028EED138BD0000EB
:102E10002DE9F04105460C461548B5FBF0F7B5FB2A
:102E2000F0F100FB11563C2096FBF0F100FB116025
:102E300020604FF4616096FBF0F0A060A068C0EBEA
:102E40004011C1EB0020A6EB00103C2190FBF1F0FB
:102E50006060781C072190FBF1F201FB1200A06179
:102E60002146384600F006F800202062BDE8F081D7
:102E7000805101002DE9F04302460027164640F23A
:102E80006C7000244FF000084FEAE07900EB99796C
:102E90004FEAA909A0EB8909B9F1000F01D101237B
:102EA00000E000231AE04FEAE07900EB99794FEA5D
:102EB000A909A0EB8909B9F1000F04D14FF4B77645
:102EC0004FF0010C03E040F26D164FF0000CB242DF
:102ED00002DD921B401C01E001276346002FE2D077
:102EE000A0F26C754D61CA6116E003EB4305DFF893
:102EF000389009EB850515F80490551CA94509DAA9
:102F000003EB4305DFF8209009EB85052D5D521B8F
:102F1000641C01E04FF00108B8F1000FE5D0551C2A
:102F2000CD600C61BDE8F083A80100020D210AA06C
:102F300001F038F900BFBFF34F8F0B48006800F471
:102F4000E0600A490843001D07490860BFF34F8F3E
:102F500000BF00BFFEE700004841524420464155F3
:102F60004C54210D000000000CED00E00000FA05BB
:102F700000F01F02012191404209920002F1E0227B
:102F8000C2F8001170470146C8680A69801A704784
:102F900010B5044621606360A26000202061E060FB
:102FA000012010BD70B504460E462568204600F08D
:102FB0001DF808B1002070BD6168491EE068084036
:102FC000A16800FB015531462846A268FDF78FFC39
:102FD000E068401CE0600120EDE70146C8680A692E
:102FE000904201D1012070470020FCE710B5044653
:102FF0002046FFF7C8FF6168884201DB012010BD51
:103000000020FCE770B504460D4626682046FFF711
:10301000E4FF08B1002070BD6168491E20690840C6
:10302000A16800FB016631462846A268FDF75FFCF7
:103030002069401C20610120EDE72DE9F04704469E
:1030400088461746D4F800902046FFF7C6FF10B117
:103050000020BDE8F0872046FFF795FF06460546AD
:103060006168491E2069084028446168884205D388
:103070006168491E2069084061680D1A761BBD42CF
:1030800001DA284600E0384605467F1BBE4201DAD9
:10309000304600E038460646BF1B6168491E20697D
:1030A0000840A16800FB0199A06800FB05F24946B1
:1030B0004046FDF71CFC2069284420616168491ED8
:1030C000206908402268A16800FB0129A06805FB6F
:1030D0000088A06800FB06F249464046FDF707FC61
:1030E000206930442061A819B3E770B505460C4645
:1030F0002069401E6168814212D1D4E9003633F85C
:103100001600217E626902F4702343F4E0064B1E30
:1031100003F00F0346EA03630343AB6100BF06E01D
:10312000D4E9000230F812102846FFF777FC6068F7
:10313000401C606070BD000010B5FFF743FA014904
:10314000086010BDA401000210B5FFF7A3FD10BD7B
:1031500010B5034A03490448FFF7A3FD10BD000062
:103160005C2800027028000200000440490050EA78
:10317000C12018BF04204A0D18BF40F0010040F2E2
:10318000FF72B2EB515F08BF40F00200012808BF98
:10319000052070472DE9F0414F1E00EBC7010446A2
:1031A000D1E9000115461E4637F006020DD02A4629
:1031B000334605F0BFF87F1E04EBC703D3E90023B5
:1031C00004F0E0FD37F00602F1D1022F25D0042FE4
:1031D00013D0062F18BFBDE8F0812A46334605F00C
:1031E000A9F8D4E90A2304F0CDFD2A46334605F0B8
:1031F000A1F8D4E9082304F0C5FD2A46334605F0BA
:1032000099F8D4E9062304F0BDFD2A46334605F0BB
:1032100091F8D4E9042304F0B5FD2A46334605F0BD
:1032200089F8D4E9022304F0ADFD2A46334605F0BF
:1032300081F8D4E90023BDE8F04104F0A3BD00000B
:10324000002213461046014904F058BE0000F03F2A
:10325000012205F0D8BD04F095BD002213461046AA
:10326000114604F04BBE40F2013200204FF0E04125
:1032700005F0C9BD024A0020110705F0C4BD0000D9
:1032800001FDFFFF074810B5007848B103F098FE34
:1032900030B1054900EB400001EB4010603810BD33
:1032A000024810BDC1010002F81D0002E829000219
:1032B00010B5002A06DA22F00042D21D22F00703E0
:1032C000102203E0D21C22F003030C2213B19C183D
:1032D0008C4201D9012010BD024401448360C0E941
:1032E0000021C91AD018884202D810600246F9E7B6
:1032F0000020106010BD30380A2801D2012070472C
:103300000020704705490978002905D000684FF66C
:10331000FF71DFF80CC000DF70470000C101000240
:10332000B167000004490978002903D00068DFF87C
:103330000CC000DF70470000C1010002D966000028
:1033400070B5002400214FF08040FFF722F8364985
:10335000C805FFF743F8354A00219007FFF766F8E4
:103360004FF48020FFF758FC03204FF08041486065
:1033700000BF0020C86600BF00BF31E004EB44007E
:103380002B4951F83000B0F1804F00D026E004EB1B
:103390004400274901EBC0004079FF281DD004EB11
:1033A000440001EBC0008079FF2816D004EB4400F4
:1033B0000B4603EBC000827904EB440003EBC00032
:1033C000417900231B48FFF72AFA04EB4401184A0D
:1033D00002EBC101C879FFF789FB00BF601CC4B2D2
:1033E000052CCBDB4FF08040FFF726F800BF4FF0F5
:1033F0008040FEF7EDFF0028F9D04FF08040FEF747
:10340000C5FF054629464FF08040FEF7A5FF012184
:103410008807FEF7A3FF1F20FFF7AAFD00214FF04A
:103420008040FEF7A3FF70BD80F0FA020D00004857
:10343000DC00000200800F4070B5002400212F48FE
:10344000FEF7A7FF2E492D48FEF7C8FF2D4A0021A1
:103450002A48FEF7EBFF00BF31E004EB44002A49A5
:1034600051F830002549884200D026E004EB4400A2
:10347000254901EBC0004079FF281DD004EB440032
:1034800001EBC0008079FF2816D004EB44000B4606
:1034900003EBC000827904EB440003EBC0004179E8
:1034A00000231A48FFF7BBF904EB4401164A02EB6C
:1034B000C101C879FFF71AFB00BF601CC4B2052C1C
:1034C000CBDB0E48FEF7B8FF00BF0C48FEF780FFCD
:1034D0000028FAD00948FEF759FF05462946074853
:1034E000FEF73AFF01210548FEF738FF2320FFF7DA
:1034F0003FFD00210148FEF739FF70BD0000084084
:1035000080F0FA0212000048DC00000200800F4048
:1035100070B5002000F020F80446601C58B1204629
:1035200005F068FB0646054905F0C2FB054604495F
:1035300005F09EFA70BD0020FCE7000033531044F4
:103540005C8F12C0014601EB4100024A02EBC00051
:1035500000697047DC00000210B504462046FFF702
:10356000F1FF0346581C20B140F6E4405843000BDD
:1035700010BD4FF0FF30FBE710B5FFF7E1FEFFF79E
:103580005BFF10BD012001F083FB072102A000F0CA
:1035900009FE00E000BFFDE74552524F52210D00E9
:1035A0000024002600250027A046A14600F0D0FDFB
:1035B0004CA000F0FFFD052001F06AFB01F03CFB90
:1035C0004DA000F0F7FD00F0E1FA50A000F0F2FD90
:1035D00003F030FD52A000F0EDFD04F011FB55A00A
:1035E00000F0E8FD01F000FD06460EB956A000E02F
:1035F00056A0014656A000F0DDFD01F00DFE064686
:103600000EB951A000E051A0014656A000F0D2FD35
:1036100000F03CFE06460EB94BA000E04BA0014670
:1036200055A000F0C7FD59A000F0C4FD062001F030
:1036300027FB5AA000F0BEFD4FF47A7001F0C4FEE3
:103640000124204601F0AEF84AE01427002508E0E6
:10365000072001F0A5F908B9681CC5B2012001F0E6
:10366000B3FE381EA7F10101CFB2F1D10A2D0CDB58
:10367000B8F1000F06D1601EC4B204B9042420467C
:1036800001F090F84FF0010801E04FF000080A2027
:1036900001F09AFE1427002508E0082001F080F9C7
:1036A00008B9681CC5B2012001F08EFE381EA7F1D2
:1036B0000101CFB2F1D10A2D0DDBB9F1000F07D115
:1036C000601CC4B2052C00D10124204601F06AF828
:1036D0004FF0010901E04FF000090A2001F074FEEB
:1036E000B3E70000202A20496E697469616C697A29
:1036F000696E672E0D0A0000496E64696361746922
:103700006F6E202E2E206F6B2E0D0A00434C492029
:10371000415050202E2E2E2E2E206F6B2E0D0A0083
:10372000536572766F202E2E2E2E2E2E2E206F6B2E
:103730002E0D0A00556C747261736F6E6963202ED2
:103740002E206F6B2E0D0A00657272006F6B0000E9
:103750004A6F79737469636B202E2E2E2E20257389
:103760002E0D0A004D6F746F72202E2E2E2E2E2ECF
:103770002E2025732E0D0A00446973706C61792028
:103780002E2E2E2E2E2025732E0D0A00202A20529A
:10379000756E6E696E672E0D0A00000053746174B9
:1037A000653A207374616E6462792E0D0A00000020
:1037B0002DE9F84F04460D4621F000400091734971
:1037C000814211DC7249884201DC06D12CB12046CD
:1037D0002946BDE8F84FFFF73BBD6E48002DCCBF32
:1037E0006D496E49BDE8F88F6D49814211DD6D4923
:1037F0008142D8BF4FF0FF366DDD20462946FFF7E6
:10380000B5FC042808BFFFF735FD20462946BDE872
:10381000F88F6549654F25F00045814233DD6449E5
:10382000814219DD002632464FF08043204629466A
:1038300004F0A8FA80468A4601222046294605F06F
:10384000E2FA00223B4604F09BFF4246534604F056
:1038500055FB04460D463EE001260022BA463B4693
:103860002046294604F08EFA80460F460022534631
:103870002046294604F084FF42463B4604F03EFBC6
:1038800004460D4627E04B4981421BDDDFF828A1A5
:103890000226002253462046294604F04BFD002212
:1038A0003B4604F06FFA80460F46002253462046FE
:1038B000294604F065FF42463B4604F01FFB0446E0
:1038C0000D4608E0032622462B4600203B4904F023
:1038D00015FB04460D4622462B461046194604F0B9
:1038E00029FD8B46824602460B4604F023FD07461F
:1038F0000246334888460B4606217844FFF74AFCC7
:1039000052465B4604F016FD82462E488B463A46E8
:10391000434605217844FFF73DFC3A46434604F010
:1039200009FD02460B46002E504659460CDA04F0BB
:1039300029FA22462B4604F0FDFC01B022462B4614
:10394000BDE8F04F04F02ABE04F01CFA22462B46D4
:1039500004F0F0FC1C4A7A4402EBC603D3E90023CE
:1039600004F00EFF22462B4604F00AFF174A7A4461
:1039700002EBC603D3E9002304F010FE009A002AEC
:10398000B8BF81F00041BDE8F88F0000000010448E
:103990000000F07F182D4454FB21F93FFB21F9BFB3
:1039A0000000DC3F0000203E0000F33F0000F03F3D
:1039B0000000E63F008003400000F83F0000F0BF39
:1039C0000A800000C87F0000667F00002E7F000094
:1039D0002DE9F04D9446CCF1000423F000464CEA6A
:1039E0000404524F46EAD4749A46884621F00042B5
:1039F000BC4206D8454240EA050442EAD474BC42BF
:103A000004D9BDE8F04D6246FFF725BCAAF1405548
:103A1000A5F17F6555EA0C040BD0022404EAAA74D0
:103A2000434DDFF810E144EAD87452EA000B04D0A9
:103A30000CE0BDE8F04DFFF7BBBE002C14BF012C1D
:103A4000BDE8F08D022C30D0032C32D056EA0C0B9E
:103A50000AD0BE4220D1BA4209D126F0804622F0D7
:103A600080423346114617E000291ADB25E0DFF8D3
:103A7000C8B0FB44002C04BFDBE90001BDE8F08DB9
:103A8000012C02BFDBE9000181F00041BDE8F08DAF
:103A9000022C0AD0032C0CD0BA4212D1B8F1000F7C
:103AA0000BDA23482549BDE8F08D28462449BDE8B6
:103AB000F08D28467146BDE8F08D1D482149BDE8CE
:103AC000F08D921B12153C2AC4BF19481D490EDC0B
:103AD000BAF1000FBEBF12F13C0F0020014606DB19
:103AE000624604F00BFA21F00041FFF761FE002C62
:103AF00008BFBDE8F08D012C04BF81F00041BDE896
:103B0000F08D114A114B022C07D004F039FE2A46E1
:103B1000BDE8F04D0A4B04F033BE04F031FE2A46F6
:103B2000BDE8F04D064B04F039BD00000000F07F09
:103B3000182D4454FB2109C0C27E0000FB21F9BFAF
:103B4000FB210940FB21F93F075C143326A6A13C69
:103B500010B50D20FEF7A2FC0C20FEF79FFC0D24F3
:103B60002046FEF7FDFF2046FFF710F800BF00F0EB
:103B7000B7FEFFF701FD00F077FF03F0BBFF02F097
:103B8000C3FA03F02FFA03F0F1FA10BD10B500F0FC
:103B9000FBF90021044801F0A7FC0449086008B9BA
:103BA000002010BD0120FCE7B08E000018000002CC
:103BB000002400F0D9F822E00A2001F005FC802161
:103BC0000F48FCF70BFF80210D4800F055FA041E4A
:103BD00000D114E000200A4908550AA000F0EAFAD2
:103BE00080210A48FCF7FAFE80220849044800F0C8
:103BF000D9F918B1054903A000F0DCFA00BFDBE7F2
:103C00000004000225730D0A000000008004000279
:103C10002DE9F04105460E461746002400BF10E08E
:103C20000A4901EB04114868FCF742FE022806D954
:103C3000064800EB0410416805A000F0BBFA601CC8
:103C4000C4B2102CECDB0020BDE8F08100030002C0
:103C500025730D0A0000000070B504460D46164697
:103C600007A000F0A7FA0EA210A113A000F0A2FA7C
:103C70001748016817A000F09DFA002070BD0000F1
:103C8000446576696365202E2E2E2E2E2E204453F9
:103C90002D3220436F6E74726F6C6C65720D0A006A
:103CA00031373A34313A3530000000004F63742028
:103CB00031362032303136004275696C64202E2E48
:103CC0002E2E2E2E2E2025732025730D0A00000087
:103CD000A4010002436F726520436C6F636B202E5A
:103CE0002E20256C64204D487A2E0D0A000000001D
:103CF0002DE9F84380468946144600260025002019
:103D0000009000276A460121204600F0F7F8071EC0
:103D100001D1BDE8F8833846FCF788FD46B26A4613
:103D20000221204600F0EAF8071E00D1F1E73846EC
:103D3000FCF77CFD45B23146002003F089F92946A5
:103D4000012003F085F92A46314602A000F032FA3C
:103D50000020DEE7506F696E7465722025642025AF
:103D6000642E0D0A0000000010B5064800F0A4F90A
:103D7000054800F0A1F9054800F09EF9044800F05C
:103D80009BF910BDC08E0000D08E0000E08E0000B8
:103D9000F08E00002DE9F843804689461546002044
:103DA00000900027022400266A460121284600F0E0
:103DB000A5F8071E01D1BDE8F8839DF800202AA1CF
:103DC0003846FCF749FD00B900249DF8002027A1E2
:103DD0003846FCF741FD00B90124022C01D1002036
:103DE000E9E76A460221284600F088F8071E00D15C
:103DF000E1E79DF800201FA13846FCF72DFD60B9D2
:103E000021461EA000F0D6F9204603F08BF921468A
:103E100020A000F0CFF90020CDE79DF8002024A1DC
:103E20003846FCF719FD08B10020C4E76A460321B3
:103E3000284600F063F8071E00D1BCE73846FCF7BF
:103E4000F5FC46B23146204603F002F928B132466D
:103E5000214618A000F0AEF904E0324621461DA02C
:103E600000F0A8F90020A6E770616E0074696C7418
:103E700000000000746573740000000054657374E2
:103E8000696E6720736572766F2025642E2E2E0D65
:103E90000A00000054657374696E6720736572765A
:103EA0006F20256420697320646F6E652E0D0A00F3
:103EB00073657400536572766F20256420616E67A8
:103EC0006C652073657420746F20256420646567B9
:103ED0002E0D0A00536572766F20256420616E678F
:103EE0006C652073657420746F2025642064656799
:103EF0002E6661696C65642E0D0A000030B50346BC
:103F0000002400200025157023E000E05B1C1D78D4
:103F100015B11D78202DF9D100E05B1C1D7815B17D
:103F20001D78202DF9D01D7895B1651CECB28C421E
:103F30000FD1184603E015786D1C15705B1C1D78B9
:103F400015B11D78202DF6D1157805B9002002E0B5
:103F500001E08C42D9DB00BF30BD014600200022C9
:103F60000AE00B78202B05D1012A04D0431C58B25B
:103F7000012200E00022491C0B78002BF1D1012A1C
:103F800001D1431E58B2704710B500200349087094
:103F90004FF480710248FCF743FD10BD150000028C
:103FA000000300022DE9F05F05460F46904600240D
:103FB000A1464FF0010BA246002600BF2BE02B4884
:103FC00000EB0410D0F800A05046FCF771FC064648
:103FD000A85D202801D0A85DD8B9324651462846B0
:103FE000FCF73AFCA8B94FF00109204800EB041097
:103FF00090F90C0000280BDB2846FFF7AEFF1B49A9
:1040000001EB041191F90C10884201D04FF0020924
:1040100003E0601CC4B2102CD1DB00BFB9F1020F69
:1040200007D1424612493846FCF761FC4FF0010BBC
:1040300018E0B9F1010F0ED10C4800EB04108068B4
:1040400080B10A4800EB04102A464146836838468E
:104050009847834606E0424606493846FCF747FC47
:104060004FF0010B5846BDE8F09F0000000300022E
:10407000FCB9000050BA0000F8B505460E46002411
:104080000020009014E00121684603F09FFD012804
:104090000BD19DF800000D2800D10AE09DF800002A
:1040A0002855641CB44203D303E0012001F08CF9CD
:1040B000E9E700BF2046F8BD30B501460A48007860
:1040C000102801DB002030BD0848074A127800EBB9
:1040D000021091E83C003CC003480078401C024AB2
:1040E00010700120EFE7000015000002000300023D
:1040F00008480068C0010BD507480068C00707D012
:10410000054880380068002802DA04490120087058
:1041100070470000FCED00E0800E00E0E4010002CA
:104120004FF06042D36F002BFCD0036BD367D36F8B
:10413000002BFCD0C07840EA0120A2F87C00704738
:104140004FF06041CA6F002AFCD081F87C007047B4
:1041500010B50121044801F097F90449086008B935
:10416000002010BD0120FCE7A48E00000C0000021E
:104170000FB438B5002405A80090FE210848009B24
:10418000049AFCF7CDF984B2002005490855214670
:10419000034803F029FD0020009038BC5DF814FBB3
:1041A000E801000270B504460D462946204603F09A
:1041B0001BFD70BD0FB438B500244FF47A710F4861
:1041C000006801F085F9002815DB05A80090FE21A4
:1041D0000B48009B049AFCF7A3F984B2002008491D
:1041E00008552146064803F0FFFC002000900348D4
:1041F000006801F061F938BC5DF814FB0C000002A6
:10420000E801000210B580240A48007801280CD18A
:10421000084989880802C11700EBD1514C12FF2CC4
:1042200001DDFF2000E020460446E0B203F055FA2D
:1042300010BD00003026000270B5044604EB4400B7
:104240000F4951F8205014E0012001F0BDF80D484D
:104250000068401C0B49086008460068642803D9C0
:1042600000200860FFF7CEFF07480078844200D0A6
:1042700003E0281EA5F10105E6D100BF70BD0000D6
:10428000DC250002680000026400000210B503F0A3
:1042900053F908B9002010BD144A0021084600F067
:1042A00067FA134A4FF47A71012000F061FA114A5B
:1042B0003221022000F05CFA0F4A3221032000F084
:1042C00057FA0E4A4FF47A71042000F051FA002098
:1042D00000F068FA00210A4801F006F9094908606F
:1042E00008B90020D7E70120D5E70000B946000053
:1042F0000943000091440000A1450000C1430000B3
:104300006CB700006000000230B591B00446002098
:104310000D900E900F90109002F05AFE05462C2141
:1043200002A8FCF77DFB02A92846FEF771FD18A143
:10433000204600F0E7F91721142003F0F7F8DDE933
:104340000210CDE9000114A210210DA8049BFCF776
:1043500001F9002214490DA803F0AAF92C211D200F
:1043600003F0E4F8DDE90501491CCDE900100798E8
:1043700000F26C730DA210210DA8FCF7EBF80022DF
:104380000E490DA803F094F903F0B0F911B030BD57
:10439000436C6F636B000000253032643A25303285
:1043A000643A25303264000048000002253034644D
:1043B0002D253032642D253032640000400000028B
:1043C000F0B587B00446142102A8FCF729FB1FA111
:1043D000204600F097F91FA2122102A8FCF7BAF8B4
:1043E0001221032003F0A2F800221D4902A803F0C5
:1043F0005FF91C4800681C49B0FBF1F52B461BA275
:10440000122102A8FCF7A6F81D21032003F08EF864
:104410000022134902A803F04BF9FFF779F8074689
:1044200004F098FA15A2CDE90001122102A8FCF7C8
:1044300091F82821032003F079F80022084902A806
:1044400003F036F903F052F907B0F0BD496E666F1C
:10445000000000005665723A20312E312D61310086
:1044600040000002A401000240420F00436C6B3A7E
:1044700020256C64204D487A2E000000546D703A5F
:1044800020252E30326620646567432E0000000030
:1044900030B589B00446142104A8FCF7C1FA002005
:1044A000039002902BA1204600F02CF9002000F090
:1044B0002BFD05462B462AA2122104A8FCF74AF838
:1044C0001221032003F032F80022294904A803F046
:1044D000EFF8002000F050FD05462B4625A21221E2
:1044E00004A8FCF737F81D21032003F01FF8002271
:1044F0001F4904A803F0DCF802AA03A9002000F079
:1045000085FC029800901FA2122104A8039BFCF7CF
:1045100021F82821032003F009F80022144904A8F7
:1045200003F0C6F8002000F065FC05462B4619A2F2
:10453000122104A8FCF70EF83321032002F0F6FF45
:1045400000220B4904A803F0B3F803F0CFF809B038
:1045500030BD00004A6F79737469636B000000001E
:10456000583A202025642020202020202000000010
:1045700040000002593A20202564202020202020DD
:1045800020000000563A20202564202564202020A9
:104590002020200053573A2025303164202020006D
:1045A00070B586B00446142101A8FCF739FA2FA192
:1045B000204600F0A7F8002000F022FE054600206B
:1045C00000F012FE064633462AA2122101A80095E9
:1045D000FBF7C0FF1221032002F0A8FF00222949A7
:1045E00001A803F065F8002000F0EEFD05462B461B
:1045F00025A2122101A8FBF7ADFF1D21032002F027
:1046000095FF00221F4901A803F052F8012000F095
:10461000F7FD0546012000F0E7FD064633461EA2E1
:10462000122101A80095FBF795FF2821032002F035
:104630007DFF0022134901A803F03AF8012000F0A1
:10464000C3FD05462B4618A2122101A8FBF782FFE5
:104650003321032002F06AFF00220A4901A803F077
:1046600027F803F043F806B070BD00004D6F746F7B
:10467000720000004C2E533A202564202F20256420
:1046800020202000400000024C2E433A20256420C8
:104690006D412E2020202000522E533A20256420E8
:1046A0002F20256420202000522E433A202564200C
:1046B0006D412E202020200010B504461421282012
:1046C00002F034FF0022084908A002F0F1FF28217F
:1046D000192002F02BFF0022064907A002F0E8FF94
:1046E00003F004F810BD00004800000244532D32CE
:1046F0000000000040000002436F6E74726F6C6C2B
:104700006572000030B587B005460C46182101A837
:10471000FCF786F905EB45000F4901EB8000407A74
:10472000B8B923460DA2182101A8FBF713FF0020FA
:104730000D2380220146009002F0B8FD03210420E1
:1047400002F0F4FE0122094901A802F0B1FF02F0D3
:10475000CDFF07B030BD0000DC2500023C20252D38
:1047600031332E313373203E000000004000000240
:1047700030B500EB40030A4C44F8231000EB400333
:1047800004EB83035A60002300EB4004044D05EB67
:104790008404237200EB400405EB8404637230BD93
:1047A000DC25000272B608490870012100EB4002C6
:1047B000064B03EB82021172002100EB400203EB77
:1047C0008202517262B6704764000002DC2500026A
:1047D00000244FF4FA7000F0F7FD02F087FF0A2082
:1047E00000F0F2FD3DE01F48047804EB44001E4950
:1047F00001EB8000007A012830D104EB440001EB8A
:104800008000407A10B9012002F080FE04EB4400E1
:10481000154901EB8000406838B104EB44000A46BA
:1048200002EB800041682046884704EB44000E49B3
:1048300051F8200018B12046FFF7FEFC06E00020EA
:1048400004EB4401084A02EB81010872012004EBE9
:104850004401054A02EB8101487202E02046FFF75D
:10486000EBFCC0E764000002DC2500022DE9FF5FDD
:10487000824614461D46DDE90E67CAE90045CAE9CD
:104880000467DAE902834246DAE900B1584603F0E8
:1048900077FFCDE90001DAE90483424603F04AFDDF
:1048A000CDE90201DAE90283424603F06BFACAE974
:1048B0000201DAE9020104B0BDE8F09F01460648B2
:1048C000814201D1312070470448814201D1322018
:1048D000F9E73320F7E700000000044000400440FF
:1048E00010B500244FF0E050FDF734FF30230922CB
:1048F00001211D48FDF799FF3023042201211A48A8
:10490000FDF793FF3023052201211748FDF78DFFA6
:1049100000BF25E0154800EB84008378134800EBC6
:1049200084004278114810F824104FF0E050FDF751
:1049300028FF0E4800EB8400807801280ED10B4838
:1049400000EB8400C378094800EB840042780748F4
:1049500010F824104FF0E050FDF732FF601CC4B295
:10496000142CD7DB10BD000000800F405401000262
:1049700030B54FF0E051094C14F8202004EB8004CE
:10498000637801F5005454F8224001259D40AC4362
:1049900001F5005545F8224000BF30BD540100022A
:1049A00010B501464FF0E050074C14F8212004EBFD
:1049B0008104637800EB4214E45C0CB1012400E054
:1049C0000024204610BD00005401000230B54FF015
:1049D000E051094C14F8202004EB8004637801F5C1
:1049E000005454F8224001259D402C4301F5005508
:1049F00045F8224000BF30BD5401000210B5044606
:104A0000064800EB84004278044810F82410012383
:104A10004FF0E050FDF7D4FE10BD0000540100023D
:104A200010B50446064800EB84004278044810F8AC
:104A3000241000234FF0E050FDF7C2FE10BD00002F
:104A40005401000270B504460D46064800EB840090
:104A50004278044810F824102B464FF0E050FDF740
:104A6000AFFE70BD5401000210B580231622002154
:104A70001A48FDF7E0FE8023172200211748FDF7B2
:104A8000DAFE8420FEF732F88320FEF72FF8144870
:104A9000FDF7B7FE282030B1B0F5803F03D8411EA6
:104AA0000F4A516102E000210D4A516100BF0D49DA
:104AB0000B48FDF78AFE00BF0948006800F01F00A0
:104AC00040F001000649086000BF18200121814024
:104AD000054A430942F8231000BF10BD00800F4073
:104AE00000000540801A060080E100E010B50220B9
:104AF000FFF784FF10BD10B50220FFF791FF10BD36
:104B000010B500F0B3F800F05FF8FFF7F4FF10BD48
:104B100010B500F0ABF800F057F8FFF7ECFF10BD50
:104B200010B500F0A8F800F04FF8FFF7DFFF4FF4E2
:104B3000FA7000F049FC00F099F800F045F8FFF732
:104B4000D5FF10BD10B500F091F800F042F8FFF766
:104B5000CDFF10BD10B500F089F800F03AF8FFF76E
:104B6000C5FF322000F030FC00F080F800F02CF897
:104B7000FFF7BCFF10BD10B500F078F800F029F881
:104B8000FFF7B4FF10BD10B500F070F800F01CF88E
:104B9000FFF7ACFF10BD10B500F06DF800F014F891
:104BA000FFF7A4FF10BD10B500F060F800F00CF89E
:104BB000FFF7A1FF322000F007FC00F057F800F0EB
:104BC00003F8FFF793FF10BD10B50120FFF716FFA4
:104BD00010BD10B50120FFF723FF10BD70B50546CD
:104BE00014480478092C06D2DFE804F006090C0FFB
:104BF0001215181B1E0000BFFFF7C5FF17E0FFF7D7
:104C0000CAFF14E0FFF79EFF11E0FFF779FF0EE007
:104C1000FFF77EFF0BE0FFF7AEFF08E0FFF7C3FFF3
:104C200005E0FFF797FF02E0FFF77AFF00BF00BF44
:104C300070BD00001400000210B5002201210948D7
:104C400000F07CFC0849086008B9002010BD4FF452
:104C50007A710548006800F08BFC08B10020F5E788
:104C60000120F3E7A88E00001000000210B500201C
:104C7000FFF7C4FE10BD10B50020FFF7D1FE10BD38
:104C800072B60249087062B6704700001400000254
:104C900010B5044672B6034804700020FFF79EFF6B
:104CA00062B610BD140000020EB5802200B109B139
:104CB00010460AE001780129FAD101A900F034F880
:104CC000042801D0002000E01020DDE9011203B02B
:104CD00000BD70B50D46040003D012B9207801283C
:104CE00001D0802070BD204601F0F0FB28B129469C
:104CF000204600F042F8002070BD812070BD10B544
:104D000001F062FB10B10178022901D0802010BDB2
:104D10004188A1F57F42FF3A03D000F035F800202A
:104D200010BD812010BD000010B504468089002808
:104D300022D0608904EB8000006908606078022856
:104D400005D10021204601F0B5FD01F0A3FD04F1DD
:104D50000C0000BFD0E85F1F491E8AB2C0E8512F87
:104D60000029F7D16089401C80B26081E1898842C6
:104D700001D100206081042010BD10B501F09AFD22
:104D8000BDE8104001F086BD10B5002101F092FD94
:104D9000BDE8104001F07EBD2DE9F04104460A2730
:104DA000002500260FE0124911F83400FEF7CAFB77
:104DB00005440F4901EBC4014878FEF7C3FB0644E4
:104DC000012000F001FB381EA7F10101CFB2EAD1AA
:104DD0000A20B5FBF0F0064901EBC40188800A20E7
:104DE000B6FBF0F0024901EBC401C880BDE8F081D8
:104DF000CA00000210B50446034901EBC4018878DB
:104E0000FFF7CEFD10BD0000CA0000022DE9F74FEC
:104E100088B08A46934600BF00BF089800F074F837
:104E20000790089800F0A8F80690069803F01BFA7F
:104E3000804600224FF0804300F032FCCDE90201B1
:104E4000079803F010FA804600224FF0804300F0EC
:104E500027FCCDE90001DDE9022302F093FFCDE953
:104E6000040102F0FDF906460F460022224B3046AF
:104E7000394603F05DFB01D200261F4F069803F070
:104E8000F2F980468946079803F0EDF942464B4611
:104E9000CDE90401FEF79CFD04460D4600221346B1
:104EA0002046294603F00AFA08D24FF0C042134BBD
:104EB0002046294602F066FF04460D460022104BAC
:104EC0002046294603F036FA80464FF0C0420D4B8B
:104ED00003F014F804460D463046394603F066F9EF
:104EE000CAF800002046294603F060F9CBF800001C
:104EF0000BB0BDE8F08F000000009040FB2119408E
:104F000000806640FB21094070B50446194911F83C
:104F10003400FEF717FB0546164800EBC4008088F6
:104F2000A8420FD2134800EBC4008088281A8002E0
:104F3000104901EBC4018988C1F58051B0FBF1F043
:104F400000B270BD0B4800EBC4008088A8420ED9A7
:104F5000084800EBC4008088401B8002054901EB33
:104F6000C4018988B0FBF1F0404200B2E9E70020BB
:104F7000E7E70000CA00000270B50446194901EBDA
:104F8000C4014878FEF7DEFA0546164800EBC40077
:104F9000C088A8420FD2134800EBC400C088281A6A
:104FA0008002104901EBC401C988C1F58051B0FBF2
:104FB000F1F000B270BD0B4800EBC400C088A842FD
:104FC0000ED9084800EBC400C088401B8002054988
:104FD00001EBC401C988B0FBF1F0404200B2E9E73F
:104FE0000020E7E7CA00000210B5002400BF04E07B
:104FF0002046FFF7D1FE601CC4B2012CF8DB012073
:1050000010BD000010B5FEF797F8FEF7A1FD0420D3
:10501000FFF73EFE1FA0FFF7ABF81FA0FFF7A8F8B1
:1050200023A0FFF7A5F828A0FFF7A2F82CA0FFF710
:105030009FF831A0FFF79CF835A0FFF799F83AA048
:10504000FFF796F83CA23FA141A0FFF791F8464830
:10505000016846A0FFF78CF84AA0FFF789F800F036
:10506000BFF908B1FEF78EFA4BA0FFF781F80021D7
:105070004E4800F039FA4E49086008B9FEF782FA46
:105080004CA0FFF775F800F0BDF908B1FEF77AFA09
:10509000002010BD0D0A000020202020202E2D27EA
:1050A0002F202C5F2020272D2E2020200D0A0000ED
:1050B000202020202F202028202028203E202029AA
:1050C00020205C200D0A0000202020205C202020D1
:1050D000272D2720272D272020202F200D0A0000F4
:1050E00020202020272D2E2E5F5F205F5F2E2E2D6B
:1050F00027202020200D0A002020202020202020F2
:1051000020202F5F5C202020202020200D0A00007E
:1051100020232044532D3220436F6E74726F6C6CC9
:10512000657220230D0A0000202A20426F6F7469E7
:105130006E672E0D0A00000032333A32363A3339A8
:10514000000000004F6374203136203230313600C9
:105150004275696C64202E2E2E2E2E2E2E20257345
:105160002025730D0A000000A4010002436F726540
:1051700020436C6F636B202E2E20256C6420487AB0
:105180002E0D0A00425350202E2E2E2E2E2E2E2E65
:105190002E206F6B2E0D0A004B65726E656C202EF3
:1051A0002E2E2E2E2E206F6B2E0D0A00948E0000B8
:1051B00000000002415050202E2E2E2E2E2E2E2E7C
:1051C0002E206F6B2E0D0A0010B5044604EB8400F0
:1051D000044901EBC001D1E90621104603F016F89D
:1051E00080B210BD78000002014601EB8100034A45
:1051F00002EBC000B0F90800704700007800000220
:10520000014601EB8100034A02EBC000B0F9060041
:10521000704700007800000210B5002400BF08E0CD
:105220000A4802F01DFD0948283002F019FD601CF3
:10523000C4B2022CF4DB0021054800F055F9054901
:10524000086008B9002010BD0120FCE778000002CA
:105250007CB70000700000021CB50024AAE056488C
:105260000078002878DD002499E004EB8401534A9B
:1052700002EBC10002F00DFD04EB84014F4A02EB8A
:10528000C101488104EB840102EBC101488903F0AC
:1052900001F805460B464A494A48CDE9001004EB9F
:1052A0008401464A02EBC10101F110002A46FFF7D2
:1052B000DDFA04EB8400414901EBC000B0F90610AF
:1052C00004EB84003D4A02EBC000B0F908008142C3
:1052D0000DDD04EB8400114601EBC0000089401C89
:1052E00001B204EB840002EBC00001811EE004EB7C
:1052F0008400324901EBC000B0F9061004EB8400D1
:105300002E4A02EBC000B0F9080081420DDA04EB2E
:105310008400114601EBC0000089401E01B204EB7D
:10532000840002EBC000018100E036E004EB840061
:10533000224901EBC000B0F9080000280DDD04EBA4
:1053400084020B4603EBC202117A04EB840203EBE6
:10535000C20002F0DCFC1FE029E004EB84001749E6
:1053600001EBC000B0F9080000280EDA04EB84025B
:105370000B4603EBC202127A5242D1B204EB840212
:1053800003EBC20002F0B5FC06E004EB84010B4A1B
:1053900002EBC10002F09DFC00BF601CC4B2022CF5
:1053A000FFF663AF0448007800F00EF802E06420D6
:1053B00000F00AF853E70000C8000002780000027D
:1053C0009A9999999999D93FEFF3058109B182206A
:1053D0007047DFF808C000DF7047000079770000F1
:1053E000EFF3058008B182207047EFF31480C00707
:1053F00003D0DFF80CC000DF704702F0C7B900002F
:105400008D77000088B0EFF3058010B1822008B0DE
:105410007047EFF3148010F00301134806D0012900
:105420001BD0022911D0032919D113E008A981F357
:1054300009880078C0070BD05FF0020080F3148861
:10544000BFF34F8FBFF36F8F09E00078C00706D11D
:105450000320F3E70078C00701D0FF20D7E7DFF88B
:105460000CC000DFD3E70000188F0000FD770000BC
:10547000EFF305820AB1FFF717BCDFF808C000DFC1
:105480007047000069780000EFF305820AB1002040
:105490007047EFF31482064B02F001025B781A4367
:1054A00003D0DFF810C000DF704702F0FAB9000047
:1054B000C0010002A3780000EFF3058109B1FFF7F6
:1054C0001EBCDFF808C000DF70470000C77800008E
:1054D000EFF3058212B14FF0FF307047DFF804C0E0
:1054E00000DF7047EF780000EFF305820AB100207B
:1054F0007047EFF31482064B02F001025B781A4307
:1055000003D0DFF810C000DF704702F009BA0000D6
:10551000C001000221790000DFF80CC000DFDFF8D5
:105520000CC000DFFEE7000091790000AD790000BB
:10553000DFF804C000DF7047E579000030B4EFF316
:10554000058313B1002030BC7047EFF31483064C81
:1055500003F001036478234303D0DFF810C000DFB9
:10556000F1E730BC02F04ABAC0010002FD79000048
:10557000EFF305820AB182207047DFF808C000DF30
:1055800070470000357A0000094C4FF0FF3529467E
:105590002068FFF76DFF02460846102AF7D1FFF793
:1055A000C7FF0028F3D0024608469047EFE7000007
:1055B000200000020446012C06D0022C09D0032C46
:1055C0000CD0042C14D10EE0122113A0FEF7EAFD3A
:1055D0000FE0112115A0FEF7E5FD0AE0102118A04B
:1055E000FEF7E0FD05E012211AA0FEF7DBFD00E06A
:1055F00000BF00BF00BFBFF34F8F1B4800681B49AF
:1056000000F4E06008431849001D0860BFF34F8FA5
:1056100000BF00BFFEE700004F535F4552524F529C
:105620005F535441434B5F4F564600004F535F4515
:1056300052524F525F4649464F5F4F564600000058
:105640004F535F4552524F525F4D42585F4F56463F
:10565000000000004F535F4552524F525F54494D76
:1056600045525F4F564600000CED00E00000FA0581
:1056700000BFFEE7074801684FF0E02041610021CC
:105680008161072101610448016841F07F410160A7
:1056900040177047148F000020ED00E070470000B5
:1056A0002DE9F04D1D460C4698B0174621F00041FB
:1056B00023F00043002814BF4FF0010C4FF0000C02
:1056C0000CEB440CFE4A0CEB02064FEA620C6645FA
:1056D0002BD33E0018BF012606EB45061644F94AB7
:1056E000964222D3F84A53EA070C02D0944205D1DD
:1056F00048B918B000201146BDE8F08D002808BF59
:105700004FF0000C01D04FF0010C0CEB440212F5ED
:10571000001F0AD8002F14BF4FF0010C4FF0000CEF
:105720000CEB450212F5001F07D918B03A462B467C
:105730002146BDE8F04DFDF78EBD0022DFF88CA3B9
:10574000002CB8BF534526DADFF884C36345A8BFF1
:10575000022220DADFF870C39C451CDCDFF874C33A
:105760000CEB235CBCF1140F08DDCCF1340627FAF6
:1057700006FC0CFA06F6BE420DD108E05FB9CCF18A
:10578000140623FA06FC0CFA06F69E4203D10CF02E
:105790000102C2F1020251EA000C19D1002D17DA00
:1057A000002C18BF022A01D0012A07D00220FBF7E3
:1057B00068F918B0BDE8F04DFDF742BD0220FBF7D7
:1057C00060F9FDF73DFD18B081F00041BDE8F08DB6
:1057D000B7F1000C6CD1534525D104F1804212F58C
:1057E000801201BF00280020B74918B008BFBDE8EB
:1057F000F08DB548884207DC002DA1BF60462946E0
:1058000018B0BDE8F08D07E0281E05DA80F00041F1
:1058100018B06046BDE8F08DAF497944D1E9000188
:1058200018B0BDE8F08DDFF8A0C2634525D1002D8A
:105830001FDA19B1514512D1D8B909E0002840F05A
:10584000EC82A24A214618B062F31E01BDE8F08D39
:105850000020214618B060F31E01BDE8F08D08DA83
:1058600018B02346BDE8F04D02460020614602F024
:1058700045BB18B02146BDE8F08D514518DAB5F1A9
:10588000804F0DD0A5F1005CBCF1FF5C10D1B4F1EC
:10589000000C0DDB18B06146BDE8F04D01F0E0BC36
:1058A000234618B00246BDE8F04D194602F042BD4D
:1058B000060024F0004C3BD1D9B1514533D1002C26
:1058C00006DD002DA1BF0020514618B0BDE8F08DC7
:1058D000002C01DD002D1BDB002C13DA002D11DB69
:1058E000012A4FF0000014BF78497C4918B0BDE888
:1058F000F08D022A18BF002C0AD0012A08D1002CF2
:1059000006DA0AE0002CB8BF002D11DA012A04D013
:10591000002018B00146BDE8F08D18B000204FF00F
:105920000041BDE8F08DA1F14050B0F17F601AD088
:10593000012000EBE47050EA020421D0624C521EB8
:105940004FF0000B104304BF4FF0000B644C654850
:1059500083427CDD644A654893421FDD884217DB41
:10596000002D25DB37E0002C00DA4AB1022A0CBFFB
:1059700001204FF0FF3018B0BDE8F04D02F073BCCD
:105980000120FBF77EF818B0BDE8F04DFDF765BCCF
:105990004D4A8A4202DC002D0ADC1CE0814202DA18
:1059A000002D18DA04E0484B994220DD002D12DD6D
:1059B0000220FBF766F8FDF756FC05460E4600226E
:1059C00053465846214602F0B5FC18B066F31E0156
:1059D0002846BDE8F08D0220FBF753F8FDF74AFC9E
:1059E0000A46214618B062F31E01BDE8F08D002280
:1059F0003046614602F0C4FE80460E466FF001025A
:105A000003F001FA4FF05532394B02F0C7FD424620
:105A1000334602F08FFC0022364B02F0BFFD824677
:105A20004246334604911046194602F083FC524622
:105A3000049B02F07FFC8A4600904FF0C0422E4B40
:105A40004046314602F076FC2C4A2B4B00E027E022
:105A5000CDE906015146009802F06CFC82460191A6
:105A6000274A284B4046314602F064FC5246019BCF
:105A700002F086FE82460B4602460591DDE90601EC
:105A800002F080F9DDE9062300268846304602F060
:105A900077FE5246059B02F081FD024600F07EB97A
:105AA0000020B1F5801F07DA35223046614603F049
:105AB000AAF906466FF0340000EB215024E0000004
:105AC000FFFF1F00FFFF0F000000F03F0000F07F0E
:105AD0000000404301FCFFFF1A6100000000F0FFDE
