:020000040000FA
:10000000A82A00026902000071020000152A0000FF
:1000100000000000000000000000000000000000E0
:100020000000000000000000000000006903000064
:100030000000000000000000E10300001D040000BB
:100040007D0200007D0200007D0200007D020000B4
:100050007D0200007D0200007D0200007D020000A4
:100060007D0200007D0200007D0200007D02000094
:100070007D0200007D0200007D0200007D02000084
:100080007D0200007D0200007D0200007D02000074
:100090007D020000D52B00007D0200007D020000E3
:1000A0007D0200007D0200007D0200007D02000054
:1000B0007D0200007D0200007D0200007D02000044
:1000C0007D0200007D0200007D0200007D02000034
:1000D0007D0200007D0200007D0200007D02000024
:1000E0007D0200007D0200007D0200007D02000014
:1000F0007D0200007D0200007D02000000F002F899
:1001000000F090F80AA090E8000C82448344AAF121
:100110000107DA4501D100F085F8AFF2090EBAE81F
:100120000F0013F0010F18BFFB1A43F0010318472B
:100130000085000020850000103A24BF78C878C1EF
:10014000FAD8520724BF30C830C144BF04680C60DD
:10015000704700000023002400250026103A28BF25
:1001600078C1FBD8520728BF30C148BF0B60704729
:100170006E2900F09B84702900F0E585662905F062
:100180009784652905F09484672905F09184612995
:1001900005F0908403681B0A28BF41F0800169299B
:1001A00000F0DA81642900F0D781752900F0D4814C
:1001B0006F2900F07385782900F0B185E92900F0F6
:1001C0000D85E42900F00A85F52900F00785EF295F
:1001D00000F07085F82900F0B0850368DB0928BFBE
:1001E00041F08001632901F00582732901F00A8240
:1001F000E32901F01582F32901F01A8200207047EB
:100200001FB501F0B4FA04000020002105F024FC21
:10021000401C60600020002105F034FCE0601FBD40
:1002200010B510BD01F07EFA1146FFF7E9FF0FB4DB
:1002300000F00CF80FBC03F09DFC00F08DFA03B445
:10024000FFF7EEFF03BC01F067FA000004B003F013
:1002500081FD0448002103F001FE03F08DFD00F054
:100260007BFA000030000002084880470848004739
:10027000FEE7FEE7FEE7FEE7FEE7FEE7FEE700003B
:1002800004480549054A064B70470000CD2B000085
:10029000FD000000A8270002A82A0002A8280002EA
:1002A000A828000200487047482700027CB51D4678
:1002B00016460C00009001D02044401E074B7B44A2
:1002C0002A4669460190304600F009FC05461CB1FB
:1002D0000020694600F016FC28467CBD4D08000051
:1002E00070B5064600F025FB0468054630460A2234
:1002F000002100F033FD2C6070BD7047FFFFFFFF51
:1003000080F309887047EFF309807047684680F3EF
:10031000098804480078C00714BF0220032080F336
:10032000148870473C5B0000DFF818C0EFF30583CA
:100330001B0618BF6047EFF31483DB0708BF604755
:1003400000DF7047C9400000DFF818C0EFF30583F5
:100350001B0618BF6047EFF31483DB0708BF604735
:1003600000DF7047AD420000EFF30980816911F8AA
:10037000021CF1B990E80F10E047EFF3098C8CE80C
:100380000700144B93E8060091420FD039B12CE9D5
:10039000F00FC1F828C00CB404F058FB0CBC1A6074
:1003A000D2F828C0BCE8F00F8CF309886FF0020E79
:1003B000704710B5084A1268914209D8074C54F8A2
:1003C000214090E80F10A047EFF3098C8CE80F0054
:1003D00010BD000088000002E8200000E8200000B6
:1003E00004F0CAF90C4B93E80600914210D0EFF3E9
:1003F000098C2CE9F00FC1F828C00CB404F026FBDE
:100400000CBC1A60D2F828C0BCE8F00F8CF3098845
:100410006FF0020E704700008800000204F0DEFB5F
:10042000E0E7000003F0F4FD04F0D8FBDAE7000099
:1004300053EA020C00F069802DE9F04B4FF0000602
:10044000002B1FBFB3FA83F503FA05F424FA05F66F
:100450005E4012BF1643B2FA82F502FA05F4C5F106
:1004600020051EBF22FA05FC44EA0C04203556EA9A
:10047000044C4FEA144418BF641C4FF000084FF0BE
:100480000009904271EB030C39D3002919BFB1FA6E
:1004900081F701FA07F6B0FA80F700FA07F6C7F11C
:1004A00020071EBF20FA07FC46EA0C062037B6FBE1
:1004B000F4FCA7EB0507103F07F01F0BCBF120065C
:1004C0000CFA0BFB2CFA06F644BFB3460026202F8D
:1004D000A4BF5E464FF0000B5BEA060C08BF4FF06E
:1004E000010B19EB0B09ABFB027C48EB0608C01BA8
:1004F00006FB02CC0BFB03CC71EB0C01C1E70B46F6
:10050000024641464846BDE8F08B13B54FF0000067
:100510004FF00001AFF30080BDE81C4070470000C1
:100520000FB47CB50C0009AA009001D02044401EF5
:10053000084B7B4469460190089800F0D0FA0546C4
:100540001CB10020694600F0DDFA28467CBC5DF84D
:1005500014FB0000D90500002DE9F04106460024F7
:1005600010687529314616A510D000F00BFA002846
:1005700002DA404213A507E031688A0701D512A5C7
:1005800002E0490704D511A5012401E000F003FAB7
:1005900000210A2206F1240709E0B0FBF2FCB0FBBF
:1005A000F2F302FB1C00303078541846491C002836
:1005B000F3D123462A463046BDE8F04100F01DBA8B
:1005C000000000002D0000002B00000020000000B3
:1005D0002DE9F05F894604464FF0000ADFF874B158
:1005E000FB44C0F820A02046E1688847002874D06A
:1005F000252806D0D4E901219047206A401C2062BA
:10060000F1E700265F462046E16888472028054636
:1006100007DB312D05D2781910F8200C08B10643FC
:10062000F1E7B00701D526F00406C4F81CA00027A6
:10063000C4F818A02A2D09D0284602F026FB38B3AA
:1006400004EB8708303DC8F8185019E059F8041B2E
:10065000204604EB87029161E1688847012F054637
:1006600018D1E069002820DA26F020061DE0D8F82D
:10067000180000EB800005EB40003038C8F8180087
:100680002046E1688847054602F0FFFA0028EED1CF
:10069000012F0AD02E2D08D12046E16888477F1C03
:1006A0000546022F46F02006C4DBA069002803DAC5
:1006B000404246F00106A061F00701D026F0100686
:1006C0006C2D0BD0682D09D04C2D39D06A2D35D02A
:1006D000742D35D07A2D33D016E038E0E1682F46FE
:1006E00020468847B842054609D16C2F26D04FF4E2
:1006F0008060E168064320468847054604E06C2F89
:100700001AD04FF4807006430DB3A5F141001928AB
:1007100002D8203546F400664A462946204626601F
:100720004E46FFF725FD80B101280BD0F61D26F0BF
:10073000070000F1080956E74020E4E78020D8E7E9
:100740000020D6E706F104094DE7284652E7206A63
:10075000BDE8F09FE47D000010B50446AFF30080D3
:100760002046BDE81040FFF76ABD40EA010310B51E
:100770009B070FD1042A0DD310C808C9121F9C4231
:10078000F8D020BA19BA884201D9012010BD4FF023
:10079000FF3010BD1AB1D30703D0521C07E0002070
:1007A00010BD10F8013B11F8014B1B1B07D110F8CD
:1007B000013B11F8014B1B1B01D1921EF1D11846D0
:1007C00010BD10B5431C02E010F8011B71B1810788
:1007D000FAD14FF0013202C88C1A8C4314EAC211CC
:1007E000F9D0C01A0A0603D0C01E10BDC01A10BD31
:1007F0000A0401D0801E10BD0902FCD0401E10BDAD
:10080000032A40F2308010F0030C00F0158011F83C
:10081000013BBCF1020F624498BF11F801CB00F814
:10082000013B38BF11F8013BA2F1040298BF00F868
:1008300001CB38BF00F8013B11F0030300F0C68282
:10084000083AC0F0088051F8043B083A51F804CB4C
:10085000A0E80810F5E7121D5CBF51F8043B40F812
:10086000043BAFF30080D20724BF11F8013B11F81D
:1008700001CB48BF11F8012B24BF00F8013B00F861
:1008800001CB48BF00F8012B704702F0FF0343EA99
:10089000032242EA024200F002B84FF000020429AB
:1008A000C0F0128010F0030C00F01B80CCF1040C9F
:1008B000BCF1020F18BF00F8012BA8BF20F8022BD3
:1008C000A1EB0C0100F00DB85FEAC17C24BF00F879
:1008D000012B00F8012B48BF00F8012B70474FF0A7
:1008E000000200B5134694469646203922BFA0E880
:1008F0000C50A0E80C50B1F12001BFF4F7AF09078C
:1009000028BFA0E80C5048BF0CC05DF804EB89007C
:1009100028BF40F8042B08BF704748BF20F8022BBF
:1009200011F0804F18BF00F8012B704770477047D7
:10093000704702F071B970B5044685690068C10658
:1009400001D5302600E02026C00707D070BDD4E9CD
:10095000012130469047206A401C20626D1EF6D56A
:1009600070BD70B5044685690078C00707D170BDB9
:10097000D4E9012120209047206A401C20626D1E8E
:10098000F6D570BD09684A0501D540B27047C90562
:10099000FCD500B2704709684A0501D5C0B270475E
:1009A000C905FCD580B2704770B50C460546012AD2
:1009B00005D02878800600D5EA69002302E00123EB
:1009C00005E05B1C934202D2E05C0028F9D1A869E3
:1009D000E618C01AA861286A184428622846FFF75A
:1009E000AAFF04E0D5E9012114F8010B9047B442B5
:1009F000F8D32846FFF7B5FF70BD2DE9F0470D4647
:100A000099469246044600F124080168880604D5F8
:100A1000E06921F01001216000E00120A84201DD21
:100A2000471B00E00027A1697A1902EB0900081AA8
:100A3000A0612078C00602D42046FFF77CFF002684
:100A400008E0D4E901211AF806009047206A401C0A
:100A5000761C20624E45F4DB2078C0060AD520467D
:100A6000FFF769FF06E0D4E9012130209047206AB2
:100A7000401C2062381EA7F10107F4DC07E0D4E92E
:100A8000012118F805009047206A401C2062281EAA
:100A9000A5F10105F3DC2046FFF763FF207800068F
:100AA00002D50220BDE8F0870120FBE7116802684B
:100AB000006A530501D508700AE0D30501D5088006
:100AC00006E0130603D5C217C1E9000200E0086082
:100AD0000120704701694A1C02610878704700B51F
:100AE0008FB0CDE901310021059105497944CDE967
:100AF000031011466846FFF76BFD0FB000BD000004
:100B0000E5FFFFFF0A6802F8010B0A607047D1E9B0
:100B100000239A4202D2531C0B60107070470000F1
:100B20002DE9FF5F15468A460446DFF8AC80F8449D
:100B30000027D8E900103E46CDE9001010E03AF851
:100B400016106A4602A800F0C6FD411C07D02178A5
:100B5000890603D5E269391891420DD80744761CFD
:100B60002078800602D5E069B84205DDAE42E6DBBA
:100B70003AF816000028E2D1A069C01BA061204607
:100B8000FFF7D9FED8E90010CDE90010002017E0EA
:100B90003AF818106A4602A800F09DFDB0F1FF3F38
:100BA00081460BD000250DF1080B05E0D4E90121A9
:100BB0001BF8050090476D1C4D45F7D308F1010067
:100BC000B0428046E4DB206A384420622046FFF7CA
:100BD000C8FEBDE8FF9F0000AA7800002DE9F041A3
:100BE0008046D21D22F007020025D2E90002F52935
:100BF00015A614D0011E72F1000106DA0023D0EB15
:100C0000030063EB020211A608E0D8F800108B077E
:100C100001D50FA602E0490701D50EA60125114610
:100C2000002408F1240704E000F00AF930323A55B4
:100C3000641C50EA0102F7D12B4632462146404659
:100C4000BDE8F041FFF7D9BE000000002D00000014
:100C50002B0000002000000030B4002100F124042B
:100C600008E002F00705D208303542EA4372DB089B
:100C70006554491C52EA0305F3D10468002310A20D
:100C8000250708D504F020040C4304D0C4690123CF
:100C90000CA2641EC46130BCFFF7AFBE10B50446A1
:100CA00021461068FFF777FE02462046BDE8104057
:100CB0000023D1E7D21D22F00701D1E90023CBE7C1
:100CC0000000000030000000F0B40D460188090566
:100CD00002D5214C7C4402E01F4C7C440E340021A0
:100CE00000F1240608E002F00F071209E75D42EA6E
:100CF00003721B097754491C52EA0307F3D10278A7
:100D00000023120704D5702D06D009B10223113437
:100D10002246F0BCFFF771BE01231034F8E770B52E
:100D200004460D4621461068FFF735FE0246294667
:100D30002046BDE870400023C6E7D21D22F007031D
:100D4000D3E90023C0E70368126843F0200303607F
:100D50000823C3610023B7E70C7700002DE9F047B3
:100D600091460F4680460446002614F8015B2DB1DB
:100D700000F05EF80068405DC007F6D12B2D02D070
:100D80002D2D18D0641E4A463946204600F054FCEA
:100D900027B13968A14201D1C7F800804FF00204A1
:100DA00071050BD54042002803DDFFF7C2FD04604A
:100DB000A007BDE8F08746F48066E4E70028F8DA8B
:100DC000FFF7B7FD04606FF00040F2E710B5203A7E
:100DD000C0F00B80B1E81850203AA0E81850B1E8F4
:100DE0001850A0E81850BFF4F5AF5FEA027C24BFAA
:100DF000B1E81850A0E8185044BF18C918C0BDE8A1
:100E000010405FEA827C24BF51F8043B40F8043B69
:100E100008BF7047D20728BF31F8023B48BF11F81E
:100E2000012B28BF20F8023B48BF00F8012B704778
:100E300010B500F09CFC001D10BD00BF1D4C000053
:100E400030B5B0F10A024FEA900E71F100034EEA9C
:100E5000817EB0EB0E0061EB91014FEA101E4EEA6D
:100E6000017E10EB0E0041EB11114FEA102E4EEAFD
:100E7000016E10EB0E0041EB11214FEA104E4EEACD
:100E8000014E10EB0E0041EB1141401841F1000101
:100E90004FEAD00040EA41704FEAD10110EB8005E3
:100EA0004FEA810444EA907444EB01046D1944EB69
:100EB0000404521BA3414FF0000348BF0A3200D57F
:100EC00030BD401C41F1000130BD70472DE9FF4F9E
:100ED0000C461E464FF0FF378BB0D2E90001DDF81B
:100EE00060800A908A46C1F30A5505B93D46002143
:100EF00008464FF00000BAF1000F00F4400005DA98
:100F000000EB80004FF4400101EA50004FEA905995
:100F1000B9F1010F00DDB9460A9850EA4A000ED037
:100F200044F61050A5F2FF3545432F14B8F1000FD9
:100F30001ED07542291E1EDDC9F100021CE0B8F169
:100F4000010F4FF0000001D0302103E0F24305E033
:100F50002154401CB042FBDB3046002200212154CA
:100F60000B99C1F80880C1E900200FB0BDE8F08FEF
:100F7000BD1B6D1CDEE74A4600DA694206A800F098
:100F800049FC06AB93E8070003AB83E80700504633
:100F90000A9900F0EDFC8DE80700A0F500501F381D
:100FA00000900398002D09DD42F21F014A460844D3
:100FB00003A90390684600F04CFF08E0A0F500503C
:100FC0004A461F3803A90390684600F056FF8DE893
:100FD00007000004000C03D04FF0FF30410800E090
:100FE0001046B8F1000F03D00022009215461EE013
:100FF000751E05D4FFF724FF303262556D1EF9D5FA
:10100000B3460122084302D000227F1C04E020786E
:10101000302801D100227F1E002A099786D01DE0CA
:10102000112D07DAFFF70CFF303262556D1C50EAC4
:101030000102F5D1084302D00098C8B10EE00021AA
:10104000681E05E0235C625C63542254401E491C08
:101050008142F7DBAB46A81B401E0990002004F834
:101060000B000B98099AC0F80880C0E9002B7CE7B8
:1010700011264FF0000859E72DE9F04F8846044645
:10108000D21D22F0070191B0D1E90001CDE90A019A
:1010900001F0AEFD02460B98C00F01D02D2007E0F5
:1010A0002068810701D52B2002E0202101EAC00041
:1010B000032A099001D0072A05DB03464146204652
:1010C00000F05AFB0BE12078800601D5E06900E0D2
:1010D0000620B8F1650F814606D0B8F1660F18D02A
:1010E000B8F1670F70D131E00020B9F1110F009015
:1010F00001DB112301E009F101030AAA01A90CA8EF
:10110000FFF7E4FEDDE90C70002609F101058346D6
:1011100047E001204B4600904FF000470AAA01A982
:101120000CA8FFF7D3FEDDE90DB00C995D46002653
:1011300010B909F101000D18B9EB050003D4C0F195
:10114000FF3609F10105A5EB09002BE0B9F1010F0C
:1011500001DA4FF001090020B9F1110F0090484663
:1011600001DD112300E003460AAA01A90CA8FFF73C
:10117000ADFEDDE90C704D46002683462078000761
:101180000AD4AB4500DA5D4601A8012D04DD411902
:1011900011F8011C302907D04F4502DA17F1040F6E
:1011A00004DA012082460FE06D1EEEE7002F02DC1C
:1011B000ED1B3E4403E0781CA84200DD7D1CB81BFB
:1011C00000F1010A4FF000472078000703D4AA4538
:1011D00001DB4FF0FF3A0021B7F1004F0DF143085A
:1011E0008DF8431024D002202B23002F01DA7F42F8
:1011F0002D230A21021EA0F1010000DC5FB197FB44
:10120000F1FC97FBF1F201FB1C7C17460CF1300C52
:1012100008F801CDEEE7A8F1010003702188090567
:1012200001D5452100E06521A0F1010800F8011C6D
:1012300009980FA9A1EB0807FF1D00B10120411972
:1012400001EBEA70A1693844081A401EA0612078B9
:10125000C00602D42046FFF76EFB099828B1D4E9F6
:1012600001219047206A401C20622078C00622D5C8
:101270002046FFF760FB1EE0002E04DBB34502DDD5
:1012800001A8805D00E03020D4E901219047206A68
:10129000401C2062761CAAF101005FEA000A0AD114
:1012A00000F065FAC0680168405CD4E9012190470C
:1012B000206A401C2062281EA5F10105DCDC07E045
:1012C000D4E9012118F8010B9047206A401C2062E4
:1012D000381EA7F10107F3DC2046FFF742FB03208D
:1012E00011B043E62DE9F04F04460D46D21D22F021
:1012F000070089B0D0E900974846394601F078FCEC
:101300000246F80F01D02D2307E02068810701D5A0
:101310002B2302E0202101EAC0038DF820300BB11D
:10132000012000E00020032A824601D0072A04DBC6
:101330002946204600F020FA3FE12078800601D4BB
:101340000D2500E0E569C7F30A560D2D49DA0021A5
:101350004FEA175B08464FF00000002F00F44000F2
:1013600007DA00EB80004FF4400100EBD07001EA97
:1013700060008115012901DD4FF0FF3100224FEAA5
:10138000850CBCF1180F06D31346ACF118004FF0D2
:101390008052C24003E04FF4801323FA0CF30CF1A7
:1013A0000C0CBCF1200F04D3ACF1200C09FA0CF0AA
:1013B00001E007FA0CF000294FF0004801DD18B9F0
:1013C0000FE00ED140450CD319EB02095F4121B962
:1013D000404502D19F4329EA0209BBEB175F00D0C9
:1013E000761C2088000502D57B48784402E07A48C4
:1013F0007844193808AA302302F80A30037C0AF12D
:101400000101002E0AF1020A53546A4602DC4FF031
:10141000300101E04FF031014FF001088DF800106C
:1014200002D0A6F2FF3603E059EA470100D06B4E26
:10143000002D02DC2178090704D54FF002082E2187
:101440008DF80110C44600210BE0C7F303433F01B0
:10145000C35C491C6D1E02F80830052908F101081B
:1014600001DA002DF1DC00210CE000EB1973491CBE
:101470001B786D1E082902F808304FEA091908F197
:10148000010801DA002DF0DC21688B0602D516E098
:10149000A8F10108E04505DD02EB080313F8013C63
:1014A000302BF5D0B8F1000F09DD02EB080313F87B
:1014B000013C2E2B03D1090701D4A8F10108002D0E
:1014C00005DD3E2102F808106D1E08F10108407C80
:1014D000002E02F8080008F1010804DA2D207642F7
:1014E00002F8080002E02B2002F808000A214FF45D
:1014F0007A70864208F101080BDB96FBF0F330337B
:1015000002F8083096FBF0F308F1010800FB1366BF
:1015100001E0642E0CDB642096FBF0F3303302F81C
:10152000083096FBF0F308F1010800FB136601E0B8
:101530000A2E06DB96FBF1F0303002F8080008F1C5
:10154000010896FBF1F001FB1060303002F8080052
:10155000A16908F1010808EB050202EB0A00081A6C
:10156000A0612078C00602D42046FFF7E4F9216A82
:1015700008AE01EB0A00206204E0D4E9012116F86C
:10158000010B9047BAF1010AF7D22078C00602D5C4
:101590002046FFF7D0F96E4609E016F8010B3E2809
:1015A0000FD0D4E901219047206A401C2062B8F195
:1015B0000108F2D22046FFF7D4F909B00320BDE8B4
:1015C000F08F206A2844206203E0D4E90121302012
:1015D00090476D1EEBD3F8E73170000002FCFFFF6F
:1015E00010B5436913B1AFF3008001E0FFF7DCF9F8
:1015F000012010BD127800F124010A7000224A7007
:101600000122EDE711684FF0FF32E9E710B54369B9
:1016100013B1AFF3008001E0FFF782FA012010BDA3
:10162000128800F1240182840022C2840122EDE7A5
:1016300011684FF0FF32E9E72DE9F05F8246154669
:101640008B4600270AF10104B9460078302801D002
:101650009DB113E014F8010B0127782803D0582816
:1016600001D045B10AE00DB1102D07D1002714F8C3
:10167000010B102502E0082500E00A250026B046EF
:101680000EE005FB080005FB06F101271FFA80F8B4
:1016900001EB1046B6F5803F00D3B94614F8010BB4
:1016A000294600F0A9F80028EBDABBF1000F05D0BD
:1016B0000FB1641E00E05446CBF80040B9F1000FB2
:1016C00006D0FFF736F902210160C81EBDE8F09F81
:1016D00048EA0640FAE770B516460C460546FFF79D
:1016E000A7FB036893F80101012806D0FF2C0FD84F
:1016F000185D68B101202C7070BDD3F80701324627
:10170000214603F2071303442846BDE870401847FA
:101710004FF0FF3070BD000001491820ABBEFEE75E
:10172000260002007546FEF7BDFDAE46050069467F
:10173000534620F00700854618B020B5FEF7A0FDFF
:10174000BDE820404FF000064FF000074FF00008C2
:101750004FF0000B21F00701AC46ACE8C009ACE843
:10176000C009ACE8C009ACE8C0098D46704710B5A7
:10177000FEF798FD203010BD2DE9F0411F460446CC
:1017800003260168072A01F4006004DB08B116A5EE
:1017900005E016A503E008B115A500E015A521F0A8
:1017A00010002060A069C01EA0610FB1401EA061A2
:1017B0002046FFF7C0F84FB1D4E9012138469047E1
:1017C000206A401C2062C01C206206E0206AFAE702
:1017D000D4E9012115F8010B9047761EF8D2204676
:1017E000FFF7BFF8BDE8F0814E414E006E616E001C
:1017F000494E4600696E66003A2800D2303820F023
:101800002002412A01D3A2F13700884201D34FF0D0
:10181000FF3070472DE9F047814616468AB03348BD
:1018200078440DC88DE80D0030487844801C03AC26
:101830000DC884E80D0041F69B300844372190FB29
:10184000F1F290FBF1F5A5F1800501FB12041B3CC0
:1018500002D56442012000E00020DFF890A080461D
:101860000027FA44AAF1BE0A0DE0E00709D032468B
:10187000684607EB47010AEB810100F0FEFA8DE8AC
:10188000070064107F1C002CEFD1184F7F44AC3F41
:1018900018E0E80714D007EB04100DF1180A90E8DF
:1018A0000E008AE80E00C068F04201D19819089035
:1018B000324606A903A800F0E0FA03AB83E807006C
:1018C0006D10641C002DE4D132466946B8F1000F5A
:1018D00003A802D000F0BDFA01E000F0CEFAC9E999
:1018E0000001C9F808200AB0BDE8F0878C6C000040
:1018F0004FF0013C50F8042B51F8043B9A4221D19F
:10190000A2EB0C03934313EACC1317D150F8042B2A
:1019100051F8043B9A4215D1A2EB0C03934313EA0E
:10192000CC130BD150F8042B51F8043B9A4209D147
:10193000A2EB0C03934313EACC13DBD04FF000006F
:10194000704700BFD01A01BAB1FA81F101F0180155
:1019500022FA01F0CB40C1F12001DBB2C0B2C01AC3
:101960002CFA01F3D11A914311EAC311E6D1704761
:101970005FEA400C08BF91F0000F4FEA8C234FEA5A
:10198000C12243EA51514FEA1C5018BF00F5F04004
:101990004FEA300018BF41F000415FEA6C5C00F094
:1019A0002980BCF1FF3F08BF40F080407047130C16
:1019B00006BF12044FF0100C4FF0000C130E04BFC2
:1019C00012020CF1080C130F04BF12010CF1040CED
:1019D000930F04BF92000CF1020CD30F04BF52000E
:1019E0000CF1010C11464FF00002A0F11F00A0EB1A
:1019F0000C00704711F0004F08BF704731F00041F4
:101A00003FF4D5AF0B0C06BF09044FF0100C4FF09C
:101A1000000C0B0E04BF09020CF1080C0B0F04BFE5
:101A200009010CF1040C8B0F04BF89000CF1020CAE
:101A3000CB0F04BF49000CF1010CCCF12003A0EB4B
:101A40000C0022FA03F302FA0CF241EA030100F15E
:101A50000100704720F07F4C80EA030023F07F47AD
:101A6000ACEB070303F57C5300F0004003F1FF03E8
:101A70002DE980494FEA154B09B44FEA144325EA92
:101A80000B4E24EA03480FF2042606EB13274908FD
:101A90003E785FEA320203FB0667C7F5000707FBE3
:101AA00006F64FEA54374FEAD64606F1020607FB20
:101AB000066CCCF1005C4FEA1C472CEA074C07FB94
:101AC00006F40CFB06F504EB15464FEA961634BFF8
:101AD00000204FF000404FEAD13706FB07FC4FEAE9
:101AE0001C4C0CFB0BF7D21B03FB0CF761EB070143
:101AF0000CFB0EF7B0EB074072EB17420CFB08F73C
:101B000034BFA2EB0742B2EB074261EB17414FEA49
:101B10000C444FEA910706FB07FC4FEA1C4C0CFBF8
:101B20000BF7B0EBC74072EB573203FB0CF734BF37
:101B3000A2EBC742B2EBC74261EB57310CFB0EF789
:101B4000B0EBC70072EB57720CFB08F734BFA2EB87
:101B5000C702B2EBC70261EB5771039F4FEA816185
:101B600041EA921104EBCC044FEAD1374FEA82628A
:101B700006FB07FC42EA90124FEA80604FEA1C4CD9
:101B80000CFB0BF7D21B03FB0CF761EB07010CFB03
:101B90000EF7B0EB074072EB17420CFB08F734BFAF
:101BA000A2EB0742B2EB074261EB17414FEA8C55BB
:101BB0004FEA910704EB9C2406FB07FC4FEA1C4C00
:101BC0000CFB0BF7B0EBC74072EB573203FB0CF783
:101BD00034BFA2EBC742B2EBC74261EB57310CFBFB
:101BE0000EF7B0EBC70072EB57720CFB08F734BF6F
:101BF000A2EBC702B2EBC70261EB577115EB4C25A4
:101C00004FEA816141EA92114FEA82624FEAD1378D
:101C100042EA901206FB07FC44F100044FEA8060A0
:101C20004FEA1C4C0CFB0BF7D21B03FB0CF761EBD0
:101C300007010CFB0EF7B0EB074072EB17420CFBF1
:101C400008F734BFA2EB0742B2EB074261EB174142
:101C500015EB1C154FEA813141EA92414FEA82327D
:101C600042EA90424FEA80304FEA0C7644F1000499
:101C700048EA03434EEA0B484FF0000EB2EB080C63
:101C800071EB030724BF624639464EEB0E0E4FF050
:101C9000000B0018524149414BEB0B0BB2EB080C07
:101CA00071EB03077BF1000B24BF624639464EEB14
:101CB0000E0E4FF0000B0018524149414BEB0B0B3D
:101CC000B2EB080C71EB03077BF1000B24BF6246FB
:101CD00039464EEB0E0E51EA020718BF46F00106D8
:101CE00016EB0E7655F1000254F1000103D5BDE864
:101CF0008901BDE80088BDE88901BDE80048B61942
:101D0000524141EB0101A3F10103704780807F7EC6
:101D10007D7C7B7A79787776767574737271717061
:101D20006F6E6E6D6C6C6B6A6A6968686766666513
:101D30006464636362616160605F5F5E5E5D5D5CA1
:101D40005C5B5B5A5A595958585757565655555512
:101D50005454535352525251515050504F4F4F4E72
:101D60004E4D4D4D4C4C4C4B4B4B4A4A4A494949C0
:101D70004848484747474746464645454544444402
:101D8000444343434342424242414141002B26D413
:101D9000770021D01CB54FEA370703B44FF010008D
:101DA0004FF010014FF000000FBCBDE810400BF1E8
:101DB000010BBBF1010F08BF5FEA170722BF12F149
:101DC000010211F101014FF0004143F1000300F065
:101DD000004043EA00007047F9D35708DAE746EAC3
:101DE000064613F1400F4FEA16461FDD13F1200F90
:101DF000DFBF16430A46002120335B42C8D0C3F13F
:101E0000200746EA064602FA07F74FEA164646EA70
:101E10000706C3F1200722FA03F201FA07F721FAB5
:101E200003F14FF0000342EA0702B1E746EA020677
:101E300046EA06464FEA164646EA0106BCBF46EAAF
:101E40000646360C4FF000034FF000024FF0000141
:101E50009EE72DE9C048934630B491E8380007C8A2
:101E600031EA400C48BF34EA430C03D5FFF7F2FDDA
:101E7000FFF78CFFF0BCBDE800882DE9C048934611
:101E800030B491E8380007C810F0804F08BF13F055
:101E9000804F03D100F005F8FFF778FFF0BCBDE8F4
:101EA000008820F07F4780EA030023F07F4C07EB97
:101EB0000C03A3F57C5300F00040A3F1FE0392F065
:101EC000000F00F0B38095F0000F00F077802DE94F
:101ED00001494FEA11404FEA144621EA004800FB4D
:101EE00006FC24EA064708FB06F607FB08F800FB99
:101EF00007F718EB06484CEB164C4FEA124B18EB61
:101F000007484FEA15464CEB174022EA0B4E0BFBF5
:101F100006FC25EA06470EFB06F607FB0EFE0BFB4A
:101F200007F71EEB064E4CEB164C4FF000061EEB6F
:101F3000074E4CEB174B18EB0B0840F1000018EB69
:101F40000E0B58EB000840F100008F1A4FF0000113
:101F50003CBFC943661B14BFB5EB040C00213CBF5A
:101F6000C943F61B4FEA17444EEA8E0E27EA044592
:101F70004FEA1C4704FB07622CEA074C05FB07F7F6
:101F80000CFB05F604FB0CFC16EB074642EB174274
:101F900016EB0C4642EB1C421BEB060658EB02020A
:101FA000414146EA9E0601D5BDE80189B619524174
:101FB00041EB0101A3F10103BDE801894FEA14459A
:101FC0004FEA114724EA054621EA074C05FB07F4CE
:101FD00006FB07F70CFB06F105FB0CFC11EB0741B8
:101FE00044EB17444FEA124711EB0C4144EB1C44FD
:101FF00022EA074C05FB07F206FB07F70CFB06F687
:1020000005FB0CFC16EB074642EB174216EB0C46A1
:1020100042EB1C456A1854F1000148BF7047B619DD
:10202000524141EB0101A3F10103704795F0000F0C
:1020300037D04FEA11424FEA144721EA024624EA18
:10204000074C02FB07F106FB07F70CFB06F402FB4B
:102050000CFC14EB074441EB17414FEA154714EB16
:102060000C4441EB1C4125EA074C02FB07F506FB3B
:1020700007F70CFB06F602FB0CFC16EB074645EBDC
:10208000174516EB0C4645EB1C42121951F10001A5
:1020900048BF7047B619524141EB0101A3F101035A
:1020A00070474FEA14454FEA114724EA054621EAF2
:1020B000074C05FB07F106FB07F70CFB06F24FF098
:1020C000000605FB0CFC12EB074241EB174112EB3B
:1020D0000C4251EB1C4148BF7047921841EB010183
:1020E000A3F10103704700000000000010B5014695
:1020F000202909D30A4A1268A1F1200301249C4037
:10210000A243074B1A6009E0054A121F1368012217
:102110008A409343024AC83AC2F8C43010BD000056
:10212000C840074010B50146202909D30A4A126861
:10213000A1F1200301249C402243074B1A6009E0CF
:10214000054A121F136801228A401343024AC83A03
:10215000C2F8C43010BD0000C840074010B500BF31
:1021600004490968C9B211B900F006F801E000F0AD
:1021700027F810BD84400740002000BF0C490968C3
:10218000C9B221B1012906D002290DD108E000BF52
:10219000084908460AE000BF07490968084605E003
:1021A00000BF0649084601E0002000BF00BF70479D
:1021B00080400740001BB700C0830000D8AC070078
:1021C00010B5002400BF0F480068C0B230B101282C
:1021D00008D002280AD0032811D10BE0FFF7CCFF6A
:1021E00004460CE000F03CF8044608E000F040F83B
:1021F000044604E000BF04480068044600BF00BF76
:10220000204610BD84400740C4830000024602F00F
:102210003F00431C01FB03F070470000014601F042
:10222000030212B1012A09D103E000BF054800BF33
:1022300006E000BF044A106800BF01E0002000BFB4
:1022400000BF7047001BB700C083000010B5FFF748
:1022500085FF02490968B0FBF1F010BDC04007409E
:1022600010B502490868FFF7D9FF10BDA04007402C
:1022700010B5FFF7F5FF0446024908682146FFF74D
:10228000C5FF10BD984107402DE9F05F00BF16481B
:10229000006806460EB9002422E0FFF75FFFB0FB9E
:1022A000F6F400251048583000681FFA80FA0AF04A
:1022B000FF00FF2813D1CAF3072909F5807C411CD0
:1022C0004FF0000B2246A2FB017E05FB01E104FB5F
:1022D0000B1162465B463846FEF7AAF8044600BF7B
:1022E0002046BDE8F09F0000D040074070B504468E
:1022F0002546042D04D3291FC8B200F00BF806E0D0
:10230000E8B20349086000BF002000F003F870BD88
:102310008040074001490860704700008440074042
:102320000149086070470000C0400740014908604B
:1023300070470000A04007402DE9F84F04468A4648
:10234000FFF70CFF8346BBFBF4F9B9F1000F01D195
:102350004FF0010909F0FF001249086000BFBAF10F
:10236000000F17D004FB19B0009004FB09FC89157D
:102370000098A0FB01700146624600233846FEF734
:1023800057F805462806FF2141EA10400549583113
:10239000086003E00020034958310860FFF774FF2C
:1023A000BDE8F88FD040074001F00303024663F315
:1023B0009F12014B1A60704798410740054A126806
:1023C00022F4405100F0030241EA0232024BC3F80A
:1023D00024217047244107400040074070B505465E
:1023E0000E20FFF79FFE0F20FFF79CFE1020FFF747
:1023F00099FE0B20FFF796FE0B24204600F0C4F94F
:10240000204600F0D7F900BF70BD30B56BB100BFFA
:1024100000F5005454F82140012595402C4300F567
:10242000005545F8214000BF0DE000BF00F5005405
:1024300054F8214001259540AC4300F5005545F87E
:10244000214000BF00BF30BD10B500EB4114A354C4
:1024500010BD01F0500242607047042101627047D4
:1024600070B504460D46FFF779FE0146606980B2FB
:10247000401C6843B1FBF0F6C6F34F00A6EB5602D2
:1024800091B28A1E02F00703821E02F0070243EA9D
:102490000212626200BF70BD8162704770B505466E
:1024A0000C46FF20A08150212846FFF7D2FF20894B
:1024B00008B9012000E00020A27B40EA4200C1B23E
:1024C0002846FFF7E9FF00BF0220286200BF70BD69
:1024D00070B504460E46002531462046FFF7DEFF64
:1024E0000BE000BF00BF606800F001000028F9D0D9
:1024F0003146204600F005F80546002DF1D028466B
:1025000070BD70B505460C4600BF6868064606F00B
:10251000100030B10520A08110212846FFF799FF57
:1025200065E006F0400030B10320A081402128463C
:10253000FFF78FFF5BE006F00100002855D000BFD9
:102540006868C0F3420005284BD2DFE800F00304BE
:102550001A3E440048E0A86AC1B26268501C60603C
:1025600011706089401E6081608920B100BF012028
:10257000286200BF04E00020A0812846FFF76DFF1D
:1025800032E0208960B12168481C20600878A86288
:102590002089401E208100BF0120286200BF13E077
:1025A000608960B1A07B012202EB4000C1B22846E5
:1025B000FFF772FF00BF0220286200BF04E0002086
:1025C000A0812846FFF749FF0EE00220A08128469F
:1025D000FFF743FF08E00420A0812846FFF73DFFF6
:1025E00002E00120A08100BF01E00120A081A089BC
:1025F000FF2801D0012070BD0020FCE770B5054622
:102600002D20FFF78FFD2D24204600F0BDF8204639
:1026100000F0D0F800BF70BD10B500EBC11444F855
:10262000223010BD10B500EBC11444F8223010BDAB
:1026300000BF00F5007343F8212000BF704770B55C
:102640000B4641F4805500F5407404EBC30465600B
:10265000012500F5407444F8335000F5A06444F8B7
:10266000325001249C4000F5A06505EBC2056C606A
:10267000846D56000325B540AC4356000125B54096
:102680002C438465446D56000325B540AC43446536
:1026900070BD000070B504460D46FFF7D7FDB0FBD6
:1026A000F5F600BF4FF00411204600F039F84FF066
:1026B0000811204600F034F800BF0020E064014615
:1026C00004F5807242F8201000BF314604F5007214
:1026D00042F8201000BF4FF480514FF44170015177
:1026E0000120C4F800030248206000BF70BD000054
:1026F0000100020070B504462546C5F38330851FEE
:1027000005F12201C8B2FFF70DFD05F12200C6B2A6
:10271000304600F039F8304600F04CF800BF70BD8C
:1027200042680A434260704710B500F01F02C109B9
:10273000044B53F8213001249440A343014C44F846
:10274000213010BDC0810340F0B505076A0E0311AA
:10275000064E56F82350FF26964025EA060401FA55
:1027600002F52543014F47F82350F0BD0080034098
:1027700070B506460C46154605EB4410C1B230460E
:10278000FFF7E2FF70BD0000202809DB0849896CD3
:10279000A0F12002012393401943054A916406E009
:1027A00003494A6C012181400A4301494A64704748
:1027B00000400740202809DB0849896CA0F120026D
:1027C000012393409943054A916406E003494A6C0A
:1027D000012181408A4301494A6470470040074013
:1027E00010B504462046FFF7CFFF2046FFF7E2FF73
:1027F00010BD00000146064A1268064B02EA0300BB
:102800001A460A401043044AC2F808027047000002
:102810000842074078FFFF01004007400146064A92
:102820001268064B02EA03001A460A409043044A23
:10283000C2F80802704700000842074078FFFF0115
:102840000040074010B51020FFF7E8FF0820FFF711
:10285000E5FF0020FFF76AFD4FF48000FFF7CAFF95
:1028600002210520FFF7A0FD4FF48000FFF7D6FFFF
:1028700000BF00BF0748006800F001000028F8D042
:102880000120FFF74DFD0220FFF798FD0620FFF71E
:102890002DFD10BD9C41074010B5FFF7D3FF10BDC3
:1028A00001468868704770B505460E4614462846AE
:1028B000FFF7F6FF00F0040080B12146284600F043
:1028C00092F800BFE0682169884201D1012000E050
:1028D000002018B10421284600F024F8314628468B
:1028E00000F022F870BD000070B50446204600F0EC
:1028F000B1FE0546FFF716FC0848844203D131209B
:10290000FFF76EFF09E00648844203D13220FFF74B
:1029100067FF02E03320FFF763FF70BD0000044053
:10292000004004400161704738B504460D4608E098
:1029300000BF6069C0B200906946284600F09BF86D
:1029400000BF2046FFF7ACFF00F001000028EFD1E8
:1029500038BD2DE9F04107460C4615461E46324665
:102960002946204600F0D2F8BDE8F0812DE9F0417B
:1029700080460D46164600242F4605E0397840462D
:1029800000F024F87F1C641CB44206DA4046FFF7CE
:1029900087FF00F004000028F0D12046BDE8F08158
:1029A0002DE9F04781460E4615460027B04608E05F
:1029B0002A4641464846FFF7D9FF04462D1B2744C7
:1029C000A044002DF4DC3846BDE8F087C1617047B3
:1029D00070B504460D46FFF757FC2901B0FBF1F630
:1029E000701E206270BD38B505460C4604E09DF8A7
:1029F00000102846FFF7EAFF2846FFF751FF00F0D6
:102A0000040028B16946204600F065F80028EED1A0
:102A100038BD00000D210AA000F0ECFD00BFBFF39F
:102A20004F8F0B48006800F4E0600A490843001D1E
:102A300007490860BFF34F8F00BF00BFFEE70000EB
:102A400048415244204641554C54210D000000009D
:102A50000CED00E00000FA050146C8680A69801A1A
:102A6000704710B5044621606360A26000202061B9
:102A7000E060012010BD70B504460E462568204672
:102A800000F01DF808B1002070BD6168491EE068C3
:102A90000840A16800FB015531462846A268FDF7B1
:102AA000AFFEE068401CE0600120EDE70146C86829
:102AB0000A69904201D1012070470020FCE710B55F
:102AC00004462046FFF7C8FF6168884201DB012009
:102AD00010BD0020FCE770B504460D462668204670
:102AE000FFF7E4FF08B1002070BD6168491E20694E
:102AF0000840A16800FB016631462846A268FDF740
:102B00007FFE2069401C20610120EDE72DE9F047A0
:102B1000044688461746D4F800902046FFF7C6FFC3
:102B200010B10020BDE8F0872046FFF795FF06466C
:102B300005466168491E206908402844616888424A
:102B400005D36168491E2069084061680D1A761B2B
:102B5000BD4201DA284600E0384605467F1BBE42EA
:102B600001DA304600E038460646BF1B6168491E60
:102B700020690840A16800FB0199A06800FB05F2EC
:102B800049464046FDF73CFE2069284420616168C3
:102B9000491E206908402268A16800FB0129A0683D
:102BA00005FB0088A06800FB06F249464046FDF799
:102BB00027FE206930442061A819B3E710B5FFF75C
:102BC00045FB0149086010BD7C00000210B5FFF70D
:102BD00063FE10BD10B5034A03490448FFF763FEC6
:102BE00010BD0000BC250002D025000200000440FA
:102BF000490050EAC12018BF04204A0D18BF40F018
:102C0000010040F2FF72B2EB515F08BF40F00200DA
:102C1000012808BF05207047074810B5007848B163
:102C200002F07EF930B1054900EB400001EB4010A5
:102C3000603810BD024810BD81000002B81C0002BF
:102C40004827000210B5002A06DA22F00042D21D01
:102C500022F00703102203E0D21C22F003030C220F
:102C600013B19C188C4201D9012010BD02440144CB
:102C70008360C0E90021C91AD018884202D81060C8
:102C80000246F9E70020106010BD30380A2801D252
:102C9000012070470020704705490978002905D0B8
:102CA00000684FF6FF71DFF80CC000DF70470000CE
:102CB000810000021147000004490978002903D06F
:102CC0000068DFF80CC000DF7047000081000002E0
:102CD00039460000012000F0C9FE072102A000F0E3
:102CE00089FC00E000BFFDE74552524F52210D0024
:102CF00086B0142101A8FDF7F2FD00BF00BF00243B
:102D000000F04EFC4FA000F07DFC052000F0AEFE70
:102D100000F080FE50A000F075FC00F05FF953A0B9
:102D200000F070FC02F004F955A000F06BFC02F01A
:102D300075FE58A000F066FC02F0F8FA04460CB9E3
:102D400059A000E059A0014659A000F05BFC1020FA
:102D500000F0EEF804460CB953A000E053A0014681
:102D600058A000F04FFC5CA000F04CFC062000F0E6
:102D700075FE5DA000F046FC0120402380220B215F
:102D80000090022002F078FA02F0DCFB10212E20E5
:102D900002F0C6FA0122594959A002F0BDFB02F027
:102DA000D1FB1D213A2002F0BBFA0122564957A05F
:102DB00002F0B2FB02F0C6FB3221382002F0B0FA7A
:102DC00001224E4952A002F0A7FB02F0BBFB4FF4D8
:102DD000FA7000F0B3FF02F0B5FB32E0012C2DD108
:102DE00000F0C8F8064633464AA2122101A8FDF7B2
:102DF00097FB01A8FDF7E5FC00EB400101EBC000EB
:102E0000C0F18000C0F347051D21032002F088FABD
:102E100001223D4940A002F07FFB334642A212212D
:102E200001A8FDF77DFB1D21284602F079FA012259
:102E3000354901A802F070FB02F084FB782000F015
:102E40007DFFCBE7202A20496E697469616C697A3D
:102E5000696E672E0D0A0000496E646963617469CA
:102E60006F6E202E2E206F6B2E0D0A00434C4920D2
:102E7000415050202E2E2E2E2E206F6B2E0D0A002C
:102E8000536572766F202E2E2E2E2E2E2E206F6BD7
:102E90002E0D0A00556C747261736F6E6963202E7B
:102EA0002E206F6B2E0D0A00657272006F6B000092
:102EB000446973706C6179202E2E2E2E2E2025737E
:102EC0002E0D0A00424831373530202E2E2E2E2E60
:102ED0002E2025732E0D0A00202A2052756E6E6951
:102EE0006E672E0D0A00000053746174653A2073FA
:102EF00074616E6462792E0D0A00000040000002C9
:102F00004C69676874000000480000023F00000040
:102F10006C782E0025640000202020202020202016
:102F20002020202000000000256420202020000018
:102F300010B50446072000F00EF808B9002010BDB7
:102F40000A2000F0FBFE204600F005F808B900203A
:102F5000F5E70120F3E701B582B000200346012226
:102F600002A90090232000F063FC08B900200EBDE8
:102F70000120FCE77CB50020019001AC022523462E
:102F8000002211462320009500F052FC08B90020D1
:102F900000E0012010B94FF6FF707CBD9DF80500E0
:102FA0009DF8041040EA0120F7E710B50D20FFF767
:102FB000B9F80C20FFF7B6F80D242046FFF7E4FB24
:102FC0002046FFF7F7FB00BF00F056FB00F0EEFBDA
:102FD00002F09EFC01F01EF810BD000010B500F0DC
:102FE000FBF90021044800F039FF0449086008B9E2
:102FF000002010BD0120FCE7D45A00001800000298
:10300000002400F0D9F822E00A2000F097FE802189
:103010000F48FDF742FC80210D4800F055FA041ED0
:1030200000D114E000200A4908550AA000F0EAFA8D
:1030300080210A48FDF731FC80220849044800F04D
:10304000D9F918B1054903A000F0DCFA00BFDBE7AD
:10305000C002000225730D0A0000000040030002B8
:103060002DE9F04105460E461746002400BF10E04A
:103070000A4901EB04114868FDF7A3FB022806D9B1
:10308000064800EB0410416805A000F0BBFA601C84
:10309000C4B2102CECDB0020BDE8F081C0010002BE
:1030A00025730D0A0000000070B504460D46164653
:1030B00007A000F0A7FA0EA210A113A000F0A2FA38
:1030C0001748016817A000F09DFA002070BD0000AD
:1030D000446576696365202E2E2E2E2E2E204453B5
:1030E0002D3220436F6E74726F6C6C65720D0A0026
:1030F00032323A35373A33360000000041756720E6
:1031000033302032303136004275696C64202E2E07
:103110002E2E2E2E2E2025732025730D0A00000042
:103120007C000002436F726520436C6F636B202E3E
:103130002E20256C64204D487A2E0D0A00000000D8
:103140002DE9F843804689461446002600250020D4
:10315000009000276A460121204600F0F7F8071E7C
:1031600001D1BDE8F8833846FDF7BAF846B26A46A1
:103170000221204600F0EAF8071E00D1F1E73846A8
:10318000FDF7AEF845B23146002001F0DFFE2946DA
:10319000012001F0DBFE2A46314602A000F032FA9F
:1031A0000020DEE7506F696E74657220256420256B
:1031B000642E0D0A0000000010B5064800F0A4F9C6
:1031C000054800F0A1F9054800F09EF9044800F018
:1031D0009BF910BDE45A0000F45A0000045B0000A3
:1031E000145B00002DE9F84380468946154600200F
:1031F00000900027022400266A460121284600F09C
:10320000A5F8071E01D1BDE8F8839DF800202AA18A
:103210003846FDF7AAFA00B900249DF8002027A13E
:103220003846FDF7A2FA00B90124022C01D1002092
:10323000E9E76A460221284600F088F8071E00D117
:10324000E1E79DF800201FA13846FDF78EFA60B92E
:1032500021461EA000F0D6F9204601F0E1FE2146ED
:1032600020A000F0CFF90020CDE79DF8002024A198
:103270003846FDF77AFA08B10020C4E76A46032110
:10328000284600F063F8071E00D1BCE73846FDF77A
:1032900027F846B23146204601F058FE28B13246A2
:1032A000214618A000F0AEF904E0324621461DA0E8
:1032B00000F0A8F90020A6E770616E0074696C74D4
:1032C000000000007465737400000000546573749E
:1032D000696E6720736572766F2025642E2E2E0D21
:1032E0000A00000054657374696E67207365727616
:1032F0006F20256420697320646F6E652E0D0A00AF
:1033000073657400536572766F20256420616E6763
:103310006C652073657420746F2025642064656774
:103320002E0D0A00536572766F20256420616E674A
:103330006C652073657420746F2025642064656754
:103340002E6661696C65642E0D0A000030B5034677
:10335000002400200025157023E000E05B1C1D7890
:1033600015B11D78202DF9D100E05B1C1D7815B139
:103370001D78202DF9D01D7895B1651CECB28C42DA
:103380000FD1184603E015786D1C15705B1C1D7875
:1033900015B11D78202DF6D1157805B9002002E071
:1033A00001E08C42D9DB00BF30BD01460020002285
:1033B0000AE00B78202B05D1012A04D0431C58B217
:1033C000012200E00022491C0B78002BF1D1012AD8
:1033D00001D1431E58B2704710B500200349087050
:1033E0004FF480710248FDF77AFA10BD1500000213
:1033F000C00100022DE9F05F05460F46904600240B
:10340000A1464FF0010BA246002600BF2BE02B483F
:1034100000EB0410D0F800A05046FDF7D2F90646A4
:10342000A85D202801D0A85DD8B93246514628466B
:10343000FDF79BF9A8B94FF00109204800EB0410F3
:1034400090F90C0000280BDB2846FFF7AEFF1B4964
:1034500001EB041191F90C10884201D04FF00209E0
:1034600003E0601CC4B2102CD1DB00BFB9F1020F25
:1034700007D1424612493846FDF7C2F94FF0010B19
:1034800018E0B9F1010F0ED10C4800EB0410806870
:1034900080B10A4800EB04102A464146836838464A
:1034A0009847834606E0424606493846FDF7A8F9A4
:1034B0004FF0010B5846BDE8F09F0000C00100022C
:1034C000C88400001C850000F8B505460E4600249F
:1034D0000020009014E00121684602F085FA0128DE
:1034E0000BD19DF800000D2800D10AE09DF80000E6
:1034F0002855641CB44203D303E0012000F01EFCF5
:10350000E9E700BF2046F8BD30B501460A4800781B
:10351000102801DB002030BD0848074A127800EB74
:10352000021091E83C003CC003480078401C024A6D
:1035300010700120EFE7000015000002C00100023A
:1035400008480068C0010BD507480068C00707D0CD
:10355000054880380068002802DA04490120087014
:1035600070470000FCED00E0800E00E0A4000002C7
:103570004FF06042D36F002BFCD0036BD367D36F47
:10358000002BFCD0C07840EA0120A2F87C007047F4
:103590004FF06041CA6F002AFCD081F87C00704770
:1035A00010B50121044800F029FC0449086008B95D
:1035B000002010BD0120FCE7C85A00000C000002EA
:1035C0000FB438B5002405A80090FE210848009BE0
:1035D000049AFCF76BFE84B2002005490855214689
:1035E000034802F00FFA0020009038BC5DF814FB8D
:1035F000A800000270B504460D462946204602F098
:1036000001FA70BD0FB438B500244FF47A710F4839
:10361000006800F017FC002815DB05A80090FE21CB
:103620000B48009B049AFCF741FE84B20020084935
:1036300008552146064802F0E5F9002000900348AD
:10364000006800F0F3FB38BC5DF814FB0C000002CE
:10365000A800000201460648814201D1312070478E
:103660000448814201D13220F9E73320F7E7000016
:10367000000004400040044010B500244FF0E0502A
:10368000FEF7ACFE00BF25E0144800EB8400837811
:10369000124800EB84004278104810F824104FF0D4
:1036A000E050FEF7B2FE0D4800EB84008078012860
:1036B0000ED10A4800EB8400C378084800EB840070
:1036C0004278064810F824104FF0E050FEF7BCFE98
:1036D000601CC4B2052CD7DB10BD000068000002DE
:1036E00030B54FF0E051094C14F8202004EB800471
:1036F000637801F5005454F8224001259D40AC4305
:1037000001F5005545F8224000BF30BD68000002B9
:1037100030B54FF0E051094C14F8202004EB800440
:10372000637801F5005454F8224001259D402C4354
:1037300001F5005545F8224000BF30BD6800000289
:1037400010B50446064800EB84004278044810F89F
:10375000241001234FF0E050FEF776FE10BD00006C
:103760006800000210B50446064800EB8400427869
:10377000044810F8241000234FF0E050FEF764FED8
:1037800010BD00006800000270B504460D460648F2
:1037900000EB84004278044810F824102B464FF0C8
:1037A000E050FEF751FE70BD6800000210B58023A6
:1037B000162200211A48FEF72FFF8023172200212E
:1037C0001748FEF729FF8420FEF7AEFF8320FEF79F
:1037D000ABFF1448FEF712FF282030B1B0F5803F50
:1037E00003D8411E0F4A516102E000210D4A516188
:1037F00000BF0D490B48FEF733FE00BF09480068C3
:1038000000F01F0040F001000649086000BF1820CA
:1038100001218140054A430942F8231000BF10BD31
:1038200000800F4000000540801A060080E100E0A3
:103830002DE9F04104460D4617461E46DDF8188076
:103840000A48847300200949888108460781A0F846
:103850000A80056046600648FEF73AFE0348808904
:1038600010B90120BDE8F0810020FBE7A824000288
:10387000000005407CB506460C4615460020019028
:103880008DF804408DF805500346022201A90090EE
:103890003046FFF7CDFF7CBDF8B507460D4616460E
:1038A0001C460848057022463146401CFCF7A8FF1C
:1038B00000200090601C82B2002302493846FFF7C6
:1038C000B7FFF8BDB824000210B50220FFF738FF9B
:1038D00010BD10B50220FFF745FF10BD10B500F078
:1038E000B3F800F05FF8FFF7F4FF10BD10B500F07B
:1038F000ABF800F057F8FFF7ECFF10BD10B500F083
:10390000A8F800F04FF8FFF7DFFF4FF4FA7000F06F
:1039100015FA00F099F800F045F8FFF7D5FF10BD53
:1039200010B500F091F800F042F8FFF7CDFF10BDA0
:1039300010B500F089F800F03AF8FFF7C5FF322023
:1039400000F0FCF900F080F800F02CF8FFF7BCFF65
:1039500010BD10B500F078F800F029F8FFF7B4FFBB
:1039600010BD10B500F070F800F01CF8FFF7ACFFC8
:1039700010BD10B500F06DF800F014F8FFF7A4FFCB
:1039800010BD10B500F060F800F00CF8FFF7A1FFD3
:10399000322000F0D3F900F057F800F003F8FFF7F9
:1039A00093FF10BD10B50120FFF7CAFE10BD10B582
:1039B0000120FFF7D7FE10BD70B505461448047806
:1039C000092C06D2DFE804F006090C0F1215181BAB
:1039D0001E0000BFFFF7C5FF17E0FFF7CAFF14E0A6
:1039E000FFF79EFF11E0FFF779FF0EE0FFF77EFF84
:1039F0000BE0FFF7AEFF08E0FFF7C3FF05E0FFF7BE
:103A000097FF02E0FFF77AFF00BF00BF70BD000024
:103A10001400000210B500220121094800F048FA04
:103A20000849086008B9002010BD4FF47A710548B4
:103A3000006800F057FA08B10020F5E70120F3E72D
:103A4000CC5A00001000000210B50020FFF778FEED
:103A500010BD10B50020FFF785FE10BD72B60249FB
:103A6000087062B6704700001400000210B50446EA
:103A700072B6034804700020FFF79EFF62B610BDC7
:103A8000140000020EB5802200B109B110460AE010
:103A900001780129FAD101A900F034F8042801D0F5
:103AA000002000E01020DDE9011203B000BD70B578
:103AB0000D46040003D012B92078012801D08020DF
:103AC00070BD204600F0B2FC28B12946204600F027
:103AD00042F8002070BD812070BD10B500F024FCBC
:103AE00010B10178022901D0802010BD4188A1F5D4
:103AF0007F42FF3A03D000F035F8002010BD81204E
:103B000010BD000010B504468089002822D06089CD
:103B100004EB8000006908606078022805D100216C
:103B2000204600F077FE00F065FE04F10C0000BFB7
:103B3000D0E85F1F491E8AB2C0E8512F0029F7D193
:103B40006089401C80B26081E189884201D10020F7
:103B50006081042010BD10B500F05CFEBDE810408F
:103B600000F048BE10B5002100F054FEBDE8104042
:103B700000F040BE10B5FFF721F8FFF716FA042059
:103B8000FFF774FF1FA0FFF71BFD1FA0FFF718FD35
:103B900023A0FFF715FD28A0FFF712FD2CA0FFF7CB
:103BA0000FFD31A0FFF70CFD35A0FFF709FD3AA08E
:103BB000FFF706FD3CA23FA141A0FFF701FD4648EB
:103BC000016846A0FFF7FCFC4BA0FFF7F9FC00F0F2
:103BD000C1F808B1FFF77EF84CA0FFF7F1FC002117
:103BE0004F4800F03BF94F49086008B9FFF772F8F9
:103BF0004DA0FFF7E5FC00F0BFF808B1FFF76AF849
:103C0000002010BD0D0A000020202020202E2D278E
:103C10002F202C5F2020272D2E2020200D0A000091
:103C2000202020202F202028202028203E2020294E
:103C300020205C200D0A0000202020205C20202075
:103C4000272D2720272D272020202F200D0A000098
:103C500020202020272D2E2E5F5F205F5F2E2E2D0F
:103C600027202020200D0A00202020202020202096
:103C700020202F5F5C202020202020200D0A000023
:103C800020232044532D3220436F6E74726F6C6C6E
:103C9000657220230D0A0000202A20426F6F74698C
:103CA0006E672E0D0A00000030303A35373A333255
:103CB0000000000053657020203120323031360082
:103CC0004275696C64202E2E2E2E2E2E2E202573EA
:103CD0002025730D0A0000007C000002436F72650E
:103CE00020436C6F636B202E2E20256C64204D4882
:103CF0007A2E0D0A00000000425350202E2E2E2E48
:103D00002E2E2E2E2E206F6B2E0D0A004B65726EFE
:103D1000656C202E2E2E2E2E2E206F6B2E0D0A005F
:103D2000B85A000000000002415050202E2E2E2EC6
:103D30002E2E2E2E2E206F6B2E0D0A00EFF30581F6
:103D400009B182207047DFF808C000DF704700002B
:103D500095550000EFF3058008B182207047EFF31E
:103D60001480C00703D0DFF80CC000DF704701F0FB
:103D70001BBC0000A955000088B0EFF3058010B10E
:103D8000822008B07047EFF3148010F0030113484D
:103D900006D001291BD0022911D0032919D113E023
:103DA00008A981F309880078C0070BD05FF00200F2
:103DB00080F31488BFF34F8FBFF36F8F09E0007853
:103DC000C00706D10320F3E70078C00701D0FF2029
:103DD000D7E7DFF80CC000DFD3E700003C5B000052
:103DE00019560000EFF305820AB1FFF74BBEDFF86A
:103DF00008C000DF7047000085560000EFF3058221
:103E00000AB100207047EFF31482064B02F0010262
:103E10005B781A4303D0DFF810C000DF704701F071
:103E20004EBC000080000002BF560000EFF3058189
:103E300009B1FFF752BEDFF808C000DF704700008D
:103E4000E3560000EFF3058212B14FF0FF307047E8
:103E5000DFF804C000DF70470B570000EFF3058266
:103E60000AB100207047EFF31482064B02F0010202
:103E70005B781A4303D0DFF810C000DF704701F011
:103E80005DBC0000800000023D570000DFF80CC060
:103E900000DFDFF80CC000DFFEE70000AD570000D8
:103EA000C9570000DFF804C000DF70470158000068
:103EB00030B4EFF3058313B1002030BC7047EFF34B
:103EC0001483064C03F001036478234303D0DFF826
:103ED00010C000DFF1E730BC01F09EBC80000002A2
:103EE00019580000EFF305820AB182207047DFF80D
:103EF00008C000DF7047000051580000094C4FF027
:103F0000FF3529462068FFF76DFF02460846102A54
:103F1000F7D1FFF7C7FF0028F3D0024608469047C5
:103F2000EFE70000200000020446012C06D0022C1E
:103F300009D0032C0CD0042C14D10EE0122113A0B4
:103F4000FFF758FB0FE0112115A0FFF753FB0AE024
:103F5000102118A0FFF74EFB05E012211AA0FFF771
:103F600049FB00E000BF00BF00BFBFF34F8F1B48FD
:103F700000681B4900F4E06008431849001D086010
:103F8000BFF34F8F00BF00BFFEE700004F535F45F8
:103F900052524F525F535441434B5F4F56460000BD
:103FA0004F535F4552524F525F4649464F5F4F56FF
:103FB000460000004F535F4552524F525F4D4258EA
:103FC0005F4F5646000000004F535F4552524F521C
:103FD0005F54494D45525F4F564600000CED00E0DE
:103FE0000000FA0500BFFEE7074801684FF0E02037
:103FF000416100218161072101610448016841F0AC
:104000007F41016040177047385B000020ED00E001
:104010007047000070B50024214D2846FEF76AFB6A
:1040200000BF32212846FEF735FB0C20FEF77AF858
:1040300000BF0BE01B4A02EBC4025179194A02EBA4
:10404000C4021079FEF780FB601CC4B2022CF1DBC5
:104050000C20FEF74BF8002415E0124A02EBC402D4
:104060009179104A52F834002246FEF7E8FA0D4AD8
:1040700002EBC40291790B4A52F834000022FEF799
:10408000D7FA601CC4B2022CE7DB00BF4FF004106B
:10409000034949688143024A516000BF00BF70BDB7
:1040A0000080011CB083000070B504460D46054A2F
:1040B00002EBC4029179034A52F834002A46FEF713
:1040C000B7FA70BDB083000050E8001F31B10B6833
:1040D00040E80032002AF7D108467047BFF32F8F1F
:1040E000FAE710B568B161B10B3121F00302016844
:1040F00044680B1A1B1B934205D208460968002925
:10410000F5D1002010BD210007D021180368C1E9B6
:104110000032016001F1080010BD4260083010BD9E
:1041200070B50D46002812D04FF6FF71084C88423A
:1041300004D222680146104600F09AFB20684570C0
:10414000044800F0DDF8BDE8704000F091BC70BD9F
:1041500088000002182700020F4810B50D49426878
:104160000E480B680068934204D00A60CB88421E58
:104170001A448A808A8880B282420AD1002008606C
:10418000054800F0BDF80146BDE81040024800F0C7
:1041900093BB10BD9C00000218270002980000028B
:1041A00070B5194DE86800282CD0A88A401EA88256
:1041B000002621E0A06838B161684160606810B1F4
:1041C000A16881606660A6600F482146183800F03B
:1041D00073FBA08AA8826078042804D10B49E08A86
:1041E00009880844A08201206070E068E860E06807
:1041F00008B10561E6602661A88A002802D1EC6852
:10420000002CD7D170BD00003027000298000002BA
:1042100070B504000FD00D4DA17801262868827872
:1042200091420CD900F064FB286846702046BDE836
:10423000704000F01DBC064800F062F8F7E76670B9
:104240002146BDE87040024800F036BB88000002FD
:10425000182700020321FFF763BF000010B50446D2
:10426000008B084320836278618B062A18D0052AC8
:1042700019D1084217D001EA0002628388432083E3
:10428000204600F060FB01206070628B0821204610
:1042900000F055FB2146BDE81040034800F00CBB80
:1042A00031EA0002EAD010BD18270002814202D391
:1042B00042688A4201D80120704702680A60BFF351
:1042C0005F8F50E8003F0A689A42F6D140E800123A
:1042D000002AF2D10020704768B161B1002208398C
:1042E00002E00246006830B18842FAD12AB1006883
:1042F0001060002070470120704700214160F8E7FE
:104300000146406842684A600B780022022B05D0C3
:10431000012B03D0032B01D04260704743680BB1DF
:104320009960426082607047810700D0002070472A
:1043300070B5044600201546207001226270A170FD
:1043400084F824106060A060E06020612062A08298
:10435000E0822083608384F82500E08C18B905484A
:10436000FFF7B2FEE06229462046BDE8704000F04B
:104370001DB80000A005000208B1082901D20120E3
:1043800070470144091F002201600A604260104624
:104390007047000003480021016003490988C1807B
:1043A000704700009C0000022C5B000070B5C28CBE
:1043B0001C4D930802D12A88C2F38D03C26A02EB16
:1043C0008302540700D5121F4FF0807442E9021493
:1043D00000242646B2F1400242F82460641C0E2CF0
:1043E000FAD3C4691462826201632968C90014D5D2
:1043F000112B12D94FF0FF31103B11EB53014FF04D
:10440000CC3305D042F8043C42F8083D491EF9D1AE
:10441000C16A121F8A4200D91360C06A0249016052
:1044200070BD0000285B0000A52E5AE2C18980897A
:10443000081A7047012202700022427082704260A6
:1044400002814281103982818908C1817047000050
:104450002DE9F041044640680E464FF0000804F193
:104460000C05E8B36078012701283ED0022813D05C
:1044700003285CD10846FFF727FE050057D02046E9
:10448000FFF73EFF0446294600F056FA67702046C3
:1044900000F059FA214621E02046FFF731FF064699
:1044A000002100F049FA2189F06904EB81010861DB
:1044B000D5E85F0F401C81B2C5E8501F0028F7D136
:1044C0002089401C80B22081E189884201D1A4F872
:1044D00008807770304600F036FA3146174800E021
:1044E0000CE0BDE8F04100F0E7B92046FFF708FF17
:1044F00004463246102100F022FAC7E7A089E1897C
:10450000884216D2208904EB80000661D5E85F0F4F
:10451000401C81B2C5E8501F0028F7D12089401CFB
:1045200080B22081E189884201D1A4F80880BDE8E9
:10453000F081BDE8F0410320FFF7F6BC1827000228
:1045400070B50446808915460026C0B3608904EB27
:104550008000006908606089401C80B26081E18948
:10456000884200D16681606810B1607802280BD063
:1045700014F10C04D4E85F0F401E81B2C4E8501F50
:104580000028F7D1002070BD2046FFF7B9FE054690
:10459000002100F0D1F92189E86904EB810108616B
:1045A0002089401C80B22081E189884200D1268187
:1045B000284600F0C8F92846FFF72AFEE2E7FFE7A1
:1045C0003DB10B48626801682AB1204600F074F9D9
:1045D00008E0012070BD616001684E600068846081
:1045E0000120607008212846FFF79AFDF1E70000DE
:1045F00088000002002814D0411C13D00C4A4FF64A
:10460000FE7190420CD800EB4002C2EBC012094888
:10461000036803EBC202521EB2FBF3F0884204D9D6
:10462000084670474FF6FF70704780B27047000031
:1046300000093D00485B00002DE9F0410446408838
:1046400020B1314DA1682A68914202D0FF20BDE817
:10465000F081401E0004000C608053D12968086A74
:10466000A04209D1E068086208E0C268A24202D113
:10467000E268C26002E010460028F6D191F82400FA
:104680000A6A06E053681BB19B78834200D918463A
:10469000D268002AF6D18870DFF870806168012640
:1046A00011B32046FFF72CFE0746002100F044F925
:1046B000384600F048F96680A760386AE0603C62DE
:1046C0002968D8F804008A788078824201D3384675
:1046D00016E00E4800F0F0F839460C4800F0ECF80F
:1046E000286846707E700AE0D8F804108A78296835
:1046F000824207D9054800F0DFF82868467000209C
:10470000FFF786FD0020A2E78800000218270002BC
:1047100070B5184D0E4604464188286839B1A16825
:10472000814209D16088401C6080002070BDA0607B
:10473000016AE1600462F5E776B18A7880788242A6
:1047400003D28870A06800F0DDF8606830B12046C0
:10475000296800F0B1F808E0012070BD28686060A9
:104760002968002048602868846009213046FFF7E6
:10477000D7FCF1E78800000270B51B4801210268F0
:104780005170006800F0B4F8184D6C7818E000BF64
:1047900005EBC40148680278EAB1012A20D000F094
:1047A00005F9E878641C844200D100240F48801C7D
:1047B000D0E84F1F491EC9B2C0E8421F002AF7D1F6
:1047C000A8780028E4D16C700948FFF799FDBDE88E
:1047D000704000F04DB9098989B2FFF73FFDE0E76D
:1047E0008968FFF735FEDCE788000002F01B000255
:1047F000182700020548017811B101214170704766
:1048000003494FF08050086070470000900000029C
:1048100004ED00E0F0B4154DAB1CEE784FEA05074F
:10482000D3E84F2FB24202D1BFF32F8F11E0521CB9
:10483000D4B2C3E8424F002AF2D100BFD7E84F2FCD
:10484000541CB44200D10024E4B2C7E8434F002B0B
:10485000F4D1EB78934205D905EBC202C2E901011C
:10486000F0BC7047F0BC0220FFF75EBBF01B0002FB
:10487000104A10B5D368ABB113469B8A03E08CB1E4
:104880002246A48A2344D4688B42F8D3C460D06003
:104890000261C46804B12061591A8182908A401A69
:1048A000908210BD0024C460D060C91A0261918258
:1048B000848210BD3027000230B502780023022A1E
:1048C00003D0012A01D0032A00D101238C7800E013
:1048D0001046426812B19578A542F9D24A6041600B
:1048E0001BB102B19160886030BD0020FBE7000081
:1048F00003494A68426000228260486070470000B5
:104900001827000210B5836804462BB96078012887
:104910000ED1084B03E09B6818780028FBD0204696
:1049200000F026F82146BDE810401846FFF7C4BF46
:1049300010BD000018270002806A01627047806A7B
:10494000C0E90812704710B5016900290ED0C2688D
:10495000CA60C36800223BB18B8A848A23448B825D
:10496000C3681961C26000E08A82026110BD000064
:10497000816839B142684A604168002901D0806885
:1049800088607047054906E04A68824202D1406863
:104990004860704711460029F6D170471827000279
:1049A00002220270002242604180704710B54168C7
:1049B00081B1FFF7A5FC0446FFF7C5FF0120607039
:1049C00001462046FFF7B8FF2146BDE810400348E6
:1049D000FFF772BF4188491C418010BD18270002B3
:1049E00010B5416861B1FFF78BFC04460121FFF768
:1049F000A3FF2046FFF7A7FF2046FFF709FC02E0D0
:104A00004188491C4180002010BD000010B50C46B3
:104A1000418819B1491E4180002010BD34B10A4AB5
:104A20004368116823B1FFF747FF07E0012010BD7D
:104A30004160136800215960116888600721204691
:104A4000FFF76EFBF2E700008800000206480068EE
:104A5000D0E90A10814203D300680449884202D099
:104A60000120FFF761BA704788000002A52E5AE2C4
:104A70000749022248604270064A1278002A05D08F
:104A800006C98A4202D0C078FEF782BD7047000096
:104A900088000002A400000270B5FEF751FD00205E
:104AA0000446204A204902E042F82040401C0B887E
:104AB0009842F9D31D48342201881D48FEF7C2F8F8
:104AC0001C48008880B240F000421B4801681B4827
:104AD000FEF7B8F81A48082201881A480068FEF75D
:104AE000B1F8194DFF20194AE870EC8400212846DE
:104AF000FFF71EFC16480421017044601548017040
:104B0000C4600461848214481549056002206870FD
:104B10001248047044700978C170BDE87040FFF716
:104B200039BC0000741C0002245B0000505B0000D4
:104B3000C0030002285B0000545B0000A0050002D7
:104B4000785B000028000002E4260002E53F000038
:104B5000182700023027000288000002F01B000224
:104B60005C5B00001B4810B5016841F47F010160E7
:104B700000684FF07F4101EA00201649C043143914
:104B8000B0FA80F00968C0F10800C1F30221814247
:104B900000D3481C0F49091F0B686FF080728240D8
:104BA00063F317020A60FFF71FFA0B490028086039
:104BB0000EDB00F1E021FF2281F8002400F01F024B
:104BC000012191404009800000F1E020C0F800116F
:104BD00010BD000020ED00E0940000020C4810B56C
:104BE0000268012151700068FFF782FEFFF7B4FAF6
:104BF00008480168491C0160FFF7D2FA00F05AFE2C
:104C00000548FFF77DFBBDE81040FFF731BF00000E
:104C1000880000029800000218270002002805D032
:104C2000810702D10178002900D0002070470000E0
:104C300030B50B4C0023626805E095688D4204D8BE
:104C400013461268491B002AF7D10260816012B135
:104C50009568691A91600BB1186030BD606030BD15
:104C6000800000020D4B0022596803E0814204D00D
:104C70000A4609680029F9D104E019B1016822B196
:104C8000116003E04FF0FF3070475960016819B1BF
:104C90008A688068104488600020704780000002A5
:104CA0002DE9F0411E46174680460D4611F0FF0FD4
:104CB00000D14D1C1848FFF707FA041E16D0280A29
:104CC000E762E084E9B242462046E661FFF730FB46
:104CD00001251248124905E000EB850252F8042C28
:104CE00032B16D1C0A889542F6D90020BDE8F081EA
:104CF000002DFAD000EB850040F8044C0948E5701F
:104D0000007818B101212046FEF732FC2046FFF75B
:104D10007FFA2846EAE70000C0030002741C000284
:104D2000245B0000A40000022DE9F05F584DDFF87D
:104D30005891DFF8588129684FF0010A002618B110
:104D4000CA78AB46824243D14E70FBF7DCFA296841
:104D50008862FFF77BFE2868046A1FE06068C0B1C4
:104D60002046FFF7CDFA07460021FFF7E5FD38465C
:104D7000FFF7E9FD87F801A039464648FFF79CFD9B
:104D8000E168A4F802A0A760386AE0603C620C46C3
:104D900004E0E0686680A660E6600446002CDDD191
:104DA0002868C27808EB820141F8046CC16A3A486D
:104DB000FFF77CFA2868C66299F8001011B100214B
:104DC000FEF7D6FB35482968FFF770FA2E6056E0EB
:104DD0003349098888420CD808EB800858F8045CED
:104DE0003DB12846FFF7C4FD2846FFF7ACFD2C6A0D
:104DF00022E0FF20BDE8F09F6068C0B12046FFF7C9
:104E00007FFA07460021FFF797FD3846FFF79BFD25
:104E100087F801A039461F48FFF74EFDE168A4F866
:104E200002A0A760386AE0603C620C4604E0E068DB
:104E30006680A660E6600446002CDDD148F8046C6C
:104E40001548E96AFFF732FAEE6299F8000018B1E6
:104E500000212846FEF78CFB29461048FFF726FA6A
:104E60000C48DBF8001040688B7882789A4209D9A8
:104E700081F801A00748DBF80010FFF71DFD0020B6
:104E8000FFF7C6F90020B5E7A4000002741C000279
:104E90008800000218270002A0050002C0030002DB
:104EA000245B000070B51A4D80B11A4A12889042F6
:104EB0001FD8194A02EB800050F8044CCCB1A17005
:104EC00084F824102868A04205D014E02868817076
:104ED000286880F82410114840688078884215D9E5
:104EE0000E482968FFF7E8FC296801204870002077
:104EF0000AE0FF2070BD2046FFF704FD607801281E
:104F000004D10648FFF7FCF9FFF782F9002070BDD5
:104F100088000002245B0000741C000218270002B5
:104F200002480068002800D0C0787047880000025E
:104F300010B5002400BF05E00021204600F006F86F
:104F4000601CC4B2022CF7DB012010BD70B5044612
:104F50000D46002615F15A0F01DB5A2D01DD002008
:104F600070BD684245B215F15A0F14DB002D12DAFC
:104F70002A4800EB04108068284901EB04114968B5
:104F8000461A6E435A2096FBF0F6244800EB0410B4
:104F9000806806441AE0002D14DD5A2D12DC1F48EB
:104FA00000EB0410C0681D4901EB04118968461A22
:104FB0006E435A2096FBF0F6184800EB0410806808
:104FC000064403E0154800EB04108668134800EB24
:104FD0000410C068B04203D2104800EB0410C66849
:104FE0000E4800EB04104068B04203D90B4800EBB8
:104FF00004104668094901EB041108783146FFF7AF
:1050000053F80A20FEF79AFE044901EB04110878D0
:105010000021FFF749F80120A2E70000908300007B
:1050200070B5054600246FF0590408E02146284673
:10503000FFF78CFF0520FEF781FE601C44B25A2C5E
:10504000F4DD5A2408E021462846FFF77FFF0520BB
:10505000FEF774FE601E44B214F15A0FF3DA002119
:105060002846FFF773FF70BD2DE9FF4F04460D463C
:1050700016461F464FF0000AD146002003900290CA
:105080008346019080460090822C00DB8124822E92
:1050900000DB8126402D00DB3F25402F00DB3F2732
:1050A000B44201DA301B00E0A01B0FFA80FABD42C7
:1050B00001DA781B00E0E81B0FFA80F9B44201DA4C
:1050C000012001E04FF0FF300390BD4201DA0120E2
:1050D00001E04FF0FF300290CA4501DD514601E08A
:1050E000C9F10001084601EBD07149100FFA81FBAC
:1050F000BAF1000F1ED1AF4204DA38B200902F4649
:10510000009885B2A64204DA30B200902646009894
:1051100084B20FFA85F809E01FFA88F120460D9A4B
:1051200000F052F808F101000FFA80F8B845F3DDFD
:10513000BDE8FF8FB9F1000F1DD1AF4204DA38B2DC
:1051400000902F46009885B2A64204DA30B2009053
:105150002646009884B20FFA84F809E01FFA88F016
:1051600029460D9A00F030F808F101000FFA80F896
:10517000B045F3DDDCE722E0294620460D9A00F039
:1051800023F8B44202D1BD4200D119E0CDF804B0F9
:10519000CAF10000DDF804B0834506DDABEB090081
:1051A0000FFA80FB0398204484B20198484506DA40
:1051B0000BEB0A000FFA80FB0298284485B2DBE76C
:1051C00000BF00BFB4E70000F0B503461446822BD1
:1051D00001DA402900DBF0BD2548007920B10CB987
:1051E000012000E000200446012C1FD10846CD1705
:1051F00001EB5575ED1005EB851503EB45051D4ECF
:10520000755D0A46CE1701EB5676F610A1EBC60780
:105210000126BE403543CE1701EB5676F61006EB5D
:10522000861603EB4606134FBD551EE0CD1701EB66
:105230005575ED1005EB851503EB45050D4E755DB8
:105240000A46CE1701EB5676F610A1EBC6070126EB
:10525000BE40B5430846CE1701EB5676F61006EB76
:10526000861603EB4606034FBD5500BFB3E70000AB
:1052700058000002982000022DE9F84104460D462E
:1052800016461F46DDF81C80822C01DA402D01DB1A
:10529000BDE8F881A019822802DBC4F1820086B241
:1052A000E819402802DBC5F1400087B2A01982B29C
:1052B0002B4629462046CDF80080FFF7D5FEE81999
:1052C00083B2A01982B2E81981B22046CDF80080DD
:1052D000FFF7CAFEE81983B2224629462046CDF8D8
:1052E0000080FFF7C1FEE9198BB2A1198AB2A1199A
:1052F00088B22946CDF80080FFF7B6FE00BFC7E7A9
:1053000010B504460CB9002000E0FF2002464FF41F
:1053100082610248FBF7B9FA10BD00009820000234
:10532000014A1080518070475800000210B5642077
:10533000FEF704FDAE2200213C20FEF79BFA20225E
:1053400000213C20FEF796FA102200213C20FEF7B7
:1053500091FAB02200213C20FEF78CFAC8220021ED
:105360003C20FEF787FA002211463C20FEF782FA25
:10537000102200213C20FEF77DFA402200213C2033
:10538000FEF778FA812200213C20FEF773FAFF2213
:1053900000213C20FEF76EFAA12200213C20FEF7FE
:1053A00069FAA62200213C20FEF764FAA822002117
:1053B0003C20FEF75FFA3F2200213C20FEF75AFA1C
:1053C000A42200213C20FEF755FAD32200213C20E4
:1053D000FEF750FA002211463C20FEF74BFAD52288
:1053E00000213C20FEF746FAF02200213C20FEF787
:1053F00041FAD92200213C20FEF73CFA222200216A
:105400003C20FEF737FADA2200213C20FEF732FA80
:10541000122200213C20FEF72DFADB2200213C2045
:10542000FEF728FA202200213C20FEF723FA8D22E5
:1054300000213C20FEF71EFA142200213C20FEF73A
:1054400019FAAF2200213C20FEF714FA0020FFF7E2
:1054500057FF00F077F800200249088048800120BB
:10546000487110BD580000022DE9F04307460C4674
:1054700090460025A9460026264800882178084441
:10548000822805DA2348408861780844402802DBF6
:105490000020BDE8F083002530E0A7F1200061780E
:1054A00000FB0150616831F81090002622E009FAF3
:1054B00006F000F4004058B1164A52882A4491B2CE
:1054C000144A1288324490B24246FFF77DFE10E043
:1054D000B8F1000F01D1012300E000231A460D4B63
:1054E0005B882B4499B20B4B1B88334498B2FFF76F
:1054F0006BFE761C2078B042D9D86D1C6078A8422B
:10550000CBD80448008821780844024908803846EE
:10551000BFE700005800000270B504460D4616466D
:105520000AE0207832462946FFF79EFF217888421C
:1055300001D0207870BD641C20780028F1D120783B
:10554000F8E7000010B5002400BF1BE004F1B00034
:10555000C2B200213C20FEF78DF9002211463C200A
:10556000FEF788F9102200213C20FEF783F9084855
:10557000822101FB04020B4640213C20FEF78CF9FE
:10558000601CC4B2082CE1DB0120FEF7D7FB10BD84
:105590009820000210B5002804D0FFF72BF8FEF782
:1055A00059FE402010BD000010B5134C207860B9A2
:1055B0001248400705D1124801681048FEF7DCFE8A
:1055C00008B1852010BDFFF767FA0E49FF20096872
:1055D0008870207858B900210B4800F041F80B4939
:1055E000086000210A4800F0A9F80A490860012073
:1055F00020700020607010BD80000002B009000221
:10560000585B000088000002705B00002000000270
:10561000605B00001C00000270B50F4D687808B197
:10562000002070BD0D4C206890F824100020FFF77A
:1056300039FC2068C178FF2903D1816A203181F3C8
:105640000988616811B9606000202060FFF78AFA5C
:1056500001206870E4E7000080000002880000027A
:1056600010B5040005D0216819B1606808B102784E
:105670000AB1002010BD8900103189B2FEF7DAFEB0
:10568000606810BD3EB504000D464FF0800012D09A
:10569000217801290FD12846FEF7ACFF02462046AB
:1056A00001A9FEF74DFF012801D0102003E00DB144
:1056B000402000E00020DDE9011203B030BD10B54C
:1056C000002807D0046824B1207810B9B1F5803FD4
:1056D00001DB002010BD89B22046FFF761F92046AA
:1056E00010BD10B5FEF720FE10B10178022901D0DF
:1056F000802010BD4188A1F57F42FF3A03D0FFF71B
:105700006FF9002010BD812010BD70B50D46FEF769
:105710000BFE04004FF0FF300DD0217802290AD192
:105720002846FEF767FF01462046FFF76FF901287C
:1057300002D06088401C70BD002070BD70B50E4660
:1057400004002BD0206848B3B4F9040010F1030F13
:1057500024DB032822DCE16829B11148FEF7C1FCF3
:1057600005001BD000E00025B4F90400E168001D2D
:1057700040EA012133462A462068FFF791FA40B1FA
:10578000084901EB8000084950F8040C826A516313
:1057900070BD1DB129460248FEF79EFD002070BD78
:1057A000B0090002741C00028D3E000010B5FFF726
:1057B000B7FB002804D0034901EB800050F8040C2B
:1057C00010BD0000741C000210B5FFF727FA18B1D5
:1057D000C18C19B1C46A02E0802010BD0024C078D9
:1057E000FFF7A2FAFF2806D01CB121460348FEF7B6
:1057F00073FD002010BD812010BD0000B009000223
:1058000010B5FEF791FD20B141690A6801691046A3
:1058100010BD0020014610BD10B503000CD0186863
:1058200050B15868002808D009B1012904D1074CAB
:1058300024680CB104790CB1002010BD0024046070
:10584000012404714171C0E9042310BD1C00000251
:1058500070B50E46FEF768FD040016D0BEB1144ABE
:1058600000214FF47A7310681268401E41F1FF3531
:10587000E6FB030529460023FAF7DAFD0546207901
:1058800001280CD0022808D103E0802070BD8620BA
:1058900070BD2046FFF7E6F920B1812070BD0220DF
:1058A0002071E56029462046FFF7C2F9002070BD4F
:1058B000485B00002DE9F041134E7468002C1CD0A9
:1058C000A068124F401E4FF00108A06012E025466C
:1058D00024687460002229463868FEF7E8F810B1A1
:1058E0000420FEF721FB6879012808D085F80480A0
:1058F000002C02D0A0680028E9D0BDE8F08128463D
:10590000E968FFF795F9F3E7800000022000000244
:1059100010B580230D2200212D48FCF783FE802343
:10592000122200212A48FCF77DFE3120FCF7FAFB09
:105930000D2200210120FCF71BFF12220021084646
:10594000FCF716FFFCF70AFC04460021FCF7F4FC08
:105950002048FCF7C9FF04201E4A126822F07C018F
:1059600041EA00021B4B1A6000BF4FF4E1311846B8
:10597000FDF72EF800BF1748006840F001001549F8
:10598000086000BF00BF0846406820F04000486043
:1059900000BF8023012210491048FDF762F88023E0
:1059A00001220F490F48FDF75CF801200949C86042
:1059B00000BF0420086100BF152001218140420979
:1059C000920002F1E022C2F8001100BF10BD0000F9
:1059D00000800F4000000440E4250002D0250002B2
:1059E00064260002BC25000270B504460D462B4615
:1059F000224602490248FCF7ACFF70BDD0250002E8
:105A00000000044070B504460D462A46214602486F
:105A1000FCF7C6FF70BD00000000044010B5002474
:105A200000BF12E00B4911F83400FDF771FE09497F
:105A300011F834000021FDF7A7FE064901EBC4016F
:105A40004878FDF74DFE601CC4B2012CEADB012052
:105A500010BD00006000000210B500290AD00878CF
:105A6000002807D005487844FBF742FF002801D002
:105A7000002010BD0248784410BD0000EA2B000051
:105A8000E22B000010B500290AD00878002807D0C2
:105A900005487844FBF72CFF002801D0002010BDFA
:105AA0000248784410BD0000CE2C0000C62C000037
:105AB000FBF7E2BAFBF716BCF12C00000000000077
:105AC000010000000001000004000002B9390000DC
:105AD000A8010002013000000000000001000000E9
