:020000040000FA
:10000000202100028D02000095020000294A000014
:1000100000000000000000000000000000000000E0
:1000200000000000000000000000000001030000CC
:1000300000000000000000006D0300007D030000D0
:10004000A1020000A1020000A1020000A102000024
:10005000A1020000A1020000A1020000A102000014
:10006000A1020000A1020000A1020000A102000004
:10007000A1020000A1020000A1020000A1020000F4
:10008000A1020000A1020000A1020000A1020000E4
:10009000A1020000194C0000A1020000A102000012
:1000A000A1020000A1020000A1020000A1020000C4
:1000B000A1020000A1020000A102000075400000A2
:1000C000A1020000A1020000A1020000D94000002E
:1000D000A1020000A1020000A1020000A102000094
:1000E000A1020000A1020000A1020000A102000084
:1000F000A1020000A1020000A102000000F002F82D
:1001000000F0B0F80AA090E8000C82448344AAF101
:100110000107DA4501D100F0A5F8AFF2090EBAE8FF
:100120000F0013F0010F18BFFB1A43F0010318472B
:10013000C0660000E06600000A444FF0000C10F8B2
:10014000013B13F0070408BF10F8014B1D1108BF55
:1001500010F8015B641E05D010F8016B641E01F8F5
:10016000016BF9D113F0080F1EBF10F8014BAD1C45
:100170000C1B09D16D1E58BF01F801CBFAD505E063
:1001800014F8016B01F8016B6D1EF9D59142D6D3BD
:10019000704700000023002400250026103A28BFE5
:1001A00078C1FBD8520728BF30C148BF0B607047E9
:1001B0006E2900F00385702901F07180662906F030
:1001C000B980652906F0B680672906F0B3806129F9
:1001D00006F0B28003681B0A28BF41F0800169293C
:1001E00000F0A081642900F09D81752900F09A81BA
:1001F0006F2900F0FF87782901F03D80E92900F0A0
:100200009987E42900F09687F52900F09387EF2974
:1002100000F0FC87F82901F03C800368DB0928BF67
:1002200041F08001632900F01A87732900F01F87CD
:10023000E32901F0E382F32901F0E882002070470E
:100240001FB501F0BFF804000020002106F05CF8A3
:10025000401C60600020002106F040F8E0601FBDF7
:1002600010B510BD01F06EFD114603B404F061FD40
:1002700003BCFFF7E5FF05F085FA01F088FD03B444
:10028000FFF7EEFF03BC01F0CBFD000008488047FC
:1002900008480047FEE7FEE7FEE7FEE7FEE7FEE769
:1002A000FEE7000004480549054A064B7047000078
:1002B000154C0000FD000000201E0002202100025D
:1002C000201F0002201F00027CB51D4616460C00B0
:1002D000009001D02044401E074B7B442A466946CB
:1002E0000190304600F091FE05461CB100206946A1
:1002F00000F09EFE28467CBD5D0D0000FFFFFFFF65
:100300001EF0040F0CBFEFF30880EFF30980816942
:1003100011F8021CD9B901B590E80F10E047BDE80B
:1003200000508CE80300194B93E80600914208BF87
:10033000704719B12CE9F00FC1F838C01A60906B02
:10034000B0E8F00F80F309886FF0020E7047104A92
:1003500013689942FAD801B552F821C00FC8E04796
:10036000BDE80050CCF800007047000001B502F075
:100370001DF9BDE80140EFF3098CD4E701B502F0A7
:1003800079FBBDE80140EFF3098CCCE7CC15000206
:10039000F064000053EA020C00F069802DE9F04B94
:1003A0004FF00006002B1FBFB3FA83F503FA05F4E4
:1003B00024FA05F65E4012BF1643B2FA82F502FA3D
:1003C00005F4C5F120051EBF22FA05FC44EA0C0421
:1003D000203556EA044C4FEA144418BF641C4FF011
:1003E00000084FF00009904271EB030C39D300294B
:1003F00019BFB1FA81F701FA07F6B0FA80F700FAEF
:1004000007F6C7F120071EBF20FA07FC46EA0C06D4
:100410002037B6FBF4FCA7EB0507103F07F01F0BD6
:10042000CBF120060CFA0BFB2CFA06F644BFB346C0
:100430000026202FA4BF5E464FF0000B5BEA060C9F
:1004400008BF4FF0010B19EB0B09ABFB027C48EB2B
:100450000608C01B06FB02CC0BFB03CC71EB0C01A6
:10046000C1E70B46024641464846BDE8F08B13B54E
:100470004FF000004FF00001AFF30080BDE81C40DA
:10048000704770B5044685690068C10601D53026FD
:1004900000E02026C00707D070BDD4E90121304616
:1004A0009047206A401C20626D1EF6D570BD70B565
:1004B000044685690078C00707D170BDD4E90121E1
:1004C00020209047206A401C20626D1EF6D570BD2A
:1004D00070B50C460546012A05D02878800600D55F
:1004E000EA69002302E0012305E05B1C934202D28B
:1004F000E05C0028F9D1A869E618C01AA861286A4A
:10050000184428622846FFF7BCFF04E0D5E9012122
:1005100014F8010B9047B442F8D32846FFF7C7FF01
:1005200070BD00002DE9F0410646002410687529D1
:10053000314616A510D000F0D6FA002802DA404263
:1005400013A507E031688A0701D512A502E0490723
:1005500004D511A5012401E000F0CEFA00210A2201
:1005600006F1240709E0B0FBF2FCB0FBF2F302FB5A
:100570001C00303078541846491C0028F3D123461B
:100580002A463046BDE8F04100F0BFBA0000000046
:100590002D0000002B000000200000002DE9F05F7E
:1005A000894604464FF0000ADFF874B1FB44C0F8F6
:1005B00020A02046E1688847002874D0252806D06E
:1005C000D4E901219047206A401C2062F1E700260F
:1005D0005F462046E16888472028054607DB312D25
:1005E00005D2781910F8200C08B10643F1E7B007DE
:1005F00001D526F00406C4F81CA00027C4F818A0F2
:100600002A2D09D0284604F061FB38B304EB870893
:10061000303DC8F8185019E059F8041B204604EB87
:1006200087029161E1688847012F054618D1E0698A
:10063000002820DA26F020061DE0D8F8180000EB8C
:10064000800005EB40003038C8F818002046E1680B
:100650008847054604F03AFB0028EED1012F0AD066
:100660002E2D08D12046E16888477F1C0546022FC1
:1006700046F02006C4DBA069002803DA404246F0B9
:100680000106A061F00701D026F010066C2D0BD0FA
:10069000682D09D04C2D39D06A2D35D0742D35D028
:1006A0007A2D33D016E038E0E1682F46204688479F
:1006B000B842054609D16C2F26D04FF48060E1681E
:1006C000064320468847054604E06C2F1AD04FF4B5
:1006D000807006430DB3A5F14100192802D82035DA
:1006E00046F400664A462946204626604E46FFF7F5
:1006F0005FFD80B101280BD0F61D26F0070000F148
:10070000080956E74020E4E78020D8E70020D6E734
:1007100006F104094DE7284652E7206ABDE8F09F3C
:10072000445F00000FB400B58DB010A9099000918E
:100730000B904FF0FF300A9000200C900648784450
:100740000690064878446A4607900F9909A800F079
:10075000C5FD0DB05DF814FBBB0B0000D30B000012
:100760002DE9FF5F1D464FF0FF3B91464FF000081B
:100770005F46D5E90146A96901987F1C8847296A27
:10078000824688470028F6D1BAF1FF3F0CD0002EF0
:1007900024F4C06419DD600614D5BAF12B0F09D01A
:1007A000BAF12D0F0ED103E0584604B0BDE8F09F1A
:1007B00044F48064A96901987F1C8847761E8246AC
:1007C000002E02DDBAF1300F03D0B9F1000F26D0B0
:1007D00032E0A969761E01987F1C44F400748847B2
:1007E000002E824605DDBAF1780F06D0BAF1580F17
:1007F00003D0B9F1000F10D01EE0B9F1000F02D004
:10080000B9F1100F18D1A969761E01987F1C24F444
:10081000007488478246102002E0082000E00A2089
:10082000814609E0A96908FB0908761E01987F1C2A
:1008300044F4007488478246002E05DD4946504640
:1008400000F038FD0028EDDAE96901988847A00535
:1008500002D46FF00100A8E7E00725D1600613D5A8
:10086000600502D5C8F1000000E0404629680A1D75
:100870002A600968220501D5087015E0220701D514
:10088000088011E008600FE02868011D29600068F9
:10089000210502D580F8008006E0210702D5A0F8E6
:1008A000008001E0C0F8008038467EE770B506465B
:1008B00000F017F90468054630460A22002100F0CE
:1008C0003DFD2C6070BD40EA010310B59B070FD1C0
:1008D000042A0DD310C808C9121F9C42F8D020BAB0
:1008E00019BA884201D9012010BD4FF0FF3010BD68
:1008F0001AB1D30703D0521C07E0002010BD10F836
:10090000013B11F8014B1B1B07D110F8013B11F8FB
:10091000014B1B1B01D1921EF1D1184610BD10B521
:10092000431C02E010F8011B71B18107FAD14FF0AE
:10093000013202C88C1A8C4314EAC211F9D0C01AD1
:100940000A0603D0C01E10BDC01A10BD0A0401D093
:10095000801E10BD0902FCD0401E10BD032A40F2CB
:10096000308010F0030C00F0158011F8013BBCF151
:10097000020F624498BF11F801CB00F8013B38BF69
:1009800011F8013BA2F1040298BF00F801CB38BF77
:1009900000F8013B11F0030300F02580083AC0F095
:1009A000088051F8043B083A51F804CBA0E808103D
:1009B000F5E7121D5CBF51F8043B40F8043BAFF370
:1009C0000080D20724BF11F8013B11F801CB48BFCA
:1009D00011F8012B24BF00F8013B00F801CB48BF00
:1009E00000F8012B704710B5203AC0F00B80B1E839
:1009F0001850203AA0E81850B1E81850A0E8185054
:100A0000BFF4F5AF5FEA027C24BFB1E81850A0E85C
:100A1000185044BF18C918C0BDE810405FEA827C76
:100A200024BF51F8043B40F8043B08BF7047D2078D
:100A300028BF31F8023B48BF11F8012B28BF20F82E
:100A4000023B48BF00F8012B70474FF00002042919
:100A5000C0F0128010F0030C00F01B80CCF1040CED
:100A6000BCF1020F18BF00F8012BA8BF20F8022B21
:100A7000A1EB0C0100F00DB85FEAC17C24BF00F8C7
:100A8000012B00F8012B48BF00F8012B70474FF0F5
:100A9000000200B5134694469646203922BFA0E8CE
:100AA0000C50A0E80C50B1F12001BFF4F7AF0907DA
:100AB00028BFA0E80C5048BF0CC05DF804EB8900CB
:100AC00028BF40F8042B08BF704748BF20F8022B0E
:100AD00011F0804F18BF00F8012B70477047704726
:100AE000704704F0C5B809684A0501D540B270479F
:100AF000C905FCD500B2704709684A0501D5C0B2E6
:100B00007047C905FCD580B270472DE9F0470D4606
:100B100099469246044600F124080168880604D5E7
:100B2000E06921F01001216000E00120A84201DD10
:100B3000471B00E00027A1697A1902EB0900081A97
:100B4000A0612078C00602D42046FFF79AFC002658
:100B500008E0D4E901211AF806009047206A401CF9
:100B6000761C20624E45F4DB2078C0060AD520466C
:100B7000FFF787FC06E0D4E9012130209047206A86
:100B8000401C2062381EA7F10107F4DC07E0D4E91D
:100B9000012118F805009047206A401C2062281E99
:100BA000A5F10105F3DC2046FFF781FC2078000663
:100BB00002D50220BDE8F0870120FBE7116802683A
:100BC000006A530501D508700AE0D30501D50880F5
:100BD00006E0130603D5C217C1E9000200E0086071
:100BE0000120704770472DE9FF4F0C461E464FF01D
:100BF000FF378BB0D2E90001DDF860800A908A46A9
:100C0000C1F30A5505B93D46002108464FF00000E2
:100C1000BAF1000F00F4400005DA00EB80004FF459
:100C2000400101EA50004FEA9059B9F1010F00DD8F
:100C3000B9460A9850EA4A000ED044F61050A5F280
:100C4000FF3545432F14B8F1000F1ED07542291E01
:100C50001EDDC9F100021CE0B8F1010F4FF00000E9
:100C600001D0302103E0F24305E02154401CB042A2
:100C7000FBDB30460022002121540B99C1F808808B
:100C8000C1E900200FB0BDE8F08FBD1B6D1CDEE791
:100C90004A4600DA694206A800F0C6FF06AB93E8B0
:100CA000070003AB83E8070050460A9902F026FECE
:100CB0008DE80700A0F500501F3800900398002D24
:100CC00009DD42F21F014A46084403A90390684621
:100CD00003F085F808E0A0F500504A461F3803A944
:100CE0000390684603F08FF88DE807000004000CBD
:100CF00003D04FF0FF30410800E01046B8F1000F7C
:100D000003D00022009215461EE0751E05D400F0A7
:100D10005EFB303262556D1EF9D5B34601220843A1
:100D200002D000227F1C04E02078302801D100226C
:100D30007F1E002A099786D01DE0112D07DA00F0EA
:100D400046FB303262556D1C50EA0102F5D1084372
:100D500002D00098C8B10EE00021681E05E0235CB7
:100D6000625C63542254401E491C8142F7DBAB464F
:100D7000A81B401E0990002004F80B000B98099A4C
:100D8000C0F80880C0E9002B7CE711264FF000086E
:100D900059E72DE9F04F88460446D21D22F007019D
:100DA00091B0D1E90001CDE90A0103F03FFF02460D
:100DB0000B98C00F01D02D2007E02068810701D5D6
:100DC0002B2002E0202101EAC000032A099001D073
:100DD000072A05DB03464146204600F0C5FC0BE12F
:100DE0002078800601D5E06900E00620B8F1650FA3
:100DF000814606D0B8F1660F18D0B8F1670F70D1F0
:100E000031E00020B9F1110F009001DB112301E066
:100E100009F101030AAA01A90CA8FFF7E4FEDDE924
:100E20000C70002609F10105834647E001204B467E
:100E300000904FF000470AAA01A90CA8FFF7D3FEC3
:100E4000DDE90DB00C995D46002610B909F10100ED
:100E50000D18B9EB050003D4C0F1FF3609F1010507
:100E6000A5EB09002BE0B9F1010F01DA4FF0010900
:100E70000020B9F1110F0090484601DD112300E078
:100E800003460AAA01A90CA8FFF7ADFEDDE90C7024
:100E90004D4600268346207800070AD4AB4500DA89
:100EA0005D4601A8012D04DD411911F8011C30290E
:100EB00007D04F4502DA17F1040F04DA0120824609
:100EC0000FE06D1EEEE7002F02DCED1B3E4403E059
:100ED000781CA84200DD7D1CB81B00F1010A4FF010
:100EE00000472078000703D4AA4501DB4FF0FF3A02
:100EF0000021B7F1004F0DF143088DF8431024D0C5
:100F000002202B23002F01DA7F422D230A21021E0B
:100F1000A0F1010000DC5FB197FBF1FC97FBF1F25F
:100F200001FB1C7C17460CF1300C08F801CDEEE7F4
:100F3000A8F1010003702188090501D5452100E0D1
:100F40006521A0F1010800F8011C09980FA9A1EB87
:100F50000807FF1D00B10120411901EBEA70A169EA
:100F60003844081A401EA0612078C00602D42046EA
:100F7000FFF787FA099828B1D4E901219047206A40
:100F8000401C20622078C00622D52046FFF779FA5F
:100F90001EE0002E04DBB34502DD01A8805D00E009
:100FA0003020D4E901219047206A401C2062761C41
:100FB000AAF101005FEA000A0AD100F003FAC06852
:100FC0000168405CD4E901219047206A401C2062FE
:100FD000281EA5F10105DCDC07E0D4E9012118F8A1
:100FE000010B9047206A401C2062381EA7F10107C0
:100FF000F3DC2046FFF75BFA032011B043E6000064
:1010000001694A1C02610878704700B58FB0CDE9CC
:1010100001310021059105497944CDE903101146BC
:101020006846FFF7BBFA0FB000BD0000E5FFFFFF09
:101030000A6802F8010B0A607047D1E900239A425E
:1010400002D2531C0B601070704710B5436913B186
:10105000AFF3008001E0FFF73BFA012010BD1278EA
:1010600000F124010A7000224A700122EDE71168A4
:101070004FF0FF32E9E700002DE9FF5F15468A4691
:101080000446DFF8AC80F8440027D8E900103E465B
:10109000CDE9001010E03AF816106A4602A800F0F8
:1010A00031FE411C07D02178890603D5E269391841
:1010B00091420DD80744761C2078800602D5E0695D
:1010C000B84205DDAE42E6DB3AF816000028E2D170
:1010D000A069C01BA0612046FFF7D3F9D8E9001032
:1010E000CDE90010002017E03AF818106A4602A86F
:1010F00000F008FEB0F1FF3F81460BD000250DF156
:10110000080B05E0D4E901211BF8050090476D1C90
:101110004D45F7D308F10100B0428046E4DB206A78
:10112000384420622046FFF7C2F9BDE8FF9F000067
:101130007E5400002DE9F0418046D21D22F00702C6
:101140000025D2E90002F52915A614D0011E72F17E
:10115000000106DA0023D0EB030063EB020211A6C4
:1011600008E0D8F800108B0701D50FA602E0490768
:1011700001D50EA601251146002408F1240704E03C
:1011800000F025F930323A55641C50EA0102F7D1DB
:101190002B46324621464046BDE8F041FFF7B5BC3C
:1011A000000000002D0000002B00000020000000C7
:1011B00030B4002100F1240408E002F00705D20851
:1011C000303542EA4372DB086554491C52EA030594
:1011D000F3D10468002310A2250708D504F02004E9
:1011E0000C4304D0C46901230CA2641EC46130BC4A
:1011F000FFF78BBC10B5044621461068FFF77CFC56
:1012000002462046BDE810400023D1E7D21D22F05F
:101210000701D1E90023CBE7000000003000000007
:10122000F0B40D460188090502D5214C7C4402E04A
:101230001F4C7C440E34002100F1240608E002F02B
:101240000F071209E75D42EA03721B097754491C34
:1012500052EA0307F3D102780023120704D5702D58
:1012600006D009B1022311342246F0BCFFF74DBC71
:1012700001231034F8E770B504460D462146106886
:10128000FFF73AFC024629462046BDE8704000239D
:10129000C6E7D21D22F00703D3E90023C0E70368A5
:1012A000126843F0200303600823C3610023B7E7FB
:1012B000E05200003A2800D2303820F02002412AC3
:1012C00001D3A2F13700884201D34FF0FF307047BD
:1012D000026811441378016018467047D1600549CF
:1012E0007944516104497944116200211161114628
:1012F00000F090BAEDFFFFFF6F010000426842B1BD
:10130000016811F8013B23B1521EC0E900121846D2
:1013100070470121C160881E704742685AB1C36896
:10132000016843B983688B4205D0491E521CC0E94D
:101330000012002070474FF0FF3070472DE9F04752
:1013400091460F4680460446002614F8015B2DB1F5
:1013500000F030F80068405DC007F6D12B2D02D0B8
:101360002D2D18D0641E4A463946204600F00CFC4C
:1013700027B13968A14201D1C7F800804FF00204BB
:1013800071050BD54042002803DDFFF7AAFB04607E
:10139000A007BDE8F08746F48066E4E70028F8DAA5
:1013A000FFF79FFB04606FF00040F2E700487047D2
:1013B000BC1D000210B500F005F8001D10BD00BFF7
:1013C000494F000010B5FFF7F1FF203010BD30B5D8
:1013D000B0F10A024FEA900E71F100034EEA817EED
:1013E000B0EB0E0061EB91014FEA101E4EEA017E58
:1013F00010EB0E0041EB11114FEA102E4EEA016E78
:1014000010EB0E0041EB11214FEA104E4EEA014E57
:1014100010EB0E0041EB1141401841F100014FEA81
:10142000D00040EA41704FEAD10110EB80054FEA4D
:10143000810444EA907444EB01046D1944EB040404
:10144000521BA3414FF0000348BF0A3200D530BD04
:10145000401C41F1000130BD10B50446FFF7AAFF62
:101460000068005D00F0010010BD00002DE9F04FA4
:1014700004460D46D21D22F0070089B0D0E9009243
:1014800048461746394603F0D1FB0246F80F01D013
:101490002D2307E02068810701D52B2302E02021BE
:1014A00001EAC0038DF820300BB1012000E00020DC
:1014B000032A824601D0072A04DB2946204600F091
:1014C00053F93DE12078800601D40D2500E0E5695F
:1014D000C7F30A560D2D49DA00214FEA175B08467B
:1014E0004FF00000002F00F4400007DA00EB80000E
:1014F0004FF4400100EBD07001EA60008115012932
:1015000001DD4FF0FF3100224FEA850CBCF1180FCE
:1015100006D31346ACF118004FF08052C24003E0EE
:101520004FF4801323FA0CF30CF10C0CBCF1200FD8
:1015300004D3ACF1200C09FA0CF001E007FA0CF02E
:1015400000294FF0004801DD18B90FE00ED14045E9
:101550000CD319EB02095F4121B9404502D19F43E9
:1015600029EA0209BBEB175F00D0761C2088000532
:1015700002D57B48784402E079487844193808AAB3
:10158000302302F80A30037C0AF10101002E0AF12F
:10159000020A53546A4602DC4FF0300101E04FF07A
:1015A00031014FF001088DF8001002D0A6F2FF368D
:1015B00003E059EA470100D06A4E002D02DC217891
:1015C000090704D54FF002082E218DF80110C446FA
:1015D00000210BE0C7F303433F01C35C491C6D1EB0
:1015E00002F80830052908F1010801DA002DF1DCC4
:1015F00000210CE000EB1973491C1B786D1E0829B3
:1016000002F808304FEA091908F1010801DA002D43
:10161000F0DC2178890602D514E0A8F10108E04544
:1016200005DD02EB080111F8011C3029F5D0B8F1F5
:10163000000F07DD02EB080111F8011C2E2901D172
:10164000A8F10108002D05DD3E2102F808106D1EED
:1016500008F10108407C002E02F8080008F101089A
:1016600004DA2D20764202F8080002E02B2002F86E
:1016700008000A214FF47A70864208F101080BDB5A
:1016800096FBF0F3303302F8083096FBF0F308F1E4
:10169000010800FB136601E0642E0CDB642096FB5E
:1016A000F0F3303302F8083096FBF0F308F101084C
:1016B00000FB136601E00A2E06DB96FBF1F03030EA
:1016C00002F8080008F1010896FBF1F001FB106038
:1016D000303002F80800A16908F1010808EB0502A2
:1016E00002EB0A00081AA0612078C00602D4204646
:1016F000FEF7C7FE216A08AE01EB0A00206204E093
:10170000D4E9012116F8010B9047BAF1010AF7D28A
:101710002078C00602D52046FEF7B3FE6E4609E0EB
:1017200016F8010B3E280FD0D4E901219047206A1A
:10173000401C2062B8F10108F2D22046FEF7B7FE45
:1017400009B00320BDE8F08F206A2844206203E03E
:10175000D4E90121302090476D1EEBD3F8E700005B
:10176000D34F000002FCFFFF2DE9F0411F46044665
:1017700003260168072A01F4006004DB08B116A5FE
:1017800005E016A503E008B115A500E015A521F0B8
:1017900010002060A069C01EA0610FB1401EA061B2
:1017A0002046FEF76EFE4FB1D4E90121384690473E
:1017B000206A401C2062C01C206206E0206AFAE712
:1017C000D4E9012115F8010B9047761EF8D2204686
:1017D000FEF76DFEBDE8F0814E414E006E616E0079
:1017E000494E4600696E660010B5436913B1AFF308
:1017F000008001E0FFF740FC012010BD128800F1DD
:10180000240182840022C2840122EDE711684FF096
:10181000FF32E9E72DE9F34F4FF0000A0C46564638
:101820008DB001200C9001F10C000B9062690B98B7
:1018300001219047051E2DD0252D2CD0216A8847E7
:10184000C0B162690B9801219047216A884700283E
:10185000F7D16269411E0B98904700E0761CA169A0
:101860000D988847216A88470028F7D1E1690D98CB
:101870008847DBE7A1690D988847A842074601D150
:10188000761CD3E7E1690D9888477F1C02D1BAF135
:10189000000F6FD06BE162690B9800273D46394617
:1018A00090472A2804D162690B98012190470125AD
:1018B000DFF8D08262690B9801219047A0F13001D6
:1018C0000A290AD24745E5DC07EB870100EB41070F
:1018D000303FDFD445F01005ECE7E90601D46FF0A6
:1018E00000476C280AD04C2814D0682815D06A28E4
:1018F0000DD074281CD07A281AD01DE062690B988C
:10190000012190476C2802D045F0040514E045F011
:1019100002050DE045F020050AE062690B980121FF
:101920009047682802D045F0080505E045F40065B9
:1019300062690B9801219047C4E9015765283DD0A1
:1019400019DC58287AD00CDC452837D004DC25284F
:1019500026D041289ED131E046282FD0472899D162
:101960002CE05B2877D0612828D063287CD06428BD
:1019700023D15AE0F6E06F2848D008DC66281DD055
:1019800067281BD0692821D06E2816D127E070283F
:1019900045D0732868D0752847D078280DD14DE000
:1019A000A1690D988847252805463FF469AFE1698C
:1019B0000D9888476D1C3FF46AAFD8E00D99234617
:1019C0006A466FF00100AFF30080C5E045F04000CB
:1019D00023464FF000026060A80736D43EE0E807D7
:1019E0007FF447AF2068011D21600068290501D5FB
:1019F00006701BE7290701D5068017E7A90703D55D
:101A0000F117C0E9006111E706600FE745F04000FB
:101A100023464FF008026060A80716D41EE040F687
:101A20000E0125EA0100606016E045F04000234603
:101A30004FF00A026060A80707D40FE045F04000AD
:101A40006060A80708D5234610220D996FF00100A9
:101A5000AFF3008080E007E0102223460D996FF07D
:101A60000100FEF77DFE77E04FF0000963284F4646
:101A7000C8464B46CB4602D05B2806D038E0E80685
:101A800001D40120A060012732E06269D4F80CB0D3
:101A90000B98012190475E2807D14FF00109494674
:101AA0006269D4F80CB00B989047216939B90021CC
:101AB0000A4603AB43F82120491C0829FADBD8B3B6
:101AC000216949B308F1010862690B980121904727
:101AD0005D28F4D1B9F1000F09D0002003A951F815
:101AE0002020D24341F82020401C0828F7DB03AB1C
:101AF0002069002820794FEA40701ED05B462246BC
:101B0000CDF80080CDE901970D9900286FF0010014
:101B100020DAAFF300801FE0C11703AA00EBD16108
:101B20004B1121F01F0102EB8302411A13680120BF
:101B3000884003431360C7E719E00D992246002847
:101B40006FF00100009702DAAFF3008004E0AFF31A
:101B5000008001E0AFF3008000280ADA401C06D1C3
:101B60000C9820B14FF0FF300FB0BDE8F08F504619
:101B7000FAE7E90701D10AF1010A064400200C90B6
:101B800054E60000CCCCCC0C2DE9F05F8246154623
:101B90008B4600270AF10104B9460078302801D0AD
:101BA0009DB113E014F8010B0127782803D05828C1
:101BB00001D045B10AE00DB1102D07D1002714F86E
:101BC000010B102502E0082500E00A250026B0469A
:101BD0000EE005FB080005FB06F101271FFA80F85F
:101BE00001EB1046B6F5803F00D3B94614F8010B5F
:101BF0002946FFF75FFB0028EBDABBF1000F05D0A9
:101C00000FB1641E00E05446CBF80040B9F1000F5C
:101C100006D0FEF766FF02210160C81EBDE8F09FF6
:101C200048EA0640FAE700002DE9F04781461646EB
:101C30008AB0334878440DC88DE80D0030487844A8
:101C4000801C03AC0DC884E80D0041F69B300844AD
:101C5000372190FBF1F290FBF1F5A5F1800501FB36
:101C600012041B3C02D56442012000E00020DFF892
:101C700090A080460027FA44AAF1BE0A0DE0E007D2
:101C800009D03246684607EB47010AEB810102F0B2
:101C9000BAF88DE8070064107F1C002CEFD1184FB4
:101CA0007F44AC3F18E0E80714D007EB04100DF1B7
:101CB000180A90E80E008AE80E00C068F04201D1D0
:101CC00098190890324606A903A802F09CF803ABC5
:101CD00083E807006D10641C002DE4D1324669468C
:101CE000B8F1000F03A802D002F079F801E002F089
:101CF0008AF8C9E90001C9F808200AB0BDE8F087F0
:101D0000A449000070B516460C460546FFF752FB85
:101D1000036893F80101012806D0FF2C0FD8185D45
:101D200068B101202C7070BDD3F8070132462146FE
:101D300003F2071303442846BDE8704018474FF0EC
:101D4000FF3070BD7546FFF731FBAE4605006946B2
:101D5000534620F00700854618B020B5FEF7A2FADA
:101D6000BDE820404FF000064FF000074FF000089C
:101D70004FF0000B21F00701AC46ACE8C009ACE81D
:101D8000C009ACE8C009ACE8C0098D46704710B581
:101D90000446AFF300802046BDE81040FEF76FBA5E
:101DA0004FF0013C50F8042B51F8043B9A4221D1EA
:101DB000A2EB0C03934313EACC1317D150F8042B76
:101DC00051F8043B9A4215D1A2EB0C03934313EA5A
:101DD000CC130BD150F8042B51F8043B9A4209D193
:101DE000A2EB0C03934313EACC13DBD04FF00000BB
:101DF000704700BFD01A01BAB1FA81F101F01801A1
:101E000022FA01F0CB40C1F12001DBB2C0B2C01A0E
:101E10002CFA01F3D11A914311EAC311E6D17047AC
:101E200001491820ABBEFEE726000200704710B53E
:101E300000F1280151E8002F12B9BFF32F8F04E001
:101E4000531E41E8003404B1F4E78AB12C3001217B
:101E50000BE0821CD2E84F3FC2E8441F04B1F9E70F
:101E600013F0FF0F08BF10BD083000680028F0D144
:101E7000002010BD84465CF8303F93B110B54FF0A0
:101E8000000E05E0CB78D4789C420FD2536896467A
:101E90001A46002AF6D10022C1E9012E00F12C02D7
:101EA00007E00022C1E90122C1620AE0C1E9012E76
:101EB0000832BEF1000F116018BF0EF1040CBDE82E
:101EC0001040CCF80010283050E8001F4A1C40E8B1
:101ED000002303B1F8E77047D1E9012C02F10803B0
:101EE000002A08BF00F12C03C3F800C0D1E901218A
:101EF0000B1D002908BF00F130031A607047000075
:101F0000014800680020704710E000E008480178B0
:101F1000012905D10021017006484FF08061016060
:101F20000548016841F0010101600020704700BFD1
:101F30001C1E000204ED00E010E000E04FF0FF3056
:101F40007047000040B10B490968B1FBF0F0411E39
:101F50000020B0EB116F02D04FF0FF307047064AFF
:101F6000FF231370054A06231360516004499060F3
:101F7000087070479C15000223ED00E010E000E0BF
:101F80001C1E000210B5930712D400F12803D007DD
:101F900018D153E8000F084203D1BFF32F8F002060
:101FA00005E020EA010243E8002404B1F1E710BD96
:101FB000806AD20700EA010315D1002B18BF10BDBB
:101FC000002010BD53E8000F00EA01028A4203D04E
:101FD000BFF32F8F002005E020EA010243E8002430
:101FE00004B1EFE710BD8B4218BF002010BD000008
:101FF00080B5124A4FF0000E02F1440C624606E032
:102000001A6991420BD3891A03F10C029E46136898
:10201000002BF5D10022C0E902E2016106E0C0E92F
:1020200002E3016198601A69511A1961BEF1000F4B
:1020300018BF0EF10C0CCCF8000080BDB8150002E2
:10204000C16839B102690B691A440A6150F8082F56
:102050008A6000E008300068044A00F10C030028A0
:1020600008BF02F144031960704700BFB8150002B1
:10207000EFF3058129B9EFF3108111B9EFF3118165
:1020800011B16FF005007047DFF804C000DF704742
:10209000152D0000EFF3148010F0010F08D0EFF3BE
:1020A000058028B9EFF3108010B9EFF3118010B15B
:1020B0000448007A7047DFF808C000DF704700BFAF
:1020C000292D0000B8150002EFF3058028B9EFF3C1
:1020D000108010B9EFF3118010B16FF00500704758
:1020E000DFF804C000DF7047352D0000EFF30580F6
:1020F00028B9EFF3108010B9EFF3118010B16FF031
:1021000005007047DFF804C000DF7047952E00001F
:10211000F8B50546EFF3058014460E4628B9EFF3EF
:10212000108010B9EFF3118000B36FF003001DB3FE
:1021300013BB0EB3297808291ED1687898B12846B8
:10214000FFF775FE074677B16A6A07F10C01304662
:10215000FEF704FC0CB1F87820703846FD6000F002
:102160006DFA002008E06FF0020005E0DFF80CC017
:1021700028463146224600DF01B0F0BD512F000055
:10218000EFF305832BB9EFF3108313B9EFF311834A
:102190000BB100207047DFF808C000DF704700BFB8
:1021A0003D3000002DE9F0410646EFF305809046F2
:1021B0000D4628B9EFF3108010B9EFF3118038B352
:1021C0006FF003070EB303BBFDB1307808281CD1B4
:1021D0007078C0B106F10C0000F0E0F8044694B14C
:1021E000726A04F10C002946FEF7B8FB40F20710B2
:1021F000002720802046A77084F80380C4E9015698
:1022000000F01CFA01E06FF002073846BDE8F081EB
:10221000DFF80CC030462946424600DFBDE8F081B9
:1022200061310000EFF305822AB9EFF3108212B991
:10223000EFF3118212B16FF005007047DFF804C0B0
:1022400000DF704725320000EFF3058129B9EFF375
:10225000108111B9EFF3118111B16FF005007047D2
:10226000DFF804C000DF7047B9320000EFF30581EA
:1022700029B9EFF3108111B9EFF3118109B10020F1
:102280007047DFF808C000DF704700BF8D330000E3
:10229000EFF3058129B9EFF3108111B9EFF3118143
:1022A00011B16FF005007047DFF804C000DF704720
:1022B000F5330000B0B5002380B379B3032A2DD8DD
:1022C00086460F315EF8084F21F0070C2346DEF8F2
:1022D0000440A3EB0E0524F003016D1A654505D2F9
:1022E0001C689E46002CF1D1002317E04368002CA7
:1022F000634443600CD0DEF8000041F80E0001EBAF
:102300000E004CEA02014160CEF80000864603E070
:102310004CEA0200CEF804000EF108031846B0BDE6
:10232000002200B3F9B1A1F1080C00F1080200216C
:102330001346634505D01A681946002AF8D10022D1
:1023400011E0DCF804304268002923F00303A2EB1B
:10235000030242604FF0010219BFDCF80000086080
:102360000020CCF804001046704708B1420702D0A4
:1023700000221046704700221829FAD311F00703F3
:10238000F7D11022C0E900120144A1F108028260D5
:10239000002241F8082CC2600122EAE708B3B0B578
:1023A000014604C951E8003F9A4202D8BFF32F8F7B
:1023B00004E05C1C41E8004505B1F3E701688B428D
:1023C000BDE8B0400DD200F1140151E8000F10B982
:1023D000BFF32F8F04E0026841E8002303B1F4E764
:1023E000704700207047B0B510B3C2688A421FD84A
:1023F00002698A421CD9021D52E8003F13B9BFF39B
:102400002F8F04E05C1E42E8004505B1F4E793B16C
:10241000143002680A60BFF35F8F50E8002F0B682A
:102420009342F6D140E8001404B1F2E70020B0BDB9
:102430006FF00300B0BD6FF00200B0BD8446002015
:10244000BCF1000F18BF002921D002B3FBB180B549
:102450004FF0000E02FB0130CCE9001ECCE9022354
:10246000CCE90403481EC1F1010E194600FB02FC31
:1024700004E088180EF1010E08600146BEF1000F5D
:10248000F7D1002043F80C000120BDE880407047E0
:10249000F8B50446607800285ED0A078A8B3E56857
:1024A0006878002858D028462146FFF715FD0020FF
:1024B00005F10C06214660703046FFF794FFA868CE
:1024C000002849D04078932846D13046FFF766FF70
:1024D0000446002C40D0284600F01CFA00210022BF
:1024E0000646002700F0B4FA304600F075FA0646BA
:1024F0006A6A04F10C00B168FEF730FA40F2071086
:102500002080A770F068E07027E0A568687818B3AD
:10251000A86810B3407883281FD1284600F0FAF944
:10252000002100220646002700F092FA304600F013
:1025300053FA06466A6A04F10C01B068FEF70EFA17
:10254000F06808B1E1780170677005F10C00214670
:10255000BDE8F840FFF747BFF8BD28462146BDE873
:10256000F840FFF787BC2DE9F041044600274FF003
:10257000010815E0E8786C69000711D52F76A86886
:1025800070B1284600F0C6F900210022064600F08E
:102590005FFAEE60F06AC5E90470F56285F81880AC
:1025A0002546002DE6D1BDE8F0810000F8B5224CAB
:1025B0004FF6FF7604F1560504F15A0727E0D7E8F5
:1025C0005F1F4A1C904200D80022C7E8532F03B176
:1025D000F5E788B2E16D51F82000002826D0017897
:1025E0000139062913D8DFE801F0041207120A0D99
:1025F0001000216E88470AE0616E884707E0A16EEF
:10260000884704E0E16E884701E0216F8847B4F80D
:102610005400D5E85F1F11B9BFF32F8F04E04A1EA5
:10262000C5E8532F03B1F4E73142C8D10020BDE81B
:10263000F84000F013B900BFB815000270B50146AC
:102640001948B0F8542000F15603D3E85F4FA24276
:1026500002D8BFF32F8F04E0651CC3E8565F06B1B4
:10266000F3E7A3B293421AD200F15803D3E85F4FC5
:10267000651CAA4200D80025C3E8565F06B1F5E7FD
:10268000C36DA2B243F82210417A002919BF01217B
:10269000817206484FF0805108BF016070BD022072
:1026A000BDE8704003F026BBB815000204ED00E061
:1026B00010B54178D1B18168C1B100F10C01D1E808
:1026C0005F2F12B9BFF32F8F04E0531EC1E8543FB0
:1026D00004B1F4E74FF6FF710A4207D000F01AF98F
:1026E00000210022BDE8104000F0B2B910BD00008A
:1026F000012141700F4990F9202001F11C0C243177
:1027000006E093F9201091420BDD03F108019C468D
:102710000B68002BF5D10021C0E9021C0CF1080167
:1027200005E003F10C01C0E9023CCCF808000860A8
:10273000704700BFB815000280B54A1C1AD0224A63
:102740004FF0000E02F12C0C624606E0DA6991426D
:1027500027D3891A03F110029E461368002BF5D186
:10276000C1610021BEF1000FC0E9041E18BF0EF1C7
:10277000100C25E01449002201F1300C634611468B
:102780001A6802F11003002AF9D14FF0FF32002934
:10279000C2614FF00002C0E9042118BF01F1100C22
:1027A0000EE0BEF1000FC0E9043EC16118BF0EF19A
:1027B000100CCCF8000003F1140CDA69511AD9613D
:1027C000CCF8000080BD00BFB8150002C3694169A4
:1027D0005A1C11D0DFF848C021B9DCF82C20824205
:1027E00018BF7047026922B15161D1691944D161A2
:1027F000416939B10A610EE0094A31B9136B83426C
:1028000003D07047CCF82C20704703690BB1596195
:10281000416919B10B610021416170471363704731
:10282000B8150002B0B50C4DEC6A1CB1E069013876
:10283000E06100D0B0BD204600F091F8204600F0E5
:10284000C1F824692CB1E0690028F4D0002060614F
:1028500000E00024EC62B0BDB8150002B0B5164926
:102860000546002D4C69087A0DD0022806D12CB1FE
:1028700094F9200095F92010814213DC2846BDE828
:10288000B04000F09FB84D6A022813D194B18DB1C9
:1028900094F9200095F920108142D8BFB0BD284698
:1028A00000F05DF82046FFF723FF2846BDE8B04062
:1028B00000F0AAB8B0BD00BFB815000210B50446BC
:1028C00000206070A07810F0020F0DD0C00605D473
:1028D0000F48216B406FFFF723FD05E00C48216B8B
:1028E000D0F88400FFF77FFDA078C00708BF10BDB7
:1028F0000749D1F8880020B12146BDE81040FFF714
:1029000072BDD1F880002146BDE81040FFF708BD38
:10291000B81500020146886830B18268002A8A60D2
:1029200000D0D1600021C1607047B9B191F920C0D9
:10293000826805E093F92020624509DB9A68184611
:102940001346002BF6D10022C1E90220083004E032
:10295000C1E90230816003F10C0001607047C16879
:1029600031B182688A60826802B1D1600021C160A1
:102970007047B0B5044625462878012803D1ED6894
:10298000002DF9D1B0BD2046FFF7E9FF28462146CA
:10299000BDE8B040FFF7C9BF10B5044660783328E2
:1029A00018BF10BD94F82320616A2046FFF7EAFAA9
:1029B000014629B120460022BDE8104000F048B889
:1029C00010BD000001460120487002481C30FFF78E
:1029D000ACBF00BFB8150002806B2030704700000C
:1029E0000748416939B1086B8A6B824204D9006893
:1029F000044A904200D17047012003F07BB900BF28
:102A0000B8150002A52E5AE20221417001498861E1
:102A1000FFF7E6BFB815000210B50C4C024660691E
:102A200088B1237A022B0CD1636A63B14270FFF73D
:102A300083FE04F11C00FFF76DFFFFF7E5FF0120A7
:102A400010BDFFF78CFF002010BD00BFB8150002BD
:102A5000B0B504461546A06B01622046FFF7B6FEEE
:102A600020461DB1BDE8B040FFF7F8BEBDE8B0405C
:102A7000FFF7A8BFB0B5FFF743FA194DE968286D15
:102A800001310028E96000D08047FFF7CBFE00202D
:102A9000FFF7E4FE296C11B3AA69A86B90421CBF32
:102AA000C5E90E21B0BDE96B11B10139E96316D159
:102AB000297A022913D16C6A8CB190F8200094F81D
:102AC000201081420BD12046FFF749FFA86BFFF78A
:102AD00079FF2046FFF798FF286CC5E90E40B0BD8E
:102AE000B8150002BCB50D480821D0E91820FFF741
:102AF00047FB0B4D0028E8640ED00A496C46296557
:102B0000214600224FF0FF33FFF702FB10B9DDE949
:102B100000108847E86CF3E7BCBD00BF7C6700008D
:102B2000B8150002292B000070B5144D6C6C1CB355
:102B300020690126013820611CE02069E0B9E068C5
:102B400008B1A1688160686404F1180100220023C3
:102B5000E86CFFF727FB18B10320214603F0CAF801
:102B6000E078012804D161692046FFF741FA00E0CE
:102B700066706C6C002CE0D170BD00BFB81500020F
:102B8000EFF305822AB9EFF3108212B9EFF3118245
:102B900002B36FF00302D8B1D1B90178052917D17A
:102BA000417899B10C30D0E85F1F11B9BFF32F8F76
:102BB00004E04A1EC0E8532F03B1F4E74FF6FF705C
:102BC0000022014208BF6FF0020201E06FF0020232
:102BD00010467047DFF804C000DF7047B1340000D2
:102BE000EFF305832BB9EFF3108313B9EFF31183E0
:102BF0000BB100207047DFF808C000DF704700BF4E
:102C000011350000EFF3058129B9EFF3108111B9F7
:102C1000EFF3118119B3B0B5D8B10178052918D1F6
:102C20004178C9B1C28900F10C01D1E85F3F9A42F5
:102C300002D8BFF32F8F04E05C1CC1E8554F05B1EB
:102C4000F3E7C28999B2914206D2FFF7F7FC002060
:102C5000B0BD6FF00300B0BD6FF00200B0BDDFF893
:102C600008C000DF704700BF91350000DFF804C0E6
:102C700000DFFEE7E9350000EFF3058028B9EFF348
:102C8000108010B9EFF3118008B100207047DFF811
:102C900008C000DF704700BF51360000EFF3058326
:102CA0002BB9EFF3108313B9EFF311830BB10020AD
:102CB0007047DFF808C000DF704700BF5D360000D6
:102CC000EFF3058CBCF1000F09D1EFF3108CBCF1D0
:102CD000000F04D1EFF3118CBCF1000F01D00020E4
:102CE0007047DFF808C000DF704700BF39380000C8
:102CF000EFF305822AB9EFF3108212B9EFF31182D4
:102D000012B16FF005007047DFF804C000DF7047B4
:102D1000B1380000014629B180B51320FFF77CFED1
:102D2000BDE88040002070470148007A704700BF2E
:102D3000B81500022DE9F843534F387A012800F006
:102D40009F8040B907F108009C21FDF7A0FE4F4E7F
:102D5000706D482802D24FF0FF3092E0F1684FF0DA
:102D6000FF30002900F08D80328A002A00F089802F
:102D7000A7F85420F965B068D6E90B4138642046BD
:102D8000FFF7F3FA08B1C7F88040D6E90541DFF84C
:102D90000091D6E907582046C847D7F88010002888
:102DA000284618BF214679674146C847D7F88010A2
:102DB000002818BF2946B967D6E909412046C84707
:102DC000D7F88010002818BF2146746BF96744B10A
:102DD0002168D4E902232046FFF730FB08B1C7F889
:102DE0008440B46B44B12168D4E902232046FFF744
:102DF00025FB08B1C7F88840F46B44B12168D4E9D9
:102E000002232046FFF71AFB08B1C7F88C40346C48
:102E100044B12168D4E902232046FFF70FFB08B133
:102E2000C7F89040746C44B12168D4E9022320466D
:102E3000FFF704FB08B1C7F89440B46C44B12168B3
:102E4000D4E902232046FFF7F9FA08B1C7F8984001
:102E5000F46C44B12168D4E902232046FFF7EEFA6E
:102E600008B1C7F89C40346D44B12168D4E902230D
:102E70002046FFF7E3FA08B1C7F8A04001203872F6
:102E8000002001B0BDE8F083B81500027C670000A7
:102E90006B230000B0B5284C207A012836D1A06AF7
:102EA00040B926480021826D254800F0D7FB002854
:102EB000A0622BD0214D686E48B1A06C38B9EA6D84
:102EC0002048002100F0CAFB0028A0641ED01E4844
:102ED000FF218175817D026881F0FF01C2F302222A
:102EE000B1FA81F1C1F120018A4228BF511CFE22B2
:102EF00002FA01F1C17468681449FFF723F828B990
:102F0000FFF71CF82061FFF701F810B14FF0FF3018
:102F1000B0BD04F11C00FFF7FDFC0028F6D0FFF760
:102F200073FD2878C0070CBF0320022080F31488AB
:102F3000022020720020B0BDB81500027C6700009E
:102F4000F75C0000E52A00000CED00E07D030000C6
:102F50002DE9F8430446994690460F466FF0030565
:102F6000002C65D0002F63D02078082860D16078CD
:102F7000002859D02046FEF75AFF0646002E40D0C2
:102F800020463146FEF7A8FF626A06F10C0138467A
:102F9000FDF7E4FCB8F1000F04F10C074FF0000559
:102FA00031461CBFF07888F8000075703846FFF78E
:102FB0001AFAA068E0B34078932838D13846FFF772
:102FC000EDF9064600259EB32046FFF7A3FC00213D
:102FD00001220746FFF73CFD3846FFF7FDFC074698
:102FE000626A06F10C00B968FDF7B8FC40F2071000
:102FF00031463080B570F868F0702046FEF73AFF31
:1030000016E0B9F1000F0FD00B4841692046FFF7D9
:103010008CFC83204946FFF7FFFCEFF309806FF03B
:103020000105C0E9027803E06FF0020500E0002529
:10303000284601B0BDE8F083B81500022DE9F84F2D
:1030400004460D46002764B15DB105F10F01B4FAE5
:1030500084F021F00306B6FA86F10844202804D251
:103060000027384601B0BDE8F08F06FB04F95AB1DD
:103070009068D2F800A0D2E9048180B18307EFD133
:10308000D268342AECD30DE04FF0000A4FF000086C
:103090003149D1F8A00078B1FFF780F912E0D26889
:1030A000002ADDD1B8F1000F3BD000274945D8D325
:1030B00018F0030137D0D4E7D1F880003421012281
:1030C000FFF7F8F80746002FCAD04FF0010BB8F110
:1030D000000F0FD1204849460022C06FFFF7EAF8E1
:1030E0008046B8F1000F24D040464946FDF7ADFCBC
:1030F0004BF0020B4FF4847087F802B02146324641
:10310000434638800020C7E901A0C7E90950C7E954
:103110000B0007F10C00FFF791F90F480F49016709
:103120009FE700299CD10028B2D04FF0000B074642
:10313000CDE70948BBF1000F3FF492AF0146D1F84B
:10314000A00018B13946FFF74EF989E7D1F88000A1
:103150003946FFF7E5F883E7B8150002912400002F
:103160002DE9F8430646994690460D466FF0030751
:10317000002E51D0002D4FD0307808284CD17078D7
:10318000002847D0B068D0B14078832817D13046A6
:10319000FFF7C0FB0021012204460027FFF758FC7F
:1031A0002046FFF719FC0446726A2946A068FDF71D
:1031B000D5FBE06880B380F8008000272CE006F1A2
:1031C0000C00FFF7EBF804468CB1726A04F10C00B6
:1031D0002946FDF7C3FB40F2071000272146208057
:1031E0003046A77084F80380FEF744FE14E0B9F17E
:1031F000000F0FD00A4841693046FFF796FB932035
:103200004946FFF709FCEFF309806FF00107C0E9B9
:10321000025801E06FF00207384601B0BDE8F083C4
:10322000B815000270B5044622480E46456955B3EC
:1032300034B32078042823D16078C0B3207E28B32B
:10324000E17811F0010F02D0E268AA422BD076B3E8
:1032500088070AD5E06895F9201090F920208A4265
:1032600003DA80F82010FFF784FB20462946FFF799
:103270005CFB53203146FFF7CFFB6FF0010070BDC0
:103280006FF0030070BD4FF0FF3070BDE5600021AE
:10329000E86A0028C4E9041000D00461EC6201204F
:1032A0002076002070BDFF2801D00130F8E76FF0D4
:1032B000020070BDB815000210B50446002C55D0B0
:1032C0002078042852D16078002852D00020607005
:1032D000207E00283FD0D4F814C0E068BCF1000F75
:1032E00000F12C031CBF2269CCF8102021691A467A
:1032F000002918BF01F11402C2F800C0E178890763
:1033000023D590F821C00AE0936833B193F92030B7
:103310004FFA8CF18B42C8BF9C4602F114031A6825
:10332000002AF1D190F820205FFA8CF18A420CD06B
:1033300080F820C0FFF71DFB07E02046FFF7EAFA00
:103340006FF002010022FFF783FBA0680028F4D190
:103350000020FFF783FAA078C00712D00A49D1F8FD
:10336000940048B12146FFF73EF80AE06FF00300F1
:1033700010BD6FF0020010BDD1F880002146FEF7AD
:10338000CFFF002010BD00BFB815000270B558B1C6
:10339000D0E90065846884B1A10727D1C168002005
:1033A0001C2938BF70BD14E0002500261049D1F853
:1033B000940028B1FEF7F2FF08E0C068B0B9F5E765
:1033C000D1F880001C210122FEF774FF04466CB185
:1033D0000120A0704FF482701121208004F10800B8
:1033E000E5706660FDF753FB204670BD002070BDA0
:1033F000B815000270B504462C48406970B154B14C
:103400002178042907D1617811B1E168814209D09E
:103410006FF0020404E06FF0030401E04FF0FF34AA
:10342000204670BD217E0029F2D0013911F0FF0F36
:10343000217601D00024F3E7616909B122690A61AC
:10344000236900F12C052A46002B18BF03F1140252
:103450001160E178890711D590F8211009E093688F
:103460002BB193F920304DB2AB42C8BF194602F1DF
:1034700014052A68002AF2D180F82010A06878B1DB
:103480002046FFF747FA0021002205460026FFF7F5
:10349000DFFAE560E86AC4E904600120EC622076A6
:1034A00000200024FFF7DAF9BAE700BFB8150002E0
:1034B000B0B50C4618B30178052920D1417809B37D
:1034C00000F10C01D1E85F2F12B9BFF32F8F04E098
:1034D000531EC1E8553F05B1F4E74FF6FF710A42AC
:1034E0001CBF0020B0BD6CB108494969FFF71DFA47
:1034F00063202146FFF790FA6FF00100B0BD6FF036
:103500000300B0BD6FF00200B0BD00BFB8150002EF
:1035100070B504464FF6FE730D460021601E9842BA
:1035200098BFA54201D9084670BD4AB19068166897
:1035300070B1810725D1D2680021102AF3D312E09F
:1035400000261149D1F8980028B1FEF727FF08E0BE
:10355000D068B0B9F5E7D1F8800010210122FEF75C
:10356000A9FE70B10121817040F20511074A018066
:103570000021C0E9016104498581C4818A66014650
:10358000D1E70021CFE700BFB8150002B126000047
:10359000B0B568B1017805290AD1417801B38168D5
:1035A00049B1FFF7B7F900210122FFF751FA15E001
:1035B0006FF00300B0BDC28900F10C01D1E85F3F9C
:1035C0009A4202D8BFF32F8F04E05C1CC1E8554F2C
:1035D00005B1F3E7C08999B2814201D20020B0BDA4
:1035E0006FF00200B0BD0000B0B5184D6C6964B357
:1035F000E06AFEF7B8FFA06918B100210022FFF7CA
:1036000027FA287A022820D1686AF0B1EFF30980FE
:10361000A06305F11C00FFF77DF9FFF7F5F9002025
:103620006861E078C00701D0A06920B12046BDE8FC
:10363000B040FFF743B90020E06004206070686B81
:103640000028A06000D0C4606C63B0BDB815000253
:1036500001484069704700BFB81500022DE9F84FD6
:1036600005468846002D00F0D98072B1D2E9044B9E
:10367000D2F81890D2E900A79668AEB1B00740F032
:10368000CD80D068442813D2C8E04FF01809002735
:1036900000244FF0000B4FF0000A6249D1F8880077
:1036A000C0B1FEF77BFE1BE0D068002840F0B6807A
:1036B00044B10020BBF1000F00F0B18014F007010D
:1036C00040F0AD80B9F1000F1FD0A9F101003728FB
:1036D0001DD9A3E0D1F8800044210122FEF7EAFDC4
:1036E0000646002E00F09A80CDF800A04FF0010AA7
:1036F00084BBBBF1000F1CD04A4859460022406FE2
:10370000FEF7D8FD04461CBB78E04FF01809BBF16A
:10371000000F07D00020BBF1480FC0F080801BF0E5
:1037200007017CD1002EB8D0CDF800A04FF0000AE0
:10373000DEE73C483C49D0F88400D1F854B000287A
:10374000DAD0FEF72BFE0446002C57D04AF0100AC0
:103750004AF0020A40F2011086F802A018213080D7
:103760000098F770706006F10800FDF790F9FD20F1
:1037700086F8219086F8209086F82200002086F8AE
:103780002F00C6F82B00C6F82700C6F8230004EB6C
:103790000B00C6E90C4B4038C6E90E0523482060F3
:1037A00021480078400701D4B06B0FE01120221DA2
:1037B0004FF0CC33A0EB9B01ABF1400020F00300B5
:1037C000204401E008C201310029FBD10021002280
:1037D00002E040F8221001320D2AFAD114494FF0CC
:1037E0008072C0E90D15C263C0F820800D481149F0
:1037F00001663046FFF732F8304610E0BAF1000FAC
:103800000CD00849D1F8880018B13146FEF7EBFD1D
:1038100004E0D1F880003146FEF782FD002001B0BF
:10382000BDE8F08FB81500027C670000A52E5AE2B3
:103830006D2C000099290000F8B505460E46144687
:1038400000217DB3012E2DD84BB198681F6870B14F
:10385000810726D1DA680021202A13D222E000272E
:103860001249D1F88C0028B1FEF798FD08E0D8681D
:10387000B8B9F5E7D1F8800020210122FEF71AFD42
:1038800078B1012181704FF4817101800021C670EF
:10389000C0E90171C0E90311C0E905150146C46121
:1038A00000E00021084601B0F0BD00BFB8150002DD
:1038B000B0B505460C466FF00300DDB1D4B12978F0
:1038C000022918BFB0BD687802280BD0012806D1A4
:1038D0000948006D18B102206C61687005E06FF056
:1038E0000200B0BD2846FEF7ABFB28462146FEF796
:1038F0007FFB0020B0BD00BFB81500025FEA400C9E
:1039000008BF91F0000F4FEA8C234FEAC12243EA2F
:1039100051514FEA1C5018BF00F5F0404FEA3000FB
:1039200018BF41F000415FEA6C5C00F02980BCF1F7
:10393000FF3F08BF40F080407047130C06BF1204E1
:103940004FF0100C4FF0000C130E04BF12020CF1DC
:10395000080C130F04BF12010CF1040C930F04BFE9
:1039600092000CF1020CD30F04BF52000CF1010CB9
:1039700011464FF00002A0F11F00A0EB0C007047B1
:1039800011F0004F08BF704731F000413FF4D5AF50
:103990000B0C06BF09044FF0100C4FF0000C0B0E7F
:1039A00004BF09020CF1080C0B0F04BF09010CF154
:1039B000040C8B0F04BF89000CF1020CCB0F04BF69
:1039C00049000CF1010CCCF12003A0EB0C0022FA11
:1039D00003F302FA0CF241EA030100F1010070471F
:1039E00020F07F4C80EA030023F07F47ACEB070315
:1039F00003F57C5300F0004003F1FF032DE98049FB
:103A00004FEA154B09B44FEA144325EA0B4E24EA5A
:103A100003480FF2042606EB132749083E785FEAB5
:103A2000320203FB0667C7F5000707FB06F64FEAFD
:103A300054374FEAD64606F1020607FB066CCCF176
:103A4000005C4FEA1C472CEA074C07FB06F40CFB12
:103A500006F504EB15464FEA961634BF00204FF0EA
:103A600000404FEAD13706FB07FC4FEA1C4C0CFB29
:103A70000BF7D21B03FB0CF761EB07010CFB0EF7F6
:103A8000B0EB074072EB17420CFB08F734BFA2EB18
:103A90000742B2EB074261EB17414FEA0C444FEA91
:103AA000910706FB07FC4FEA1C4C0CFB0BF7B0EB35
:103AB000C74072EB573203FB0CF734BFA2EBC7428F
:103AC000B2EBC74261EB57310CFB0EF7B0EBC7000E
:103AD00072EB57720CFB08F734BFA2EBC702B2EBD4
:103AE000C70261EB5771039F4FEA816141EA92116E
:103AF00004EBCC044FEAD1374FEA826206FB07FCA5
:103B000042EA90124FEA80604FEA1C4C0CFB0BF724
:103B1000D21B03FB0CF761EB07010CFB0EF7B0EBBC
:103B2000074072EB17420CFB08F734BFA2EB0742C9
:103B3000B2EB074261EB17414FEA8C554FEA910710
:103B400004EB9C2406FB07FC4FEA1C4C0CFB0BF718
:103B5000B0EBC74072EB573203FB0CF734BFA2EB5C
:103B6000C742B2EBC74261EB57310CFB0EF7B0EB2B
:103B7000C70072EB57720CFB08F734BFA2EBC70209
:103B8000B2EBC70261EB577115EB4C254FEA81612F
:103B900041EA92114FEA82624FEAD13742EA90122B
:103BA00006FB07FC44F100044FEA80604FEA1C4C1E
:103BB0000CFB0BF7D21B03FB0CF761EB07010CFBB3
:103BC0000EF7B0EB074072EB17420CFB08F734BF5F
:103BD000A2EB0742B2EB074261EB174115EB1C1554
:103BE0004FEA813141EA92414FEA823242EA904201
:103BF0004FEA80304FEA0C7644F1000448EA034370
:103C00004EEA0B484FF0000EB2EB080C71EB0307C5
:103C100024BF624639464EEB0E0E4FF0000B0018E3
:103C2000524149414BEB0B0BB2EB080C71EB030714
:103C30007BF1000B24BF624639464EEB0E0E4FF06F
:103C4000000B0018524149414BEB0B0BB2EB080C37
:103C500071EB03077BF1000B24BF624639464EEB44
:103C60000E0E51EA020718BF46F0010616EB0E765B
:103C700055F1000254F1000103D5BDE88901BDE80A
:103C80000088BDE88901BDE80048B619524141EB02
:103C90000101A3F10103704780807F7E7D7C7B7AE8
:103CA0007978777676757473727171706F6E6E6DE8
:103CB0006C6C6B6A6A69686867666665646463638E
:103CC00062616160605F5F5E5E5D5D5C5C5B5B5A14
:103CD0005A59595858575756565555555454535381
:103CE00052525251515050504F4F4F4E4E4D4D4DDC
:103CF0004C4C4C4B4B4B4A4A4A4949494848484727
:103D00004747474646464545454444444443434364
:103D10004342424242414141002B26D4770021D008
:103D20001CB54FEA370703B44FF010004FF01001F5
:103D30004FF000000FBCBDE810400BF1010BBBF1D0
:103D4000010F08BF5FEA170722BF12F1010211F14C
:103D500001014FF0004143F1000300F0004043EA4D
:103D600000007047F9D35708DAE746EA064613F130
:103D7000400F4FEA16461FDD13F1200FDFBF164339
:103D80000A46002120335B42C8D0C3F1200746EA2F
:103D9000064602FA07F74FEA164646EA0706C3F157
:103DA000200722FA03F201FA07F721FA03F14FF094
:103DB000000342EA0702B1E746EA020646EA06467F
:103DC0004FEA164646EA0106BCBF46EA0646360CEE
:103DD0004FF000034FF000024FF000019EE72DE985
:103DE000C048934630B491E8380007C831EA400C27
:103DF00048BF34EA430C03D5FFF7F2FDFFF78CFF11
:103E0000F0BCBDE800882DE9C048934630B491E885
:103E1000380007C810F0804F08BF13F0804F03D15F
:103E200000F005F8FFF778FFF0BCBDE8008820F04F
:103E30007F4780EA030023F07F4C07EB0C03A3F5D8
:103E40007C5300F00040A3F1FE0392F0000F00F05D
:103E5000B38095F0000F00F077802DE901494FEA1B
:103E600011404FEA144621EA004800FB06FC24EA10
:103E7000064708FB06F607FB08F800FB07F718EBF8
:103E800006484CEB164C4FEA124B18EB07484FEA2A
:103E900015464CEB174022EA0B4E0BFB06FC25EABD
:103EA00006470EFB06F607FB0EFE0BFB07F71EEBA5
:103EB000064E4CEB164C4FF000061EEB074E4CEB3B
:103EC000174B18EB0B0840F1000018EB0E0B58EBEA
:103ED000000840F100008F1A4FF000013CBFC943B9
:103EE000661B14BFB5EB040C00213CBFC943F61B95
:103EF0004FEA17444EEA8E0E27EA04454FEA1C4764
:103F000004FB07622CEA074C05FB07F70CFB05F6E0
:103F100004FB0CFC16EB074642EB174216EB0C4673
:103F200042EB1C421BEB060658EB0202414146EAFB
:103F30009E0601D5BDE80189B619524141EB010148
:103F4000A3F10103BDE801894FEA14454FEA114787
:103F500024EA054621EA074C05FB07F406FB07F7B0
:103F60000CFB06F105FB0CFC11EB074144EB17447D
:103F70004FEA124711EB0C4144EB1C4422EA074C78
:103F800005FB07F206FB07F70CFB06F605FB0CFC2E
:103F900016EB074642EB174216EB0C4642EB1C456C
:103FA0006A1854F1000148BF7047B619524141EBFD
:103FB0000101A3F10103704795F0000F37D04FEADC
:103FC00011424FEA144721EA024624EA074C02FB59
:103FD00007F106FB07F70CFB06F402FB0CFC14EBE5
:103FE000074441EB17414FEA154714EB0C4441EBF2
:103FF0001C4125EA074C02FB07F506FB07F70CFB03
:1040000006F602FB0CFC16EB074645EB174516EBD4
:104010000C4645EB1C42121951F1000148BF704794
:10402000B619524141EB0101A3F1010370474FEA78
:1040300014454FEA114724EA054621EA074C05FBDF
:1040400007F106FB07F70CFB06F24FF0000605FB35
:104050000CFC12EB074241EB174112EB0C4251EB07
:104060001C4148BF7047921841EB0101A3F10103C5
:104070007047000030B500214FF08044A06EC000B2
:1040800024D5144D01EB410055F83020A24219D13E
:1040900005EBC000027904EB8202126A8260002AFA
:1040A00010DA4369C2F30B1213444361C268521C15
:1040B000C2600A2A06D30A22B3FBF2F2026100228E
:1040C0004261C260491CC9B20529DBD34FF0805060
:1040D000A06630BD2015000270B50021174DA86EF6
:1040E000C00027D5164E002401EB410056F83020C1
:1040F000AA421BD106EBC000027905EB8202126ACC
:104100008260002A10DA4369C2F30B121344436140
:10411000C268521CC2600A2A08D30A22B3FBF2F218
:1041200002614461C46001E04461C460491CC9B2D9
:104130000529D9D34FF08050A86670BD0000084013
:104140002015000200F030B870B504460D46B4F1F9
:10415000804F0DD04FF4006000F058FB1C2000F0A1
:104160005BF81C2000F028FB00206066256070BD15
:104170004FF4806000F04AFB1B2000F04DF81B203C
:1041800000F01AFBF0E770B504460D4600F0AEF8FB
:10419000B0FBF5F101B90121491EC8B2216821F037
:1041A000FF010143216070BD426E22F078420A4354
:1041B0004266704700EB8100816821F07C711143F9
:1041C0008160704710B50446206840F08040206050
:1041D000206820F48070206004492046FFF7D3FF58
:1041E000206820F48060206010BD000020A107003E
:1041F00008490122202806D351F8C83F20388240C0
:1042000093430B60704751F8C43F824093430B6067
:10421000704700000040074008490122202806D3CB
:1042200051F8C83F2038824013430B60704751F863
:10423000C43F824013430B607047000000400740BA
:1042400004480068C0B2002801D000F01FB800F098
:1042500003B8000084400740002008490968C9B23B
:10426000002905D0012905D0022900D10448704752
:1042700004487047044800687047000080400740C9
:10428000D8AC0700001BB700F463000000200A4907
:104290000968C9B2002908D0012908D0022908D02C
:1042A000032901D1054800687047FFF7D5BF00F02A
:1042B00027B800F02BB8000084400740F8630000E6
:1042C00000F03F02521C01FB02F0704710F00300A7
:1042D00003D0012803D000207047024870470248ED
:1042E00000687047001BB700F463000010B5FFF7CB
:1042F000A7FF02490968B0FBF1F010BDC0400740BC
:1043000001480068FFF7E2BFA040074010B5FFF783
:10431000F7FF014602480068BDE81040FFF7D0BF34
:104320009841074070B50F4DD5F8D040002C17D0FC
:10433000FFF786FFB0FBF4F00021D5F8282192B2F8
:10434000D34313F0FF0F0AD1C2F30722090241EA57
:104350001061000202F580720023FCF71BF870BDAB
:10436000002070BD004007400649042804D3001F08
:10437000C0B2C1F884007047C0B241F8800F00207D
:10438000486070470040074070B504460E46FFF78E
:1043900057FFB0FBF4F303B90123DAB20D4DC5F8B2
:1043A000D02000217EB104FB130004FB03F2010EB8
:1043B00000020023FBF7EEFF0006000C40F0FF00B8
:1043C000C5F8280101E0C5F82811BDE87040FFF7E5
:1043D000A9BF000000400740044A116821F4405181
:1043E00000F0030041EA00301060704724410740AC
:1043F00010B50E20FFF710FF0F20FFF70DFF102064
:10440000FFF70AFF0B20FFF707FF0B24204600F001
:10441000AFF92046BDE8104000F0BCB900EB8100C8
:104420000121914000F50050002B03D002680A439F
:104430000260704702688A430260704770B50446A4
:104440000D46FFF7FDFE0246606980B2401C6843DE
:10445000B2FBF0F14808A1EB5101891E801E01F06A
:10446000070100F0070041EA0010606270BD10B55E
:104470002D20FFF7D1FE2D24204600F079F92046AB
:10448000BDE8104000F086B910B500EBC10341F45F
:104490008054C3F804430124C3F8004300EBC20373
:1044A000C3F8004504FA01F1C3F80415836D520006
:1044B000032191408B43944023438365426D8A439B
:1044C000426510BD70B504460D46FFF70FFFB0FB07
:1044D000F5F0616841F004116160616841F0081114
:1044E00061600021E164C4F80011C4F800024FF4D7
:1044F0008050C4F804030120C4F800030148206080
:1045000070BD00000100020010B5C0F38334A41F89
:104510002234E0B2FFF780FEE4B2204600F028F932
:104520002046BDE8104000F035B90A7802F00F02CD
:10453000426042684B7803F00F0342EA0312426084
:1045400042688B7803F00F0342EA03224260C97885
:10455000002906D04268491E01F00F0142EA0131EC
:104560004160704710B50949884207D12A20FFF7FA
:1045700053FEBDE810402A2000F028B92920FFF79B
:104580004BFEBDE81040292000F020B900C00440D7
:1045900070B506460C46BC20B0606069217E40F4D0
:1045A0000012304600F07EF80020E060606012E00B
:1045B000B568A80705D58A4203D22146304600F0E7
:1045C000E4FAE80707D0D4E90301884203D2214680
:1045D000304600F0D1FA626821698A42E8D3E06887
:1045E0008842E5D3B06810F00C0F01D0002070BDF8
:1045F000606870BD70B505460C46BC20A860606957
:10460000217E40F40012284600F04CF80020E060C3
:1046100060600DE0A8688007FCD52146284600F0C0
:10462000E4FAA868C007FCD02146284600F0A4FAA6
:10463000D4E903018842EDD3A86810F00C0F01D033
:10464000002070BDE06870BD521E03F4702302F0BC
:104650000F0243EA02620A4342F44011816170474B
:1046600010B5026802F00102002A05D0026840F687
:10467000BC7302EA030202604A788B784C6842EA13
:1046800003020B7843EA040342EA03020260098949
:1046900041624FF0BC01816003D0016841F001012B
:1046A000016010BD044B1A40491E01F00F0142EA9F
:1046B000016101627047000000007F0F70B5054680
:1046C0000C46BC20A8606069217E40F4C0022846E8
:1046D000FFF7E8FF0020E060606006E0A868800760
:1046E000FCD52146284600F064FA216960688842BA
:1046F000F4D3A8688006FCD52020A860A86800072D
:1047000001D5002070BD606870BD000000F01F0181
:10471000C009820004481044D0F8C02101238B4016
:104720009A43C0F8C02170470080034010B50207CB
:10473000520E00098300054818440368FF24944082
:10474000A34391401943016010BD00000080034065
:1047500002EB4111C9B2FFF7E9BF02EB4111C9B247
:10476000FFF7E4BF02EB4111C9B2FFF7DFBF000062
:1047700007490123202805D38A6C203883401A4337
:104780008A6470474A6C83401A434A647047000049
:104790000040074007490123202805D38A6C2038B0
:1047A00083409A438A6470474A6C83409A434A64C0
:1047B000704700000040074010B504462046FFF750
:1047C000D7FF2046BDE81040FFF7E4BF10B5044610
:1047D0002046FFF7CDFF2046BDE81040FFF7DABFC7
:1047E00010B504462046FFF7C3FF2046BDE8104041
:1047F000FFF7D0BF034B1968034A1140104008432C
:10480000186070470842074078FFFF01034B1968A2
:10481000034A114010408143196070470842074025
:1048200078FFFF0170B51020FFF7F0FF0820FFF7B9
:10483000EDFF0020104CC4F8A0004FF4800528467E
:10484000FFF7D8FF0521022060F39F11C4F89811EB
:104850002846FFF7DBFFD4F89C01C0F300000028D6
:10486000F9D00120C4F8C0000220FFF7B5FDBDE873
:1048700070400620FFF778BD00400740FFF7D2BF29
:1048800070B505460E461446A86840070DD521466A
:10489000284600F06FF8E0682169884201D10121C3
:1048A00000E0002109B10420286131462846BDE816
:1048B000704000F021B8000010B50446204600F01A
:1048C00009FEFFF7A9FC0A48844204D1BDE8104064
:1048D0003120FFF785BF0748844204D1BDE810406E
:1048E0003220FFF77DBFBDE810403320FFF778BFCF
:1048F000000004400040044038B504460D4605E081
:10490000606900906946284600F0B4F8A068C007C6
:10491000F6D138BD084611461A4600F0EFB810B57A
:104920000346002003E011F8014BDC61401C90427B
:1049300002DA9C686407F6D410BDF0B507460D4650
:104940001446002607E0224629463846FFF7E7FFCF
:10495000241A06440544002CF5DC3046F0BD70B541
:1049600005460C46FFF7DEFC2101B0FBF1F1491EC4
:10497000296270BD38B504460D4602E09DF800007E
:10498000E061A068400705D56946284600F09DF81B
:104990000028F3D138BD0000F0B5436903F26C7311
:1049A00000229C0705D000241C4E1D4F40F26C7560
:1049B00006E00124F8E79C070ED03A4400245B1E71
:1049C000AB42F8DCC7687F1E06690023154D04EB77
:1049D000440405EB84040AE032440124EFE7E55C7B
:1049E00040F2A32C05FB0CF502EBC5125B1CB34295
:1049F000F5D340F2A3235F4302EBC7138268C2EBF7
:104A00004214C4EB022203EB02134268C2EB02120F
:104A100003EB8202006810440860F0BD0085E201EB
:104A20008033E101A01500020D2108A000F02EFD49
:104A3000BFF34F8F09480168094A01F4E06111434F
:104A40000160BFF34F8F00BFFDE7000048415244B3
:104A5000204641554C54210D000000000CED00E0B3
:104A60000400FA0501604360826000210161C160B9
:104A70000120704770B504460E462568204600F0B8
:104A80001AF808B1002070BD6168E068491EA2688C
:104A9000084000FB02503146FBF760FFE068401C15
:104AA000E060012070BDC1680069814201D1012030
:104AB000704700207047C1680269891A40688142C6
:104AC00001DB012070470020704770B504460E4698
:104AD00025682046FFF7E7FF08B1002070BD616838
:104AE0002069491EA268084000FB02513046FBF7CE
:104AF00035FF2069401C2061012070BD2DE9F04781
:104B000004460F469146D4F800802046FFF7CBFFBD
:104B100010B10020BDE8F087E0682169451A2A46F7
:104B200060682169431E19404B19834200D3451A1E
:104B3000561B4D4500DB4D46A9EB0500864200DBC8
:104B40000646A26801FB02816A433846FBF706FF6E
:104B50002069284420616168A268491E08402168D4
:104B600000FB021105FB02707243FBF7F7FE2069A0
:104B700030442061A819CDE74069D1E9022322F829
:104B80001300C868401CC860704710B50C46D4E9D3
:104B90000012236931F812105B1E9A4204D1227E62
:104BA0006369FFF751FD00E0C1616068401C60600F
:104BB00010BD10B50C69D1E90023641E32F8132032
:104BC000A3420DD10B7E4C695B1E04F4702403F0EC
:104BD0000F0344EA0363134343F4E002826100E0FD
:104BE000C2614868401C486010BDD1E90332521EC2
:104BF000934204D10A7E4B69FF21FFF725BDFF21B7
:104C0000C161704710B5FFF771FB0149086010BD25
:104C10009C150002FFF732BE024A034802F114015C
:104C2000FFF72EBE941C000200000440490050EA29
:104C3000C12018BF04204A0D18BF40F0010040F207
:104C4000FF72B2EB515F08BF40F00200012808BFBD
:104C500005207047002809DB00F01F020121914068
:104C60004009800000F1E020C0F80011704700000A
:104C700070B501F041F880B1FDF7FEFF0146002458
:104C8000104D05F5F07050F8242042B18A420DD144
:104C900004EB440005EB401070BD0B4870BD40F8BC
:104CA000241004EB440005EB401070BD641C042C80
:104CB000E9D302D1042001F01DF804EB440005EB18
:104CC000401070BD40100002C011000230380A28A8
:104CD00001D2012070470020704710B5044601F052
:104CE0000BF8002806D02068BDE810404FF0FF31D7
:104CF000FDF798BA10BD0068FDF7A6BA10B50446D6
:104D00000020FDF7B3FA206008B1012010BD214654
:104D1000052000F0EFFF002010BD10B5044600F0A4
:104D2000EBFF002804D02068BDE81040FDF7B0BAC2
:104D300010BDFDF7C9B900002DE9F04100244FF086
:104D4000804500212846FFF7FFF921492846FFF753
:104D50001AFA2048A8602813FFF758FD032068605E
:104D60000020E8661C4E04EB440156F83100A842CE
:104D700010D106EBC1014A79FF2A0BD08B79FF2BAA
:104D800008D0164F002007EBC21242F82300C87962
:104D9000FFF7BCFC641CE4B2052CE4D32846FFF703
:104DA00011FA296841F38071491C0029F9D0A86ED5
:104DB000A86601212846FFF7C5F91F20FFF74AFF23
:104DC00000212846BDE8F0414FF00042FFF7F2B95C
:104DD00080F0FA020D0000482015000200800F400C
:104DE0002DE9F0410024204D00212846FFF7ACF9C1
:104DF0001E492846FFF7C7F91D49A9601D4E04EB5F
:104E0000440156F83100A84210D106EBC1014A799D
:104E1000FF2A0BD08B79FF2B08D0174F002007EB10
:104E2000C21242F82300C879FFF770FC641CE4B298
:104E3000052CE4D32846FFF7C5F9296841F38071B2
:104E4000491C0029F9D0A86EA86601212846FFF761
:104E500079F92320FFF7FEFE00212846BDE8F04146
:104E60004FF00042FFF7A6B90000084080F0FA02B8
:104E7000120000482015000200800F4010B5FFF717
:104E80005BFFBDE81040FFF7ABBF0000012000F062
:104E90006DFC072102A000F0F9FA00BFFDE7000059
:104EA0004552524F52210D0000F0CCFA1BA000F0E9
:104EB000EFFA052000F05AFC00F02EFC1CA11FA008
:104EC00000F0E6FA00F086F820A11CA000F0E0FA5D
:104ED0002021012000F070FD00F05EFD02461EA1C1
:104EE00020A000F0D5FA23A000F0D2FA062000F0AE
:104EF00035FC24A000F0CCFA00F0A0FF4FF47A704B
:104F0000FDF7B6F8022000F0F5FD024612A115A04B
:104F100000F0BEFA3220FDF7ABF8F3E7202A204973
:104F20006E697469616C697A696E672E0D0A00009A
:104F3000496E6469636174696F6E3A00252D31357D
:104F40002E313573206F6B2E0D0A0000434C492023
:104F50004150503A000000004E524632344C30313D
:104F600000000000252D31352E31357320253032DB
:104F7000580D0A00202A2052756E6E696E672E0D3C
:104F80000A00000053746174653A207374616E64A2
:104F900062792E0D0A00000010B50D20FFF73CF9D4
:104FA0000C20FFF739F90D242046FFF7E1FB2046DE
:104FB000FFF7F0FB00F09EFAFFF760FF00F0E6FA63
:104FC00001F02CF900F024FF00F082FFBDE8104052
:104FD00000F0FEBF10B500F0C6F9064A00210648F1
:104FE000FDF75CFE0549086008B1012010BD0020F6
:104FF00010BD000070630000015000001815000291
:10500000134D00240A20FDF733F880211048FBF7E8
:105010001CFD80210E4800F0FBF90328F2D32C542C
:105020000B490CA000F034FA094880218030FBF7CE
:105030000CFD074980228031054800F095F90028D1
:10504000E0D0034903A0803100F022FADAE7000043
:105050005B17000225730D0A0000000070B50024E4
:10506000084E06EB04156868FBF759FC022803D9C3
:1050700005A0696800F00CFA641CE4B2042CF0D3BB
:10508000002070BD9463000025730D0A000000002D
:1050900010B507A000F0FCF90DA210A112A000F0BD
:1050A000F7F91748016817A000F0F2F9002010BDC9
:1050B000446576696365202E2E2E2E2E2E204453B5
:1050C0002D3220436F6E74726F6C6C65720D0A0026
:1050D00031373A32353A3534000000004A616E20EB
:1050E00033302032303138004275696C64202E2E06
:1050F0002E2E2E2E2E2025732025730D0A00000043
:105100009C150002436F726520436C6F636B202E09
:105110002E20256C64204D487A2E0D0A00000000D8
:1051200038B51446002000906A460121204600F060
:10513000DBF8D0B1FBF7BAFB45B26A460221204644
:1051400000F0D2F898B1FBF7B1FB44B22946002039
:1051500000F0E0FE2146012000F0DCFE2246294658
:1051600004A000F095F9002038BD002038BD0020D3
:1051700038BD0000506F696E74657220256420256B
:10518000642E0D0A00000000F8B5154600200090BE
:1051900002246A460121284600F0A6F8061E07D020
:1051A0009DF800202BA13046FBF78DFB10B102E0EB
:1051B0000020F8BD00249DF8002027A13046FBF711
:1051C00082FB00B90124022C16D06A46022128462F
:1051D00000F08AF8061E11D09DF8002020A130466C
:1051E000FBF771FB60B19DF800201FA13046FBF773
:1051F0006AFB90B10020F8BD0020F8BD0020F8BD8A
:1052000021461AA000F044F9204600F0BFFE2146D6
:105210001CA000F03DF90020F8BD6A460321284695
:1052200000F062F868B1FBF741FB45B22946204621
:1052300000F070FE38B12A46214619A000F028F986
:1052400006E00020F8BD2A4621461DA000F020F906
:105250000020F8BD70616E0074696C74000000007D
:105260007465737400000000736574005465737492
:10527000696E6720736572766F2025642E2E2E0D61
:105280000A00000054657374696E67207365727656
:105290006F20256420697320646F6E652E0D0A00EF
:1052A000536572766F20256420616E676C6520738C
:1052B000657420746F202564206465672E0D0A00D4
:1052C000536572766F20256420616E676C6520736C
:1052D000657420746F202564206465672E6661699B
:1052E0006C65642E0D0A000030B5002300250024F3
:1052F00014701EE0401C04781CB1202CFAD100E090
:10530000401C04780CB1202CFAD004789CB15B1CB2
:10531000DBB28B420DD1054603E01178491C1170B8
:10532000401C017809B12029F7D1107818B900255F
:1053300001E08B42DFD3284630BD02460020002129
:1053400003E0202B09D00021521C1378002BF8D148
:10535000002901D0401E40B270470029F4D1401C02
:1053600040B20121F0E770472DE9F05F80468A46A0
:105370009346002400250126224F07EB0410D0F8A5
:1053800000904846FBF7CBFA024618F802002028A6
:1053900000D020B949464046FBF795FA80B1641C1D
:1053A000E4B2042CE9D3022D1AD0012D1FD05A46A5
:1053B00015495046FBF7D2FA01263046BDE8F09F6A
:1053C000012507EB041999F90C000028EBDB404696
:1053D000FFF7B3FF99F90C108842E4D00225E2E709
:1053E0005A460A495046FBF7B9FA0126E5E707EBAA
:1053F00004108368002BE0D0424659465046984737
:105400000646DAE794630000546600000066000078
:10541000F8B505460E46002400200090012168469C
:1054200000F04AFF012803D00120FCF721FEF5E738
:105430009DF800000D2803D02855641CB442EDD31C
:105440002046F8BD10B5012100220846FDF7C8FB33
:105450000349086008B1012010BD002010BD000004
:105460000C1500020FB410B503ABFE210648029ADA
:10547000FAF72AFF81B2044A00205054104600F087
:1054800025FF10BC5DF814FB5C16000200F01EBF87
:105490000FB438B50D4D4FF47A712868FDF770FBE5
:1054A00000280FDB05ABFE210948049AFAF70CFF30
:1054B00081B207480024445400F008FF0094286893
:1054C000FDF7A0FB38BC5DF814FB00000C150002D2
:1054D0005C1600020549884201D131207047044919
:1054E000884201D1322070473320704700000440C9
:1054F000004004402DE9F04100244FF0E0573846C9
:10550000FEF776FF30220F494A620A614A610E4E69
:10551000384606EB840516F82410AB786A78FEF757
:105520007DFFA978012906D116F824106878EA7859
:1055300007EB41110A54641CE4B2142CE8D3BDE813
:10554000F081000080800F40FC630000064A4FF0AD
:10555000E05312F8201002EB80000122407803EBA8
:1055600041110A5470470000FC630000064A4FF0E6
:10557000E05312F8201002EB80000022407803EB89
:1055800041110A5470470000FC63000010B5114936
:1055900080208865C8658420FFF7B8F88320FFF76E
:1055A000B5F80D4C2046FEF762FF272161610B49DB
:1055B0002046FEF743FF216801F01F0141F0010181
:1055C000216007494FF080700860BFF34F8FBFF331
:1055D0006F8F10BD00800F4000000540801A06004C
:1055E00080E100E00220FFF7B1BF0220FFF7BEBF5D
:1055F00010B500F0ADF800F068F8BDE81040FFF716
:10560000F4BF10B500F0A4F800F05FF8BDE810405A
:10561000FFF7EBBF10B500F09EF800F056F8FFF76B
:10562000E1FF4FF4FA70FCF723FD00F091F800F071
:105630004CF8BDE81040FFF7D5BF10B500F088F872
:1056400000F046F8BDE81040FFF7CCBF10B500F001
:105650007FF800F03DF8FFF7C5FF3220FCF708FDAA
:1056600000F076F800F031F8BDE81040FFF7BABF5F
:1056700010B500F06DF800F02BF8BDE81040FFF712
:10568000B1BF10B500F064F800F01FF8BDE810409D
:10569000FFF7A8BF10B500F05EF800F016F8BDE8FF
:1056A0001040FFF79FBF10B500F052F800F00DF862
:1056B000FFF79BFF3220FCF7DBFC00F049F800F01D
:1056C00004F8BDE81040FFF78DBF0120FFF73EBF93
:1056D0000120FFF74BBF00000E480078092806D2D2
:1056E000DFE800F00507090B0D0F11131500FFF798
:1056F000C8BFFFF7CFBFFFF7A0BFFFF779BFFFF726
:1057000080BFFFF7B5BFFFF7CEBFFFF79FBFFFF723
:1057100081BF00001015000210B50A4B00220121C4
:105720000948FDF7CDFA0949486030B14FF47A7164
:10573000FDF7DEFA18B1002010BD002010BD0120D9
:1057400010BD000060630000D95600001015000273
:105750000020FFF7FBBE0020FFF708BF72B602492A
:10576000087062B6704700001015000210B572B6DE
:10577000034908700020FFF7AFFF62B610BD0000BC
:105780001015000210B5FFF73DFAFFF705FC0420E5
:10579000FFF7ECFF2BA0FFF765FE2BA0FFF762FEE3
:1057A0002FA0FFF75FFE34A0FFF75CFE38A0FFF7E5
:1057B00059FE3DA0FFF756FE41A0FFF753FE46A05D
:1057C000FFF750FE48A34BA24DA14FA0FFF74AFEA2
:1057D000524853A1026855A0FFF744FE58A15AA0B1
:1057E000FFF740FEFCF770FC28B15BA15EA0FFF75D
:1057F00039FEFFF74BFB58A153A0FFF733FE5E4A7B
:1058000000215E48FDF74AFA5D49086040B15DA19C
:105810004DA0FFF727FEFCF73DFC012806D00EE067
:1058200058A151A0FFF71EFEFFF730FBFCF75EFC0E
:1058300028B156A14CA0FFF715FEFFF727FB00206B
:1058400010BD00000D0A000020202020202E2D2752
:105850002F202C5F2020272D2E2020200D0A000035
:10586000202020202F202028202028203E202029F2
:1058700020205C200D0A0000202020205C20202019
:10588000272D2720272D272020202F200D0A00003C
:1058900020202020272D2E2E5F5F205F5F2E2E2DB3
:1058A00027202020200D0A0020202020202020203A
:1058B00020202F5F5C202020202020200D0A0000C7
:1058C00020232044532D3220436F6E74726F6C6C12
:1058D000657220230D0A0000202A20426F6F746930
:1058E0006E672E0D0A00000031373A35393A3336EB
:1058F000000000004A616E20333020323031380021
:105900004275696C643A0000252D31352E313573AE
:105910002025732025730D0A000000009C1500024D
:10592000436F726520436C6F636B3A00252D3135F0
:105930002E31357320256C6420487A2E0D0A000024
:105940004253503A00000000252D31352E31357379
:10595000206F6B2E0D0A000052544F53204B65727E
:105960006E656C3A00000000252D31352E313573FF
:10597000206572722E0D0A003C630000A94E0000E3
:10598000081500024150503A000000004F532053C8
:10599000746172743A00000008B500200090132072
:1059A000FFF7E4FD0121684600F054FB1320FFF7E8
:1059B000CDFD9DF8000008BD70B506460D4600F00F
:1059C00063F8202D00D92025002E58D000212D4C21
:1059D000617025700320A0700120E07000F0CEF807
:1059E000304600F09BF82178112000F056F921781C
:1059F000122000F052F92178132000F04EF921789E
:105A0000142000F04AF92178152000F046F9217899
:105A1000162000F042F9A178E07800F08DF8082116
:105A2000002000F03AF93F21012000F036F93F2133
:105A3000022000F032F94F21042000F02EF900215D
:105A40001C2000F02AF91320FFF790FD0121E1202E
:105A500000F048FB1320FFF779FD1320FFF786FDC8
:105A60000121E22000F03EFB1320FFF76FFD7021C3
:105A7000072000F012F900F011F8012070BD01219B
:105A8000A5E700001C15000210B51320FFF75EFD0E
:105A9000BDE810401220FFF769BD000010B51220CC
:105AA000FFF764FD1320FFF761FD0121E22000F004
:105AB00019FB1320FFF74AFD7021072000F0EDF8D5
:105AC0000B21002000F0E9F81220FFF73FFD002035
:105AD00000F010F80246BDE81040002101A0FFF7D9
